:020000040001F9
:10D00000703D0020A5D10100BFD10100C1D10100B8
:10D010000000000000000000000000000000000010
:10D02000000000000000000000000000C3D101006B
:10D030000000000000000000C5D10100C7D10100C0
:10D04000C9D10100C9D10100C9D10100C9D1010074
:10D0500003E601000000000093E50100C9D10100D2
:10D06000C9D10100C9D10100C9D10100C9D1010054
:10D07000C9D10100C9D10100C9D10100C9D1010044
:10D08000C9D10100CF420200C9D10100C9D10100BC
:10D09000E9420200094E0200D55A0200C9D101003E
:10D0A000C9D10100C9D1010000000000000000004A
:10D0B0000000000000000000000000000000000070
:10D0C00000F002F800F032F80CA030C8083824183C
:10D0D0002D18A246671EAB4654465D46AC4201D1B0
:10D0E00000F024F87E460F3E0FCCB64601263342B0
:10D0F00000D0FB1AA246AB4633431847AC9E000053
:10D10000CC9E00000023002400250026103A01D305
:10D1100078C1FBD8520700D330C100D50B607047EF
:10D120001FB5C046C0461FBD10B510BD09F0CFFDEC
:10D130001146FFF7F5FF01F02EFC09F0E7FD03B4FF
:10D14000FFF7F2FF03BC09F0EBFD0000401E00BF3B
:10D1500000BF00BF00BF00BF00BF00BF00BF00BFD7
:10D1600000BF00BF00BFF1D17047000070B5054699
:10D170000C46164602E00FCC0FC5103E102EFAD218
:10D18000082E02D303CC03C5083E042E07D301CCDE
:10D1900001C5361F03E021782970641C6D1C761EC2
:10D1A000F9D270BD03210C4802680A4302600B48A3
:10D1B00002680A4302600A4880470A480047FEE7BF
:10D1C000FEE7FEE7FEE7FEE7FEE700000648074948
:10D1D000054A074B704700002405004054050040F5
:10D1E0006DD20100C1D0010070330020703D0020DD
:10D1F000703300202748018CC9B201290BD1818CE2
:10D20000090708D1018D0906090F042903D1808D72
:10D210000006000F01D000207047012070471D4913
:10D22000088CC0B201281DD1888C00071AD1088D46
:10D230000006020F03D18A8D1206120F03D0000FD1
:10D24000012802D005E0012070478A8D1206120FD6
:10D2500002D0032802D005E001207047888D000627
:10D26000000F01D0002070470120704710B5FFF774
:10D27000D6FF002805D0094907484860C813084967
:10D280008861FFF7B7FF002802D0064901208860B7
:10D2900010BD0000C00F00F0DFFF07C00005004018
:10D2A000006C00400006004002465D49087D0028F1
:10D2B00008D000200B181B79934204D0401CC0B248
:10D2C0000828F7D3FF20704718B404466946204663
:10D2D000E7DF694608788007800F009002280BD3AB
:10D2E0002046C5DF69462046E7DF684600788107AB
:10D2F000890F00910229F3D218BC704770B5002045
:10D30000FFF7D2FF0546FF2D11D0454C208840087D
:10D310004000208000206074A074E0742846FFF76D
:10D32000D3FFFF2061190871207D401C207570BD5E
:10D3300082B002783B49515C082905D110216A4628
:10D34000117000780821C7DF02B0704701783548B6
:10D35000085C002800D1D1E7704770B483B0044660
:10D360002178E0784E2803D04F2801D0502849D1A9
:10D370002B4D68180079002844D1687C00260028CD
:10D3800019D0C8B26B4601AA02A9D4DF6846008949
:10D39000002810D024494A8B824207D068804883F5
:10D3A0002248012201681203114301606E7428882B
:10D3B000012108432880287B617A884211D1687B4B
:10D3C000A17A88420DD1A87BE17A884209D1287CD4
:10D3D00000280ED0401EC0B22874002809D1EE7378
:10D3E00007E0207BE873F02801D9F020E8731020D3
:10D3F0002874607A2873A07A6873E07AA8730A2088
:10D40000A874EE7403B070BC70474178012904D051
:10D41000032903D0802902D19FE797E788E7704767
:10D42000C8250020CC250020342600201824002008
:10D43000FE48002101600121FD4A8905916000211B
:10D44000C9438160C16001617047F84A0023D3611C
:10D45000F8488168012903D000BF81680129FBD108
:10D4600083609069C0B27047F04AD061F14881682A
:10D47000012903D000BF81680129FBD1002181600F
:10D4800090697047E948192181601821C16017210E
:10D490000161012109074162E74A06215161012129
:10D4A000E34B8A05DA600160704700B5FFF7EAFFD9
:10D4B0000520FFF7D9FFFFF7C8FF0346FFF7B8FFC6
:10D4C000184600BD00B5FFF7F0FFC007C00F00BD54
:10D4D00070B504460E461546FFF7F4FF002804D049
:10D4E00000BFFFF7EFFF0028FAD1FFF7CBFF0320C3
:10D4F000FFF7BAFF2002000EFFF7B6FF2004000E70
:10D50000FFF7B2FFE0B2FFF7AFFF0024002D05D90F
:10D51000FFF79BFF3055641CAC42F9D3FFF788FF3F
:10D5200070BD08B504226946C448FFF7D1FF0098D2
:10D5300008BDC34880224169114300224271C27173
:10D54000032282710122120311434161704700B529
:10D55000FFF798FF0620FFF787FFFFF769FFFFF748
:10D56000A4FF8007F4D500BD70B50024FF25F53574
:10D57000FFF7A8FF002805D0012000F0B9FD641CCA
:10D58000AC42F5D370BD10B50403FFF7EDFFFFF714
:10D59000DEFFFFF777FF2020FFF766FF2002000E77
:10D5A000FFF762FF2004000EFFF75EFFE0B2FFF717
:10D5B0005BFFFFF73DFF10BD70B506460D461446F4
:10D5C000FFF7D2FFFFF7C3FFFFF75CFF0220FFF773
:10D5D0004BFF3002000EFFF747FF3004000EFFF74D
:10D5E00043FFF0B2FFF740FF0023002C05D9E85CB1
:10D5F000FFF73AFF5B1CA342F9D3FFF719FF70BD99
:10D6000010B590490C200860012189488905816086
:10D61000C900816049108160C910C1608A48018DCC
:10D62000042211430185864903208870052000F0FB
:10D630005FFD10BD10B584B08348008D4007002801
:10D6400003DA7F490320887001E0FFF7D9FF00F07B
:10D6500056FB0020FFF797FF082202A90020FFF7E2
:10D6600037FF002002AC215CFF2902D0002004B06B
:10D6700010BD401CC0B20828F5D300202054401C27
:10D68000C0B20828FAD3082202A90020FFF794FFAD
:10D69000082269460020FFF71BFF00206946225C34
:10D6A0000B5C9A4202D0002004B010BD401CC0B2F6
:10D6B0000828F4D3012004B010BD644800210160A3
:10D6C00041608160C160016141618161C16101624C
:10D6D00041628162C162704710B558215C4808F010
:10D6E0007AFB5C485A4902880A8082788A70C0783E
:10D6F000C8705548018D78229143018510BD50496D
:10D700000872FF2248690132104300224A71032245
:10D710008A71CA79521ECA710122120310434861EC
:10D720007047474AD079411CC9B2072802D25072CB
:10D73000D1717047507A062804D0401C5072D171C4
:10D74000507ADCE700205072F9E730B440490A888B
:10D7500002808A788270CA78C2703F4B5A684260F1
:10D760001A6882609A68C260DA6802614A68426137
:10D770008A688261CA68C2610A6902624A69426251
:10D780008A698262CA69C2624A6A4263CA6A8263F9
:10D790000A6BC2634A6B02648A6B4264CA6B82641E
:10D7A000096CC1642D4A0146148940310C825489A8
:10D7B0004C8294888C82D488CC82147B0C76527BE9
:10D7C0004A7600228A76204A148D2407002C01DA3A
:10D7D00001248C76148DE40603D58C7E02252C431F
:10D7E0008C76148DA40603D58C7E04252C438C7670
:10D7F000128D520603D58A7E202422438A769A7F90
:10D80000CA76DA7F0A77164A13784B7753788B7784
:10D810009378CB77D178603001701179417051796C
:10D8200081709179C17030BC7047000000350040B4
:10D83000000500500031004040350040FCF03F0042
:10D84000042400205C070050082A0020C82A002079
:10D85000702A00204E24002034260020B02A002008
:10D860005426002030B4FE490A463CCA3CC00A4651
:10D8700010323CCA103810303CC04A6A2038096A5D
:10D880004262016230BC7047F0B5A7B0F54EF64D6C
:10D8900070690327002806D0288D400701D5B7708E
:10D8A00001E0FFF7ADFE706900240106002918DAD7
:10D8B000FFF708FE002812D17179EC480818FFF72D
:10D8C00062FE7079401CC0B27071B771072806D132
:10D8D000706980218843B47109010843706127B0E1
:10D8E000F0BDE34EC10516D5FFF7ECFD0028F6D1DB
:10D8F000DC4DDE48297A0818FFF745FE6879401CA0
:10D90000C0B26871AF710128E9D16869B04368613C
:10D91000AC7127B0F0BDD34F410534D5FFF7D2FD30
:10D920000028F6D1D3480579002D00D118256D1EA9
:10D93000787AD149000340194618012201A93046DE
:10D94000FFF7C6FD68460079FF2813D10194012234
:10D9500001A93046FFF730FEA801797A09030818BB
:10D96000C649441802A8FFF77DFF282202A92046D5
:10D97000FFF722FE01207969800281437961FFF778
:10D980009CFE27B0F0BD81051BD5FFF79BFD00284D
:10D99000F7D164210CA808F01EFA0CA8FFF7D5FEF9
:10D9A000787AB7490003401864220CA9FFF704FEF7
:10D9B000012178694902884389000843786127B0CA
:10D9C000F0BD01050CD5FFF7ACFEFFF785FEFFF7B4
:10D9D00074FE01207969C0028143796127B0F0BDEE
:10D9E0003A46C107202700297ED0D1781546002964
:10D9F0000DD0FFF767FD00280ED028790028EDD163
:10DA00006869400840006861EC7027B0F0BD4008CC
:10DA10004000686127B0F0BDE87801281CD00228DA
:10DA200021D0C10642D50407240F20029549259034
:10DA30004018FF2201329449FFF74AFD002189482E
:10DA4000924E4289904D6B1858786F5C0002C01955
:10DA500090420ED1304611E08D48FFF794FD102022
:10DA6000E87027B0F0BD8B48FFF78DFDEF7027B051
:10DA7000F0BD904202D9B04200D0401E6854000A66
:10DA80005870891CFF29DED9834A25988018FF2207
:10DA900069180132FFF790FD7248C178491CC170C6
:10DAA000082CE4D10221C17027B0F0BD810624D535
:10DAB00005072D0F78482F02381832467249FFF7B4
:10DAC00007FD7048381832466F49FFF775FD654805
:10DAD0006449C078401CC870082DE5D108464169EA
:10DAE00049084900C47000E00EE002221143416180
:10DAF000418A491E418227B0F0BD68694008400054
:10DB00006861EC7027B0F0BD1446C1060CD5FFF774
:10DB1000D9FC0028F6D16069102188436061A069B2
:10DB2000FFF731FD27B0F0BD810613D5FFF7CAFC22
:10DB30000028F7D1A0696178000349014018FF303F
:10DB400001306169B943616114225449FFF734FD22
:10DB500027B0F0BD410624D5FFF7B4FC0028F7D16B
:10DB6000A069000361694022914361614D4A4C49BB
:10DB7000134678CB483178C11346103378CB5839E7
:10DB8000583178C1956A546A136A6839D26A0D6748
:10DB9000CC668B664A6730224831FFF70DFD27B00F
:10DBA000F0BD410710D5FFF78DFC0028F7D1606963
:10DBB000042188436061E069FFF7E5FC60690821A2
:10DBC0000843606127B0F0BD010717D5FFF77AFC65
:10DBD0000028F7D1E0690103E0891038C217120F5D
:10DBE000101800110002401832462F49FFF7E4FCDC
:10DBF000616908208143616127B0F0BDC10412D57D
:10DC0000FFF760FC0028F7D1012160690903884310
:10DC100060612648FFF7B7FC0121606949030843AA
:10DC2000606127B0F0BD81044ED5FFF74BFC0028A2
:10DC3000F7D10121606949038843606134221C499E
:10DC40001148FFF793FA1B481B4901601B481C4908
:10DC5000016032460C491B48FFF7AEFC27B0F0BD0F
:10DC6000C82A002004240020082A0020F60300000F
:10DC7000000100004E240020E0603F0000613F00F2
:10DC800000603F0000E03F00A8260020FFFF0000EA
:10DC9000FD030000FE03000000D03F00E827002045
:10DCA00060260020E0250020A8270020FF030000B8
:10DCB00034260020A027002078563412A427002004
:10DCC0002003152000F03F004004C7D5FFF7B2FC49
:10DCD00001280ED0288DF14908402885012160696E
:10DCE000890388436061EE4801783943017027B0A9
:10DCF000F0BD288D0121890208432885EEE770B523
:10DD0000E84D287DC0070DD000247D26F600FFF7E2
:10DD1000BBFD287DC00705D00A2000F0E9F9641C8E
:10DD2000B442F4D3FFF720FC70BD10B5DE48008D7F
:10DD3000DC4C4007002802DA0320A07001E0FFF766
:10DD40005FFCFFF7DCFFD948FFF71DFC0020608275
:10DD5000D748A0810121606909030843606110BDB3
:10DD6000F0B5D04D6869810700292DDAC0072BD1A5
:10DD7000FFF7A8FB002827D1686902218843686162
:10DD80000020A881FFF77EFB0320FFF76DFB3F20FB
:10DD9000FFF76AFBE020FFF767FB0020FFF764FB5B
:10DDA0000024C34EFFF751FB0746FFF74EFB00026E
:10DDB000C019C049884202D1A889401CA881641CAE
:10DDC000B442EFD3FFF734FBF0BD70B50646B6485A
:10DDD000008D03254007B34C002801DAA57001E04F
:10DDE000FFF70EFC0121E170668160690843606104
:10DDF000257170BDF8B504460E46FFF780FFAE49A9
:10DE000060004518FFF73EFB0320FFF72DFB2802BB
:10DE1000000EFFF729FB2804000EFFF725FBE8B2F0
:10DE2000FFF722FBA24FBC420BD2FFF70EFB0546C9
:10DE3000FFF70BFB00024019B04202D0641CBC4249
:10DE4000F3D3FFF7F5FABC4201D39A48F8BD204658
:10DE5000F8BDF8B500269448008D4007002803DA85
:10DE600090490320887001E0FFF7CAFBFFF747FFE6
:10DE7000FFF708FB0320FFF7F7FA3F20FFF7F4FA5C
:10DE8000E020FFF7F1FA0020FFF7EEFA0024894FB7
:10DE9000FFF7DBFA0546FFF7D8FA00024519BD4245
:10DEA00003D06D1CB54200D92E46641C80488442C4
:10DEB000EED3FFF7BDFA3046F8BDF8B5FFF7C9FF5E
:10DEC000784D80B26882002815D00024002812D92D
:10DED000784EA1B20020FFF78DFFB04207D00003BB
:10DEE00004226946FFF7F4FA0098401C04D0641C31
:10DEF000688A8442EDD3F8BDA0B2FFF766FF686977
:10DF0000002806D0FFF7C0FCFFF72AFF6869002849
:10DF1000F8D1688A8442DCD3F8BDF8B56248008D38
:10DF2000604F4007002802DA0320B87001E0FFF7D5
:10DF300067FB0020F871FF20787200245F4E2003F9
:10DF4000801904226946FFF7C3FA0098401C03D0E9
:10DF5000F879401CF87103E0787AFF2800D17C72D0
:10DF6000641C072CEBD3787AFF2805D0F979891C3B
:10DF7000F971FFF7C4FB1EE00025ED4300242003E8
:10DF8000801904226946FFF7A3FA00980104020AE7
:10DF9000FF231B021A400A43000E1043A84201D27D
:10DFA00005467C72641C072CE9D3F879401CF87193
:10DFB000787AFFF7A4FBFFF78FFBFFF77EFBF8BD36
:10DFC00001213F48490581603E4A0321116001213A
:10DFD0008905C160C900C1608910C1604900C16084
:10DFE0003148018D04229143018570473649032051
:10DFF0000860091D086035490860091F0860DFE7EF
:10E0000010B5FFF7F3FFFFF7FBFAFFF78AFA304985
:10E0100088420ED134222F492F48FFF759FAFFF7D3
:10E020007CFFFFF74AFF1F4802224169114341610B
:10E0300010BD28492948086029484860294A8A6053
:10E04000294ACA600861492088827A20C8826920EA
:10E05000088300224A8323208877AF20C87723488B
:10E060004D2303704270BA2383703C23C370822314
:10E0700003714B234371FF238371C2710823037221
:10E080001E2343728272FE2088838005C862086363
:10E09000FFF74BFEFFF74DFA10BD0000FFFB00003D
:10E0A0007024002004240020082A0020FE03000021
:10E0B000F6030000FFFF000000E03F0000603F00AB
:10E0C000000500505C0700505407005064070050E2
:10E0D000200315203426002000F03F0040420F00AE
:10E0E000581B000080841E00302A000054260020A7
:10E0F0001921C9014843002802D0401E0028FCD144
:10E100007047F8B5F7490C2008600422081D02602A
:10E11000F54904200860091D0860F44804210160E5
:10E12000F34904200860091D0860F2490860091DD0
:10E130000860091D0860F04804210160EF490420CF
:10E140000860EF490860091D0860EE48042101607D
:10E15000ED4803250560ED4C8020E0602069C00596
:10E16000C30FEB4EEB490020002B07D0338DEA4F55
:10E170003B4033850D604021E16007E0338D01278E
:10E180003F033B43338508607B010B60D54BE3497C
:10E190001D6001231E02E6600D60A3600B1D186068
:10E1A0001B1D1D60A2601A1D1060DD4B10221D603A
:10E1B000A2601A1D1060DB4A10604861C86002F05E
:10E1C00036FAD9480560001F05603002A060401093
:10E1D000A06000F0BBFCF8BD10B4D04B032284005B
:10E1E000E41822608C00E3181A6001231A4682406A
:10E1F000C64882608B408360C260C36010BC7047B9
:10E2000010B4C64C032283001B191A6001231A465E
:10E210008240BE48C2608B408360826010BC704701
:10E2200010B4BE4C032283001B191A60012213464E
:10E230008340B64883608A408260C26010BC7047E9
:10E2400010B4B64C032283001B191A600122134636
:10E250008340AE48C3608A408260C26010BC704791
:10E2600070B40446AD4B0C20A200D2181060002000
:10E27000002201252B46A54E8B404006000EB360C0
:10E280003169E140C907C90F002900D02843F36074
:10E29000521CD2B2082AF0D370BC7047F0B49C462E
:10E2A0009E4C032385002F193B6000250124264640
:10E2B0008640964B8C40DE60110600D59E60194664
:10E2C0009C60CC6051060A0E6D1CEDB2082DF2D395
:10E2D000614600290DD10C2139609C601969C1404B
:10E2E000C807C00F002803D0DC60F0BC01207047D5
:10E2F000DC60F0BC00207047FFB50B9F099E0A9DB3
:10E300001C4601990098FFF767FF0023029A0199C4
:10E310000098FFF7C3FF01281DD000232246019972
:10E320000098FFF7BBFF01281CD00024002D0BD95B
:10E33000325D3B4601990098FFF7B0FF012818D0E5
:10E34000641CE4B2AC42F3D301990098FFF758FF84
:10E35000012004B0F0BD01990098FFF751FF0020A3
:10E3600004B0F0BD01990098FFF74AFF002004B007
:10E37000F0BD01990098FFF743FF002004B0F0BD05
:10E38000FFB50A9E099D14461F4601990098FFF7A4
:10E3900023FF0023224601990098FFF77FFF012801
:10E3A00025D00023324601990098FFF777FF012816
:10E3B00024D001990098FFF70FFF01200443224663
:10E3C000002301990098FFF769FF01281DD0002460
:10E3D000002D29D96E1E01990098FFF741FF38558D
:10E3E000B44219D001990098FFF72AFF18E001996B
:10E3F0000098FFF705FF002004B0F0BD01990098D8
:10E40000FFF7FEFE002004B0F0BD01990098FFF771
:10E41000F7FE002004B0F0BD01990098FFF700FF5F
:10E42000641CE4B2AC42D6D301990098FFF7E8FE31
:10E43000012004B0F0BD08B5002003223B4B11467B
:10E44000009005F052FF002804D0FF2138A20231CD
:10E4500000F03FF908BD70B5394E01210022890353
:10E46000306805F0F4FF002804D0FF2130A21A31F3
:10E4700000F02FF9264C208DC00411D401256D0326
:10E4800000222946706805F0E2FF002804D0FF2131
:10E4900027A2203100F01DF9208D2843208570BD72
:10E4A000208D28490840208570BD10B5264A0121DD
:10E4B000234805F075FF002804D0FF211CA20A3173
:10E4C00000F007F9214A0121214805F069FF0028E1
:10E4D00004D0FF2116A2103100F0FBF8FFF7BBFFBC
:10E4E00010BD0000200700502807005030070050E2
:10E4F0003407005044070050500700506807005090
:10E5000070070050780700501C07005000050050AD
:10E51000082A002018070050FFEF000000070050F5
:10E52000100700506C0700504007005008280020DA
:10E530002E2E5C68617264776172652E6300000044
:10E5400030240020FFDF0000670402008305020082
:10E550003424002070B5334C206805F0A1FF00285A
:10E5600004D0FF21304A373100F0B3F82F4D288D09
:10E5700080040DD5606805F093FF002804D0FF21CA
:10E58000294A3D3100F0A5F8288D29490840288501
:10E5900070BD70B52748C16B00292CD00021C16324
:10E5A000254C6069254D8003800F11D1E068800300
:10E5B000800F0DD02869C006C00F002808D1204860
:10E5C0000078C00702D002F078F801E002F0B2F85B
:10E5D000A0698003800F0ED028694006C00F002874
:10E5E0000AD0A069032109040843A06115488022CC
:10E5F00001891143018170BDA06913490840A061E0
:10E6000070BD10B511488069C0B2114A00219160F7
:10E610000B490978C90702D002F084F810BD02F056
:10E620001EF910BD3024002030E50100082A00202A
:10E63000FFDF00004061004000070050000500506F
:10E640005B240020F82A0020FFFF02000045004064
:10E650000041004010B52C20FE4900240C70491CDC
:10E66000401E80B20028F9D11620FB490C70491CCD
:10E67000401E80B20028F9D13420F8490C70491CA2
:10E68000401E80B20028F9D1F34908220A75FF2202
:10E690000B181A71401C80B20B7D8342F8D887207A
:10E6A000EF49400108800020EE49C0430880EE4851
:10E6B00001F055FEFFF7A4FCEC480480EC48032170
:10E6C000C170EC493C20087010BD10B506F0D8F8B8
:10E6D00010BD704708B500235022E749082007F015
:10E6E000C3F9002803D0E5A25A21FFF7F2FF00206A
:10E6F00000900090684660DF002803D0DFA261210F
:10E70000FFF7E7FFE04807F0CDF9002803D0DBA2D0
:10E710006521FFF7DEFFDD4807F0CCF9002803D0C4
:10E72000D6A26921FFF7D5FFD94807F0CBF9002819
:10E7300003D0D2A26D21FFF7CCFF08BD10B5C548AC
:10E74000018D8905002919DA018DD24A1140018510
:10E75000D1480021C16003210904416101F060FF3B
:10E760000020CE49C0438860CD4910200860FFF7E3
:10E77000F1FE0A20FFF7BCFC34DF10BD40DF0028AB
:10E78000FBD0BEA28521FFF7A4FF10BD0A460146BB
:10E79000C4489EE700B583B0C3480A21007807F05B
:10E7A0001CFB30306A4610703031517002200290EC
:10E7B000BE486B46008802AA0021A4DF002803D0CF
:10E7C000AEA2C421FFF785FF03B000BDF8B5B8497C
:10E7D0000869C006C00FFD26B64D00285BD0B648BC
:10E7E0000078002857D12878C20711D0B3480078A4
:10E7F000002850D1287840084000287002F01CF909
:10E800002878C007F6D101F04BFF01F026FF42E067
:10E81000820708D53040287002F039F901F040FF36
:10E8200001F01BFF37E0A6480068002806D002F080
:10E8300094F901F035FF01F010FF2CE0A148A24A45
:10E8400000881288904206D002F05AF801F028FFA2
:10E8500001F003FF1FE008698006C00F00281AD1ED
:10E860009A49087882070BD5994A9A4B12781B78F7
:10E87000D21A9206920E202A0DD8304008700AE073
:10E8800040084000087000218348416103210904C9
:10E89000C16001F0E2FE2878010704D5F7210840A5
:10E8A0002870FFF777FF287841076ED5FB210840D5
:10E8B00028708948674C007800280AD08021874F4B
:10E8C00001280FD0022830D0032851D0042852D07C
:10E8D0005BE0208D000501D402F064F8012003F014
:10E8E00071FD52E0208D000609D4208D084320855B
:10E8F000012002F0A1FF3888794908403880208D36
:10E90000C0050DD577480089410604D500F034FADA
:10E9100001F03EFA39E0000737D401F039FA34E06B
:10E9200000F014F901F034FA2FE0208D000609D42C
:10E93000208D08432085012002F07EFF3888684939
:10E9400008403880208DC0050DD5664800894106F5
:10E9500004D500F011FA01F0A1F916E0000714D572
:10E9600001F09CF911E000F0F1F801F097F90CE0EA
:10E9700000F0FCF909E0012003F024FD00F043FA67
:10E98000208D01214902084320856878810701D53F
:10E9900030406870F8BD5549534848605449801765
:10E9A0008860C2074A603D49886004204860FFF7DC
:10E9B00091FEFFF740FD02F03AFAFFF74BFEFFF73A
:10E9C000A0FBFFF772FD01F069F903F03BFA0620A6
:10E9D0002ADF04202ADF012106202BDF002804D0B3
:10E9E000FF2126A27931FFF774FE012104202BDFDD
:10E9F000002804D0FF2121A27B31FFF76AFE062008
:10EA000026DF002804D0FF211CA27D31FFF761FE24
:10EA1000042026DF002804D0FF2118A27F31FFF751
:10EA200058FE62B601F031FE324D294E294F324C6C
:10EA300002F00AFA286800287DD130883988884297
:10EA40007FD11C48006800287BD11E4801881E48E1
:10EA5000008853E0082A0020C82500203426002022
:10EA60004C240020762400204E2400204224002044
:10EA7000D82B002040240020B82900202E2E5C6DC9
:10EA800061696E2E630000007B2302000BD401003D
:10EA9000CBE60100FFFD00000007005000430040EE
:10EAA00080E100E0EFBEADDE5A240020002500200A
:10EAB00000050050682400205C240020C5240020AC
:10EAC0006C24002064240020662400205B240020A5
:10EAD000622400206024002058240020C824002044
:10EAE000BFEF0000F82A0020DFFF07C0000500404C
:10EAF000006300401824002070240020814220D1AF
:10EB0000114800698006C00F00281AD0FFF716FED2
:10EB1000FFF75CFE01F048FA01F0B3FC01F037FDAD
:10EB200003F04BFD6078410604D5BF2108406070BA
:10EB300002F0C2F800E004E0FEF7A6FEFFF710F9CD
:10EB400076E700BFE4E700000005005070B584B030
:10EB50000F211020FFF754FB0F20012501460190E3
:10EB600003AB322200951020FFF70AFC47216846CC
:10EB70000173002403AE202332220F2110200096BF
:10EB800001950294FFF7B8FB6846047321233222F3
:10EB90000F211020009601950294FFF7ADFB684607
:10EBA0000473222332220F21102000960195029433
:10EBB000FFF7A2FB68460473232332220F211020A3
:10EBC000009601950294FFF797FB6846047324238F
:10EBD00032220F211020009601950294FFF78CFB42
:10EBE00068460473252332220F21102000960195D8
:10EBF0000294FFF781FB684604732E2332220F2113
:10EC00001020009601950294FFF776FB6846047386
:10EC1000302332220F211020009601950294FFF735
:10EC20006BFB6846047332231A460F2110200096AE
:10EC300001950294FFF760FB684604733323322288
:10EC40000F211020009601950294FFF755FB6846AE
:10EC50000473382332220F2110200096019502946C
:10EC6000FFF74AFB5821684601733A2332220F21ED
:10EC70001020009601950294FFF73EFB02216846A2
:10EC800001733B2332220F2110200096019502943C
:10EC9000FFF732FB0721684601733C2332220F2124
:10ECA0001020009601950294FFF726FB1421684678
:10ECB00001733D2332220F2110200096019502940A
:10ECC000FFF71AFBFC48018D2A021143018504B0AD
:10ECD00070BDF0B585B0002468460474012504AE0B
:10ECE000242332220F211020009601950294FFF771
:10ECF00003FB684604742E2332220F211020009655
:10ED000001950294FFF7F8FAEB4F388DC0040AD54D
:10ED100068460474252332220F21102000960195A5
:10ED20000294FFF7E9FA172069460874202332227B
:10ED30000F211020009601950294FFF7DDFADF48BD
:10ED4000C477DF480482388D80040DD5DD48006823
:10ED500005F0A6FB002803D0DBA26F21FFF7B9FC6A
:10ED6000388DDD490840388505B0F0BDD4484022D3
:10ED7000018911430181ACE7F0B585B0D04D412147
:10ED80002889884328814720694608740024012681
:10ED900004AF202332220F21102000970196029405
:10EDA000FFF7AAFAC548C4772C82CC480470C24D3C
:10EDB000288D4004400C2885288DC0040DD54020A6
:10EDC00069460874252332220F21102000970196EE
:10EDD0000294FFF791FA05B0F0BD288D8004FAD4B3
:10EDE0000124B848640300222146006805F02FFB87
:10EDF000002803D0B4A29421FFF76BFC288D204398
:10EE0000288505B0F0BDF0B585B0AB4C208DB44978
:10EE100008402085208D0025C004012704AE00286D
:10EE20000ADA68460574252332220F211020019743
:10EE300000960295FFF760FA684605742023322297
:10EE40000F211020019700960295FFF755FA208DAB
:10EE500080040DD59B48006805F022FB002803D0F4
:10EE600099A2B521FFF735FC208D9B4908402085EC
:10EE700005B0F0BDF0B49B494F7F8A790B7FCC7809
:10EE80000D794E79012F0FD0022F2FD01F0752D5A9
:10EE9000A64207D90B46DC785B791B1B012847D0BB
:10EEA00098188871F0BC7047DF060ED5AC42F9D9CE
:10EEB0008C4B1C79DB781B1B012803D098188871B8
:10EEC000F0BC70478B71F0BC70479B06FBD5B44219
:10EED000F9D9844B5C79DB781B1B012803D0981887
:10EEE0008871F0BC70478B71F0BC70471F070ED55E
:10EEF000A542F9D97B4BDC781B791B1B012803D079
:10EF000098188871F0BC70478B71F0BC70479B06F5
:10EF1000FBD5B542F9D9734B5C791B791B1B0128D2
:10EF200003D098188871F0BC70478B71F0BC7047A3
:10EF30008B71F0BC7047DB06FBD5AE42F9D9694B4B
:10EF40001C795B791B1B012803D098188871F0BCD1
:10EF500070478B71F0BC70475848018A491C018288
:10EF6000C189C1827047F3B581B00D46002D7DD0B7
:10EF70005D4F5A4C5048008D000478D50020207118
:10EF80005A480168491C016059494868401C48605A
:10EF90004B4A117AC90707D05549CB685B1CCB6037
:10EFA000798A491C798206E051498B685B1C8B6029
:10EFB000398A491C39824F49496800290ED03E4B95
:10EFC0001E8D36070AD4884208D3188D08210843BD
:10EFD00018854948402301781943017047493C206E
:10EFE00008710198002801D1FFF7B6FF1689B00714
:10EFF0000DD540485168808A0918516007F064FEB9
:10F000003C49C96A07F0B0FE07F01AFE26E0700717
:10F010000DD538485168C08A0918516007F054FE70
:10F020003449096B07F0A0FE07F00AFE16E0F0076E
:10F030000AD03048C08A07F047FE2E49096B07F016
:10F0400093FE07F0FDFD09E02A48808A07F03CFEA8
:10F050002849C96A07F088FE07F0F2FD23494A688B
:10F0600012184A60224A5169091801E0F7E047E0A6
:10F070005161F30706D0D3691B18D3617A6812185F
:10F080007A6005E093691B1893613A6812183A6038
:10F090001A4AD3881818D0801648006800287DD0F6
:10F0A000054A138DDB0679D4814277D3108D102168
:10F0B00008431085CEE00000082A0020782B0020AD
:10F0C000F82A0020342400202E2E5C73656E736FA6
:10F0D0007233672E63000000FFDF0000D82B002092
:10F0E000FFFE0000B82B0020C82A0020342A002090
:10F0F000702A0020342600206C2400203C240020AC
:10F100002078401CC0B22070002121710C2845D10C
:10F11000F748018D0122D20311430185F5480168AA
:10F120000C310160F44948680C304860F3490E899D
:10F13000F10707D0F049CA680C32CA60798A0C31ED
:10F14000798206E0EC498A680C328A60398A0C318F
:10F150003982EB49496800290ED0E54A138D1B0717
:10F160000AD4884208D3108D082108431085E54849
:10F170004022017811430170E3493C200871DF49C6
:10F18000B00711D5DE480C22808A50434A68121815
:10F190004A6007F099FDDA49C96A00E05AE007F0D1
:10F1A000E3FD07F04DFD2CE070070FD5D4480C228D
:10F1B000C08A50434A6812184A6007F085FDD0495A
:10F1C000096B07F0D1FD07F03BFD1AE0F0070CD00A
:10F1D000CB480C21C08A484307F076FDC849096B2B
:10F1E00007F0C2FD07F02CFD0BE0C5480C21808A1A
:10F1F000484307F069FDC249C96A07F0B5FD07F049
:10F200001FFDBC494A6812184A60BB4A5169091877
:10F210005161F30706D0D3691B18D3617A681218BD
:10F220007A6005E093691B1893613A6812183A6096
:10F23000B54AD3881818D080B1480068002809D092
:10F24000AB4A138DDB0605D4814203D3118D102008
:10F25000014311856D1EEDB2002D00D08AE603B08A
:10F26000F0BD30B4A948417B827B891AC9B2C27B08
:10F27000037CD21AD2B2437C807C181AC4B2A44850
:10F28000C37805794079AB421FD1834210D19142B6
:10F2900004D3A14202D330BC012070478A4204D378
:10F2A000A24202D330BC0220704730BC032070471A
:10F2B000834207D9914202D330BC0120704730BC51
:10F2C0000220704730BC03207047AB4211D9834203
:10F2D00007D1A14202D330BC0120704730BC0320CB
:10F2E0007047834202D930BC0120704730BC0320F4
:10F2F0007047854207D1A24202D330BC022070473A
:10F3000030BC03207047854202D930BC02207047D0
:10F3100030BC032070477E48007F0107002901DAD6
:10F3200001207047C00601D50220704703207047B6
:10F33000884202D3401A00B27047081A00B27047E0
:10F34000F0B585B0734BD889401CD8816B4E72499B
:10F35000308A0491002818D0401E80B230820028E4
:10F3600013D16348018D4904490C0185049900209B
:10F37000087065490C784A783118C031CC714A73ED
:10F38000CA74401CC0B20628F6D3604CE07F6528E2
:10F3900001D2401CE0775E4D2878652801D2401CE0
:10F3A00028706878652801D2401C6870A8786528A4
:10F3B00001D2401CA8705148418980318EB28189A8
:10F3C000803189B2C089803082B2D87F039004280E
:10F3D0007ED3A07860708646E078A0700290207995
:10F3E000E070F6B22671B446029F7646F619604484
:10F3F0003018454E80083070A6796671B646E779B8
:10F40000A7710197267AE671B446C9B22172019FAD
:10F410007646F619614471183B4E89087170A67AD8
:10F420006672B646E77AA7720097267BE672B44604
:10F43000D2B22273009F7646F6196244B218324E59
:10F440009208B270039E0127042E68D0637B83422A
:10F4500000D26073E37B8B4200D2E173637C934202
:10F4600000D26274A37B834200D9A073237C8B42B9
:10F4700000D92174A17C914200D9A2740022297F75
:10F48000CB077DD06B7E83427BD248084000287733
:10F49000A07E6076697EA176FFF74AFFA17D884253
:10F4A0006FDB0020154B1918C0310E7ACE71401C4D
:10F4B000C0B20528F7D31818697EC030C171A17E8B
:10F4C000637E99420FD2E07C88420CD9984200E0DA
:10F4D0008BE108D228780C38582802D8E878401CEC
:10F4E000E87000202870FFF716FF012862D069E05D
:10F4F000082A0020342A0020702A0020F82A002040
:10F50000342600206C2400203C240020982B00206E
:10F51000B82B0020782B0020D82B0020FFE70526F1
:10F52000DE7700232370EB702B716B71AB7163730B
:10F53000FF26A673E37326746374A674E3742375BD
:10F5400063750F23A375E37523766076A076E17665
:10F5500021776277A2776876A976E97608232B77F8
:10F560006B7F002B22D0EB77AB77FD4B1E8D7604A3
:10F57000760C1E85049E002333709C46F94E01E0F4
:10F580001AE01FE06346F318C033D8715973DA7478
:10F5900063465B1CDBB29C466346062BEFD36520BB
:10F5A000E07728706870A87005B0F0BD6F77AF770E
:10F5B000EF77DAE7012205E06B7E834202D9394317
:10F5C000297765E7287F810736D5E749AB7E4978FB
:10F5D0008B423AD2FD2108402877207FE076A97E31
:10F5E0002177FFF7A5FEE17D88422EDB0020DD4B71
:10F5F0001918C0318E7B4E73401CC0B20528F7D35A
:10F600001818A97EC0304173207FE17E88420DD258
:10F61000237D83420AD98B4208D268780C38582857
:10F6200002D82879401C287100206870FFF773FE0B
:10F6300002280AD1022208E0CB49AB7E49788B42EE
:10F6400003D9022108432877C7E7287F410736D529
:10F65000C549EB7E89788B423AD2FB210840287756
:10F66000A07F6077E97EA177FFF762FE217E884266
:10F670002EDB0020BB4B1918C0310E7DCE74401C10
:10F68000C0B20528F7D31818E97EC030C174A07F36
:10F69000617F88420DD2637D83420AD98B4208D2B2
:10F6A000A8780C38582802D86879401C6871002066
:10F6B000A870FFF730FE03280AD1032208E0AA4908
:10F6C000EB7E89788B4203D9042108432877C7E76A
:10F6D000A548017869764178A9768078E876012A8C
:10F6E00004D0022A19D0032A21D029E0A17E627E0B
:10F6F000914225D2E07C884222D9904220D2E07FFC
:10F700000C38582806D897489621018201210020FC
:10F71000FFF729FC0020E07712E0217FE07E8142A4
:10F720000ED2227D8A420BD98242E8D308E0A17F23
:10F73000607F814204D2627D8A4201D98242DED357
:10F740002078401CC0B22070322800D02CE7002660
:10F750002670607BA17B40184008E074E07B217C30
:10F76000401840082075607CA17C401840086075F6
:10F770000F20A075E0752076A87FE877687FA877CE
:10F78000FFF76FFD6877AA7F82421FD1E97F814230
:10F7900006D00220FFF76EFBA9790120FFF7E3FBFB
:10F7A000AE71287FC72108402877697F012905D0DD
:10F7B000022907D02021084328770AE008210843BE
:10F7C000287706E010210843287702E00120FFF7A0
:10F7D00051FBEE702E716E716673FF20A073E6739D
:10F7E00020746674A07405B0F0BD604C0398065593
:10F7F000DC7F5F482154D97F5E480A54D87F401C83
:10F80000D87705B0F0BDF0B400215B48554A0A2313
:10F81000067ED35E24250224ED430022002E04D070
:10F82000012E0ED0022E16D01EE0252B02DD04760E
:10F83000012119E01A26F643B34215DB01210176B6
:10F8400012E0AB4202DA027601210DE0252B0BDD3E
:10F850000476012108E0AB4202DA0276012103E0DE
:10F860001B2B01DA012101763E4F437E0C26BE5F41
:10F87000002B04D0012B0ED0022B16D01EE0252E1B
:10F8800002DD4476012119E01A23DB439E4215DB99
:10F890000121417612E0AE4202DA427601210DE00A
:10F8A000252E0BDD4476012108E0AE4202DA4276D5
:10F8B000012103E01B2E01DA01214176294F837ECD
:10F8C0000E26BE5F002B04D0012B0ED0022B16D0CB
:10F8D0001EE0252E02DD8476012119E01A23DB4388
:10F8E0009E4215DB0121817612E0AE4202DA827679
:10F8F00001210DE0252E0BDD8476012108E0AE42CA
:10F9000002DA8276012103E01B2E01DA01218176E1
:10F910001A4819248378002B05D0012900D184705E
:10F9200083785B1E8370012908D1027181780029D8
:10F9300004D10C498A8A521C8A828470F0BC7047B8
:10F940000902014308B200110105002903DA0F2161
:10F950000903084300B2C117090F081800117047C6
:10F96000082A0020F82A00203C240020992B00209F
:10F970009D2B0020A12B0020782B0020D82B0020CD
:10F98000F0B5B7B02F200126019004AB32220F2131
:10F9900000961020FEF7F4FC6946087CC006C00EF5
:10F9A000049006225043A8210191009006AB322218
:10F9B0000F211020FEF7E4FC002400256946087C96
:10F9C000002821D9FE4F06A802195178005DFFF7E3
:10F9D000B7FF7881D1789078FFF7B2FFB88151797D
:10F9E0001079FFF7ADFFF881387A000702D5FFF7ED
:10F9F0000AFF01E0FFF7A4FCA41DE4B26D1CEDB208
:10FA00006846007C8542DED3EE48008DC00442D5B6
:10FA1000ED4C2079401CC0B220710C283BD1002550
:10FA20006846057505AF242332220F211020009768
:10FA300001960295FEF760FC684605752E2332227A
:10FA40000F211020009701960295FEF755FC4021EA
:10FA500068460175252332220F2110200097019658
:10FA60000295FEF749FCD74E308D80040DD5D7485E
:10FA7000006804F015FD002803D0D54AEF21FEF7F9
:10FA800028FE308DD349084030852571CC4880222E
:10FA900001899143018137B0F0BDF0B583B0C84B07
:10FAA000CD491F890A8A7B08888A5B00C64E02936B
:10FAB000F37882423AD001252D04824203D9101AEC
:10FAC00080B2019003E0281A801880B20190CC8A9D
:10FAD000488A844202D9201A80B202E0281A00190A
:10FAE00080B2032B00D196204C828A8206F0A1FEC0
:10FAF00004460D46019806F09CFE0022B74B06F026
:10FB00009BFE22462B4606F043FC06F05DFAAC490C
:10FB10000860B34A904203DB012007430F8101E0F4
:10FB2000029808810020F07003B0F0BD032BFBD0D9
:10FB30005B1CD8B2F0700328F6D1A1490298088165
:10FB40000020086003B0F0BDF8B5A64CE078401C7A
:10FB5000C0B2E0700A287CD10025E570E08800285A
:10FB600078D0FF21693148439F4906F036F907F004
:10FB7000ABF806F08DFF9D4A9D4B06F05DFE06F04A
:10FB800023FA0127BF079B4EB84249DD94499A4F9B
:10FB9000884245DDB84201DC984F41E098498842EF
:10FBA00001DC984F3CE08122D2059749904201DC6C
:10FBB0000F4635E0954A904201DC954F30E04127F1
:10FBC0003F0688422CDD934A9349904201DC0F4660
:10FBD00026E0924AB04201DC174621E0904B984261
:10FBE00001DC904F1CE0904B984201DC8F4F17E0F6
:10FBF0008F4B984201DC8F4F12E0B84201DC8E4FF0
:10FC00000EE08E4B984201DA8D4F09E0884201DC0C
:10FC10008C4F05E0904202DC8327FF0500E08A4F0D
:10FC20008A48007807F050F8394607F09DF806F04A
:10FC30002FFF874A874B06F0FFFD06F0C5F93146D6
:10FC400006F04EFF06F024FF834A844B06F073FB58
:10FC500001E022E020E006F0B7F9814907F084F8DE
:10FC600006F0EEFF7F498A6882188A607E4A516AF0
:10FC7000411851627D4AD368C018D0607C488068C2
:10FC8000002809D04F4A138D9B0605D4814203D327
:10FC9000108D202108431085E580F8BDF0B585B0B2
:10FCA0004848008D0125C0044027002404AE0028E8
:10FCB00044DA68460474242332220F21102000966F
:10FCC00001950294FEF718FB684604742E23322235
:10FCD0000F211020009601950294FEF70DFB684657
:10FCE0000774252332220F211020009601950294DB
:10FCF000FEF702FB7F2168460174302332220F2178
:10FD00001020009601950294FEF7F6FA68460474F6
:10FD1000242332220F211020009601950294FEF731
:10FD2000EBFA21216846017432231A460F21102074
:10FD3000009601950294FEF7DFFA16E06846077414
:10FD4000242332220F211020009601950294FEF701
:10FD5000D3FA4C21684601742E2332220F21102041
:10FD6000009601950294FEF7C7FA154938220889D2
:10FD7000904308814C828C821348447000204200DA
:10FD80005218D482401CC0B23C28F8D305B0F0BD54
:10FD9000F0B585B00A490822088910433022904303
:10FDA000094F0322FA7040084000088100240C60CB
:10FDB0000448008D0126C00404AD00287EDA59E015
:10FDC000F82A0020082A0020D82B00203424002004
:10FDD000C8F00100FFDF0000782B00200000494040
:10FDE000000020403C240020A08601006E6E4C4F95
:10FDF00058E2E33F0000C04000004040333353402E
:10FE000000006040333373400000A0400000904089
:10FE10009A99C9406666A640000010410000204142
:10FE20006666D640000030410000E04000003841E6
:10FE30000000F04000004841000058419A990941F3
:10FE400000006041000070410000904154260020F5
:10FE5000EC51B81E85EB913FFCA9F1D24D62403FB9
:10FE600000007A44342A0020702A0020C82A00208A
:10FE70003426002068460474242332220F211020E7
:10FE8000019600950294FEF737FA684604742E2313
:10FE900032220F211020019600950294FEF72CFAD1
:10FEA000402168460174252332220F21102001963B
:10FEB00000950294FEF720FA7F2100E022E06846D8
:10FEC0000174302332220F211020019600950294F4
:10FED000FEF712FA68460474242332220F21102000
:10FEE000019600950294FEF707FA212168460174F5
:10FEF00032231A460F211020019600950294FEF736
:10FF0000FBF917E0402168460174242332220F21B7
:10FF10001020019600950294FEF7EEF94C216846F8
:10FF200001742E2332220F21102001960095029495
:10FF3000FEF7E2F9C54A3C2050827C709482002092
:10FF400041008918CC82401CC0B23C28F8D3C0487C
:10FF50000480448084800A21515E2423DB430225EF
:10FF6000BC48994201DA047604E0252901DD0576D2
:10FF700000E006760C21515E994201DA447604E0F5
:10FF8000252901DD457600E046760E21515E994235
:10FF900002DA847605B0F0BD252902DD857605B04C
:10FFA000F0BD867605B0F0BDF0B585B0A74F387AC4
:10FFB0000006002840DA002469460C74012504AECE
:10FFC000252332220F211020009601950294FEF77E
:10FFD00093F9402069460874242332220F2110200F
:10FFE000009601950294FEF787F94C206946087443
:10FFF0002E2332220F211020009601950294FEF745
:020000040002F8
:100000007BF9954D288D800410D401269348760302
:1000100000223146006804F01AFA002803D0904A02
:100020009049FEF756FB288D304328858E48047191
:10003000388980218843388105B0F0BDF8B5834DFB
:100040008A4E287A8A4F0007874C00287EDAB86BE0
:10005000401CB863F069401CF061688A002855D0E4
:10006000401E80B26882002850D1794FB888401C69
:10007000B8803046818D491C81857E490889401CA5
:1000800008817D4A9078401C90703C2068823B201B
:10009000431E5E0076194000F68A4019C682D8B227
:1000A0000028F5D1AB8A0026EB82AE8263785B1C18
:1000B000DBB263703C2B01D93C236370634B1B891B
:1000C000DD0667D5614D9E062BD57E88761C7E8029
:1000D000664F7E8D761C7E85CE88761CCE805179CB
:1000E000491C517100216278002A08D9460076190E
:1000F000B67D7118C9B2401CC0B28242F6D8282918
:1001000005D9302083432B8100206070F8BD05297C
:1001100001D2282AFAD3202083432B81002060704B
:10012000F8BD3E88761C3E80504F3E8D761C3E8545
:100130008E88761C8E801179491C11716278322A62
:1001400013D3002146007619B67D00E045E0711812
:10015000C9B2401CC0B28242F4D8052911D820206F
:1001600003432B81002060700BE00021002A08D996
:1001700043005B199B7D5918C9B2401CC0B2824232
:10018000F6D82829CCD92889102188432881002035
:100190006070F8BDFD886D1CFD80344EF58D6D1CC2
:1001A000F5854D896D1C4D81D178491CD1706178E0
:1001B0000A29EED30021254A4500AD18AD7D691806
:1001C000C9B2401CC0B20A28F6D30A29E1D21020D5
:1001D0000343138100206070F8BDFFF75EFCE078F8
:1001E00003282BD0F068401CF060B86A401CB8624D
:1001F0002249C968002909D0174A138D5B0605D426
:10020000884203D3108D402108431085287A1C4969
:10021000C00709D0F86A401CF8623069401C3061A0
:10022000088B401C0883F8BD386B401C386370692C
:10023000401C7061C88A401CC882F8BDB86B401C65
:10024000B863F069401CF061F8BDF7E6F82A0020B9
:1002500044240020782B0020082A00203424002089
:10026000C8F00100FD040000D82B0020342A002033
:10027000702A0020B02A0020E82A0020342600201E
:10028000C82A002010B50446FF219131204605F010
:10029000A4FD002909D06421204605F09EFD002917
:1002A00001D0A00701D0002010BD012010BD10B565
:1002B00086B0C1A14A68096805920491C0A18C6802
:1002C0004B680A68C9680294019300920391002266
:1002D0000388591E89B2FF241934A14204D3FF397F
:1002E000193989B2A142FAD21C2903D31C3989B227
:1002F0001C29FBD2042905D3091F89B2521C92B2D2
:100300000429F9D204ACA25C511889B2072901D39F
:10031000C91F89B282786C46A45C611889B207292A
:1003200001D3C91F89B2C078401884B2072C03D307
:10033000E41FA4B2072CFBD2032A07D31846FFF709
:10034000A1FF002802D0E0B206B010BD002C04D0FE
:10035000641EA0B2C0B206B010BD0620FAE710B508
:1003600004460020A071607120710120E070A0702F
:10037000974820802046FFF79AFFE07110BD70B5C6
:1003800088B002469348034678CB049603950294BE
:1003900001934469036980690694059307905000AE
:1003A00001AB1C5A022A06D10846FFF76BFF002852
:1003B00001D0641CA4B2E0B208B070BD10B5044610
:1003C0002188A078FFF7DBFF0146E078814202D068
:1003D000401CE0700BE00121E170A078401CC0B22D
:1003E000A0700D2803D1A1702088401C20802046D9
:1003F000FFF75DFFE07110BD10B58179491CC9B2EE
:1004000081713C292CD1002383714179491CC9B2E7
:1004100041713C2913D1704C012221689202114391
:10042000216043710279521CD2B20271182A06D19E
:1004300003710122520211432160FFF7BFFF674998
:10044000088800280CD0401E80B20880002807D100
:100450008720400108806249102208781043087004
:10046000FFF772FB10BD5F49887A401C8872C00795
:1004700001D000BF70475C49088D012210430885F8
:100480007047F8B5584D288DC00779D0288D4008A1
:10049000400028855548FFF7AFFFFFF7D6FE5448C8
:1004A00008220178114301705249534C0878002802
:1004B0000AD0401EC0B20870002805D120888005EF
:1004C00002D5002001F0B3FF4C490878002801D084
:1004D000401E087020784A4F400711D5387806280A
:1004E0000ED1484E307800280AD0401EC0B230707D
:1004F000002805D14448C08801F092F90A203070E4
:1005000042490878002811D0401EC0B20870002867
:100510000CD13878062809D12078400706D400206D
:1005200001F050FF2088012108432080288D00061B
:1005300015D520880221C2070140D20F114301D0F6
:1005400041060CD5C00403D5012001F075F902E085
:10055000002001F071F920882D49084020802D49A4
:100560000878002801D0401E08702B490878002820
:1005700006D0401EC0B20870002801D1FDF720FD52
:10058000F8BD1948018D022211430185704710B54D
:100590001548018D890700290CDA018D022291434B
:1005A0000185008DC00505D51C48007A400601D4A0
:1005B000FFF7E6F910BD0000000503010604020084
:1005C0000000030306010406020500030500000005
:1005D000DF070000186E0200182400204C240020C1
:1005E0006C240020282A0020082A00204E24002005
:1005F00070240020C2240020C82400208B24002066
:100600008824002089240020A82400208A24002097
:10061000BFEF0000C524002006240020F82A002097
:10062000F64910208860F649002008607047F649B6
:100630000320F44A086000211060101D0160F0489A
:1006400002228260C1600122026192064262EF4A88
:1006500007205061EE488160E2E7ED4900208860A4
:10066000E749086001200860E4491020C86070472D
:10067000E4480021C160032212044261E548C278C7
:1006800052085200C2700171CAE7E2480021C170ED
:100690008171C1714171018141818181C181E7E72E
:1006A000D8480021416103221204C260D9480123C5
:1006B000C2781A43C2700171704730B4D54C012121
:1006C0002079CF4D002814D0224651799279012803
:1006D00015D0FE281AD0D04B1B18203B9B7FEB6116
:1006E0004B406371521C904218D9FE20207130BCDF
:1006F0007047A420E8616071217130BC7047EA61E5
:10070000514061710220207130BC7047BB4A1020FB
:100710009060E961FF20207130BC7047401C20715F
:1007200030BC7047BB480179FF2902D1002181719B
:100730009EE77047B7490879FF2808D0401C087128
:100740000979AF48012906D0FF21C1617047AB4A42
:1007500010209060F4E7A521C1617047F0B414291E
:1007600000D314218407A40FAA4E70893789C31BB4
:100770009D06AD0E40235B1B4D1CAB4203D8F0BC65
:100780000020C04370478B069B0EA4012343A34C5B
:100790002354401C8006800E70810020002909D956
:1007A0007389155CE5545B1C9B069B0E7381401C92
:1007B0008842F5D3B07AC01B8106890E4020401ACA
:1007C000142803D8F0BC0020C0437047F0BC0020C0
:1007D0007047F0B5924A1778924E934B1146103FEE
:1007E0008C4C307849781D78072F0ED23B007B4423
:1007F0001B79DB189F44030F090A132F21000423E0
:1008000018433070217090786070F0BDA17008219D
:1008100008433070F0BD012108433070F0BD032D56
:10082000FCD3521C14210020FFF798FF0028F5D0BC
:10083000E07802210843E070F0BD032DFCD3521C88
:1008400014210120FFF78AFF0028F5D0E17802206B
:100850000143E170F0BD022108433070F0BD00B5E6
:100860006C4B1979012912D01A465279022911D0FC
:10087000FF2913D042405A71694A5218203A5077E2
:10088000D879801C814201D9FF20187100BDA520B4
:10089000587100BD42405A71D87100BD904201D1DB
:1008A000FFF797FFFFF7E4FE00BD70B4594C8026B8
:1008B000E389257B5D1B6D066D0E761B851CAE42A4
:1008C00003D870BC0020C0437047584D461CEE54FE
:1008D0005B1C5B065B0EE9545B1C5906490EE1810B
:1008E0000021002809D9E389565CEE545B1C5B06A5
:1008F0005B0EE381491C8142F5D370BC0020704738
:10090000F0B4444CA089E689B0421FD0474F395C0F
:10091000491EC9B2A171401C4006400EA081142995
:1009200001D31420A0710020A579691C00290DD9DC
:10093000394A6D1CA1897B5C1354491C4906490E38
:10094000A181B14202D0401CA842F3D3F0BC704751
:10095000F0B404462F4B19895889814202D10020F6
:10096000F0BC70472D4E705C491C8906890E1981B8
:100970008206920E142A02D91422D42108400021A2
:10098000002AEDD91D89755D65541D7A6D1CAD0673
:10099000AD0E1D815F89BD42E2D0491C9142F1D369
:1009A000F0BC704730B585B00024009401940294E7
:1009B0000394049469460C7001254D7000A8072229
:1009C0001B49023005F054F96A4681211420FFF7D3
:1009D0006CFF00940194029403940494FF206946F0
:1009E00008704D706A4681211420FFF75EFF1148A0
:1009F000018DEA021143018505B030BD00050050AC
:100A000000450040000700500807005040450040E6
:100A10000041004058240020E02B00200A2C002038
:100A2000F52B002068240020382400204A2C0020C8
:100A30004E240020082A002070B46B4903208871DE
:100A40006A49802008706A48007848706948008DBB
:100A5000694B06060122022400251888002E05DABB
:100A6000C60701D04A7002E04C7000E04D708D70F6
:100A7000050400D58A70420402D58A7822438A7020
:100A80008004800C1880FF20C87070BC7047F8B5D7
:100A9000554909208871554E822030705748C079D9
:100AA0007070574F574C786800284ED06168002905
:100AB0004BD06422504305F090F906F005F9524DF1
:100AC000A84200DD284606F0BBF8B070000AF070BE
:100AD000786900283BD02168002938D0642250432F
:100AE00005F07BF906F0F0F8A84200DD284606F094
:100AF000A7F83071000A7071786A002829D0A168BF
:100B0000002926D06422504305F067F906F0DCF88E
:100B1000A84200DD284606F093F8B071000AF07193
:100B2000B86A002817D0E168002914D06422504325
:100B300005F053F906F0C8F8A84200DD284606F093
:100B40007FF83072000A7072F8BD0020B7E700200D
:100B5000CAE70020DCE70020EEE7234A042090717A
:100B600022498320087050694870030A8B70030C77
:100B7000CB70000E087100205061704770B50446BC
:100B80002078194D00280FD104222049204604F076
:100B9000CFFF002804D0E878FB210840E87003E08C
:100BA000E87804210843E870E878400704D5217804
:100BB000032903D0FF290CD0012070BD1422144951
:100BC000204604F0B5FF002801D0002070BD0120B0
:100BD00070BD14220F49204604F0AAFF002801D05E
:100BE000002070BD012070BD58240020E02B0020A3
:100BF00038240020082A0020C82400205426002081
:100C0000702A00203426002000009643326E020035
:100C1000366E02004A6E02000A78112A16D0142A93
:100C200014D0152A02D0212A1ED10FE0A049042099
:100C30000A8802430A809F4908709F490020087073
:100C40009E4801220178114301700DE09C4A03780F
:100C500093714378D37183781372C0785072FF2BED
:100C600002D00878114688800020704710B51046E1
:100C7000002803D093A25621FDF72BFD10BD70B5BF
:100C80000023FC229349944804F012F8934C944DAD
:100C9000002802D1A06BA8420CD0FF22FC218E4874
:100CA00005F072F8A5638F484022417811434170E6
:100CB000012070BD002070BD10B50023FC228649C4
:100CC000844803F0A4FF002803D07EA27221FDF720
:100CD00000FD8449BF2248781040487010BDF8B527
:100CE0000446002100917649684609780170052C78
:100CF0001FD2794E7B4F355D052D17D26846857022
:100D000004F072FB002803D06EA28A21FDF7E1FCFB
:100D100030204543A819801DFF22302105F034F80A
:100D2000FF2030557978402001437970641C052CF0
:100D3000E1D3F8BD70B586B001246B4804F089F9A1
:100D4000002803D05FA2A221FDF7C3FC03F010FE30
:100D5000002803D05BA2A621FDF7BBFC63484269D3
:100D60006349521C02D00969406900E048690126C4
:100D70006946CE80FC2088805E48009055496846D0
:100D800003F035FE002803D04EA2AF21FDF7A1FCF1
:100D9000FFF775FF0025002801D0059600E00595B6
:100DA00005A804F021FA002819D0059605A804F03A
:100DB0001BFA002803D043A2C721FDF78AFCFF22BB
:100DC0000521454804F0E0FFFF22F0214A4804F0E5
:100DD000DBFF4448402241781143417000246946BA
:100DE0000D824D821E20C881087C3043FD210840C1
:100DF000E32108400C30DF210840694608740720D1
:100E00004874102088743D4802900E7302A92C4843
:100E100004F08FFA002803D02AA2DF21FDF759FC45
:100E2000002C02D00420FFF75AFF06B070BD10B5A9
:100E30000121334A084603F0F1FF002803D021A224
:100E4000EF21FDF746FC10BD70B51A480078042864
:100E50002DD12C4D2C4E2878194C06280CD13078E9
:100E6000062809D36078410706D40421084360703E
:100E700000F0CEFC00F0D0FC3078062817D128789E
:100E8000062814D36078010711D408210843607044
:100E900002F0ABFB02F0ADFB1C4C0222A08800214B
:100EA00002F0ABFBA0880222012102F0A6FB70BD7C
:100EB000C8240020382400208A2400206824002030
:100EC000742400202E2E5C6D61696E5F626C652E4D
:100ED0006300000080240020CC2C00208C2D0020FA
:100EE00016081420702400207A240020001000101E
:100EF000000000106D0C0200D22C0020190C020022
:100F0000FD4D0200882400202025002038250020E7
:100F1000FD4907200870704738B50220694688707F
:100F2000FA480880F84C6A460121608990DF002861
:100F300002D0FFF7EDFF38BD0320207038BD38B573
:100F40000020F349F34ACB88EF4C934207D18888BD
:100F50006946401C08804880608993DF0AE0EE49BA
:100F6000CB88934206D188886946401C0880488017
:100F7000608993DF002802D0FFF7CAFF38BD052043
:100F8000207038BD30B4E5498978DF4C80886081B5
:100F9000052923D230204143E14808182146C5885D
:100FA0000D8405894D84831C45898D840A4680897A
:100FB0002032C88498891081D8895081188A9081FC
:100FC000588AD081988A1082D88A5082188B908251
:100FD000588BD0820120207030BC704730BC9BE71A
:100FE00030B4C94C0146608992DF002801D030BC82
:100FF0008EE70420207030BC704708B5C1880029F6
:101000000ED1818900290BD0BF4A418A9181808A03
:10101000D0816A46118050806846FFF7E1FF08BD25
:10102000FFF776FF08BDF8B5C1880A46FF3A0B3ACC
:1010300001D0093211D1B648808800280AD0B948B9
:101040008088002806D0B4488088002802D0FFF7A6
:1010500076FFF8BDFFF75CFFF8BD002902D0FFF76F
:1010600057FFF8BD002200238189002921D9AE4D08
:10107000AE4EAF4F0A2159430A180E320021148890
:10108000AC4201D1A24906E0B44201D1A54902E037
:10109000BC4200D1A049002907D00C8054884C8064
:1010A00014898C800024E443CC805B1C81899942A4
:1010B000E0D89548002A09D011896A46491C118058
:1010C000C08950806846FFF78BFFF8BD81896A466A
:1010D0001180C08950806846FFF782FFF8BD10B5C7
:1010E000C1880A46FF3A0B3A03D0093201D00029E1
:1010F00002D0FFF70DFF10BD8189854B864A00297C
:101100000FD00E3041888B4CA1420AD100889C88B8
:10111000411E8C4201D1D88003E094888C4200D1DA
:10112000D080D9887B48814202D0D188814202D1C7
:10113000FFF705FF10BD7448062101700321C1703F
:101140000A214170052181707B494878C209F1D19B
:10115000802210434870714804F01AF9002800D02A
:1011600000BF0028E6D0FF2174A25131FDF7B1FA8B
:1011700010BD00B589B064490978062902D008205D
:1011800009B000BD00216A461171837A5371C37A98
:101190009371037BD371407B107201205072202326
:1011A0009372D1725F4A93886A4653820823D3822E
:1011B0009182107401A8069004A801F003FE09B002
:1011C00000BDF0B583B00546A888009000240098C3
:1011D00000287CDD5F4E3046283002902038019098
:1011E000494F786909283FD203007B441B79DB18FB
:1011F0009F44040A10161C22282E3B0028198079CF
:10120000307001207861F9E028198079707002202F
:101210007861F3E028198079B07003207861EDE0FF
:1012200028198079F07004207861E7E02819807926
:10123000307105207861E1E028198079707106200D
:101240007861DBE028198079F08007207861D5E0AB
:1012500029198979F08809020843F080082078610B
:101260000198B86100203882C8E0B86902998842C4
:101270002DD2019988422AD3291989790170401CFD
:10128000B861398A491C89B23982F2888A427FD191
:1012900000210170401CB8610520786178793A8A94
:1012A00041012D480818019904F0E2FC7879401CAE
:1012B000C0B2787101286CD10822274927A004F018
:1012C00087FC002866D00622234927A000E09AE088
:1012D00004F07EFC00287DD008221F4924A004F0E1
:1012E00077FC002877D009221B4924A004F070FC69
:1012F000002871D00722184923A004F069FC0028B7
:101300006BD00522144946E08824002031F4000007
:10131000A8240020FFFF0000B82400207A24002029
:10132000CC2C0020B02400200D120000F3D80000C7
:10133000E9C6000002290000702400202E2E5C73F4
:101340006572766963655C626C655F616E63732E5E
:1013500063000000082E0020C82D0020576861742B
:1013600073417070000000005765436861740000AD
:1013700046616365626F6F6B000000004D657373BB
:10138000656E676572000000547769747465720059
:1013900034E02EE039E0FEA004F01AFC00286BD007
:1013A0000A22FD49FDA004F013FC002867D00522A5
:1013B000F949FDA004F00CFC00286DD00222F6498A
:1013C000FBA004F005FC002874D00A203871F9480D
:1013D000017803E026E032E03EE04AE008221143D3
:1013E0000170F54802224178114341700020786174
:1013F00078717879012801D900207871641C0098EF
:10140000844200DAECE603B0F0BD05203871E9480B
:101410008022417811434170E7480222417811430C
:101420004170E3E706203871E24880224178114399
:101430004170E1480222417811434170D6E707200C
:101440003871DC484022417811434170DA48022269
:10145000417811434170C9E70B203871D5484022CB
:10146000417811434170D4480222417811434170C0
:10147000BCE708203871B9E709203871B6E70D20BC
:101480003871CC482022417811434170CA48022269
:10149000417811434170A9E70E203871C5482022D8
:1014A000417811434170C448022241781143417090
:1014B0009CE7FFE70F203871BE4880224178114336
:1014C0004170BD4802224178114341708EE7F8B562
:1014D00000210C30B94B02889B889A4259D18388ED
:1014E000022B56D38279002A52D1B54CA271C2790F
:1014F000E271077A2772467A66720023E361520727
:1015000046D4AC4AAB4B12785D78072F39D23B00FA
:101510007B441B79DB189F4420030C341C152400EA
:10152000A44B01252A431A70A64B03221A70257179
:1015300020E0A04B02252A431A70A24B04221A7005
:10154000257117E09B4A10231D4355700322227119
:1015500010E001219C4A167013E00C212171012139
:1015600008E004222271934A20231D435570954AB6
:1015700009231370944A16708F4A022553782B431F
:101580005370012904D1FFF7F4FD00206061607100
:10159000F8BD8E4989888A42FAD181880229F7D319
:1015A000FFF70FFEF8BD38B50221009184490024F1
:1015B0000C70002825D06946854863DF002803D0D9
:1015C000844A8549FDF785F86D46691C834863DFC9
:1015D000002803D07F4A8249FDF77BF8A91C814887
:1015E00063DF002804D005217A4AC901FDF771F8AC
:1015F000E91C7D4863DF002803D0764A7B49FDF76C
:1016000068F86F48048401464484203184840C8146
:101610004C818C810C824C828C8276497448C880C3
:101620000839C8801031C8807349FB2208781040FF
:10163000087038BDC1886E4A914208D000886F4951
:10164000884202D06E49884201D1012070470020B3
:10165000704710B501886B4A937811290CD0584C0B
:101660002278072A3CD213007B441B79DB189F4465
:10167000383D37575C616600052B2ED24F48FFF787
:10168000D9FF002829D05148FFF7D4FF002824D0E3
:10169000302043435C484A4918180C8CC4804C8C59
:1016A00004810A468C8C4481831CC98C2032818140
:1016B000108998815089D88190891882D089588260
:1016C000108A9882508AD882908A1883D08A588348
:1016D0004E4840224178114341700020FFF763FFDC
:1016E00010BD1029FCD1FFF74DFC10BD172901D00A
:1016F0001429FAD13148FFF79DFF00280DD0334857
:10170000FFF798FF002808D0062020700320E07023
:101710000A2060700520A07010BDFFF7FDFB10BD12
:101720003029FCD1FFF769FC10BD3229FCD1FFF74D
:101730007AFC10BD3329FCD1FFF7D1FC10BD38294C
:10174000FCD1E1780029F9D1FFF7C1FE10BD00B549
:1017500087B01B4A1278062A02D0082007B000BDC5
:1017600001230022002902D069460B7101E069467D
:101770000A7169464A7148810220C8818A810B72C8
:1017800001A8049002A801F01DFB07B000BD0000F5
:10179000536B797065000000C82D00205961686F97
:1017A0006F204D61696C0000476D61696C0000003D
:1017B000515100006C24002068240020A82400203F
:1017C00088240020392400203A240020B824002056
:1017D0005E6E02003C1302007A0200006E6E020090
:1017E0007D0200007E6E02008E6E02008302000009
:1017F000FFFF0000B0240020752400200D1200001F
:10180000E9C600007A240020CC2C0020702400209F
:1018100006480121C0889AE705480121C08896E75B
:10182000014604480022008895DF7047A824002064
:10183000B82400207624002030B585B00024009420
:101840000194029403940494FE4901250D706946A5
:101850000C700C72002802D02820088202E0FA489E
:10186000694608821E2069464882684673DF002860
:1018700003D0F6A2FB49FCF72CFFFB4A1089284352
:101880001081FA48017829430170147005B030BD09
:1018900010B5EEA2F649FCF71CFF10BD10B50068AC
:1018A000002803D0012800D100BF10BDF1483B2122
:1018B000008876DF002804D00121E4A24902FCF769
:1018C00008FFE948EC4A0189114041221143018196
:1018D000EA4A00211170EA4A1170E44A012413789F
:1018E000234313700170817010BD00B589B00020D2
:1018F0000090019020216A46118040215180908003
:101900004B21C900D1800590069069460291DD49BE
:101910000391049103211175DB494989D182107625
:10192000DA480790DA48089002A802F046F9002841
:1019300004D0FF21C5A2EE31FCF7CBFE09B000BDFB
:1019400000B5A1B006200290D2480168019140681C
:1019500000903C2112A804F03EFA3C2103A804F0B8
:101960003AFA02201290002010A948730120088240
:1019700002A9159110A9888501A91C9169460885BD
:1019800068460B9003A912A802F0A3F8002803D020
:10199000AEA29821FCF79DFE21B000BD10B48FB01F
:1019A000002108910A910B910C910D910E9108ABB9
:1019B0001A7804231A4308AB1A70B7A209920922B5
:1019C0006B461A855A8506229A72B64A1A81019187
:1019D0009A79F9231A40921C6B461B7900231C0745
:1019E000240F6B461C715B7901231C07240F1034F4
:1019F0006B465C71520852009A71059106910791ED
:101A000002AA039201AA049214229A82D9821A830A
:101A1000848803461E3303AA08A92046A2DF0FB01C
:101A200010BC704730B490B00022089208AD2B78FB
:101A300001231B071B0F10332B706B7801231B072F
:101A40001B0F10336B70AB78F92423409B1CAB70D9
:101A500009920B920C920D920F922B7904252B4335
:101A600010252B4308AD2B718FA30A930D236D46D0
:101A7000AB85EB8508AB0E930623AB728E4B2B81A7
:101A80000192AB7923409B1C2C7900242407240F5E
:101A90002C716C7901242407240F10346C715B08BD
:101AA0005B00AB710592069202AA039201AA04920E
:101AB0001422AA822A83123107918488034616339E
:101AC00003AA09A92046A2DF10B030BC704710B4A9
:101AD0008FB0002108910A910B910C910D910E91FC
:101AE00008AB1A7804231A4308AB1A7073A2099240
:101AF00007226B461A855A8506229A72714A1A8104
:101B000001919A79F9231A40921C6B461B790023A4
:101B10001C07240F6B461C715B7901231C07240FE3
:101B200020346B465C71520852009A7105910691FF
:101B3000079102AA039201AA049214229A82D982DE
:101B40001A83848803460E3303AA08A92046A2DF1D
:101B50000FB010BC704770B48FB0002207926E4671
:101B6000337F01231B071B0F10333377737F012350
:101B70001B071B0F20337377B37FF9252B409B1C6A
:101B8000B37708920A920B920C920E9208AE3378B9
:101B90001024234333704CA3099307236E463385E7
:101BA000738507AB0D930623B371494BB380009245
:101BB000B4782C40A41C337800231B071B0F337010
:101BC000737800231B071B0F737063085B00B370EF
:101BD0000492059201AA02926A460392142232826A
:101BE000B282123106918488831D02AA08A9204678
:101BF000A2DF0FB070BC704730B585B004460D460B
:101C0000286820600020C043E08429462046142232
:101C10001231283004F02CF80620694688742D48CB
:101C200008821C4B08330FCB039302920191009062
:101C300004A90231684663DF002868D1221D04A987
:101C4000012049E038240020320300002E2E5C736E
:101C50006572766963655C626C655F696D617A6502
:101C60002E630000BD040000C02400206824002072
:101C70001502000076240020711A0000892400203B
:101C80008A24002000710200302E00209D180200DE
:101C900091180200A06E02004E657720416C6572BB
:101CA00074000000243000004E65766F2046697293
:101CB0006D77617265000000233000004E65766F1D
:101CC00020527800223000004E65766F2054780054
:101CD0002130000020300000A0DF002817D1294665
:101CE0002046FFF738FF002811D129462046FFF78C
:101CF000EEFE00280BD129462046FFF793FE002870
:101D000005D129462046FFF749FE0028FFD105B03E
:101D100030BD00B58BB00020009001900290039080
:101D20000490059006900790089009900120000704
:101D3000000F10306946087201200007000F1030B4
:101D4000487201200007000F1030087300200007C0
:101D5000000FC87201200007000F103048730120E7
:101D60000007000F1030887301200007000F1030AB
:101D7000487400200007000F0874FA48FFF73CFF82
:101D8000002803D0F84AEC21FCF7A3FC0BB000BDFF
:101D900000B591B04021684604F01DF8F3A16846F3
:101DA00001F0CAFEF3A104A801F0C6FEF3A108A841
:101DB00001F0C2FEF2A10AA801F0BEFE0120000758
:101DC000000F103008A9087700200007000F48779F
:101DD000684601F0CEF8002803D0E34AD021FCF792
:101DE00078FC11B000BD00B585B001200007000FE0
:101DF000203001900422E3A101A87CDF002803D059
:101E0000D94A5521FCF765FCC12078DF002803D0B2
:101E1000D54A5921FCF75DFC002002900390202157
:101E20006A4611814021518190814B20C000D081B0
:101E300002A87ADF002803D0CB4A6421FCF749FCD2
:101E400005B000BD10B50020FEF774FF00F038FFAC
:101E50000120FFF7A8FB01F0C7FAFFF7C4FFFFF767
:101E600097FFFFF756FF0620FFF76AFDFFF73DFDDE
:101E7000C648018D8022114301850120FFF7DCFC5B
:101E800010BD70B504460020C14D295CA14208D1A7
:101E9000042809D204210A1A2818411C03F04CFF17
:101EA00002E0401C0528F0D30422B949681C03F065
:101EB00043FF2C70B748402241781143417070BDF8
:101EC000F8B50024B54AB44D1778018801222B8952
:101ED0001743152974D00ADCAE4E0129327875D02B
:101EE00010290DD0112929D0122969D16CE01729A8
:101EF00070D019297CD0352977D0372960D171E08D
:101F00008188A7480180A7480178032901D20321CD
:101F1000017058084000A449084328819F48077071
:101F2000002068711E20A87070784006400E707006
:101F3000FB200240DF20024032706FE08079A87100
:101F4000082801D10420687198488078FF2801D0C2
:101F5000FFF797FF8E480079FF2802D00420FEF794
:101F6000BEFE924803F075F804462046002803D0D0
:101F70007D4A8F49FCF7ADFB00F0A2FE00218848A6
:101F8000C943018028898B490840412108432881A1
:101F900089490020087089490870804901230A781E
:101FA0001A430A703178FB221140DF221140287059
:101FB000A870FD200140317070784006400E7070AE
:101FC0002CE003E006E013E000BF27E0FD20024024
:101FD000327023E08079002820D1794903200870ED
:101FE0001CE002E000F094FE18E000F091FE15E025
:101FF0008079002802D001280FD00FE06D480340FF
:10200000412003432B816C49002008706B49087004
:1020100062490F702870A87000E000BF20460028B9
:1020200003D0514A6749FCF754FBF8BD70B55A4CD0
:102030001E20A070088B142817D108461A300546B8
:10204000FEF79CFD002810D02A4684211420FEF7BC
:102050002CFC002809D02089012189030843208114
:102060004E48012201781143017070BDF0B408465A
:102070001A30098B142926D14178602923D101789F
:10208000002920D1C17800291DD0444D81784F4CC2
:10209000687802274C4E62783843012915D02346D0
:1020A0001B78032919D004291FD0052924D007291A
:1020B0002AD00A2930D00B2905D12E213170802158
:1020C0000A4362706870F0BC70472821317020218B
:1020D0000A4362706870F0BC704729213170012199
:1020E0000B4323706870F0BC70472A2131703B436A
:1020F00023706870F0BC70472B21317008210B43AE
:1021000023706870F0BC70472C21317010210A4395
:1021100062706870F0BC70472D21317040210A4315
:1021200062706870F0BC704770B504461A4D202686
:102130002A891046D1063043002901DA288177E048
:102140002178002903D0930644D5002070BD0020DB
:102150002871B2432A81142221461D4803F088FDCC
:1021600056E00000302E00204C1C020044617974BF
:102170006F6E000032333435360000003239000013
:10218000303000004E65766F00000000082A002005
:10219000CC2C002070240020C024002068240020C3
:1021A0007624002038240020021200007A24002027
:1021B000B2020000711A0000892400208A24002045
:1021C0008B240020070300008C2400206C240020B6
:1021D0006C2E0020FF2908D0EA78FE2A09D0521C74
:1021E00091420BD02881012070BD102002432A812A
:1021F00004E0012902D02881012070BD2879122134
:102200004843FE4912224018801CA11C03F030FDF7
:102210002078E8702879401CC0B22871042807D1C2
:102220002078FF2804D0288930432881012070BD00
:10223000002070BDF8B508461A300090F04C1E2200
:10224000A270098B14290AD14178F22908D0F32908
:1022500006D00A46203A202A05D2FFF765FFF8BDCE
:10226000FFF762FFF8BD0126491EB603E54D0127C1
:102270001F290CD2FFF758FF012805D120893043D0
:102280002081287838432870207A8006EAD481217A
:102290001420009AFEF709FB0028E3D02089304380
:1022A0002081287838432870F8BD088B02280AD18D
:1022B000D34A8B7E1089012B02D1C97E002903D01D
:1022C000D14908401081704701214903084310811A
:1022D000CE48FD22017811400170704710B4088B80
:1022E00002280AD1C64A8C7E08231089012C02D10B
:1022F000C97E002903D09843108110BC7047184351
:102300001081C248FD2201781140017010BC704755
:1023100010B5BB4A891D11610A8843899A4202D1CE
:10232000FFF7DCFF10BD438B9A4202D1FFF7BDFFE0
:1023300010BDC3899A4202D1FFF77CFF10BDC38B49
:102340009A4202D1FFF792FE10BDC38A9A42FBD196
:10235000FFF76CFE10BD0021C943C1847047898816
:10236000C18470470A88102A04D0112A03D0502A49
:1023700002D1CDE7F3E7EEE7704710B504462046FB
:1023800003F0D8F82146A248FFF7ECFF204601F001
:10239000BDFC2046FFF75DF9204601F052F82046CB
:1023A000FFF78EFD10BD10B59A481321008876DF27
:1023B00004462046002803D0974A9849FCF789F93B
:1023C000E0B210BD70B506468D4C2189C80701D01A
:1023D00074DF03E0880701D5FFF7E5FF0025002E35
:1023E00006D08F4805708F48018D8022914301856A
:1023F00000F066FC00208749C043088020898A4994
:10240000084020817F4801220178114301707F48F4
:10241000FB2201781140DF2211402570A570FD22BA
:102420001140017041784906490E417070BD00B5F8
:1024300085B078497D4A0988914222D000220292D3
:1024400003926B4619816E4B0028198908D06846A3
:10245000428101204002014319811E20987005E04D
:102460000C206A46508172480140198101A80390EE
:1024700002A9202068DF002803D0674A6D49FCF7D5
:1024800028F905B000BDF0B58BB05D4D2889410538
:10249000002912DB5D49097889070ED466490A785C
:1024A00066490B78D21A920607D0AA78002A06D07D
:1024B000800504D40120FFF7BAFF0BB0F0BD012660
:1024C0006FE000210091019169468E7004A902918C
:1024D00005A90391810911D069460C7D29898904D8
:1024E00047D51E21A9704A4A6B46D18A19808006B9
:1024F000800E0490D08C6946A6DF3BE06846047DE0
:10250000287A000709D51E20A87041496A46C88864
:102510001080C88C6946A6DF00E0002000280BD0A0
:10252000474988421AD14548078038480222017835
:10253000114301700BB0F0BDFF2C32D1288901226C
:10254000C10BC9039203024011432AD08004800CBE
:1025500028812C4801783143017022E0288901212B
:10256000C9030843288127480178314301700BB023
:10257000F0BD0020002803D031498842EED1D2E7D7
:10258000FF2C0ED128890122C10BC90392030240FE
:10259000114306D08004800C28811A480178314309
:1025A000017026480078C7B205A8FEF7D1F980B2BD
:1025B0000490810685D10BB0F0BDF0B59DB01048F8
:1025C000007AC006002873DA0C4D04266A78284683
:1025D00080781C90F22A57D01A48F32A006861D0FC
:1025E0002846C1781B918179037A012A61D0154868
:1025F000B402006820431A90134827E06C2E002094
:10260000C024002068240020FFDF00007024002088
:10261000302E0020762400204C1C020067040000AD
:1026200038240020082A0020301A0000FFFF000094
:10263000FFFD00008A0400006224002060240020C6
:10264000043000001824002034260020878B022A42
:1026500060D0FE480646C48FFD483E360078758837
:10266000411CC9B28C4641004118202A7ED0212A43
:102670007DD0222A7CD0232A7BD0262A7AD0242AF5
:1026800079D0252A78D0F7E0F2481C990078002903
:1026900003D0F04930430870EEE0EE49FB221040D1
:1026A0000870E9E00122EC49920310430860E3E07E
:1026B000E7E01B98E94C00021C9A801820802879DA
:1026C000A0706879E0702171E8796071A37120468B
:1026D000FDF7EDFDE248018D0122D2021143018593
:1026E000E048228801888A4207D1A1788278914205
:1026F00003D1E178C078814242D0DB480178491C9F
:102700000170DA480078FAF7FAFFFAF7E5FFFAF70E
:10271000D4FFB1E0D74AD648174087831C9A002AD5
:1027200001D037438783002903D0818B08221143CE
:102730008183A97A002903D0818B102211438183E0
:10274000A97B002903D0818B202211438183A97C9E
:10275000002903D0818B402211438183A97D002968
:1027600003D0818B80221143818306E009E017E0CA
:1027700035E04EE05CE064E06CE0B7491A98086030
:102780007AE0BB4AD4831584B34A1A9B1360B04ADB
:102790001E2871D2B84B20205854604610706BE050
:1027A000B34A9482D582B4881483BC08A40094836D
:1027B000DD0702D001252C4394839B0703D5938B1F
:1027C000022423439383A44A1A9B1360A04A1E2821
:1027D00052D2A94821234354604610704CE09B4BD1
:1027E000A34A1C464034F0CCF0C2103A1B6D136172
:1027F000A24A1C9B93711B9BD371974A1A9B13602F
:10280000934A1E2838D29C482223435460461070B5
:1028100032E0974A548495848F4A1A9B13608C4AFD
:102820001E2829D29448232343546046107023E085
:10283000874A1E2820D2904B26205854604610709C
:102840001AE0834A1E2817D28B4B24205854604626
:10285000107011E07E4A1E280ED283481C9B00781F
:10286000834209D284482523435400230818437027
:102870001C998170604610707548102102898A4346
:102880000281734CF2222789F323F805002870DABD
:102890007B48007880076DD47A480021C1600161CF
:1028A00041618161C1616078262842D006DC032243
:1028B000754B242857D0252804D10AE1F2280DD0E1
:1028C000F32827D0714AE16811705070012919D09E
:1028D000E068401CE060FF287ED072E16B49E06850
:1028E00008704A7000280DD1694A5089887000121A
:1028F000C8709089087100124871D08988710012DF
:10290000C871E5E76148FF210170208961490840ED
:102910002081DDE75D4AE068107053700028F1D136
:102920004F48008D400502D501209070D0E791708E
:10293000CEE75649E068087026224A700028E1D1A7
:10294000484840688870020ACA70020C0A71000E7A
:102950004871474840688871020ACA71020C0A72BD
:10296000000E4872B4E73E48008D400703D51A7048
:1029700003E033E16CE1FAF743FE4449E068087094
:1029800024224A70002835D03748007805282CD3F7
:10299000364805780020002D56D06D1EADB2401C83
:1029A00080B20428F7D33C492803401802223B494F
:1029B000FAF78EFD2C480078401F87B20026002FC2
:1029C00013D9002D41D06D1EADB23048B1000918A9
:1029D000091D2A03324800E0F1E010180422FAF73A
:1029E00077FD761CB6B2BE42EBD31F48017827486C
:1029F000017387E71D4805781B480278174B234968
:102A000018888870000AC87098780871D87848715A
:102A1000521E96B20027002E15D0002D51D06D1EEB
:102A2000ADB21A48B90009181D482A031018891DAB
:102A30000422FAF74DFD761EB6B27F1CBFB2032FFB
:102A400001D0002EE9D12DE03FE040E0302E002003
:102A5000C024002070240020182400204E240020D0
:102A6000082A0020702A00200B2400200D240020BA
:102A70003426002003FE0000D02E00205426002023
:102A80005B240020B02E002006240020BC2E002055
:102A9000F82A0020FFFE000002603F00BE2E00204A
:102AA00000603F00002E00D112E7002D0BD06D1EFC
:102AB000A8B201037448022208187449FAF708FD05
:102AC00006E70625ADE70620F3E7062567E70625B6
