:020000040001F9
:10D00000183E0020A5D10100BFD10100C1D101000F
:10D010000000000000000000000000000000000010
:10D02000000000000000000000000000C3D101006B
:10D030000000000000000000C5D10100C7D10100C0
:10D04000C9D10100C9D10100C9D10100C9D1010074
:10D05000EFE901000000000099E90100C9D10100D9
:10D06000C9D10100C9D10100C9D10100C9D1010054
:10D07000C9D10100C9D10100C9D10100C9D1010044
:10D08000C9D10100C5590200C9D10100C9D10100AF
:10D09000E75902004D7802008F510200C9D101000A
:10D0A000C9D10100C9D1010000000000000000004A
:10D0B0000000000000000000000000000000000070
:10D0C00000F002F800F032F80CA030C8083824183C
:10D0D0002D18A246671EAB4654465D46AC4201D1B0
:10D0E00000F024F87E460F3E0FCCB64601263342B0
:10D0F00000D0FB1AA246AB46334318473CBD0000A4
:10D100005CBD00000023002400250026103A01D356
:10D1100078C1FBD8520700D330C100D50B607047EF
:10D120001FB5C046C0461FBD10B510BD0BF042FC78
:10D130001146FFF7F5FF01F043FF0BF05AFC03B473
:10D14000FFF7F2FF03BC0BF08DFC0000401E00BF98
:10D1500000BF00BF00BF00BF00BF00BF00BF00BFD7
:10D1600000BF00BF00BFF1D17047000070B5054699
:10D170000C46164602E00FCC0FC5103E102EFAD218
:10D18000082E02D303CC03C5083E042E07D301CCDE
:10D1900001C5361F03E021782970641C6D1C761EC2
:10D1A000F9D270BD03210C4802680A4302600B48A3
:10D1B00002680A4302600A4880470A480047FEE7BF
:10D1C000FEE7FEE7FEE7FEE7FEE700000648074948
:10D1D000054A074B704700002405004054050040F5
:10D1E00083D20100C1D0010018340020183E002075
:10D1F000183400202C48008CC0B2012810D12A48D5
:10D20000808C0007000F0BD12748806AF02108406E
:10D21000402805D12448C06A084201D10120704746
:10D220000020FCE72048008CC0B2012827D11E480E
:10D23000808C0007000F22D11B48806AF021084231
:10D2400005D11948C06A084201D10120704716482B
:10D25000806AF0210840102805D11348C06A0842AE
:10D2600001D10120F2E71048806AF02108403028FF
:10D2700005D10D48C06A084201D10120E6E700202F
:10D28000E4E710B5FFF7CEFF002805D007480849AE
:10D290004860C81307498861FFF7ACFF002802D037
:10D2A00001200549886010BDC00F00F0DFFF07C0F6
:10D2B00000050040006C00400006004002467F4828
:10D2C000007D00280CD0002108E07C48001D405C57
:10D2D000904201D108467047481CC1B20829F4DBCE
:10D2E000FF20F8E738B5044669462046E7DF684680
:10D2F00000788107890F00916846007802280EDBCC
:10D3000009E02046C5DF69462046E7DF6846007829
:10D310008107890F0091684600780228F1DA38BD4C
:10D3200010B50020FFF7CAFF0446FF2C15D0634854
:10D330000088634908406149088000204874887467
:10D34000C8742046FFF7CEFFFF215C48001D015541
:10D35000001F007D401C5949087510BD7CB504466E
:10D3600021785648001D455C405D082806D11020F4
:10D3700069460870E8B26A460821C7DF7CBD70B50F
:10D38000044621784D48001D455C405D002801D1D0
:10D39000FFF7C6FF70BDFEB5044621784748001D63
:10D3A000455CE6784E2E04D04F2E03D0502E6AD125
:10D3B00001E000BF00BF4148001D405D002861D171
:10D3C0003E48407C002826D0E8B26B4601AA02A95C
:10D3D000D4DF6846008900281DD03A48408B694652
:10D3E000098988420ED068460089344948806846D9
:10D3F00000893449488334480068012109030843FF
:10D400003149086000202D494874084600880121F0
:10D4100008432A4908802948017B607A814218D153
:10D420002648417BA07A814213D12448817BE07A4F
:10D4300081420ED12148007C002816D01F48007C74
:10D44000401E1E4908740846007C00280DD1C87390
:10D450000BE0207B1949C8730846C07BF02801DD2A
:10D46000F020C873102015490874607A13490873B6
:10D47000A17A12484173E17A81730A200F498874B6
:10D480000020C87400E000BF00BFFEBD10B5044618
:10D490006078012807D0032809D080280BD12046C6
:10D4A000FFF779FF08E02046FFF769FF04E0204618
:10D4B000FFF754FF00E000BF00BF10BDC4250020EF
:10D4C000FEFF0000302600200424002010B50020BC
:10D4D000FE490860162000F0CEFF0020C043FB4943
:10D4E0008860C860086110BD0021F84AD16100E081
:10D4F00000BFF74989680129FAD10021F44A9160F7
:10D50000F2498969C8B27047F04AD06100E000BFB3
:10D51000EF4A9268012AFAD10022ED4B9A60EB4A59
:10D520009269D1B2704710B51920E8498860182077
:10D53000C860172008610120000748620620E349FF
:10D5400040314861162000F09BFF0120DF49086050
:10D5500010BD10B5FFF7E7FF0520FFF7D5FFFFF778
:10D56000C3FF0446FFF7B2FF204610BD10B5FFF71A
:10D57000F0FFC007C00F10BDF8B504460E461746B1
:10D5800000E000BFFFF7F2FF0028FAD1FFF7CBFF62
:10D590000320FFF7B9FF2102080EFFF7B5FF2104B2
:10D5A000080EFFF7B1FFE0B2FFF7AEFF002503E082
:10D5B000FFF79AFF70556D1CBD42F9D3FFF786FF48
:10D5C000F8BD38B504226946C248FFF7D5FF6C465E
:10D5D000206838BDC048006880210843BE49086003
:10D5E0000020BE490870BE4908700320BD4908707C
:10D5F000B9480068012109030843B749086070472A
:10D6000010B500BFFFF78FFF0620FFF77DFFFFF784
:10D610005DFFFFF79EFF02210842F3D010BD10B559
:10D62000002408E0FFF7A2FF002800D110BD012070
:10D6300000F050FF641CFF20F5308442F2D300BF9D
:10D64000F4E710B504462403FFF7E9FFFFF7D8FF1E
:10D65000FFF769FF2020FFF757FF2102080EFFF7B1
:10D6600053FF2104080EFFF74FFFE0B2FFF74CFF16
:10D67000FFF72CFF10BDF8B504460E461746FFF71E
:10D68000CEFFFFF7BDFFFFF74EFF0220FFF73CFF85
:10D690002102080EFFF738FF2104080EFFF734FFC0
:10D6A000E0B2FFF731FF002503E0705DFFF72CFFCC
:10D6B0006D1CBD42F9D3FFF709FFF8BD10B5172067
:10D6C00003218A0005231B07072424021B19840059
:10D6D0001A5100BF162000F0CEFE192000F0CBFE3C
:10D6E000182000F0C8FE152000F0CAFE7E48008D0C
:10D6F000042108437C49088503207C4908700520E3
:10D7000000F0E8FE10BD1FB57748008D04210842E7
:10D7100003D003207549087001E0FFF7CFFF00F048
:10D7200050FC0020FFF78DFF082202A90020FFF720
:10D7300023FF002408E002A8005DFF2802D000209B
:10D7400004B010BD601CC4B2082CF4DB002403E05C
:10D7500002A80455601CC4B2082CF9DB082202A9F7
:10D760000020FFF788FF082269460020FFF704FF2A
:10D77000002409E002A8005D6946095D884201D0E5
:10D780000020DDE7601CC4B2082CF3DB0120D7E7E2
:10D7900010B5302156480AF0E2F910BD10B55821F5
:10D7A00054480AF0DCF9544800885249088052482D
:10D7B000807888705048C078C8704B48008D4F49B9
:10D7C00008404949088510BD4D490870424909681B
:10D7D000FF2201321143404A116000213F4A11707B
:10D7E0000321404A11703E490978491E3C4A117094
:10D7F00039490968012212031143374A1160704701
:10D8000000B537480078072809DA354800783D49DF
:10D81000087033480078401C3149087015E03948D9
:10D820000078062803D100203649087004E0354806
:10D830000078401C3349087029480078401C28496A
:10D84000087030480078FFF7BFFF00BD29490988FC
:10D8500001802849897881702649C978C1702A4990
:10D860004968416028490968816027498968C16021
:10D870002549C96801611F49496841611D49896895
:10D8800081611C49C968C1611A4909690162194964
:10D89000496941621749896981621649C96981628A
:10D8A0001449496A41631349C96A81631149096B83
:10D8B000C1631049496B01640E49896B41640D498C
:10D8C000C96B81640B49096CC1641FE000350040DD
:10D8D00000310040FCF03F00042400202F240020F1
:10D8E0003124002030240020042A00202C24002091
:10D8F000C42A00206C2A00205024002087FF00004A
:10D90000322400203324002030260020F8490A89E0
:10D9100050210A52F6494A8952210A52F4498A880A
:10D9200054210A52F249CA8856210A52F0490A7B08
:10D9300058210A54EE494A7B59210A5400225A219F
:10D940000A54EC49098D0822114205D05A21095C7C
:10D95000012211435A221154E649098D1022114225
:10D9600005D05A21095C022211435A221154E1497F
:10D97000098D2022114205D05A21095C042211434D
:10D980005A221154DB49098D4022114205D05A21F7
:10D99000095C202211435A221154D7498A7F5B2106
:10D9A0000A54D549CA7F5C210A54D34920310A78E8
:10D9B0005D210A54D04920314A785E210A54CE496B
:10D9C00020318A785F210A54CB492031CA786021FE
:10D9D0000A54C94920310A7961210A54C6492031C3
:10D9E0004A7962210A54C44920318A7963210A5450
:10D9F000704710B504462822C0492046FFF7B6FB01
:10DA000010BDF0B5A7B0BE48006800280AD0B948DC
:10DA1000008D0421084203D00320BA49087001E0B8
:10DA2000FFF74CFEB64800688021084228D0FFF777
:10DA30009DFD002801D027B0F0BDB3490978B34A55
:10DA40008818FFF7FEFDB0480078401CAE4908700A
:10DA50000320AF490870AC48007807280FD1A848C8
:10DA6000006880218843A64908600020A849087002
:10DA7000A34800680121C9020843A14908609EE249
:10DA80009F480068FF210131084221D0FFF76EFD59
:10DA9000002800D0CFE79F4909789C4A8818FFF7F3
:10DAA000D0FD99480078401C974908700320984998
:10DAB0000870954800780128E1D191480068FF215D
:10DAC000013188438E49086000209149087076E250
:10DAD0008B48006801218902084246D0FFF746FDC5
:10DAE000002800D0A7E78C48007901900198002811
:10DAF00001D1182001900198401E019087480078BC
:10DB0000000387494018E030019940180390012232
:10DB100069460398FFF730FD68460078FF281AD160
:10DB200000200090012269460398FFF7A4FD0198A8
:10DB300080010190794800780003794941180198E3
:10DB40000818C61DF93604A8FFF753FF282204A9B8
:10DB50003046FFF790FD6A4800680121890288433A
:10DB600067490860FFF714FE29E265480068012153
:10DB70004902084224D0FFF7F9FC002800D05AE7F8
:10DB800064210EA809F0EBFF0EA8FFF75FFE6348C3
:10DB9000007800036249461864220EA93046FFF758
:10DBA0006AFD5748006801214902884354490860CA
:10DBB000084600680121C902084351490860FEE196
:10DBC0004F4800680121C90208420DD0FFF718FE36
:10DBD000FFF7E4FDFFF7DCFD494800680121C902B9
:10DBE000884347490860EAE145480078C007C00F0C
:10DBF0007CD04C480078002809D141480068400892
:10DC000040003F49086000204649087013E7FFF7CD
:10DC1000ADFC00280DD044480078002808D13848D1
:10DC20000068400840003649086000203D490870FF
:10DC300001E73C480078012802D0022810D107E013
:10DC40003248C01DFFF7FDFC102036490870B8E0CF
:10DC50002E480830FFF7F5FC202032490870B0E06C
:10DC600030480078102108426AD02E480078050715
:10DC70002D0F28022D494618FF2201322C4930462B
:10DC8000FFF77AFC00241BE02949601C085C0002B5
:10DC9000095D471827480088874201D1264F07E0D1
:10DCA00024480088874203D92348874200D07F1E3A
:10DCB0001F490F553804010E1D4A601C1154A41C45
:10DCC000FF2CE1D928021D49461819480119FF22E5
:10DCD00001323046FFF7CFFC12480078401C114952
:10DCE0000870082D6CD10220087069E06AE027E016
:10DCF000AC2A0020042A002030260020C42A00205C
:10DD0000042400202C2400202F240020F6030000EF
:10DD1000302400203224002050240020332400200E
:10DD200000603F002D2400202E24002000E03F0052
:10DD3000A426002020240020FFFF000000D03F0088
:10DD4000FA4800782021084231D0F84800780507C9
:10DD50002D0F2802F6494618FF220132F5493046B8
:10DD6000FFF70AFC2802F4494618FF220132F14964
:10DD70003046FFF780FCED480078401CEB49087006
:10DD8000082D1DD1ED48006840084000EB490860AF
:10DD90000020E6490870E948006802210843E74985
:10DDA0000860E7480088401EE549088008E0E3482D
:10DDB000006840084000E14908600020DB49087025
:10DDC00000BFFCE0DD480068102108420FD0FFF7DB
:10DDD000CDFB002800D02EE6D848006810218843EB
:10DDE000D6490860D7480068FFF72BFCE7E0D34826
:10DDF00000682021084219D0FFF7B8FB002800D0A6
:10DE000019E6D04800680003FF300130CE49097898
:10DE100049014618C948006820218843C74908605D
:10DE20001422CA493046FFF726FCC8E0C348006800
:10DE30004021084218D0FFF799FB002800D0FAE5EE
:10DE4000C04800680603BD48006840218843BB49BC
:10DE500008603022BE49B748FFF788F93022B5493B
:10DE60003046FFF708FCAAE0B448006804210842E5
:10DE700015D0FFF77BFB002800D0DCE5AF48006839
:10DE800004218843AD490860B2480068FFF7D9FB18
:10DE9000AA48006808210843A84908608FE0A748FD
:10DEA0000068082108421ED0FFF760FB002800D060
:10DEB000C1E5A84800680603A74909880846103844
:10DEC000C117090F09180C1120028619FF2201320F
:10DED000A2493046FFF7CFFB9848006808218843E5
:10DEE000964908606BE095480068012109030842E3
:10DEF00016D0FFF73BFB002800D09CE58F48006858
:10DF00000121090388438D4908609548FFF799FB73
:10DF10008A480068012149030843884908604EE0A7
:10DF20008648006801214903084222D0FFF71EFB02
:10DF3000002800D07FE5814800680121490388431B
:10DF40007E490860342287497A48FFF70FF97948FB
:10DF5000F83002908449029801607648FC300290C3
:10DF60008249029801604A1572498148FFF783FB94
:10DF700025E0724800680121890308421FD0FFF79D
:10DF8000C2FB012807D17B48008D0121890208438B
:10DF90007849088505E07748008D7749084075493C
:10DFA0000885664800680121890388436349086041
:10DFB000724800782021884320307049087000BFE3
:10DFC00039E510B55D480078C007C00F12D00024B5
:10DFD0000BE0FFF716FD59480078C007C00F00D1CD
:10DFE00007E00A2000F076FA641C7D20C00084421D
:10DFF000EFD300BFFFF713FB10BD10B55D48008DD8
:10E000000421084203D003205D49087001E0FFF7B6
:10E0100055FBFFF7D6FF5248401EFFF712FB0020CA
:10E02000474908804E4809385649088043480068E7
:10E030000121090308434149086010BD70B53F48FC
:10E0400000680221084200D170BD3C480078C0073A
:10E05000C00F00D0F8E7FFF789FA002800D0F3E7F7
:10E060003648006802218843344908600020454949
:10E070000880FFF758FA0320FFF746FA3F20FFF722
:10E0800043FAE020FFF740FA0020FFF73DFA0024B2
:10E090000FE0FFF729FA0546FFF726FA00024519B7
:10E0A0003948854204D137480088401C35490880EA
:10E0B000641C2B4809388442EBD3FFF707FA00BFF2
:10E0C000C2E710B504462B48008D0421084203D056
:10E0D00003202B49087001E0FFF7F0FA01201349F3
:10E0E00008702A4804801548006801210843134934
:10E0F000086003202649087010BDF8B504460E4696
:10E10000FFF75FFF60000C494518FFF70CFA03208A
:10E11000FFF7FAF92902080EFFF7F6F92904080EAD
:10E12000FFF7F2F9E8B2FFF7EFF93EE02D24002007
:10E1300000D03F00A426002000E03F00042400207F
:10E14000282400200C2400202B240020E427002079
:10E15000DC2500201024002024240020A4270020F7
:10E16000FF030000302600207856341227021520C5
:10E1700000F03F00042A0020FFFB00006424002080
:10E180002C24002022240020FFFF00002024002057
:10E190002E240020FFF7A8F90746FFF7A5F9000293
:10E1A000C719B74200D103E0641CB8488442F1D3D8
:10E1B00000BFFFF78BF9B548844201D3B448F8BDDE
:10E1C0002046FCE770B50026B248008D04210842C5
:10E1D00003D00320B049087001E0FFF76FFAFFF7A2
:10E1E000F0FEFFF7A0F90320FFF78EF93F20FFF7BD
:10E1F0008BF9E020FFF788F90020FFF785F900256B
:10E200000EE0FFF771F90446FFF76EF900020419FA
:10E210009F48844203D0641CB44200D926466D1C3A
:10E220009A488542EDD3FFF751F9304670BD38B5B5
:10E23000FFF7C8FF9949088008460088002829D0C0
:10E24000002423E000BFA1B20020FFF756FF0546DF
:10E250008F498D4219D0280304226946FFF78CF9B3
:10E260000098401C11D1A0B2FFF72BFF03E0FFF78D
:10E27000C8FBFFF7E3FE8A4800680028F7D187480B
:10E280000088844200D338BDDDE7641C83480088E1
:10E290008442D7D300BFF6E7F8B57E48008D04214D
:10E2A000084203D003207C49087001E0FFF706FA1A
:10E2B00000207C490870FF207B490870002416E08C
:10E2C00021037A4A881804226946FFF755F9009815
:10E2D000401C05D073480078401C7249087005E066
:10E2E00071480078FF2801D16F490C70641C072C1D
:10E2F000E6D36D480078FF2809D06A480078801C72
:10E300006849087068480078FFF75EFA26E0002642
:10E31000F643002417E02103644A88180422694662
:10E32000FFF72AF9009805040098000AFF21090266
:10E33000084005430098000E0543B54202D22E4620
:10E3400059490C70641C072CE5D356480078401CD2
:10E350005449087054480078FFF736FAFFF71EFA60
:10E36000FFF716FAF8BD10B5152000F084F8172055
:10E3700000F078F8162000F083F8192000F080F8FB
:10E38000172000F07DF8182000F07AF84148008D41
:10E390003F49091F08403F49088510BD10B51520A9
:10E3A00000F060F8162000F05DF8192000F05AF82F
:10E3B000182000F057F8FFF7D6FF10BD10B5FFF793
:10E3C000EDFFFFF77BF9FFF7FCF8394988420FD1E1
:10E3D000342238493848FFF7CFF8FFF75DFFFFF7E1
:10E3E00026FF2F480068022108432D49086038E0C5
:10E3F00032483049086032484860324888603248C4
:10E40000C86032480861492088827A20C882692021
:10E4100008830020488323208877AF20C8774D21C8
:10E4200024482030017000214170BA2181703C21C4
:10E43000C170822101714B214171FF218171002145
:10E44000C171082101721E21417200218172FE20DA
:10E45000184988838005C8620863FFF7CEFDFFF77F
:10E46000B9F810BD03210522120707231B02D21899
:10E470008300D150704701218140154A9160704757
:10E4800001218140124AD16070470000F60300006C
:10E49000FFFF0000042A00202C2400202824002054
:10E4A00004240020312400203324002000603F0099
:10E4B000270215203026002000F03F0040420F00C8
:10E4C000B80B0000A0860100302A0000581B000095
:10E4D0000005005001461922D2014A43104600E0CF
:10E4E000401E0028FCD1704710B50121082000F023
:10E4F0009AFA0121092000F096FA01210A2000F081
:10E5000092FA01210B2000F08EFA01210C2000F07C
:10E510008AFA01210D2000F086FA01210E2000F078
:10E5200082FA0121112000F07EFA0121122000F070
:10E530007AFA0121132000F076FA0121142000F06C
:10E5400072FA01211A2000F06EFA01211C2000F05D
:10E550006AFA01211D2000F066FA01211E2000F058
:10E5600062FA062000F056FA062000F06BFA072047
:10E5700000F050FA072000F065FA002000F04AFA97
:10E58000002000F05AFA0021012000F04CFA02208D
:10E5900000F040FA022000F050FA0021032000F0C1
:10E5A00042FA042000F036FA042000F046FA002176
:10E5B000052000F038FA00211B2000F034FA00BFDB
:10E5C000002005210907072212028918486100BFAF
:10E5D00000BF052109078918C86000BF02F078FD57
:10E5E000102000F017FA0F2000F014FA102000F0AD
:10E5F00024FA0F2000F021FA00F09CFD10BD70B548
:10E6000005460C46284600F005FA204600F002FABE
:10E61000284600F012FA204600F00FFA284600F0D3
:10E6200011FA204600F00EFA70BD70B505460C4692
:10E63000284600F0EFF9284600F004FA204600F0E2
:10E64000FCF9284600F0F9F970BD70B505460C4696
:10E65000284600F0DFF9284600F0EFF9204600F0E8
:10E66000ECF9204600F0EEF970BD70B505460C4699
:10E67000284600F0CFF9284600F0E4F9204600F0E3
:10E68000DCF9204600F0DEF970BDF8B507460D460E
:10E690000321384600F0C7F90024002610E0600688
:10E6A000040E284600F0C9F9384600F0D0F90028D9
:10E6B00001D001200443284600F0C4F9701CC6B202
:10E6C000082EECDB2046F8BDFFB581B00C461546A0
:10E6D0001E460095019800F09DF9002715E001986D
:10E6E00000F0B0F980210098084202D0019800F0B3
:10E6F000A4F9204600F0A1F9204600F0A3F9009803
:10E700004006000E0090781CC7B2082FE7DB002EF1
:10E7100014D10321019800F086F9204600F08DF90C
:10E72000019800F094F9002805D0204600F08AF9FD
:10E73000012005B0F0BD204600F084F90020F8E784
:10E74000FFB581B006461D460A9F30460299FFF785
:10E7500056FF00233046039A0299FFF7B5FF0128C0
:10E7600006D130460299FFF760FF002005B0F0BDEA
:10E7700000232A4630460299FFF7A6FF012805D15B
:10E7800030460299FFF751FF0020EFE700240FE029
:10E790003A5D30460C9B0299FFF796FF012805D1A0
:10E7A00030460299FFF741FF0020DFE7601CC4B24A
:10E7B0000B988442ECDB30460299FFF736FF0120CC
:10E7C000D4E7FFB581B015461E460A9F029901980D
:10E7D000FFF715FF00232A4602990198FFF774FFFF
:10E7E000012806D102990198FFF71FFF002005B00C
:10E7F000F0BD00230B9A02990198FFF765FF0128ED
:10E8000005D102990198FFF710FF0020EFE7029968
:10E810000198FFF7F4FE28460121084300900023E9
:10E82000009A02990198FFF74FFF012805D102993C
:10E830000198FFF7FAFE0020D9E7002412E00299C0
:10E840000198FFF722FF3055781EA04204D00299AC
:10E850000198FFF70AFF03E002990198FFF7F5FE20
:10E86000601CC4B2BC42EADB02990198FFF7DDFEEE
:10E870000120BCE738B500BF0020784B03221146C9
:10E88000009007F0B4F8044600BF2546002D06D0DE
:10E8900000BF73A2F021284600F044F900BF00BF7A
:10E8A00000BF38BD70B5002201218903704800689F
:10E8B00007F085F9044600BF2546002D07D000BFAC
:10E8C00067A2FF210531284600F02CF900BF00BFE8
:10E8D0000022012189026748006807F070F90446A8
:10E8E00000BF2546002D07D000BF5DA2FF210731E4
:10E8F000284600F017F900BF00BF70BD70B55E4A32
:10E9000001215B4807F0EFF8044600BF2546002DC3
:10E9100006D000BF52A2F821284600F003F900BF3C
:10E9200000BF564A0121534807F0DDF8044600BFF6
:10E930002546002D06D000BF49A2FA21284600F046
:10E94000F1F800BF00BFFFF7ADFF70BD70B54848DC
:10E95000006807F065F9044600BF2546002D07D082
:10E9600000BF3FA2FF211031284600F0DBF800BFB6
:10E9700000BF4048006807F053F9044600BF254631
:10E98000002D07D000BF36A2FF211231284600F02B
:10E99000C9F800BF00BF70BD10B53948C06B002872
:10E9A00024D000203649C863880507210902401891
:10E9B000406903210904084218D1052000070721F6
:10E9C00009024018C0680321090408420ED004203F
:10E9D00000F03DF8002809D12A480078C007C00F90
:10E9E00002D002F0F9FB01E002F056FC10BD10B5B8
:10E9F00025488069C4B200202449886021480078F5
:10EA0000C007C00F03D1204602F00EFD01E002F066
:10EA100038FC10BD03210522120707231B02D21860
:10EA20008300D150704710B58A0005231B070724C7
:10EA300024021B1984001A5110BD01218140144A7F
:10EA40009160704701218140114AD16070470146B1
:10EA50000F480069C840C007C00F70470428002055
:10EA60002E2E5C68617264776172652E630000000F
:10EA70003424002038240020F10E02001B0F020075
:10EA8000406100406B2400200045004000410040F0
:10EA90000005005070B52C24F74D04E000202870CC
:10EAA0006D1C601E84B2002CF8D11624F34D04E0D6
:10EAB000002028706D1C601E84B2002CF8D1342414
:10EAC000EF4D04E0002028706D1C601E84B2002C05
:10EAD000F8D10820E949087500BF05E0FF21E748A3
:10EAE000001D0155601C84B2E448007DA042F5DCA5
:10EAF00087204001E34908800020C043E2490880A4
:10EB0000E24802F069F9FFF759FC0020E04908806B
:10EB10003C20E049087070BD10B50446204607F05F
:10EB200064FB10BD30B50346FF2007E0DA4C646893
:10EB3000E407E40F02D0D94CD94D2C600028F5D160
:10EB400030BDF8B500BF00235022D649082006F09A
:10EB5000DAFA054600BF2E46002E06D000BFD2A22C
:10EB600059213046FFF7DEFF00BF00BF00BF002085
:10EB700000900090684660DF044600BF2546002DE7
:10EB800006D000BFC8A260212846FFF7CBFF00BF18
:10EB900000BFC84806F0E0FA044600BF2546002D35
:10EBA00006D000BFC0A264212846FFF7BBFF00BF0C
:10EBB00000BFC14806F0D9FA044600BF2546002D23
:10EBC00006D000BFB8A268212846FFF7ABFF00BF00
:10EBD00000BFBA4806F0D2FA044600BF2546002D11
:10EBE00006D000BFB0A26C212846FFF79BFF00BFF4
:10EBF00000BFF8BD70B5A048008D01214902084250
:10EC000029D09D48008DAE4908409B49088500BF2A
:10EC1000002005210907072212028918C86000BFD9
:10EC200000BF03200004052109078918486100BFBF
:10EC300002F046FA0020C043A24988600420012166
:10EC40008140A14A116000BFFFF780FE0A20FFF754
:10EC500041FC34DF0DE040DF044600BF2546002DB7
:10EC600006D000BF90A284212846FFF75BFF00BFBB
:10EC700000BF70BD30B504460D462A462146934874
:10EC8000FFF750FF30BD3EB50A219148007808F0EB
:10EC900072FF3030C1B2684601700A218C4800789A
:10ECA00008F069FF303168464170022102918949BC
:10ECB00008886B4602AA0021A4DF044600BF25464F
:10ECC000002D06D000BF78A2C1212846FFF72AFFF9
:10ECD00000BF00BF3EBD10B5042000F002FA0028BE
:10ECE00074D07D480078002870D17C480078C00737
:10ECF000C00F0CD079480078400840007749087070
:10ED000002F0CCFC02F04CFA02F009FA5EE0734823
:10ED100000788007C00F0CD070480078022188432B
:10ED20006E49087002F0FEFC02F03AFA02F0F7F9C0
:10ED30004CE06B480068002806D002F09AFD02F013
:10ED40002FFA02F0ECF941E066480088664909882C
:10ED5000884206D002F003FC02F022FA02F0DFF94A
:10ED600034E0052000F0BDF900282FD15F4800787D
:10ED70008007C00F0FD05E4800785E490978401ABE
:10ED80008006800E202821DC584800780221884324
:10ED9000564908701AE05548007840084000534929
:10EDA000087000204C49087000BF052109070722A0
:10EDB00012028918486100BF00BF0320000405212A
:10EDC00009078918C86000BF02F0A9F94348007814
:10EDD0000007C00F07D041480078082188433F4909
:10EDE0000870FFF750FF3D4800784007C00F13D070
:10EDF0003A48007804218843384908703E48007832
:10EE000000280AD11C48008D0121C902084201D105
:10EE100002F018FC04F0CBFBC6E03748007801286C
:10EE200078D11548008D802108420DD11248008DFF
:10EE3000084311490885012003F09EFC2F480088F3
:10EE40002F4908402D4908800B48008DFF210131D2
:10EE500008425AD02B4800898021084204D000F093
:10EE600090FA01F012FD9FE026480089082108422F
:10EE700001D101F00AFD97E0042A0020C4250020FA
:10EE80003026002058240020782400205024002020
:10EE9000482400204E240020000401403546526ED4
:10EEA00000060140B42900202E2E5C6D61696E2E93
:10EEB000630000005D3502008DD4010019EB0100F4
:10EEC000FFFD00000043004080E100E0EFBEADDE4A
:10EED0006A240020102500206C2400205C240020DF
:10EEE0006024002074240020762400206B2400205D
:10EEF000722400207024002068240020C2240020F6
:10EF0000BFEF0000F42A002004E000F013F901F044
:10EF1000BCFC49E07648007802282FD17548008D66
:10EF2000802108420DD17348008D0843714908853E
:10EF3000012003F021FC70480088704908406E49A8
:10EF400008806C48008DFF210131084211D06C48C7
:10EF500000898021084204D000F013FA01F07CFC03
:10EF600022E067480089082108421DD001F074FCA6
:10EF70001AE000F0DFF801F06FFC15E05C48007863
:10EF8000032802D100F0CEF90EE059480078042899
:10EF90000AD104F00CFB00F026FA5648008D01213E
:10EFA0004902084353490885564840788007C00FF6
:10EFB00005D054484078022188435249487010BD1A
:10EFC000514852494860801751498860C0074860DD
:10EFD000C0175049886004204860FFF7B2FDFFF772
:10EFE00049FC02F032FEFFF755FDFFF77DFAFFF70F
:10EFF00085FC03F0ADFF06202ADF04202ADF012173
:10F0000006202BDF044600BF2546002D07D000BF99
:10F01000414AFF216F312846FFF784FD00BF00BF42
:10F02000012104202BDF044600BF2546002D07D018
:10F0300000BF394AFF2171312846FFF773FD00BF39
:10F0400000BF062026DF044600BF2546002D07D05E
:10F0500000BF314AFF2173312846FFF763FD00BF2F
:10F0600000BF042026DF044600BF2546002D07D040
:10F0700000BF294AFF2175312846FFF753FD00BF25
:10F0800000BF62B602F077F800BF02F0F2FD23483D
:10F090000068002814D12248008822490988884243
:10F0A0000ED11848006800280AD11F4800881F495F
:10F0B0000988884204D1052000F013F8002801D106
:10F0C00000BF01E0FFF796FDFFF705FE01F02EFF00
:10F0D00001F0AEFF04F0B5FBFEF793FCFEF7AEFFC8
:10F0E000D3E7014612480069C840C007C00F704707
:10F0F00068240020042A0020C2240020BFEF000062
:10F10000F42A00205C240020DFFF07C00005004037
:10F110000063004000430040A8EE010004240020EA
:10F120007224002070240020742400207624002003
:10F13000000500501FB50F211020FFF776FA0F20B1
:10F14000012103AB32220091019001461020FFF70C
:10F1500038FB4721684601730020012103AA2023C0
:10F1600000920191029032220F211020FFF7E8FA5D
:10F170000021684601730020012103AA2123009287
:10F180000191029032220F211020FFF7D9FA0021BD
:10F19000684601730020012103AA222300920191F5
:10F1A000029032220F211020FFF7CAFA0021684690
:10F1B00001730020012103AA2323009201910290F0
:10F1C00032220F211020FFF7BBFA08216846017395
:10F1D0000020012103AA24230092019102903222EF
:10F1E0000F211020FFF7ACFA0221684601730020BE
:10F1F000012103AA252300920191029032220F21BE
:10F200001020FFF79DFA00216846017300200121BC
:10F2100003AA2E2300920191029032220F21102086
:10F22000FFF78EFA0021684601730020012103AA2E
:10F23000302300920191029032220F211020FFF71B
:10F240007FFA0021684601730020012103AA3223BE
:10F250000092019102901A460F211020FFF770FAD8
:10F260000021684601730020012103AA3323009284
:10F270000191029032220F211020FFF761FA002144
:10F28000684601730020012103AA382300920191EE
:10F29000029032220F211020FFF752FA58216846BF
:10F2A00001730020012103AA3A23009201910290E8
:10F2B00032220F211020FFF743FA02216846017322
:10F2C0000020012103AA3B230092019102903222E7
:10F2D0000F211020FFF734FA072168460173002040
:10F2E000012103AA3C2300920191029032220F21B6
:10F2F0001020FFF725FA1421684601730020012130
:10F3000003AA3D2300920191029032220F21102086
:10F31000FFF716FAFE48008DFF2101310843FC4932
:10F3200008851FBD7FB5FB48008980210843F94946
:10F3300008811720694608730020012103AA2023B1
:10F3400000920191029032220F211020FFF7F8F96C
:10F350000021F0488030C1770020EE490882EE4855
:10F36000006806F05DFC044600BF2546002D06D06F
:10F3700000BFEAA25B212846FFF7D4FB00BF00BF15
:10F380007FBD7FB5E3480089E8490840E14908812D
:10F390004720694608730020012103AA2023009218
:10F3A0000191029032220F211020FFF7C9F90021AC
:10F3B000D8488030C1770020D64908820022012138
:10F3C0008902D548006806F0FAFB044600BF2546CE
:10F3D000002D06D000BFD1A269212846FFF7A2FB6D
:10F3E00000BF00BF7FBD1FB5C948008DCF497F3921
:10F3F0000840C7490885002069460873012103AA0F
:10F40000202300920191029032220F211020FFF759
:10F4100097F91FBD10B5BF48A030447B807B201AF0
:10F42000C1B2BC48A030C47B007C201AC2B2B9482B
:10F43000A030447C807C201AC3B2914203DB994205
:10F4400001DB012010BD8A4203DB9A4201DB02206E
:10F45000F8E70320F6E7F0B587B0AE488030018AC0
:10F46000808A814271D0AB488030018A808A814293
:10F4700006DDA8488030018A808A081A84B20AE032
:10F48000A4488030808A01210904091AA1488030EB
:10F49000008A081884B29F488030C18A408A81421D
:10F4A00006DD9C488030C18A408A081A87B20AE08B
:10F4B00098488030408A01210904091A9548803013
:10F4C000C08A081887B29348C030007F032800D153
:10F4D000602790488030C18A4182018A8182384603
:10F4E00009F025F803910290204609F020F805461E
:10F4F00000228F4B09F01EF801910090039B029AA5
:10F5000008F0C4FD0591049008F0DCFB8149086017
:10F51000086809F03BF905460022864B09F006FB16
:10F5200006D87C480089012108437A49088106E011
:10F53000784800897D49803108407649088100215A
:10F540007448C030017719E0FFE77248C030007F8F
:10F55000032813D06F48C030007F401CC1B26D48F3
:10F56000C0300177007F032808D16A4800896F49BD
:10F5700080310840674908810020086007B0F0BD6D
:10F5800064488030008A401C81B262488030018229
:10F59000C189C18270475F48C030407D0821084260
:10F5A00001D0012070475B48C030407D10210842E7
:10F5B00001D00220F6E70320F4E702468A4202DB8C
:10F5C000501A00B27047881A00B2FBE7F0B585B058
:10F5D00050488030C089401C81B24E488030C18183
:10F5E0008038008A002827D04A48008A401E4949AE
:10F5F00008820846008A00281ED14548008D400434
:10F60000400C4349088500214248C030417600241F
:10F6100010E0494801783F48C0300155474801781B
:10F620003C48C6300155454801783A48CC30015530
:10F63000601CC4B2052CECDB3648A030C07F4128EA
:10F6400007DA3448A030C07F401CC1B23148A03036
:10F65000C17730484089803087B22E488089803019
:10F6600080B203902B48C089803080B20290294834
:10F670008030C07F04287DDB2648A1304178401EC1
:10F680004170401C81784170C1788170C770401E04
:10F690004178401C407809181E48A130807809182C
:10F6A0001C48A130C0780E18B005000E2249087021
:10F6B0001848A5304178401F4171401D8178417044
:10F6C000C17881700398C1B21248A530C170401F43
:10F6D0004179401D407809180E48A53080780918F6
:10F6E0000C48A530C0780E18B005000E13490870FC
:10F6F0000848A93041780938417209308178417051
:10F70000C17881700298C1B20248A930C17017E077
:10F71000042A0020F42A0020382400202E2E5C73B6
:10F72000656E736F7233672E630000007EFF00000A
:10F7300000004040000004404A2400204B240020E8
:10F740000938417A093040780918FE48807809184C
:10F75000FC48C0780E18B005000EFB490870F94847
:10F760002938C07F042877D1F6482938C07F401C4B
:10F77000C1B200E0EFE3F3482938C177002120301F
:10F7800001704173FF2181730021C173FF21017456
:10F7900000214174FF2181740021C17401754175FC
:10F7A0000C218175C1750176E8480178E548093872
:10F7B0004176E6480178E34809388176E4480178E3
:10F7C000E0480938C176E2480178DE480938017717
:10F7D000DD480178DB4809384177DB480178D948B2
:10F7E00009388177D9480178D64817308174D848CC
:10F7F0000178D4481730C174D5480178D148173002
:10F8000001750821417501218175C1750176D148C5
:10F81000008D4004400CCF4908850021C9481730AD
:10F820004176002410E0C9480178C64817300155D8
:10F83000C7480178C3481D300155C5480178C14803
:10F8400023300155601CC4B2062CECDB4121BD48BD
:10F850000938C177FEE3FFE7BA480938407BBB4966
:10F860000978884204DAB9480178B6480938417302
:10F87000B4480938C07BB6490978884204DAB448EC
:10F880000178B0480938C173AE480938407CAE49A8
:10F890000978884204DAAC480178AA4809384174EA
:10F8A000A8480938807BA9490978884204DDA7481F
:10F8B0000178A44809388173A2480938007CA4491A
:10F8C0000978884204DDA24801789E48093801740D
:10F8D0009C480938807C9C490978884204DD9A4814
:10F8E0000178984809388174002696481730407D81
:10F8F000C007C00F38D093481730807C93490978EF
:10F90000884241DA8F481730407D934908408D493D
:10F910001731487500BF8B4A093A917E2032907C9E
:10F92000FFF74BFE87490939897D88422CDB8548E2
:10F930000938817E41762030817C20388176002410
:10F9400006E080481730611C415C0155601CC4B260
:10F95000052CF6DB7B481730817C0155FFF71BFE39
:10F96000012811D101260FE076481730807C7749B5
:10F970000978884208DD73481730407D012108432B
:10F98000704917314875C6E76E481730407D02212F
:10F9900008423AD06B481730C07C6D4909788842DC
:10F9A00043DA68481730407D6B49491E0840654975
:10F9B0001731487500BF634A093A117F2032D07C65
:10F9C000FFF7FBFD5F490939C97D88422DDB5D48A2
:10F9D0000938017FC1762030C17C203801770024AE
:10F9E00006E058481D30611C415C0155601CC4B2E2
:10F9F000052CF6DB53481730C17C801D0155FFF7FD
:10FA0000CAFD022811D102260FE04E481730C07CF3
:10FA10004F490978884208DD4A481730407D022165
:10FA20000843484917314875C5E746481730407DB7
:10FA3000042108423AD043481730007D42490978F2
:10FA4000884243DA3F481730407D4349C91E084089
:10FA50003C491731487500BF3A4A093A917F203234
:10FA6000107DFFF7AAFD37490939097E88422DDB51
:10FA700034480938817F41772030017D20388177F3
:10FA8000002406E02F482330611C415C0155601CB6
:10FA9000C4B2052CF6DB2B481730017D0C30015524
:10FAA000FFF779FD032811D103260FE02548173011
:10FAB000007D25490978884208DD22481730407DBD
:10FAC000042108431F4917314875C5E71F480178CD
:10FAD0001C48173081741E4801781A481730C174C9
:10FAE00019480178174817300175012E7ED120384A
:10FAF000817E407E81427ADA12480938C17C807E5C
:10FB0000814274DD0F480938C17C407E8142F2DABF
:10FB100000BF0C480938C07F0A2869DB094809384A
:10FB2000C07F402864DC40200649A9390882094882
:10FB3000008D0121C903084271D008480068401CAB
:10FB400006490DE09D2B00204C2400204A24002073
:10FB50004B240020042A0020FEFF0000302A002051
:10FB60000860FD484068401CFB494860FB48007A3B
:10FB7000C007C00F09D00846C068401CC860F848DC
:10FB8000408A401CF649488209E0F3488068401CDE
:10FB9000F1498860F248008A401CF1490882F14826
:10FBA0004068002817D0F048008D0821084212D183
:10FBB000E9484068EB49496888420CD3EA48008D1F
:10FBC00008210843E8490885E8480078402188432F
:10FBD0004030E64908703C20E5490870FFF7D0FC4A
:10FBE000DE480089022108421AD002E046E244E2DF
:10FBF00097E0DA484068DB49898A4018D74948606D
:10FC0000D849888A08F02EFE0090D648C16A00982C
:10FC100008F0C0FF019008F0E1FD05463DE081E0FD
:10FC2000CE4800890421084215D0CC484068CD490F
:10FC3000C98A4018C9494860CA49C88A08F012FEF2
:10FC40000090C848016B009808F0A4FF019008F0EC
:10FC5000C5FD054621E0C148007AC007C00F0ED09F
:10FC6000C049C88A08F0FEFD0090BE48016B0098AC
:10FC700008F090FF019008F0B1FD05460DE0B9498C
:10FC8000888A08F0EFFD0090B648C16A009808F035
:10FC900081FF019008F0A2FD0546B6484068401972
:10FCA000B4494860AC4840694019AB494861AB4829
:10FCB000007AC007C00F09D00846C0694019C86162
:10FCC000A74840684019A649486009E0A2488069F1
:10FCD0004019A1498861A24800684019A0490860FC
:10FCE000A54800884019A44908809E48006800285B
:10FCF00017D09D48008D1021084212D196484069C6
:10FD00009849096888420CD39748008D1021084310
:10FD1000954908859548007880218843803093492B
:10FD20000870A6E18D48C030407E002873D1012EB6
:10FD300024D100241FE08948C030611C415C005D73
:10FD4000814216DA8548A030C27C2030611C405CBC
:10FD500082420EDD8148A030C17C2030005D8142AE
:10FD600007DA7E48C030407E401CC1B27B48C030BC
:10FD70004176601CC4B2042CDDDB4CE0022E24D1A1
:10FD800000241FE07548C630611C415C005D814263
:10FD900016DA7248A030027D2630611C405C824237
:10FDA0000EDD6E48A030017D2630005D814207DA0D
:10FDB0006A48C030407E401CC1B26848C0304176BD
:10FDC000601CC4B2052CDDDB25E0032E23D100240A
:10FDD0001FE06248CC30611C415C005D814216DA54
:10FDE0005E48A030427D2C30611C405C82420EDDBA
:10FDF0005A48A030417D2C30005D814207DA5748D7
:10FE0000C030407E401CC1B25448C0304176601CB6
:10FE1000C4B2052CDDDB5148C030407E401CC1B26D
:10FE20004E48C0304176407E0C287AD14E48008D35
:10FE30000121C90308434C4908854E4801684748D9
:10FE4000C030407E08184B49086043484168434829
:10FE5000C030407E0818404948604048007AC007DA
:10FE6000C00F10D00846C1683C48C030407E08181A
:10FE70003949C8603A48418A3848C030407E08183D
:10FE8000374948820FE0344881683448C030407EAA
:10FE90000818314988603248018A3048C030407EB5
:10FEA00008182F4908822F484068002817D02E488C
:10FEB000008D0821084212D1274840682949496825
:10FEC00088420CD32848008D08210843264908851C
:10FED00026480078402188434030244908703C205F
:10FEE000234908701D480089022108421AD01D4884
:10FEF000808A1A49C031497E484305461748406800
:10FF0000401916494860284608F0ACFC0090154896
:10FF1000C16A009808F03EFE019008F05FFC0546BB
:10FF20005FE0A6E00D480089042108422DD00D486D
:10FF3000C08A0A49C031497E48430546074840689F
:10FF4000401906494860284608F08CFC0090054896
:10FF5000016B009812E03CE16C2A0020F42A00209A
:10FF6000C42A002030260020042A0020602400201B
:10FF70004E240020302A00204824002008F00AFEE9
:10FF8000019008F02BFC05462BE0FB48007AC007E7
:10FF9000C00F13D0F949C98AF74AC032527E514383
:10FFA000084608F057FC0090F448016B009808F0F0
:10FFB000F1FD019008F012FC054612E0EF49898A34
:10FFC000ED4AC032527E5143084608F043FC00908F
:10FFD000EA48C16A009808F0DDFD019008F0FEFBD8
:10FFE0000546E74840684019E5494860E5484069EA
:10FFF0004019E4494861E048007AC007C00F09D0C1
:020000040002F8
:100000000846C0694019C861DF4840684019DE49A8
:10001000486009E0DB4880694019DA498861DA48BC
:1000200000684019D8490860D448808AD7490988AF
:100030004018D6490880D1480068002819D0D44813
:10004000008D1021084214D1CE484069CB4909687F
:10005000884200E0BCE00CD3CD48008D102108435D
:10006000CB490885CB480078802188438030C94936
:1000700008700021C048A030C17729E0022E12D1BB
:10008000BD48A030017FC07E814221DABA48A0304D
:10009000017D007F81421BDDB748A030017DC07E1D
:1000A000814215DA35E5032E12D1B348A030817FA5
:1000B000407F81420CDAB048A030417D807F814290
:1000C00006DDAD48A030417D407F814200DA20E569
:1000D000A948A0300078401CC1B2A748A0300170E8
:1000E0000078202874D1FFF7B6F90021A248A0308B
:1000F0000170417B807B0E183046F10F09184E10BD
:100100009D48A030C674C17B007C0E183046F10FAC
:1001100009184E109848A0300675417C807C0E1856
:100120003046F10F09184E109348A03046750C2147
:100130008175C17501762030C17D0176817DC175E3
:10014000FFF768F98C49C03188750846C17D807D0C
:1001500081422FD18848C030017EC07D814229D1A3
:100160008548C030407DC72108408349C03148756B
:100170000846807D012807D10846407D08210843B4
:100180007D49C031487515E07B48C030807D02282C
:1001900008D17948C030407D102108437649C031EC
:1001A000487507E07448C030407D202108437249FB
:1001B000C031487500217048A0304173FF21817320
:1001C0000021C173FF21017400214174FF2181745A
:1001D00019E069488030C27F213087540398C1B24A
:1001E00065488030C27F253081540298C1B2624890
:1001F0008030C27F293081542938C07F401CC1B271
:100200005D488030C17705B0F0BD00205A4980318B
:10021000097E002916D158490A228A5E252A04DD62
:10022000022280310A76012043E0534A0A21515EBE
:100230001A22D24391423CDB01224F4980310A7697
:10024000012036E04C498031097E012916D14A4A05
:100250000A21515E2422D243914205DA0022464906
:1002600080310A76012024E043490A228A5E252A49
:100270001FDD022280310A7601201AE03E498031DA
:10028000097E022915D13C4A0A21515E2422D2431B
:10029000914205DA0022384980310A76012008E0CF
:1002A00035490A228A5E1B2A03DA012280310A7646
:1002B000012031498031497E002916D12E490C2276
:1002C0008A5E252A04DD022280314A76012043E03D
:1002D000294A0C21515E1A22D24391423CDB012271
:1002E000254980314A76012036E023498031497E14
:1002F000012916D1204A0C21515E2422D243914279
:1003000005DA00221C4980314A76012024E01A498E
:100310000C228A5E252A1FDD022280314A760120C6
:100320001AE015498031497E022915D1124A0C2163
:10033000515E2422D243914205DA00220E498031D7
:100340004A76012008E00C490C228A5E1B2A03DA57
:10035000012280314A76012007498031897E0029B7
:1003600027D105490E228A5E252A15DD0222803119
:100370008A76012054E00000F42A00203026002074
:10038000302A00206C2A0020C42A002048240020A3
:10039000042A002060240020FE4A0E21515E1A2209
:1003A000D24391423CDB0122FA4980318A76012016
:1003B00036E0F8498031897E012916D1F54A0E21AF
:1003C000515E2422D243914205DA0022F149803164
:1003D0008A76012024E0EF490E228A5E252A1FDD5D
:1003E000022280318A7601201AE0EA498031897E32
:1003F000022915D1E74A0E21515E2422D2439142AF
:1004000005DA0022E34980318A76012008E0E149DB
:100410000E228A5E1B2A03DA012280318A760120AD
:10042000DC49C031C97E00290DD0012803D110223A
:10043000D849C031CA76D749C031C97E491ECAB22F
:10044000D449C031CA7601280DD1D249C031C97E04
:10045000002908D1CF49898A491CCE4A91821022AD
:10046000CC49C031CA76704710B5024610460B021F
:10047000034318B200110123DB02184203D00F23FB
:100480001B03034318B20346C417240FE4182011BA
:1004900010BD1FB5BF488030417F01772720012163
:1004A00002AB3222009101900F211020FEF789F952
:1004B0006846007A082108421ED0A820062102AB17
:1004C0003222009101900F211020FEF77AF96A463E
:1004D000517A107AFFF7C8FFAE4948816A46D17A4F
:1004E000907AFFF7C1FFAB4988816A46517B107B48
:1004F000FFF7BAFFA749C881A6480089082108422A
:1005000002D0FFF782FE1FBDFFF760F800BFFAE7D9
:10051000F0B587B0A0480078401C9F490870084695
:1005200000780A286FD1002008709C4800880028B5
:100530006AD09A490988FF2269325143084698498E
:1005400007F019FB044608F085F90590059808F0B6
:100550001DF9944A944B0391029007F0EBFF044677
:1005600007F0B0FB0590059808F010F9044600224A
:1005700001239B0708F0A8FA02D80126B607AAE0D3
:10058000059808F003F904460022884B08F09CFA0D
:1005900001D8874E9FE0059808F0F8F8044600223D
:1005A000844B08F091FA01D8834E94E0059808F046
:1005B000EDF804460022814B08F086FA01D8804EFF
:1005C00089E0059808F0E2F8044600227D4B08F027
:1005D0007BFA01D87C4E7EE0059808F0D7F80446F7
:1005E00000227A4B08F070FA01D8794E73E0059832
:1005F00008F0CCF804460022764B08F065FA04D8DF
:100600004126360667E025E1C2E0059808F0BEF80D
:100610000446714A714B08F057FA01D8704E5AE0FF
:10062000059808F0B3F8044600226E4B08F04CFA27
:1006300001D86D4E4FE0059808F0A8F80446664AC8
:100640006A4B08F041FA01D8694E44E0059808F079
:100650009DF804460022674B08F036FA01D8664E32
:1006600039E0059808F092F804460022634B08F040
:100670002BFA01D8624E2EE0059808F087F8044660
:100680000022604B08F020FA01D85F4E23E0059865
:1006900008F07CF80446504A52425C4B08F014FAC9
:1006A00001D85B4E17E0059808F070F80446002268
:1006B000584B08F009FA01D8574E0CE0059808F09D
:1006C00065F804460022554B08F0FEF902D883264F
:1006D000F60500E0524E5349087808F0C3F8314659
:1006E000019008F057FA074608F050F804464E4AC1
:1006F0004E4B07F01FFF0391029007F0E3FA0490BE
:10070000049808F043F80446494A4A4B07F091FC24
:100710000391029007F0D6FA04904749049808F034
:1007200039FA0490049808F059F844498968401847
:1007300042498860049808F051F84149496A4018D4
:100740003F494862049808F049F83E49C968401892
:100750003C49C860334820388068002818D03A489F
:10076000008D2021084213D13548406A2D49203997
:10077000896888420CD33448008D202108433249CF
:1007800008853248407840084000401C2F49487096
:1007900000205DE0F42A00204D24002048240020A1
:1007A000A08601006E6E4C4F58E2E33F000004400B
:1007B00000004040000008403333534000000C402C
:1007C00033337340000010400000A040000012408E
:1007D0009A99C94000001440CDCCCCCCCCCC14406C
:1007E000000010410000184000002041CCCC1A400D
:1007F0000000304100001C400000384100001E4055
:10080000000048410000204000005841333321409F
:1008100000006041000022400000704100002440C0
:100820000000904150260020EC51B81E85EB913F0E
:10083000FCA9F1D24D62403F00007A44302A0020EA
:100840006C2A0020C42A0020042A002060240020F2
:10085000FE49088007B0F0BDFD490989FD4A1140F5
:10086000FB4A11810021518291820022F849C03156
:100870008A76002006E000224300F5491631CA526C
:10088000411CC8B23C28F6DB7047F14909890822AF
:100890001143EF4A118111460989EE4A083211408D
:1008A000EB4A11810322EA49C0310A77C03909892C
:1008B000E84A37321140E64A1181002111603C219B
:1008C00051820022E249C0318A760021E04A9182B9
:1008D000002006E000224300DD491631CA52411CC7
:1008E000C8B23C28F6DB0021DB4A118051809180A0
:1008F000D74A0A21515E2422D243914204DA0022CF
:10090000D34980310A760CE0D1490A228A5E252A31
:1009100003DD022280310A7603E00122CC498031D6
:100920000A76CB4A0C21515E2422D243914204DA4A
:100930000022C74980314A760CE0C5490C228A5E04
:10094000252A03DD022280314A7603E00122C049D4
:1009500080314A76BE4A0E21515E2422D243914212
:1009600004DA0022BA4980318A760CE0B8490E22B6
:100970008A5E252A03DD022280318A7603E0012285
:10098000B34980318A76704710B5B14A128908237D
:100990001A427AD0B14A926B521CB04B9A63B04A59
:1009A000D269521CAE4BDA61A94A528A002A6DD034
:1009B000A74A528A521EA64B5A821A46528A002AC7
:1009C00064D1A54A9288521CA34B9A80A44A928D66
:1009D000521CA34B9A85A14A40321289521C93B2F1
:1009E0009E4A403213819F4A9278521CD3B29D4A4C
:1009F00093703C22964B5A823B2008E0421E5300E3
:100A0000934A1632D35A44001353421ED0B20028E0
:100A1000F4DC8F4A938A44001632135300228C4B25
:100A20009A821A46C032927E521CD3B2884AC03291
:100A30009376927E3C2A03DD3C23854AC03293762E
:100A4000834A128910231A426FD0814A12892023C7
:100A50001A424AD0804A5288521C7F4B5A80804AA0
:100A6000528D521C7E4B5A857C4A4032D288521C91
:100A700093B27A4A4032D3807A4A5279521CD3B226
:100A8000784A53710021002009E0BEE0BCE0430039
:100A90006F4A1632D25C5218D1B2421CD0B26C4AA4
:100AA000C032927E8242F2DC28290BDD684A12892C
:100AB000684B08331A40664B1A810023644AC032DF
:100AC00093760FE1052904DA614AC032927E282A22
:100AD000F7DB5F4A12895F4B18331A405C4B1A816F
:100AE00000235B4AC0329376FCE05B4A1288521CBA
:100AF000594B1A805A4A128D521C594B1A85574A23
:100B000040329288521C93B2544A40329380554AE4
:100B10001279521CD3B2534A13714D4AC032927E9D
:100B2000322A1DDB0021002008E037E04300484A5C
:100B30001632D25C5218D1B2421CD0B2444AC032F2
:100B4000927E8242F2DC05291ADC414A1289202376
:100B50001A433F4B1A8100233D4AC03293760FE07F
:100B60000021002007E04300394A1632D25C5218B7
:100B7000D1B2421CD0B2364AC032927E8242F2DCFE
:100B800028299EDD324A1289324B28331A40304BD5
:100B90001A8100232E4AC0329376A3E02E4AD288CF
:100BA000521C2D4BDA802E4AD28D521C2C4BDA85EA
:100BB0002A4A40325289521C93B2284A4032538109
:100BC000284AD278521CD3B2264AD370204AC03267
:100BD000927E0A2A18DB0021002007E043001C4A0D
:100BE0001632D25C5218D1B2421CD0B20A28F5DBC0
:100BF0000A2977DA164A128910231A43144B1A81EC
:100C00000023134AC03293766CE0114AC032127F3F
:100C1000032A5DD0124AD268521C114BDA600F4A87
:100C2000926A521C0D4B9A620F4AD268002A2AD04F
:100C30000E4A128D40231A4225D1084A926A0A4B65
:100C4000DB689A421FD3094A128D11E04824002024
:100C5000F42A0020C7FF0000402400206C2A002056
:100C6000302A0020E42A002030260020042A002018
:100C700040231A431C4B1A851C4A527802239A437C
:100C8000921C1A4B5A701A4A127AD207D20F0FD0FE
:100C9000184AD26A521C174BDA62174A1269521C60
:100CA000154B1A61154A128B521C144B1A8319E00A
:100CB000104A126B521C0F4B1A630F4A5269521C96
:100CC0000D4B5A610D4AD28A521C0C4BDA8209E054
:100CD000084A926B521C074B9A63074AD269521C0E
:100CE000054BDA6110BD0000042A002060240020BA
:100CF000F42A00206C2A0020302A0020C42A002078
:100D000070B50446FF219131204606F034FF0029DA
:100D10000DD06421204606F02EFF002909D025467B
:100D2000E017800F401980108000201A01D10120A7
:100D300070BD0020FCE770B586B00646CBA103C9A4
:100D400005910490CBA30FCB6C460FC400243588CB
:100D5000681E85B203E02846FF38193885B2FF20A7
:100D600019308542F7DA02E028461C3885B21C2D7E
:100D7000FADA03E0281F85B2601C84B2042DF9DA88
:100D800004A8045D601984B2072C01DBE01F84B263
:100D9000B0786946085C001984B2072C01DBE01FBB
:100DA00084B2F078001984B201E0E01F84B2072C0D
:100DB000FBDAB078032807DB3088FFF7A1FF0028B3
:100DC00002D0E0B206B070BD002C01D1062401E0D3
:100DD000601E84B2E0B2F5E710B504460020A071B1
:100DE000607120710120E070A070A648208020462C
:100DF000FFF7A1FFE07110BD70B588B004460D4645
:100E00001C22A14901A8FCF7B1F9600001A90E5A02
:100E1000022C06D12846FFF773FF002801D0701C72
:100E200086B2F0B208B070BD10B504462188A07833
:100E3000FFF7E2FFE178884203D0E078401CE070E1
:100E40000CE00120E070A078401CA070A0780D2874
:100E500004D10120A0702088401C20802046FFF78C
:100E60006AFFE07110BD10B50446A079401CA07166
:100E7000A0793C2839D10020A0716079401C6071B4
:100E800060793C281AD18148006801218902084311
:100E90007E490860002060712079401C2071207913
:100EA00018280BD100202071084600680121490252
:100EB0000843764908602046FFF7B6FF744800886B
:100EC000002812D072480088401E714908800846E8
:100ED0000088002809D18720400108806D480078EB
:100EE0001021884310306B490870FFF711FB10BDCB
:100EF0006949897A491CCAB267498A72897AC907DD
:100F0000C90F01D000BF07E063492039098D0122D4
:100F10001143614A203A118570475F492039098D94
:100F2000022211435C4A203A1185704710B55A4895
:100F30002038008DC007C00F79D057482038008D69
:100F4000564908405449203908855548FFF78BFF1A
:100F5000FFF71AFD534800780821884308305149AB
:100F6000087051480078002821D04F480078401E72
:100F70004D49087008460078002818D14B48008871
:100F800001214902084212D048480088490008421D
:100F900003D03C204449087009E0444800880121FE
:100FA0008902084341490880002002F05DFB404867
:100FB0000078002804D03E480078401E3C49087064
:100FC00035482038008D8021084221D037480088DC
:100FD0000221084204D135480078C007C00F04D070
:100FE000324800884021084212D030480088012150
:100FF0000903084203D0012001F0BEFB02E00020FB
:1010000001F0BAFB294800882A490840274908808E
:101010002948007800280AD027480078401E264931
:10102000087008460078002801D1FDF79CF910BD32
:1010300010B519482038008D0221084215D01648F5
:101040002038008D1549491E08401349203908856C
:101050000846008DFF210131084206D0174800895B
:101060008021084201D1FFF714FA10BD00050301E9
:101070000604020000000303060104060205000343
:1010800005000000DF0700009C8C02000424002003
:101090005824002060240020242A0020FEFF0000A5
:1010A0005024002064240020DA240020C2240020E0
:1010B000DE240020BFEF00002C240020F42A0020B2
:1010C00010B5042000F05DFC0020FC49086010BD54
:1010D00070B5022000F04CFC002000F049FC01201B
:1010E00000218A0005231B0707252D025B198500B7
:1010F0005A5100BF0220F14988600020C8600120D9
:10110000086180064862062401202043EB494031F3
:1011100048610020EA498860FFF7D2FF70BD0020D7
:10112000E7498860E5490860012008600420012142
:101130008140E44AD16000BF704710B500BF002075
:1011400005210907072212028918C86000BF00BFE5
:1011500003200004052109078918486100BFDA4807
:10116000007840084000D84908700020D74908702E
:10117000FFF7A6FF10BD10B50020D3490870D44971
:101180000870D4490870D4490870D4490880D449FB
:101190000880D4490880D4490880FFF7CEFF10BDED
:1011A00000BF0020052109070722120289184861A3
:1011B00000BF00BF03200004052109078918C8608B
:1011C00000BFC148007840084000401CBE4908707C
:1011D0000020BE490870704710B5BC480078002850
:1011E00004D001280DD0FE2827D11BE0A420B3494C
:1011F000C861B9490870B5480078401CB349087007
:101200003DE0B3480078AD49C861B3480078B049C3
:1012100009784840B0490870AC480078401CAB4998
:1012200008702CE0042000F0ACFBAB480078A34928
:10123000C861FF20A549087021E0A4480078801EFD
:10124000AA49085C9D49C861A0480078801EA7494A
:10125000085CA149097848409F4908709B4801787B
:101260009B480078401C814203DDFE2097490870AE
:1012700004E096480078401C9449087000BF00BF05
:1012800010BD10B591480078FF2804D10020904986
:101290000870FFF752FF10BD10B58C480078FF288A
:1012A00003D1042000F06DFB04E088480078401C66
:1012B0008649087085480078012803D1A5207F4918
:1012C000C86102E0FF207D49C86110BD70B50346CA
:1012D0001446142900DB14219B079B0F80480078DB
:1012E0007E4D2D78401B8006800E40252D1A481C0F
:1012F000854202DC0020C04370BD8806800E9D013F
:10130000284302467A4D764E3688AA5574480078AE
:10131000401C8006800E724D288000220CE0A05CEC
:10132000734D6F4E3688A8556D480078401C800676
:10133000800E6B4D2880521C8A42F0D3684800789A
:10134000664D2D78401B8006800E4025281A1428F3
:1013500002DC0020C043CFE70020CDE730B5654870
:10136000057828461038030007F0A0FB0705215B2D
:101370001529533E5B006048007804218843001D16
:101380005D4908705B4840785C490870594880782E
:101390005B49087046E0574840785A4908705648FB
:1013A0000078082188430830534908703AE05248D1
:1013B000007840084000401C4F49087032E0524815
:1013C000007803280FDB4B4A521C14210020FFF742
:1013D0007DFF0446002C06D03B480078022188435C
:1013E000801C394908701DE04748007803280FDB4E
:1013F000404A521C14210120FFF768FF0446002CCC
:1014000006D03148007802218843801C2E4908709C
:1014100008E03948007802218843801C364908706A
:1014200000E000BF00BF30BD10B50446274800787B
:10143000012804D0022806D0FF2815D10BE0A520F2
:101440002549087025E0244800786040224908704A
:10145000204804701DE020480078844201D1FFF745
:101460007DFFFFF76AFE14E01B48007860401A49D0
:10147000087016480078C01E1E490C5413480178A5
:1014800014480078801C814202DDFF200F4908705B
:1014900000BF00BF10BD70B503460C46124800786F
:1014A000104D2D78401B4006400E80252D1A981CAB
:1014B00085422BDC0020C04370BD00000045004089
:1014C00000410040000500506B2400206C240020E7
:1014D0006E2400206F2400206D2400207024002042
:1014E000722400207424002076240020D42B0020B5
:1014F000FE2B0020E92B00205C2400206824002023
:10150000692400206A2400203C240020581CFC4D43
:10151000FC4E3688A855FB480078401C4006400E1B
:10152000F84D2880F6482D884455F6480078401C30
:101530004006400EF34D288000210CE0505CF04D39
:10154000F04E3688A855EF480078401C4006400E03
:10155000EC4D2880491C9942F0D3002070BDEA4927
:101560000988E84A1288914200D17047E449E64A66
:101570001288895C491EE54A1170E3490978491CC3
:101580004906490EE04A1180E0490978142902DB36
:101590001421DE4A1170002014E0D949DA4A128879
:1015A000895CDB4A1154D8490978491C4906490E1F
:1015B000D54A118011460988D24A1288914200D139
:1015C00005E0401CD1490978491C8842E5D300BF99
:1015D00000BFCAE730B50446CE480088CE4D2D88FE
:1015E000A84201D1002030BDCC48CA4D2D88415DB4
:1015F000C8480078401C8006800EC64D28808A06A8
:10160000920E142A03D914221046C0300140002340
:1016100013E0C248BF4D2D88405DE054BD480078BE
:10162000401C8006800EBB4D288028460088BA4D9D
:101630002D88A84200D102E05B1C9342E9D300BF91
:101640000846D0E700B585B01421684606F087FA51
:10165000002168460170012141700722B049801CB9
:1016600006F0CAF96A4681211420FFF714FF1421FD
:10167000684606F074FAFF21684601700121417046
:101680006A4681211420FFF706FFA648008D01213C
:10169000C9020843A349088505B000BD03209B4942
:1016A000087080209A4908709F48007848709D48CB
:1016B000008D802108420CD09C480078C007C00FE4
:1016C00003D001209249487006E0022090494870FA
:1016D00002E000208E49487000208D4988709348B0
:1016E00000880121C903084205D08948807801217A
:1016F0000843874988708D48008801218903084282
:1017000005D0834880780221084381498870874842
:10171000008803218903884384490880FF207C498D
:10172000C870704770B509207849087082207849E0
:1017300008707F48C07948707E484068002804D00F
:101740007B4820384068002801D100250DE0784A08
:10175000203A5168774A526864235A43104606F08B
:1017600000FA064607F07EF805467349284607F05A
:1017700069FA00D2704D284607F030F884B2644907
:101780008C702012C8706B484069002804D06848EB
:1017900020380068002801D100250DE0644A203A75
:1017A0001168644A526964235A43104606F0D9F915
:1017B000064607F057F805465F49284607F042FA03
:1017C00000D25D4D284607F009F884B250490C71EB
:1017D000201248715748406A002804D054482038E5
:1017E0008068002801D100250DE0514A203A916817
:1017F000504A526A64235A43104606F0B2F906462C
:1018000007F030F805464C49284607F01BFA00D28D
:10181000494D284606F0E2FF84B23D498C71201202
:10182000C8714448806A002804D041482038C06804
:10183000002801D100250DE03D4A203AD1683D4AFB
:10184000926A64235A43104606F08BF9064607F065
:1018500009F805463849284607F0F4F900D2364D14
:10186000284606F0BBFF84B229490C722012487248
:1018700070BD0420254908708320254908702F4831
:10188000007848702D4800880004000E88702B48AE
:1018900000680002000EC87028480068000E087139
:1018A000002026490860704710B5044620780028BB
:1018B00014D104222249204605F0FEFF002806D05C
:1018C00020480078042188431E49087006E01D481E
:1018D000007804218843001D1A49087019480078CF
:1018E0004007C00F42D02078032831D11422164976
:1018F000204605F0E1FF002828D0002010BD0000A0
:101900003E2C002076240020742400206E24002029
:10191000D42B00207024002072240020FE2B0020F5
:1019200050240020042A00203C240020C22400204F
:10193000502600206C2A00200000964360240020DE
:10194000B68C02006B240020BA8C0200012010BD6E
:101950002078FF280AD114220C49204605F0ACFF5C
:10196000002801D00020F2E70120F0E70120EEE797
:1019700003210522120707231B02D2188300D1502E
:10198000704701218140024A91607047CE8C02006D
:101990000005005070B504460D46164628781128FB
:1019A00017D0142816D0152802D0212819D112E0FA
:1019B000BE48008804210843BC4908800420BC4973
:1019C0000870BC48007840084000401CB9490870C5
:1019D00007E000BF00BF04222146B74806F00CF81C
:1019E00000BF00BF002070BDF8B507461446069E34
:1019F00000BF2546002D06D000BFB0A24E212846CC
:101A0000FDF790F800BF00BFF8BD10B50023FF221E
:101A10008D32AE49AE4804F0BDFE0446002C04D120
:101A2000AC488068AC49884211D0FF22FF218D313B
:101A3000A74806F06DF8A849A6488160A7484078F5
:101A4000402188434030A5494870012010BD002046
:101A5000FCE7F8B500200090A148007869460870BE
:101A6000052529E09A48445D082C24D269468C70EB
:101A7000684605F0B6FA064600BF3746002F06D086
:101A800000BF8EA27A213846FDF74CF800BF00BF98
:101A9000302161438E4A08328818FF22302106F037
:101AA00037F8FF208A4948558C48407840218843C0
:101AB00040308A4948706D1C082DD3D3F8BDF0B56D
:101AC00087B0074601267C4805F09BF8044600BF16
:101AD0002546002D06D000BF78A292212846FDF7AA
:101AE00021F800BF00BF04F023FC044600BF2546D8
:101AF000002D06D000BF71A296212846FDF712F8EE
:101B000000BF00BF77484069401C08D0012212077F
:101B1000126991B2734A506906F023F802E001207D
:101B2000000740690446012168464181FF218D314B
:101B300001816D480190654901A804F059FC0446F3
:101B400000BF2546002D06D000BF5CA29F2128467D
:101B5000FCF7E8FF00BF00BFFFF757FF0446002C6B
:101B600002D00120069001E00020069006A805F0B2
:101B700052F90446002C25D00120069006A805F055
:101B80004AF9044600BF2546002D06D000BF4BA2EF
:101B9000AD212846FCF7C6FF00BF00BFFF22082189
:101BA0004B4805F0B5FFFF22FF218131484808303E
:101BB00005F0AEFF4948407840218843403047490E
:101BC00048700026062104A8023005F0C6FF1E2139
:101BD0006846418203A8007A40084000401C03A9DF
:101BE000087203A8007A0221884303A9087203A897
:101BF000007A1C2188430C3003A9087203A8007ADC
:101C00002021884303A90872072103A841721021EB
:101C100081723648039001216846017403A9304857
:101C200005F068F9044600BF2546002D06D000BF28
:101C300022A2C4212846FCF775FF00BF00BF002E7A
:101C400001D0FFF706FF07B0F0BD70B5284A0121AB
:101C5000084605F00CFE044600BF2546002D06D0C0
:101C600000BF16A2D4212846FCF75CFF00BF00BFCE
:101C700070BD10B50E480078042800D010BD1D4876
:101C8000007806280FD11C4800784007C00F0AD101
:101C90001948007804218843001D1749087000F096
:101CA0004CFD00F051FD00BFE8E70000C224002019
:101CB0003C2400205C2400207B2400202E2E5C6D20
:101CC00061696E5F626C652E6300000080240020F5
:101CD000C02C0020402E0020160814206424002070
:101CE0007A24002000100010E91902009519020062
:101CF0003B7802009A240020882400200720F8491D
:101D00000870704738B5022168468170F549018036
:101D10006A460121F448008890DF0446002C02D076
:101D2000FFF7ECFF02E00320ED49087038BD38B53D
:101D30000024EE48C088EE49884211D1EB488088E3
:101D4000401C81B268460180E8488088401C81B20E
:101D5000684641806946E448008893DF044615E000
:101D6000E448C088E249884210D1E2488088401C9B
:101D700081B268460180DF488088401C81B2684695
:101D800041806946D848008893DF0446002C02D081
:101D9000FFF7B4FF02E00520D149087038BD70B5E7
:101DA0000546D5488478A888CF490880082C1FDAD2
:101DB00030206043D14A81180822CC4805F01CFE2F
:101DC00030206043CD4A8018014608310822CC48B3
:101DD00005F012FE30206043C84A801801461031D9
:101DE0000822C44805F008FE0120BD49087001E042
:101DF000FFF788FF70BD70B504462146BA480088D9
:101E000092DF0546002D02D0FFF778FF02E00420A4
:101E1000B349087070BD38B50446E088002802D187
:101E2000A089002802D1FFF769FF38BD608AB54953
:101E30000880A08AB4490880B248018868460180B9
:101E4000B148018868464180FFF7D5FF00BFECE745
:101E5000F8B50546E8880146FF390B3903D0E88814
:101E6000C11FFA3911D1A1488088002807D0A448A1
:101E70008088002803D09F488088002802D1FFF77F
:101E80003DFF01E0FFF753FFF8BDE888002802D0CE
:101E9000FFF734FFF8E70024002723E00A20394643
:101EA000414328460E300C18002620889749884266
:101EB00001D18E4E0AE020889549884201D1904E8A
:101EC00004E020889349884200D18A4E002E08D031
:101ED00020883080608870802089B0800020C043D6
:101EE000F0807F1CA889B842D8D8002C0BD020895C
:101EF000401C81B268460180834801886846418061
:101F0000FFF779FF09E07F480188684601807E4835
:101F1000018868464180FFF76EFF00BFB4E7F8B55F
:101F200004460026E0880146FF390B3906D0E088D8
:101F3000C11FFA3902D0E088002802D0FFF7DEFE88
:101F4000F8BDA089002818DD25460E35688872493D
:101F5000884212D1654881882888401E814203D179
:101F600028886249C88008E0624881882888401E25
:101F7000814202D128885F49C8805C48C0885C499A
:101F8000884203D05B48C088884202D1FFF7CFFE69
:101F90001EE006205249087060484078C00917D1F9
:101FA0005E4840788021884380305C4948705248C0
:101FB00004F0D1FF064600BF3746002F07D000BF10
:101FC00057A2FF2149313846FCF7ACFD00BF00BFE6
:101FD00000BFB5E710B588B0044641480078062830
:101FE00002D0082008B010BD002168460171A17A16
:101FF0004171E17A8171217BC171617B01720121A3
:102000004172202181720021C1723D488188684659
:1020100041820821C182002181820121017401A82D
:10202000069004A802F039F9DCE770B50446A688EA
:10203000002586E140480068030006F037FD0906E8
:102040000E161E262E363E850D00A01D405D3B4916
:10205000087001203849086071E1A01D405D3749D2
:10206000487002203449086069E1A01D415D334891
:10207000817003203049086061E1A01D415D2F4857
:10208000C17004202C49086059E1A01D415D2B4816
:10209000017105202849086051E1A01D405D2749D4
:1020A000487106202449086049E1A01D405D23498C
:1020B000C88007202049086041E12048C088A11D50
:1020C000495D090208431D49C88008201A49086073
:1020D0001A4808301A49086000201A4908802EE181
:1020E0009A24002031F400008C240020A024002039
:1020F000FFFF0000B02400207B240020C82C00201B
:10210000A82400209C2400209E2400200D12000002
:10211000F3D80000E9C60000022900006424002072
:102120002E2E5C736572766963655C626C655F61B7
:102130006E63732E63000000902400208C2E00201C
:102140009424002098240020A01D405DF9490968CE
:102150000870F8480068401CF6490860F648008896
:10216000401CF5490880F548C088098888427DD11F
:102170000020F04909680870EE480068401CED49ED
:1021800008600520EE490860EE4909784901EE4AE9
:102190008818E9490A88E949083105F02DFCE94821
:1021A0000078401CE749087008460078012817D1DC
:1021B0000822E549E5A005F0CFFB002811D1052054
:1021C000E5490870E5484078802188438030E3493C
:1021D0004870E348407802218843801CE0494870F9
:1021E000A5E00622D849DFA005F0B6FB002811D1F2
:1021F0000620D9490870D94840788021884380302A
:10220000D6494870D648407802218843801CD4497A
:1022100048708CE00822CC49D4A005F09DFB002832
:1022200011D10720CC490870CC4840784021884320
:102230004030CA494870CA48407802218843801C0F
:10224000C749487073E00922BF49CBA005F084FB61
:10225000002813D10B20C0490870C04840784021A5
:1022600088434030BD494870BD4800E066E0407892
:1022700002218843801CBA49487058E00722B249BD
:10228000C0A005F069FB002803D10820B2490870FE
:102290004DE00522AC49BDA005F05EFB002803D14E
:1022A0000920AD49087042E00A22A749B9A005F00B
:1022B00053FB002811D10D20A7490870A74840788A
:1022C000202188432030A5494870A5484078022144
:1022D0008843801CA249487029E005229A49B0A091
:1022E00005F03AFB002811D10E209B4908709B484D
:1022F0004078202188432030984948709848407899
:1023000002218843801C9649487010E00A209249B7
:102310000870924800780821884308308F49087077
:102320008F48407802218843801C8D494870854839
:102330000078012802DD00208249087000BF00BF3C
:102340006D1CB54200DA75E670BD70B50546002615
:102350002C460C34208894498988884265D1A0880D
:10236000022862DBA07900286AD1207A030006F0F7
:102370009DFB073105134F2C21364F00774800781D
:1023800040084000401C75490870032087490870C8
:1023900001207149087030E07048007802218843BC
:1023A000801C6E49087004208049087002206A4928
:1023B000087022E06948407810218843103067494E
:1023C000487003206449087017E00126607A784954
:1023D00008701EE00C206049087001260DE0042002
:1023E0005D4908705D4840782021884320305B4972
:1023F000487009206D49087000BF607A6C49087008
:102400005748407802218843801C5549487000E0B5
:1024100000BF00BF012E13D12046FFF7DBFD0020D7
:1024200047490860474908700AE02088614989885F
:10243000884205D1A088022802DB2046FFF7F5FD7F
:1024400070BDF8B505460220009000205A4908707A
:10245000002D45D06946594863DF044600BF264633
:10246000002E06D000BF564A56493046FCF75AFBAC
:1024700000BF00BF00A90131534863DF044600BF1D
:102480002646002E07D000BF4D4A4E49C91C304693
:10249000FCF748FB00BF00BF00A902314B4863DFD7
:1024A000044600BF2646002E07D000BF444A4549D7
:1024B000891D3046FCF736FB00BF00BF00A9033181
:1024C000434863DF044600BF2646002E07D000BF06
:1024D0003B4A972189003046FCF724FB00BF00BF30
:1024E0000821314805F039FB08213A4805F035FB51
:1024F0000821304805F031FB0020C0433549C88031
:102500002949C8802B49C880334800780421884372
:1025100031490870F8BD0146C888304A904263D0FE
:1025200008882F4A904203D008882E4A90425BD1F7
:102530000120704794240020982400208C2E002035
:1025400090240020B92400204C2E0020576861748C
:102550007341707000000000B82400206024002047
:102560005C24002057654368617400004661636520
:10257000626F6F6B000000004D657373656E676579
:10258000720000005477697474657200536B79703F
:10259000650000005961686F6F204D61696C000033
:1025A000476D61696C000000A02400203D240020DC
:1025B0003E240020B02400209A240020E28C020057
:1025C0002021020053020000F28C0200028D020062
:1025D000128D0200A824002088240020FFFF0000A4
:1025E0000D120000E9C600000020704770B50646D5
:1025F000348859488578112C32D1082D2CDA574867
:10260000FFF789FF002827D05548FFF784FF0028EF
:1026100022D030216943534A881808224F4905F0D7
:10262000EBF9302169434F4A8918084608300822DF
:102630004D4905F0E1F9302169434A4A89180846B5
:1026400010300822464905F0D7F948484078402123
:1026500088434030454948700020FFF7F2FE70BDC6
:1026600043480078030006F021FA07050B202329D0
:102670002F384200102C02D13046FFF790FB36E095
:10268000172C01D0142C0FD13448FFF744FF002839
:1026900008D03348FFF73FFF002803D00620344915
:1026A000087001E0FFF72EFB21E0FFF72BFB1EE097
:1026B000302C02D13046FFF7AEFB18E0322C02D1AD
:1026C0003046FFF7C5FB12E0332C02D13046FFF74E
:1026D00026FC03202749087009E0382C06D125483C
:1026E0000078002802D13046FFF72FFE00BF00BF60
:1026F00000BFB4E730B585B004460D461C480078ED
:10270000062802D0082005B030BD002D03D00120DE
:102710006946087002E0002069460870002168469A
:102720004170C48002214181002101810121017198
:10273000039001A801F0B1FDE5E710B50749C8888D
:102740000121FFF7D7FF10BD10B50549C888012149
:10275000FFF7D0FF10BD00007B240020A024002044
:10276000B0240020C82C0020A824002064240020CD
:102770009A240020DE24002070B505461421FE486E
:1027800005F0EDF90120FD4908700020FA490870B4
:1027900048600872002D02D02820088202E0F84824
:1027A000F54908821E20F4494882084673DF044632
:1027B00000BF2646002E07D000BFF2A21F2149010C
:1027C0003046FCF7AFF900BF00BFF4480088012194
:1027D0000843F2490880F248007840084000401C55
:1027E000EF4908700020EF49087070BD1E20EE49C7
:1027F00008800846807840084000401C88700846E1
:10280000807802218843E8498870084680781C2136
:1028100088430C30E449887008468078202188433A
:10282000E14988700720C87010200871704710B502
:10283000044600BFD3A2FF21DC312046FCF772F929
:1028400000BF10BD70B50546286800282AD13B217D
:10285000D648008876DF044600BF2646002E07D003
:1028600000BFC8A2FF21C9313046FCF75BF900BFA9
:1028700000BFCA480088CE490840C84908800846B9
:10288000008841210843C5490880C54800784008B0
:102890004000401CC24908700020C2490870C54968
:1028A000087003E02868012800D100BF70BD30B572
:1028B00087B01C21684605F052F900200090BE4800
:1028C00001900290032168460173BC484189684623
:1028D000C18100210174BA480590BA480690684643
:1028E00002F063FA044600BF2546002D07D000BF62
:1028F000A4A2FF21B6312846FCF714F900BF00BF9F
:1029000007B030BD70B5A2B0064606210391AE48AF
:1029100000680290AC48001D006801903C2113A89B
:1029200005F01DF93C2104A805F019F902201390C7
:10293000002110A841740121818203A9169101216F
:10294000018602A91D9101216846818501A90C918A
:1029500004A913A802F084F9044600BF2546002DFF
:1029600006D000BF87A296212846FCF7DBF800BFFF
:1029700000BF22B070BD30B58FB004460D460020B8
:10298000079000BF6846007F01090901491C68469D
:102990000177007FF021884310306946087700BF37
:1029A00000BF6846407F01090901491C684641771C
:1029B000407FF021884310306946487700BF684661
:1029C000807F06218843811C684681771C2108A8E6
:1029D00005F0C5F808A8007804218843011D08A85F
:1029E0000170007810218843411808A8017077A071
:1029F00009900D2168460185418507A80D900621A3
:102A00006846817175498180002000906846807811
:102A100006218843801C6946887000BF684600789C
:102A200001090901684601700078F0218843694670
:102A3000087000BF00BF6846407801090901491CC1
:102A4000684641704078F0218843103069464870EC
:102A500000BF6846807841084900684681701421AB
:102A600002A805F07CF801A80290684603901421A2
:102A700001828182284610300690A08823461633B2
:102A800002AA08A9A2DF0FB030BD30B58FB004464E
:102A90000D461C2108A805F062F808A8007804215A
:102AA0008843011D08A801704DA0099007216846C0
:102AB00001854185062181724849491E0181002016
:102AC00001906846807906218843801C6946887198
