:020000040001F9
:10D00000403E0020A5D10100BFD10100C1D10100E7
:10D010000000000000000000000000000000000010
:10D02000000000000000000000000000C3D101006B
:10D030000000000000000000C5D10100C7D10100C0
:10D04000C9D10100C9D10100C9D10100C9D1010074
:10D0500011EB01000000000053EA0100C9D10100FA
:10D06000C9D10100C9D10100C9D10100C9D1010054
:10D07000C9D10100C9D10100C9D10100C9D1010044
:10D08000C9D10100D55C0200C9D10100C9D101009C
:10D09000F75C0200056D0200817D0200C9D101002C
:10D0A000C9D10100C9D1010000000000000000004A
:10D0B0000000000000000000000000000000000070
:10D0C00000F002F800F032F80CA030C8083824183C
:10D0D0002D18A246671EAB4654465D46AC4201D1B0
:10D0E00000F024F87E460F3E0FCCB64601263342B0
:10D0F00000D0FB1AA246AB463343184740C200009B
:10D1000060C200000023002400250026103A01D34D
:10D1100078C1FBD8520700D330C100D50B607047EF
:10D120001FB5C046C0461FBD10B510BD0BF0E8FED0
:10D130001146FFF7F5FF01F0DFFF0BF000FF03B42E
:10D14000FFF7F2FF03BC0BF033FF0000401E00BFEF
:10D1500000BF00BF00BF00BF00BF00BF00BF00BFD7
:10D1600000BF00BF00BFF1D17047000070B5054699
:10D170000C46164602E00FCC0FC5103E102EFAD218
:10D18000082E02D303CC03C5083E042E07D301CCDE
:10D1900001C5361F03E021782970641C6D1C761EC2
:10D1A000F9D270BD03210C4802680A4302600B48A3
:10D1B00002680A4302600A4880470A480047FEE7BF
:10D1C000FEE7FEE7FEE7FEE7FEE700000648074948
:10D1D000054A074B704700002405004054050040F5
:10D1E00083D20100C1D0010040340020403E002025
:10D1F000403400202C48008CC0B2012810D12A48AD
:10D20000808C0007000F0BD12748806AF02108406E
:10D21000402805D12448C06A084201D10120704746
:10D220000020FCE72048008CC0B2012827D11E480E
:10D23000808C0007000F22D11B48806AF021084231
:10D2400005D11948C06A084201D10120704716482B
:10D25000806AF0210840102805D11348C06A0842AE
:10D2600001D10120F2E71048806AF02108403028FF
:10D2700005D10D48C06A084201D10120E6E700202F
:10D28000E4E710B5FFF7CEFF002805D007480849AE
:10D290004860C81307498861FFF7ACFF002802D037
:10D2A00001200549886010BDC00F00F0DFFF07C0F6
:10D2B00000050040006C00400006004002467F4828
:10D2C000007D00280CD0002108E07C48001D405C57
:10D2D000904201D108467047481CC1B20829F4DBCE
:10D2E000FF20F8E738B5044669462046E7DF684680
:10D2F00000788107890F00916846007802280EDBCC
:10D3000009E02046C5DF69462046E7DF6846007829
:10D310008107890F0091684600780228F1DA38BD4C
:10D3200010B50020FFF7CAFF0446FF2C15D0634854
:10D330000088634908406149088000204874887467
:10D34000C8742046FFF7CEFFFF215C48001D015541
:10D35000001F007D401C5949087510BD7CB504466E
:10D3600021785648001D455C405D082806D11020F4
:10D3700069460870E8B26A460821C7DF7CBD70B50F
:10D38000044621784D48001D455C405D002801D1D0
:10D39000FFF7C6FF70BDFEB5044621784748001D63
:10D3A000455CE6784E2E04D04F2E03D0502E6AD125
:10D3B00001E000BF00BF4148001D405D002861D171
:10D3C0003E48407C002826D0E8B26B4601AA02A95C
:10D3D000D4DF6846008900281DD03A48408B694652
:10D3E000098988420ED068460089344948806846D9
:10D3F00000893449488334480068012109030843FF
:10D400003149086000202D494874084600880121F0
:10D4100008432A4908802948017B607A814218D153
:10D420002648417BA07A814213D12448817BE07A4F
:10D4300081420ED12148007C002816D01F48007C74
:10D44000401E1E4908740846007C00280DD1C87390
:10D450000BE0207B1949C8730846C07BF02801DD2A
:10D46000F020C873102015490874607A13490873B6
:10D47000A17A12484173E17A81730A200F498874B6
:10D480000020C87400E000BF00BFFEBD10B5044618
:10D490006078012807D0032809D080280BD12046C6
:10D4A000FFF779FF08E02046FFF769FF04E0204618
:10D4B000FFF754FF00E000BF00BF10BDC8250020EB
:10D4C000FEFF0000342600200424002010B50020B8
:10D4D000FE490860162000F0CEFF0020C043FB4943
:10D4E0008860C860086110BD0021F84AD16100E081
:10D4F00000BFF74989680129FAD10021F44A9160F7
:10D50000F2498969C8B27047F04AD06100E000BFB3
:10D51000EF4A9268012AFAD10022ED4B9A60EB4A59
:10D520009269D1B2704710B51920E8498860182077
:10D53000C860172008610120000748620620E349FF
:10D5400040314861162000F09BFF0120DF49086050
:10D5500010BD10B5FFF7E7FF0520FFF7D5FFFFF778
:10D56000C3FF0446FFF7B2FF204610BD10B5FFF71A
:10D57000F0FFC007C00F10BDF8B504460E461746B1
:10D5800000E000BFFFF7F2FF0028FAD1FFF7CBFF62
:10D590000320FFF7B9FF2102080EFFF7B5FF2104B2
:10D5A000080EFFF7B1FFE0B2FFF7AEFF002503E082
:10D5B000FFF79AFF70556D1CBD42F9D3FFF786FF48
:10D5C000F8BD38B504226946C248FFF7D5FF6C465E
:10D5D000206838BDC048006880210843BE49086003
:10D5E0000020BE490870BE4908700320BD4908707C
:10D5F000B9480068012109030843B749086070472A
:10D6000010B500BFFFF78FFF0620FFF77DFFFFF784
:10D610005DFFFFF79EFF02210842F3D010BD10B559
:10D62000002408E0FFF7A2FF002800D110BD012070
:10D6300000F04EFF641CFF20F5308442F2D300BF9F
:10D64000F4E710B504462403FFF7E9FFFFF7D8FF1E
:10D65000FFF769FF2020FFF757FF2102080EFFF7B1
:10D6600053FF2104080EFFF74FFFE0B2FFF74CFF16
:10D67000FFF72CFF10BDF8B504460E461746FFF71E
:10D68000CEFFFFF7BDFFFFF74EFF0220FFF73CFF85
:10D690002102080EFFF738FF2104080EFFF734FFC0
:10D6A000E0B2FFF731FF002503E0705DFFF72CFFCC
:10D6B0006D1CBD42F9D3FFF709FFF8BD10B5172067
:10D6C00003218A0005231B07072424021B19840059
:10D6D0001A5100BF162000F0CEFE192000F0CBFE3C
:10D6E000182000F0C8FE152000F0CAFE7E48008D0C
:10D6F000042108437C49088503207C4908700520E3
:10D7000000F0E6FE10BD1FB57748008D04210842E9
:10D7100003D003207549087001E0FFF7CFFF00F048
:10D7200050FC0020FFF78DFF082202A90020FFF720
:10D7300023FF002408E002A8005DFF2802D000209B
:10D7400004B010BD601CC4B2082CF4DB002403E05C
:10D7500002A80455601CC4B2082CF9DB082202A9F7
:10D760000020FFF788FF082269460020FFF704FF2A
:10D77000002409E002A8005D6946095D884201D0E5
:10D780000020DDE7601CC4B2082CF3DB0120D7E7E2
:10D7900010B5302156480AF088FC10BD10B558214C
:10D7A00054480AF082FC5448008852490880524884
:10D7B000807888705048C078C8704B48008D4F49B9
:10D7C00008404949088510BD4D490870424909681B
:10D7D000FF2201321143404A116000213F4A11707B
:10D7E0000321404A11703E490978491E3C4A117094
:10D7F00039490968012212031143374A1160704701
:10D8000000B537480078072809DA354800783D49DF
:10D81000087033480078401C3149087015E03948D9
:10D820000078062803D100203649087004E0354806
:10D830000078401C3349087029480078401C28496A
:10D84000087030480078FFF7BFFF00BD29490988FC
:10D8500001802849897881702649C978C1702A4990
:10D860004968416028490968816027498968C16021
:10D870002549C96801611F49496841611D49896895
:10D8800081611C49C968C1611A4909690162194964
:10D89000496941621749896981621649C96981628A
:10D8A0001449496A41631349C96A81631149096B83
:10D8B000C1631049496B01640E49896B41640D498C
:10D8C000C96B81640B49096CC1641FE000350040DD
:10D8D00000310040FCF03F00042400202F240020F1
:10D8E0003124002030240020082A00202C2400208D
:10D8F000C82A0020702A00205024002087FF000042
:10D90000322400203324002034260020F8490A89DC
:10D9100050210A52F6494A8952210A52F4498A880A
:10D9200054210A52F249CA8856210A52F0490A7B08
:10D9300058210A54EE494A7B59210A5400225A219F
:10D940000A54EC49098D0822114205D05A21095C7C
:10D95000012211435A221154E649098D1022114225
:10D9600005D05A21095C022211435A221154E1497F
:10D97000098D2022114205D05A21095C042211434D
:10D980005A221154DB49098D4022114205D05A21F7
:10D99000095C202211435A221154D7498A7F5B2106
:10D9A0000A54D549CA7F5C210A54D34920310A78E8
:10D9B0005D210A54D04920314A785E210A54CE496B
:10D9C00020318A785F210A54CB492031CA786021FE
:10D9D0000A54C94920310A7961210A54C6492031C3
:10D9E0004A7962210A54C44920318A7963210A5450
:10D9F000704710B504462822C0492046FFF7B6FB01
:10DA000010BDF0B5A7B0BE48006800280AD0B948DC
:10DA1000008D0421084203D00320BA49087001E0B8
:10DA2000FFF74CFEB64800688021084228D0FFF777
:10DA30009DFD002801D027B0F0BDB3490978B34A55
:10DA40008818FFF7FEFDB0480078401CAE4908700A
:10DA50000320AF490870AC48007807280FD1A848C8
:10DA6000006880218843A64908600020A849087002
:10DA7000A34800680121C9020843A14908609EE249
:10DA80009F480068FF210131084221D0FFF76EFD59
:10DA9000002800D0CFE79F4909789C4A8818FFF7F3
:10DAA000D0FD99480078401C974908700320984998
:10DAB0000870954800780128E1D191480068FF215D
:10DAC000013188438E49086000209149087076E250
:10DAD0008B48006801218902084246D0FFF746FDC5
:10DAE000002800D0A7E78C48007901900198002811
:10DAF00001D1182001900198401E019087480078BC
:10DB0000000387494018E030019940180390012232
:10DB100069460398FFF730FD68460078FF281AD160
:10DB200000200090012269460398FFF7A4FD0198A8
:10DB300080010190794800780003794941180198E3
:10DB40000818C61DF93604A8FFF753FF282204A9B8
:10DB50003046FFF790FD6A4800680121890288433A
:10DB600067490860FFF714FE29E265480068012153
:10DB70004902084224D0FFF7F9FC002800D05AE7F8
:10DB800064210EA80AF091FA0EA8FFF75FFE634821
:10DB9000007800036249461864220EA93046FFF758
:10DBA0006AFD5748006801214902884354490860CA
:10DBB000084600680121C902084351490860FEE196
:10DBC0004F4800680121C90208420DD0FFF718FE36
:10DBD000FFF7E4FDFFF7DCFD494800680121C902B9
:10DBE000884347490860EAE145480078C007C00F0C
:10DBF0007CD04C480078002809D141480068400892
:10DC000040003F49086000204649087013E7FFF7CD
:10DC1000ADFC00280DD044480078002808D13848D1
:10DC20000068400840003649086000203D490870FF
:10DC300001E73C480078012802D0022810D107E013
:10DC40003248C01DFFF7FDFC102036490870B8E0CF
:10DC50002E480830FFF7F5FC202032490870B0E06C
:10DC600030480078102108426AD02E480078050715
:10DC70002D0F28022D494618FF2201322C4930462B
:10DC8000FFF77AFC00241BE02949601C085C0002B5
:10DC9000095D471827480088874201D1264F07E0D1
:10DCA00024480088874203D92348874200D07F1E3A
:10DCB0001F490F553804010E1D4A601C1154A41C45
:10DCC000FF2CE1D928021D49461819480119FF22E5
:10DCD00001323046FFF7CFFC12480078401C114952
:10DCE0000870082D6CD10220087069E06AE027E016
:10DCF000B02A0020082A002034260020C82A00204C
:10DD0000042400202C2400202F240020F6030000EF
:10DD1000302400203224002050240020332400200E
:10DD200000603F002D2400202E24002000E03F0052
:10DD3000A826002020240020FFFF000000D03F0084
:10DD4000FA4800782021084231D0F84800780507C9
:10DD50002D0F2802F6494618FF220132F5493046B8
:10DD6000FFF70AFC2802F4494618FF220132F14964
:10DD70003046FFF780FCED480078401CEB49087006
:10DD8000082D1DD1ED48006840084000EB490860AF
:10DD90000020E6490870E948006802210843E74985
:10DDA0000860E7480088401EE549088008E0E3482D
:10DDB000006840084000E14908600020DB49087025
:10DDC00000BFFCE0DD480068102108420FD0FFF7DB
:10DDD000CDFB002800D02EE6D848006810218843EB
:10DDE000D6490860D7480068FFF72BFCE7E0D34826
:10DDF00000682021084219D0FFF7B8FB002800D0A6
:10DE000019E6D04800680003FF300130CE49097898
:10DE100049014618C948006820218843C74908605D
:10DE20001422CA493046FFF726FCC8E0C348006800
:10DE30004021084218D0FFF799FB002800D0FAE5EE
:10DE4000C04800680603BD48006840218843BB49BC
:10DE500008603022BE49B748FFF788F93022B5493B
:10DE60003046FFF708FCAAE0B448006804210842E5
:10DE700015D0FFF77BFB002800D0DCE5AF48006839
:10DE800004218843AD490860B2480068FFF7D9FB18
:10DE9000AA48006808210843A84908608FE0A748FD
:10DEA0000068082108421ED0FFF760FB002800D060
:10DEB000C1E5A84800680603A74909880846103844
:10DEC000C117090F09180C1120028619FF2201320F
:10DED000A2493046FFF7CFFB9848006808218843E5
:10DEE000964908606BE095480068012109030842E3
:10DEF00016D0FFF73BFB002800D09CE58F48006858
:10DF00000121090388438D4908609548FFF799FB73
:10DF10008A480068012149030843884908604EE0A7
:10DF20008648006801214903084222D0FFF71EFB02
:10DF3000002800D07FE5814800680121490388431B
:10DF40007E490860342287497A48FFF70FF97948FB
:10DF5000F83002908449029801607648FC300290C3
:10DF60008249029801604A1572498148FFF783FB94
:10DF700025E0724800680121890308421FD0FFF79D
:10DF8000C2FB012807D17B48008D0121890208438B
:10DF90007849088505E07748008D7749084075493C
:10DFA0000885664800680121890388436349086041
:10DFB000724800782021884320307049087000BFE3
:10DFC00039E510B55D480078C007C00F12D00024B5
:10DFD0000BE0FFF716FD59480078C007C00F00D1CD
:10DFE00007E00A2000F074FA641C7D20C00084421F
:10DFF000EFD300BFFFF713FB10BD10B55D48008DD8
:10E000000421084203D003205D49087001E0FFF7B6
:10E0100055FBFFF7D6FF5248401EFFF712FB0020CA
:10E02000474908804E4809385649088043480068E7
:10E030000121090308434149086010BD70B53F48FC
:10E0400000680221084200D170BD3C480078C0073A
:10E05000C00F00D0F8E7FFF789FA002800D0F3E7F7
:10E060003648006802218843344908600020454949
:10E070000880FFF758FA0320FFF746FA3F20FFF722
:10E0800043FAE020FFF740FA0020FFF73DFA0024B2
:10E090000FE0FFF729FA0546FFF726FA00024519B7
:10E0A0003948854204D137480088401C35490880EA
:10E0B000641C2B4809388442EBD3FFF707FA00BFF2
:10E0C000C2E710B504462B48008D0421084203D056
:10E0D00003202B49087001E0FFF7F0FA01201349F3
:10E0E00008702A4804801548006801210843134934
:10E0F000086003202649087010BDF8B504460E4696
:10E10000FFF75FFF60000C494518FFF70CFA03208A
:10E11000FFF7FAF92902080EFFF7F6F92904080EAD
:10E12000FFF7F2F9E8B2FFF7EFF93EE02D24002007
:10E1300000D03F00A826002000E03F00042400207B
:10E14000282400200C2400202B240020E827002075
:10E15000E02500201024002024240020A8270020EF
:10E16000FF030000342600207856341218031520CF
:10E1700000F03F00082A0020FFFB0000642400207C
:10E180002C24002022240020FFFF00002024002057
:10E190002E240020FFF7A8F90746FFF7A5F9000293
:10E1A000C719B74200D103E0641CB8488442F1D3D8
:10E1B00000BFFFF78BF9B548844201D3B448F8BDDE
:10E1C0002046FCE770B50026B248008D04210842C5
:10E1D00003D00320B049087001E0FFF76FFAFFF7A2
:10E1E000F0FEFFF7A0F90320FFF78EF93F20FFF7BD
:10E1F0008BF9E020FFF788F90020FFF785F900256B
:10E200000EE0FFF771F90446FFF76EF900020419FA
:10E210009F48844203D0641CB44200D926466D1C3A
:10E220009A488542EDD3FFF751F9304670BD38B5B5
:10E23000FFF7C8FF9949088008460088002829D0C0
:10E24000002423E000BFA1B20020FFF756FF0546DF
:10E250008F498D4219D0280304226946FFF78CF9B3
:10E260000098401C11D1A0B2FFF72BFF03E0FFF78D
:10E27000C8FBFFF7E3FE8A4800680028F7D187480B
:10E280000088844200D338BDDDE7641C83480088E1
:10E290008442D7D300BFF6E7F8B57E48008D04214D
:10E2A000084203D003207C49087001E0FFF706FA1A
:10E2B00000207C490870FF207B490870002416E08C
:10E2C00021037A4A881804226946FFF755F9009815
:10E2D000401C05D073480078401C7249087005E066
:10E2E00071480078FF2801D16F490C70641C072C1D
:10E2F000E6D36D480078FF2809D06A480078801C72
:10E300006849087068480078FFF75EFA26E0002642
:10E31000F643002417E02103644A88180422694662
:10E32000FFF72AF9009805040098000AFF21090266
:10E33000084005430098000E0543B54202D22E4620
:10E3400059490C70641C072CE5D356480078401CD2
:10E350005449087054480078FFF736FAFFF71EFA60
:10E36000FFF716FAF8BD10B5152000F084F8172055
:10E3700000F078F8162000F083F8192000F080F8FB
:10E38000172000F07DF8182000F07AF84148008D41
:10E390003F49091F08403F49088510BD10B51520A9
:10E3A00000F060F8162000F05DF8192000F05AF82F
:10E3B000182000F057F8FFF7D6FF10BD10B5FFF793
:10E3C000EDFFFFF77BF9FFF7FCF8394988420FD1E1
:10E3D000342238493848FFF7CFF8FFF75DFFFFF7E1
:10E3E00026FF2F480068022108432D49086038E0C5
:10E3F00032483049086032484860324888603248C4
:10E40000C8602F480861492088827A20C882692024
:10E4100008830020488323208877AF20C8774D21C8
:10E4200024482030017000214170BA2181703C21C4
:10E43000C170822101714B214171FF218171002145
:10E44000C171082101721E21417200218172FE20DA
:10E45000184988838005C8620863FFF7CEFDFFF77F
:10E46000B9F810BD03210522120707231B02D21899
:10E470008300D150704701218140144A9160704758
:10E4800001218140114AD16070470000F60300006D
:10E49000FFFF0000082A00202C2400202824002050
:10E4A00004240020312400203324002000603F0099
:10E4B000180315203426002000F03F0040420F00D2
:10E4C000581B0000A0860100302A00000005005003
:10E4D00001461922D2014A43104600E0401E00289E
:10E4E000FCD1704770B50321082000F02DFB0121FD
:10E4F000092000F029FB01210A2000F025FB012161
:10E500000B2000F021FB01210C2000F01DFB01215C
:10E510000D2000F019FB01210E2000F015FB012158
:10E52000112000F011FB0121122000F00DFB012150
:10E53000132000F009FB0121142000F005FB01214C
:10E540001A2000F001FB01211C2000F0FDFA01213E
:10E550001D2000F0F9FA01211E2000F0F5FA072035
:10E5600000F0E9FA072000F0FEFA082000F000FBB6
:10E5700000280CD0FC48008DFC490840FA49088569
:10E58000062000F0D8FA062000F0EDFA19E0F6486F
:10E59000008D012109030843F34908850021062065
:10E5A00000F0D2FA06200021022213048C0023433B
:10E5B0000524240707252D0264198500635100BF37
:10E5C00000BF082000F0B7FA082000F0CCFA0020C5
:10E5D00000F0B1FA002000F0C1FA0021012000F0A3
:10E5E000B3FA022000F0A7FA022000F0B7FA0021E7
:10E5F000032000F0A9FA042000F09DFA042000F0A6
:10E60000ADFA0021052000F09FFA00211B2000F048
:10E610009BFA00BF00200521090707221202891872
:10E62000486100BF00BF052109078918C86000BF05
:10E6300002F06CFF102000F07EFA0F2000F07BFA51
:10E64000102000F08BFA0F2000F088FA00F012FE84
:10E6500070BD70B505460C46284600F06CFA2046A1
:10E6600000F069FA284600F079FA204600F076FAC0
:10E67000284600F078FA204600F075FA70BD70B5B3
:10E6800005460C46284600F056FA284600F06BFA7C
:10E69000204600F063FA284600F060FA70BD70B5BD
:10E6A00005460C46284600F046FA284600F056FA81
:10E6B000204600F053FA204600F055FA70BD70B5C0
:10E6C00005460C46284600F036FA284600F04BFA7C
:10E6D000204600F043FA204600F045FA70BDF8B538
:10E6E00007460D460321384600F02EFA0024002686
:10E6F00010E06006040E284600F030FA384600F0BC
:10E7000037FA002801D001200443284600F02BFAF4
:10E71000701CC6B2082EECDB2046F8BDFFB581B0F8
:10E720000C4615461E460095019800F004FA002795
:10E7300015E0019800F017FA80210098084202D0F5
:10E74000019800F00BFA204600F008FA204600F08D
:10E750000AFA00984006000E0090781CC7B2082FF5
:10E76000E7DB002E14D10321019800F0EDF92046DB
:10E7700000F0F4F9019800F0FBF9002805D02046DC
:10E7800000F0F1F9012005B0F0BD204600F0EBF9F2
:10E790000020F8E7FFB581B006461D460A9F3046C7
:10E7A0000299FFF756FF00233046039A0299FFF7BC
:10E7B000B5FF012806D130460299FFF760FF00201F
:10E7C00005B0F0BD00232A4630460299FFF7A6FFA8
:10E7D000012805D130460299FFF751FF0020EFE7ED
:10E7E00000240FE03A5D30460C9B0299FFF796FF3C
:10E7F000012805D130460299FFF741FF0020DFE7ED
:10E80000601CC4B20B988442ECDB30460299FFF7DF
:10E8100036FF0120D4E7FFB581B015461E460A9F9A
:10E8200002990198FFF715FF00232A4602990198E3
:10E83000FFF774FF012806D102990198FFF71FFF27
:10E84000002005B0F0BD00230B9A02990198FFF754
:10E8500065FF012805D102990198FFF710FF0020FC
:10E86000EFE702990198FFF7F4FE284601210843DB
:10E8700000900023009A02990198FFF74FFF0128AA
:10E8800005D102990198FFF7FAFE0020D9E700248C
:10E8900012E002990198FFF722FF3055781EA0423E
:10E8A00004D002990198FFF70AFF03E0029901984A
:10E8B000FFF7F5FE601CC4B2BC42EADB0299019886
:10E8C000FFF7DDFE0120BCE738B500BF0020284B74
:10E8D00003221146009007F012FA044600BF2546B5
:10E8E000002D06D000BF23A2FE21284600F0AFF97C
:10E8F00000BF00BF00BF38BD70B5002201218903F1
:10E900002048006807F0E3FA044600BF2546002DC2
:10E9100007D000BF17A2FF211331284600F097F956
:10E9200000BF00BF1048008D0121090308422DD10E
:10E93000002289101448006807F0C9FA044600BF95
:10E940002546002D07D000BF0AA2FF211731284617
:10E9500000F07DF900BF00BF0348008D012149038D
:10E9600008430149088517E0082A0020FFEF00004E
:10E97000082800202E2E5C68617264776172652E13
:10E980006300000034240020382400207C48008DDF
:10E990007C4908407A49088570BD70B57A4A0121E2
:10E9A0007A4807F028FA044600BF2546002D07D014
:10E9B00000BF774AFF210731284600F048F900BF21
:10E9C00000BF744A0121744807F015FA044600BFDD
:10E9D0002546002D07D000BF6D4AFF21093128468A
:10E9E00000F035F900BF00BFFFF786FF70BD70B5BE
:10E9F0006648006807F09CFA044600BF2546002DD3
:10EA000007D000BF624AFF212431284600F01FF9D9
:10EA100000BF00BF5A48008D01214903084217D0AA
:10EA20005D48006807F084FA044600BF2546002DC3
:10EA300007D000BF564AFF212831284600F007F9C9
:10EA400000BF00BF4E48008D4E4908404C49088524
:10EA500070BD10B55148C06B002858D000204F49F8
:10EA6000C863880507210902401840690321090489
:10EA7000084218D105200007072109024018C06884
:10EA80000321090408420ED0042000F071F8002888
:10EA900009D143480078C007C00F02D002F0BAFD88
:10EAA00001E002F017FE05200007072109024018C7
:10EAB000806903210904084229D0062000F058F893
:10EAC000002816D005200007072109024018806998
:10EAD00003210904084305210907072212028918A6
:10EAE0008861304800890121C90208432D49088105
:10EAF0000DE00520000707210902401880692A4916
:10EB0000084005210907072212028918886110BDF3
:10EB100010B526488069C4B2002025498860204885
:10EB20000078C007C00F03D1204602F09BFE01E031
:10EB300002F0C5FD10BD03210522120707231B02A9
:10EB4000D2188300D150704710B58A0005231B07E7
:10EB5000072424021B1984001A5110BD0121814091
:10EB6000144A9160704701218140124AD160704778
:10EB7000014610480069C840C007C00F7047000038
:10EB8000082A0020FFDF00001113020034240020B7
:10EB900074E901003B13020038240020406100406A
:10EBA0006B240020F82A0020FFFF020000450040EF
:10EBB000004100400005005070B52C24F74D04E0E2
:10EBC000002028706D1C601E84B2002CF8D1162421
:10EBD000F34D04E0002028706D1C601E84B2002CF0
:10EBE000F8D13424EF4D04E0002028706D1C601E25
:10EBF00084B2002CF8D10820E949087500BF05E06F
:10EC0000FF21E748001D0155601C84B2E448007DE7
:10EC1000A042F5DC87204001E34908800020C04382
:10EC2000E2490880E24802F0E7FAFFF7C7FB00205C
:10EC3000E04908800321E04801773C20DF49087063
:10EC400070BD10B50446204607F057FC10BD30B526
:10EC50000346FF2007E0DA4C6468E407E40F02D0C3
:10EC6000D84CD94D2C600028F5D130BDF8B500BF87
:10EC700000235022D549082009F03EF8054600BF80
:10EC80002E46002E06D000BFD1A25A213046FFF7F3
:10EC9000DEFF00BF00BF00BF00200090009068466C
:10ECA00060DF044600BF2546002D06D000BFC8A285
:10ECB00061212846FFF7CBFF00BF00BFC74809F01E
:10ECC00044F8044600BF2546002D06D000BFC0A270
:10ECD00065212846FFF7BBFF00BF00BFC04809F011
:10ECE0003DF8044600BF2546002D06D000BFB8A25F
:10ECF00069212846FFF7ABFF00BF00BFB94809F004
:10ED000036F8044600BF2546002D06D000BFB0A24D
:10ED10006D212846FFF79BFF00BF00BFF8BD70B50F
:10ED20009E48008D01214902084229D09B48008D50
:10ED3000AD4908409949088500BF00200521090711
:10ED4000072212028918C86000BF00BF0320000418
:10ED5000052109078918486100BF02F0CFFB002098
:10ED6000C043A2498860042001218140A04A11606B
:10ED700000BFFFF73CFE0A20FFF7AAFB34DF0DE0DF
:10ED800040DF044600BF2546002D06D000BF90A2FC
:10ED900085212846FFF75BFF00BF00BF70BD30B57F
:10EDA00004460D462A4621469248FFF750FF30BDE3
:10EDB0003EB50A219048007809F083F93030C1B29D
:10EDC000684601700A218C48007809F07AF93031E0
:10EDD0006846417002210291884908886B4602AA60
:10EDE0000021A4DF044600BF2546002D06D000BF49
:10EDF00077A2C2212846FFF72AFF00BF00BF3EBD11
:10EE000010B5042000F00DFA002878D07C48007876
:10EE1000002874D17B480078C007C00F10D07A4812
:10EE2000007800286BD17748007840084000754989
:10EE3000087002F051FE02F0D1FB02F08EFB5EE0A2
:10EE4000704800788007C00F0CD06E48007802210F
:10EE500088436C49087002F083FE02F0BFFB02F0A9
:10EE60007CFB4CE069480068002806D002F01FFFD8
:10EE700002F0B4FB02F071FB41E06548008865498F
:10EE80000988884206D002F088FD02F0A7FB02F054
:10EE900064FB34E0052000F0C4F900282FD15E485F
:10EEA00000788007C00F0FD05C4800785C49097873
:10EEB000401A8006800E202821DC57480078022165
:10EEC0008843554908701AE05348007840084000CC
:10EED0005149087000204A49087000BF0521090700
:10EEE000072212028918486100BF00BF03200004F6
:10EEF000052109078918C86000BF02F02EFB4148B0
:10EF000000780007C00F07D03E48007808218843EA
:10EF10003C490870FFF74CFF3A4800784007C00FA3
:10EF200013D03848007804218843364908703D489A
:10EF3000007800280AD11948008D0121C902084231
:10EF400001D102F09DFD04F08CFDC9E03548007848
:10EF500001287BD11148008D802108420DD10F4836
:10EF6000008D08430D490885012003F055FE2E4809
:10EF700000882E4908402C4908800848008DFF2150
:10EF8000013108425DD00C48C03800898021084218
:10EF90004FD000F0BCFA01F0F3FDA1E0082A0020F8
:10EFA000C825002034260020582400207824002082
:10EFB0005024002048240020B82B00204E2400209C
:10EFC000000401403546526E00060140B829002079
:10EFD0002E2E5C6D61696E2E63000000113A0200F6
:10EFE0008DD4010043EC0100FFFD00000043004010
:10EFF00080E100E0EFBEADDE6A2400201425002091
:10F000006C2400205C240020DB24002060240020ED
:10F0100074240020762400206B2400207224002019
:10F020007024002068240020BC240020BFEF0000D2
:10F030000CE07F4800890821084251D101F0A0FD71
:10F040004EE000F017F901F09BFD49E079480078A7
:10F0500002282FD17848008D802108420DD17648B2
:10F06000008D084374490885012003F0D5FD7348DD
:10F07000008873490840714908806F48008DFF215E
:10F080000131084211D06A4800898021084204D029
:10F0900000F03DFA01F018FD22E0654800890821E2
:10F0A00008421DD001F010FD1AE000F0E3F801F075
:10F0B0000BFD15E05F480078032802D100F01BFA31
:10F0C0000EE05C48007804280AD104F0CAFC00F085
:10F0D0007EFA5948008D01214902084356490885A6
:10F0E000584840788007C00F05D056484078022124
:10F0F00088435449487010BD5348544948608017AC
:10F1000053498860C0074860C0175249886004208E
:10F110004860FFF7ABFDFFF7D7FB02F0B4FFFFF746
:10F120004BFDFFF7DFF9FFF738FC01F0CDFC04F0F1
:10F1300043F906202ADF04202ADF012106202BDFE5
:10F14000044600BF2546002D07D000BF424AFF21DC
:10F1500074312846FFF77BFD00BF00BF012104206A
:10F160002BDF044600BF2546002D07D000BF3A4ADA
:10F17000FF2176312846FFF76AFD00BF00BF062059
:10F1800026DF044600BF2546002D07D000BF324AC7
:10F19000FF2178312846FFF75AFD00BF00BF042049
:10F1A00026DF044600BF2546002D07D000BF2A4AAF
:10F1B000FF217A312846FFF74AFD00BF00BF62B643
:10F1C00002F0F7F900BF02F072FF2448006800283F
:10F1D00014D1234800882349098888420ED1194850
:10F1E000006800280AD12048008820490988884200
:10F1F00004D1052000F015F8002801D100BF01E07E
:10F20000FFF78DFDFFF7FCFD01F039FD02F09EF8E0
:10F2100002F029F904F06FFDFEF7F3FBFEF70EFF95
:10F22000D1E7014612480069C840C007C00F7047C7
:10F23000F82A002068240020082A0020BC2400208E
:10F24000BFEF00005C240020DFFF07C00005004086
:10F250000063004000430040D0EF01000424002080
:10F2600072240020702400207424002076240020C2
:10F27000000500501FB50F211020FFF700FA0F20E6
:10F28000012103AB32220091019001461020FFF7CB
:10F29000C2FA4721684601730020012103AA2023F6
:10F2A00000920191029032220F211020FFF772FA92
:10F2B0000021684601730020012103AA2123009246
:10F2C0000191029032220F211020FFF763FA0021F2
:10F2D000684601730020012103AA222300920191B4
:10F2E000029032220F211020FFF754FA00216846C5
:10F2F00001730020012103AA2323009201910290AF
:10F3000032220F211020FFF745FA082168460173C9
:10F310000020012103AA24230092019102903222AD
:10F320000F211020FFF736FA0021684601730020F4
:10F33000012103AA252300920191029032220F217C
:10F340001020FFF727FA00216846017300200121F1
:10F3500003AA2E2300920191029032220F21102045
:10F36000FFF718FA0021684601730020012103AA63
:10F37000302300920191029032220F211020FFF7DA
:10F3800009FA0021684601730020012103AA3223F3
:10F390000092019102901A460F211020FFF7FAF90E
:10F3A0000021684601730020012103AA3323009243
:10F3B0000191029032220F211020FFF7EBF900217A
:10F3C000684601730020012103AA382300920191AD
:10F3D000029032220F211020FFF7DCF958216846F5
:10F3E00001730020012103AA3A23009201910290A7
:10F3F00032220F211020FFF7CDF902216846017358
:10F400000020012103AA3B230092019102903222A5
:10F410000F211020FFF7BEF9072168460173002075
:10F42000012103AA3C2300920191029032220F2174
:10F430001020FFF7AFF91421684601730020012165
:10F4400003AA3D2300920191029032220F21102045
:10F45000FFF7A0F9FE48008DFF2101310843FC4968
:10F4600008851FBD7FB5FA48008D012109030842B8
:10F470000DD0002069460873012103AA25230092BC
:10F480000191029032220F211020FFF783F91720FB
:10F49000694608730020012103AA202300920191EC
:10F4A000029032220F211020FFF774F90021E94861
:10F4B000C1770020E74980390882E548008D0121A5
:10F4C0004903084216D0E448006806F031FD0446BE
:10F4D00000BF2546002D06D000BFE0A268212846C7
:10F4E000FFF7B5FB00BF00BFD948008DDF490840DA
:10F4F000D74908857FBD10B5D6488038008980215E
:10F500000843D44980390881FFF7ACFF10BD7FB5AF
:10F51000D04880380089D6490840CE4980390881D2
:10F520004720694608730020012103AA2023009286
:10F530000191029032220F211020FFF72BF90021B8
:10F54000C448C1770020C349803908820021C148DE
:10F5500040304176BE48008D4004400CBC490885CF
:10F560000846008D0121090308420FD0402069465A
:10F5700008730020012103AA252300920191029023
:10F5800032220F211020FFF705F91FE0B048008D4F
:10F5900001214903084219D10022C910AE48006870
:10F5A00006F095FC044600BF2546002D06D000BF9E
:10F5B000AAA288212846FFF74AFB00BF00BFA44843
:10F5C000008D012149030843A14908857FBD7FB50E
:10F5D0009F48008DA6497F3908409D490885084607
:10F5E000008D0121090308420DD0002069460873EF
:10F5F000012103AA252300920191029032220F21BA
:10F600001020FFF7C7F8002069460873012103AAFC
:10F61000202300920191029032220F211020FFF747
:10F62000B9F88B48008D01214903084216D08A4859
:10F63000006806F07DFC044600BF2546002D06D07C
:10F6400000BF86A2A0212846FFF701FB00BF00BF34
:10F650007F48008D854908407D4908857FBD10B5EC
:10F660007C482030447B807B201AC1B2794820300E
:10F67000C47B007C201AC2B276482030447C807C57
:10F68000201AC3B2914203DB994201DB012010BD75
:10F690008A4203DB9A4201DB0220F8E70320F6E707
:10F6A0006C48008A401C81B26A480182C189C182CB
:10F6B000704768484030407D0821084201D0012051
:10F6C000704764484030407D1021084201D002203C
:10F6D000F6E70320F4E702468A4202DB501A00B242
:10F6E0007047881A00B2FBE7F0B585B05948C08969
:10F6F000401C81B25748C1818038008A002829D037
:10F7000054488038008A401E524980390882084691
:10F71000008A00281ED14E48008D4004400C4C4900
:10F72000088500214B4840304176002410E05148C4
:10F7300001784848403001554F48017845484630E7
:10F7400001554D48017843484C300155601CC4B206
:10F75000052CECDB3F482030C07F412807DA3D48CC
:10F760002030C07F401CC1B23A482030C1773948B0
:10F7700080384089803087B2364880388089803030
:10F7800080B2039033488038C089803080B20290C4
:10F790003048C07F042873DB2E4821304178401E5A
:10F7A0004170401C81784170C1788170C770401EE3
:10F7B0004178401C40780918264821308078091883
:10F7C00024482130C0780E18B005000E2949087071
:10F7D000204825304178401F4171401D817841709B
:10F7E000C17881700398C1B21A482530C170401F9A
:10F7F0004179401D4078091816482530807809184D
:10F8000014482530C0780E18B005000E1A4908704B
:10F8100010482930417809384172093081784170A7
:10F82000C17881700298C1B20A482930C170093884
:10F83000417A09304078091806482930807809183B
:10F8400004482930C0780E18B005000E0B4918E0A6
:10F85000082A0020782B0020382400202E2E5C73EC
:10F86000656E736F7233672E63000000FFDF000068
:10F870007EFF00004A2400204B2400204C2400205E
:10F88000EDE30870FE48C07F042873D1FC48C07FB8
:10F89000401CC1B2FA48C177002120300170417389
:10F8A000FF2181730021C173FF2101740021417484
:10F8B000FF2181740021C174017541750C2181758E
:10F8C000C1750176EF480178ED4820304176ED486A
:10F8D0000178EB4820308176EB480178E848203009
:10F8E000C176E9480178E64820300177E748017899
:10F8F000E34820304177E5480178E14820308177BE
:10F90000E0480178DE4840308174DF480178DC4807
:10F910004030C174DC480178D94840300175082175
:10F92000417501218175C1750176D948008D40046A
:10F93000400CD74908850021D14840304176002449
:10F9400010E0D0480178CE4840300155CE480178CB
:10F95000CB4846300155CC480178C9484C30015558
:10F96000601CC4B2062CECDB4121C5482030C177B5
:10F97000FEE3FFE7C2482030407BC2490978884255
:10F9800004DAC0480178BE4820304173BC482030BA
:10F99000C07BBD490978884204DABB480178B84881
:10F9A0002030C173B6482030407CB849097888427D
:10F9B00004DAB6480178B24820304174B0482030AB
:10F9C000807BB0490978884204DDAE480178AC48B4
:10F9D00020308173AA482030007CAB4909788842E6
:10F9E00004DDA9480178A64820300174A4482030DD
:10F9F000807CA6490978884204DDA4480178A048A3
:10FA00002030817400269E484030407DC007C00FE2
:10FA100038D09B484030807C9A490978884241DA46
:10FA200097484030407D9B49084095494031487592
:10FA300000BF934A2032917E2032907CFFF74BFE2C
:10FA40008F492031897D88422CDB8D482030817E92
:10FA500041762030817C20388176002406E0884879
:10FA60004030611C415C0155601CC4B2052CF6DBC2
:10FA700083484030817C0155FFF71BFE012811D1DE
:10FA800001260FE07E484030807C7E49097888421C
:10FA900008DD7B484030407D0121084378494031F2
:10FAA0004875C6E776484030407D022108423AD08A
:10FAB00073484030C07C74490978884243DA704802
:10FAC0004030407D7349491E08406D4940314875BA
:10FAD00000BF6B4A2032117F2032D07CFFF7FBFD44
:10FAE00067492031C97D88422DDB65482030017F80
:10FAF000C1762030C17C20380177002406E06048C0
:10FB00004630611C415C0155601CC4B2052CF6DB1B
:10FB10005B484030C17C801D0155FFF7CAFD0228BB
:10FB200011D102260FE056484030C07C5649097872
:10FB3000884208DD52484030407D02210843504948
:10FB400040314875C5E74E484030407D04210842A9
:10FB50003AD04B484030007D4C490978884243DA1E
:10FB600047484030407D4B49C91E08404449403118
:10FB7000487500BF424A2032917F2032107DFFF746
:10FB8000AAFD3F492031097E88422DDB3C482030C8
:10FB9000817F41772030017D20388177002406E085
:10FBA00037484C30611C415C0155601CC4B2052CC7
:10FBB000F6DB33484030017D0C300155FFF779FD0D
:10FBC000032811D103260FE02D484030007D2F4936
:10FBD0000978884208DD2A484030407D04210843E6
:10FBE000274940314875C5E7264801782448403008
:10FBF00081742548017822484030C1742348017837
:10FC00001F4840300175012E7ED12038817E407E14
:10FC100081427ADA1A482030C17C807E814274DDCC
:10FC200017482030C17C407E8142F2DA00BF144880
:10FC30002030C07F0A2869DB11482030C07F40286F
:10FC400064DC40200E49803908821148008D012172
:10FC5000C903084278D000210948403041770E4856
:10FC60000068401C0C4908600C484068401C0B4967
:10FC7000486003488038007AC007C00F1AD00FE0F0
:10FC8000782B00204A2400204B2400204C24002004
:10FC9000082A0020FEFF0000342A0020702A0020DD
:10FCA0000846C068401CC860FD48408A401CFC49AA
:10FCB000488209E0FB488068401CFA498860F8489F
:10FCC000008A401CF6490882F7484068002817D08F
:10FCD000F648008D0821084212D1F2484068F249E6
:10FCE000496888420CD3F148008D08210843EF4948
:10FCF0000885EF480078402188434030EC4908707F
:10FD00003C20EC49087002E053E251E29EE0FFF72C
:10FD1000C7FCE94800890221084216D0E64840683D
:10FD2000E149898A4018E4494860DF49888A09F036
:10FD30003FF80090DC48C16A009809F0D1F90190C1
:10FD400008F0F2FF05463DE081E0DB480089042130
:10FD5000084215D0D8484068D349C98A4018D649C6
:10FD60004860D149C88A09F023F80090CE48016B59
:10FD7000009809F0B5F9019008F0D6FF054621E09A
:10FD8000CD48007AC007C00F0ED0C749C88A09F015
:10FD90000FF80090C448016B009809F0A1F9019098
:10FDA00008F0C2FF05460DE0BF49888A09F000F857
:10FDB0000090BD48C16A009809F092F9019008F0DE
:10FDC000B3FF0546BD4840684019BC494860B54886
:10FDD00040694019B3494861B748007AC007C00F6D
:10FDE00009D00846C0694019C861AD48406840194B
:10FDF000AB49486009E0AB4880694019A94988616E
:10FE0000A74800684019A6490860AD480088401915
:10FE1000AB490880A4480068002817D0A348008D8B
:10FE20001021084212D19F4840699F4909688842C1
:10FE30000CD39E48008D102108439C4908859C489E
:10FE4000007880218843803099490870ACE19A4855
:10FE5000C030407E002879D1012E26D1002421E037
:10FE60009548C030611C415C005D814218DA9248BF
:10FE7000A030C27C2030611C405C824210DD8E4884
:10FE8000A030C17C2030005D814209DA8A48C03050
:10FE9000407E401CC1B28848C03041760021417785
:10FEA000601CC4B2042CDBDB50E0022E26D10024FF
:10FEB00021E08148C630611C415C005D814218DA56
:10FEC0007D48A030027D2630611C405C824210DDFE
:10FED0007948A030017D2630005D814209DA7648FC
:10FEE000C030407E401CC1B27348C0304176002112
:10FEF0004177601CC4B2052CDBDB27E0032E25D143
:10FF0000002421E06C48CC30611C415C005D8142E2
:10FF100018DA6948A030427D2C30611C405C824276
:10FF200010DD6548A030417D2C30005D814209DA4A
:10FF30006148C030407E401CC1B25F48C03041764D
:10FF400000214177601CC4B2052CDBDB5A48C0306D
:10FF5000407E401CC1B25848C030417600214177F4
:10FF6000407E0C287AD15148008D0121C9030843F5
:10FF70004E490885514801684F48C030407E0818F6
:10FF80004E490860474841684B48C030407E0818D9
:10FF9000444948604848007AC007C00F10D008465E
:10FFA000C1684548C030407E08183E49C8603C489A
:10FFB000418A4148C030407E0818394948820FE0E4
:10FFC000384881683C48C030407E08183549886010
:10FFD0003348018A3848C030407E081830490882CA
:10FFE00031484068002817D03048008D0821084269
:10FFF00012D12C4840682C49496888420CD32B48C0
:020000040002F8
:10000000008D0821084329490885294800784021A6
:1000100088434030264908703C202649087026480D
:100020000089022108421BD01F48808A2249C03122
:10003000497E484305462048406840191E494860AB
:10004000284608F0B5FE00901748C16A009809F0EC
:1000500047F8019008F068FE05465FE0A4E051E132
:1000600015480089042108422CD00F48C08A124943
:10007000C031497E484305460F48406840190E4943
:100080004860284608F094FE00900748016B0098ED
:1000900009F026F8019008F047FE05463EE0000012
:1000A000C82A0020702A002034260020082A0020B8
:1000B000602400204E240020F82A0020342A00204A
:1000C00048240020F848007AC007C00F13D0F74931
:1000D000C98AF54AC032527E5143084608F060FE94
:1000E0000090F248016B009808F0FAFF019008F0C8
:1000F0001BFE054612E0ED49898AEB4AC032527E6A
:100100005143084608F04CFE0090E848C16A009848
:1001100008F0E6FF019008F007FE0546E448406855
:100120004019E3494860E34840694019E1494861A2
:10013000DD48007AC007C00F09D00846C0694019E1
:10014000C861DD4840684019DB49486009E0D9488A
:1001500080694019D7498861D74800684019D64955
:100160000860D64800884019D4490880CF4800E08C
:10017000C7E00068002817D0D148008D1021084240
:1001800012D1CC484069C949096888420CD3CC488F
:10019000008D10210843CA490885CA48007880218B
:1001A00088438030C74908700021BF48A030C1771C
:1001B00029E0022E12D1BC48A030017FC07E8142CE
:1001C00021DAB948A030017D007F81421BDDB648AD
:1001D000A030017DC07E814215DA28E5032E12D1C0
:1001E000B148A030817F407F81420CDAAE48A03018
:1001F000417D807F814206DDAB48A030417D407F5C
:10020000814200DA13E5A848A0300078401CC1B252
:10021000A548A03001700078202872D10021A248A2
:10022000A0300170417B807B0E183046F10F091819
:100230004E109D48A030C674C17B007C0E1830461D
:10024000F10F09184E109848A0300675417C807C4B
:100250000E183046F10F09184E109348A03046751D
:100260000C218175C17501762030C17D0176817DBB
:10027000C175FFF7F4F98C49C03188750846C17D16
:10028000807D81422FD18848C030017EC07D81426F
:1002900029D18548C030407DC72108408249C031FE
:1002A00048750846807D012807D10846407D082111
:1002B00008437D49C031487515E07B48C030807DDA
:1002C000022808D17848C030407D10210843764983
:1002D000C031487507E07448C030407D2021084394
:1002E0007149C031487500216F48A0304173FF212A
:1002F00081730021C173FF21017400214174FF212A
:10030000817419E068488030C27F21308754039897
:10031000C1B265488030C27F253081540298C1B295
:1003200061488030C27F293081542938C07F401C09
:10033000C1B25D488030C17705B0F0BD00205A4998
:100340008031097E002916D157490A228A5E252A62
:1003500004DD022280310A76012043E0524A0A215C
:10036000515E1A22D24391423CDB01224E49803138
:100370000A76012036E04C498031097E012916D1E8
:10038000494A0A21515E2422D243914205DA0022D1
:10039000454980310A76012024E043490A228A5ED9
:1003A000252A1FDD022280310A7601201AE03E490B
:1003B0008031097E022915D13B4A0A21515E24224F
:1003C000D243914205DA0022374980310A76012072
:1003D00008E035490A228A5E1B2A03DA01228031AD
:1003E0000A76012030498031497E002916D12E49F4
:1003F0000C228A5E252A04DD022280314A76012001
:1004000043E0294A0C21515E1A22D24391423CDB3F
:100410000122254980314A76012036E02249803187
:10042000497E012916D1204A0C21515E2422D24353
:10043000914205DA00221C4980314A76012024E0ED
:1004400019490C228A5E252A1FDD022280314A7654
:1004500001201AE014498031497E022915D1124A3F
:100460000C21515E2422D243914205DA00220E492A
:1004700080314A76012008E00B490C228A5E1B2A53
:1004800003DA012280314A76012007498031897ED2
:10049000002926D104490E228A5E252A14DD022273
:1004A00080318A76012053E0F82A0020342600208B
:1004B000342A0020702A0020C82A00204824002066
:1004C000082A002060240020F74A0E21515E1A22DB
:1004D000D24391423CDB0122F34980318A760120EC
:1004E00036E0F1498031897E012916D1EE4A0E218C
:1004F000515E2422D243914205DA0022EA4980313A
:100500008A76012024E0E8490E228A5E252A1FDD32
:10051000022280318A7601201AE0E3498031897E07
:10052000022915D1E04A0E21515E2422D243914284
:1005300005DA0022DC4980318A76012008E0DA49B8
:100540000E228A5E1B2A03DA012280318A7601207C
:10055000D549C031C97E00290DD0012803D1102210
:10056000D149C031CA76D049C031C97E491ECAB20C
:10057000CD49C031CA7601280DD1CB49C031C97EE1
:10058000002908D1C849898A491CC74A918210228A
:10059000C549C031CA76704710B5024610460B02F5
:1005A000034318B200110123DB02184203D00F23CA
:1005B0001B03034318B20346C417240FE418201189
:1005C00010BD30B587B0B8488030417F0177272013
:1005D000012105AB3222009101900F211020FEF77E
:1005E0001AF96846007D082108421ED0A82006217D
:1005F00005AB3222009101900F211020FEF70BF97C
:100600006A46517D107DFFF7C7FFA74948816A46BA
:10061000D17D907DFFF7C0FFA34988816A46517E56
:10062000107EFFF7B9FFA049C8819F4800890821C3
:10063000084202D0FFF782FE01E0FFF755F89B4821
:10064000008D01210903084240D09748C030407F07
:10065000401CC1B29448C0304177407F602835D1FA
:100660004020694608740020012104AA2523009235
:100670000191029032220F211020FEF78BF88B4857
:10068000008D01214903084216D08948006805F011
:100690004FFC044600BF2546002D06D000BF854A0A
:1006A000F2212846FEF7D3FA00BF00BF7F48008D35
:1006B000814908407D49088500217B48C030417749
:1006C000C03800897D4908407749088107B030BDAE
:1006D000F0B587B074488030018A808A814270D03A
:1006E00071488030018A808A814206DD6E48803000
:1006F000018A808A081A84B20AE06B488030808AB6
:1007000001210904091A68488030008A081884B257
:1007100065488030C18A408A814206DD6248803067
:10072000C18A408A081A87B20AE05F488030408A4E
:1007300001210904091A5C488030C08A081887B270
:100740005948C030007F032800D1602756488030C8
:10075000C18A4182018A8182384608F08EF903916C
:100760000290204608F089F905460022544B08F013
:1007700087F901910090039B029A07F02DFF0591E4
:10078000049007F045FD48490860086808F0A4FA9D
:10079000054600224B4B08F06FFC06D84248008902
:1007A000012108434049088105E03F480089464946
:1007B00008403D49088100213B48C030017718E0DE
:1007C000FFE73948C030007F032812D03648C030D8
:1007D000007F401CC1B23448C0300177007F03283D
:1007E00007D131480089384908402F490881002045
:1007F000086007B0F0BDF0B587B034480078401C01
:1008000032490870084600780A2871D10020087023
:100810002F48008800286CD02D490988FF226932B2
:10082000514308462B4907F04CFC044608F0B8FA3F
:100830000590059808F050FA274A284B039102903A
:1008400008F01EF9044607F0E3FC0590059808F04F
:1008500043FA0446002201239B0708F0DBFB02D881
:100860000126B607CEE0059808F036FA04460022C5
:10087000144B08F0CFFB01D8114EC3E0059808F0E7
:100880002BFA04460022164B08F0C4FB01D8154E83
:10089000B8E0059808F020FA04460022124B08F050
:1008A000B9FB27D8114EADE0F82A0020082A002015
:1008B000382400205CF80100FFDF0000FFF7000093
:1008C0000000404000000440FEFF00004D240020D6
:1008D00048240020A08601006E6E4C4F58E2E33F92
:1008E000000008403333534000000C403333734062
:1008F000E8E0E4E0059808F0EFF904460022FE4B3A
:1009000008F088FB01D8FD4E7CE0059808F0E4F97A
:1009100004460022FA4B08F07DFB01D8F94E71E045
:10092000059808F0D9F904460022F74B08F072FB4D
:1009300002D84126360665E0059808F0CDF9044650
:10094000F24AF34B08F066FB01D8F24E5AE00598E4
:1009500008F0C2F904460022EF4B08F05BFB01D817
:10096000EE4E4FE0059808F0B7F90446E74AEC4B25
:1009700008F050FB01D8EB4E44E0059808F0ACF9C4
:1009800004460022E84B08F045FB01D8E74E39E069
:10099000059808F0A1F904460022E54B08F03AFB5F
:1009A00001D8E44E2EE0059808F096F9044600229E
:1009B000E14B08F02FFB01D8E04E23E0059808F04A
:1009C0008BF90446D14A5242DD4B08F023FB01D893
:1009D000DC4E17E0059808F07FF904460022DA4B58
:1009E00008F018FB01D8D94E0CE0059808F074F90E
:1009F00004460022D64B08F00DFB02D88326F605EC
:100A000000E0D44ED449087808F0D2F9314601907C
:100A100008F066FB074608F05FF90446CF4AD04B62
:100A200008F02EF80391029007F0F2FB049004986E
:100A300008F052F90446CB4ACB4B07F0A0FD0391D6
:100A4000029007F0E5FB0490C849049808F048FBC1
:100A50000490049808F068F9C54989684018C449A9
:100A60008860049808F060F9C249496A4018C14991
:100A70004862049808F058F9BF49C9684018BE494F
:100A8000C860B54820388068002818D0BB48008D61
:100A90002021084213D1B748406AAF4920398968FC
:100AA00088420CD3B548008D20210843B3490885FE
:100AB000B348407840084000401CB14948700020CD
:100AC000B049088007B0F0BD1FB5AC48008D0121CA
:100AD000090308423BD040216846017300200121F0
:100AE00003AA252300920191029032220F211020A7
:100AF000FDF750FE7F21684601730020012103AA03
:100B0000302300920191029032220F211020FDF734
:100B100041FE0021684601730020012103AA24231D
:100B200000920191029032220F211020FDF732FE37
:100B30002121684601730020012103AA322300927B
:100B4000019102901A460F211020FDF723FE8E48D6
:100B500000898E4908408C4908810020488288829B
:100B600000218948C0308176002406E0002162001F
:100B7000854816308152601CC4B23C2CF6DB1FBD88
:100B800081490989082211437F4A11811146098947
:100B90007E4A083211407C4A118103227A49C031D1
:100BA0000A77C0390989794A37321140764A11816A
:100BB000002111603C21518200227349C0318A76A4
:100BC0000021714A9182002006E0002243006E4914
:100BD0001631CA52411CC8B23C28F6DB00216C4ACF
:100BE000118051809180684A0A21515E2422D243AB
:100BF000914204DA0022644980310A760CE06249AD
:100C00000A228A5E252A03DD022280310A7603E069
:100C100001225D4980310A765B4A0C21515E242213
:100C2000D243914204DA0022574980314A760CE0DF
:100C300055490C228A5E252A03DD022280314A763C
:100C400003E00122504980314A764F4A0E21515E1D
:100C50002422D243914204DA00224B4980318A7621
:100C60000CE049490E228A5E252A03DD02228031EA
:100C70008A7603E00122444980318A7670477FB545
:100C8000414800890121C902084233D00020694649
:100C90000873012103AA25230092019102903222B8
:100CA0000F211020FDF776FD3448008D0121490306
:100CB000084219D10022C9103648006805F007F92A
:100CC000044600BF2546002D06D000BF324A3349F6
:100CD0002846FDF7BCFF00BF00BF2848008D01215A
:100CE000490308432549088500212748C03041773A
:100CF000C03855E059E00000000010400000A0405E
:100D0000000012409A99C94000001440CDCCCCCCD0
:100D1000CCCC1440000010410000184000002041DD
:100D2000CCCC1A400000304100001C40000038418B
:100D300000001E40000048410000204000005841D3
:100D40003333214000006041000022400000704128
:100D5000000024400000904154260020EC51B81EB1
:100D600085EB913FFCA9F1D24D62403F00007A44EF
:100D7000342A0020702A0020C82A0020082A0020D7
:100D80006024002048240020F82A0020C7FF00002B
:100D900040240020382400205CF8010033040000C7
:100DA0000089D5490840D54908817FBD70B5D34831
:100DB0000089082108427AD0D148806B401CD04974
:100DC0008863D048C069401CCE49C861CB48408A7E
:100DD00000286DD0C948408A401EC849488208464C
:100DE000408A002864D1C8488088401CC649888051
:100DF000C448808D401CC3498885C1484030008963
:100E0000401C81B2BE4840300181C0488078401CFF
:100E1000C1B2BE4881703C20B84948823B2408E0FA
:100E2000601E4100B5481630415A62008152601E72
:100E3000C4B2002CF4DCB148818A620016308152C1
:100E40000020AE4988820846C030807E401CC1B276
:100E5000AA48C0308176807E3C2803DD3C21A7482B
:100E6000C0308176A5480089102108427ED0A34871
:100E700000892021084249D0A3484088401CA2494B
:100E80004880A048408D401C9E4948859C48403081
:100E9000C088401C81B29A484030C1809B4840794C
:100EA000401CC1B2994841710025002409E0BEE010
:100EB000BCE0610091481630405C4019C5B2601C2E
:100EC000C4B28E48C030807EA042F2DC282D0ADDFC
:100ED0008A4800898E49084088490881002187484E
:100EE000C030817603E1052D04DA8448C030807E6D
:100EF0002828F7DB814800898549103108407F495F
:100F0000088100217D48C0308176F0E07E4800886D
:100F1000401C7D4908807B48008D401C794908852C
:100F2000774840308088401C81B2754840308180CD
:100F300076480079401CC1B2744801716F48C030D6
:100F4000807E32281EDB0025002407E061006B480C
:100F50001630405C4019C5B2601CC4B26748C0304E
:100F6000807EA042F2DC052D1CDC00E028E0634816
:100F70000089202108436149088100215F48C03071
:100F800081760FE00025002407E061005B48163001
:100F9000405C4019C5B2601CC4B25848C030807E65
:100FA000A042F2DC282D9DDD5448008958492031AB
:100FB00008405249088100215048C030817696E0AF
:100FC0005148C088401C5049C8804E48C08D401CC4
:100FD0004C49C8854A4840304089401C81B2484845
:100FE000403041814948C078401CC1B24748C17077
:100FF0004248C030807E0A2879DB0025002407E0C3
:1010000061003E481630405C4019C5B2601CC4B255
:101010000A2CF5DB0A2D6ADA3848008910210843CA
:101020003649088100213548C03081765FE0FFF7FE
:101030004FFB3248C030007F03284ED03148C06893
:10104000401C3049C8602E48806A401C2C49886288
:101050003048C068002817D02F48008D4021084232
:1010600012D12748806A2B49C96888420CD32A4884
:10107000008D4021084328490885284840780221EE
:101080008843801C254948701C48007AC007C00F5F
:1010900011D01B48C06A401C1949C8621948006930
:1010A000401C1849086119482038008B401C17491A
:1010B000203908831BE01248006B401C104908636C
:1010C00010484069401C0F49486110482038C08AC8
:1010D000401C0E492039C88209E00948806B401C39
:1010E000074988630748C069401C0649C86170BD4C
:1010F00010B5FFF75BFE10BDFFF70000F82A0020D7
:10110000702A0020342A002040240020E82A0020F1
:10111000CFFF000034260020082A00206024002091
:1011200070B50446FF219131204606F0CAFF002920
:101130000DD06421204606F0C4FF002909D02546C1
:10114000E017800F401980108000201A01D1012083
:1011500070BD0020FCE770B586B00646D1A103C97A
:1011600005910490D1A30FCB6C460FC400243588A1
:10117000681E85B203E02846FF38193885B2FF2083
:1011800019308542F7DA02E028461C3885B21C2D5A
:10119000FADA03E0281F85B2601C84B2042DF9DA64
:1011A00004A8045D601984B2072C01DBE01F84B23F
:1011B000B0786946085C001984B2072C01DBE01F97
:1011C00084B2F078001984B201E0E01F84B2072CE9
:1011D000FBDAB078032807DB3088FFF7A1FF00288F
:1011E00002D0E0B206B070BD002C01D1062401E0AF
:1011F000601E84B2E0B2F5E710B504460020A0718D
:10120000607120710120E070A070AC482080204601
:10121000FFF7A1FFE07110BD70B588B004460D4620
:101220001C22A74901A8FBF7A1FF600001A90E5AE3
:10123000022C06D12846FFF773FF002801D0701C4E
:1012400086B2F0B208B070BD10B504462188A0780F
:10125000FFF7E2FFE178884203D0E078401CE070BD
:101260000CE00120E070A078401CA070A0780D2850
:1012700004D10120A0702088401C20802046FFF768
:101280006AFFE07110BD10B50446A079401CA07142
:10129000A0793C2839D10020A0716079401C607190
:1012A00060793C281AD187480068012189020843E7
:1012B00084490860002060712079401C20712079E9
:1012C00018280BD10020207108460068012149022E
:1012D00008437C4908602046FFF7B6FF7A4800883B
:1012E000002812D078480088401E774908800846B8
:1012F0000088002809D187204001088073480078C1
:1013000010218843103071490870FFF774FA10BD3E
:101310006F49897A491CCAB26D498A72897AC907AC
:10132000C90F01D000BF07E069492039098D0122AA
:101330001143674A203A1185704765492039098D64
:1013400002221143624A203A1185704710B5604865
:101350002038008DC007C00F7ED05D482038008D3A
:101360005C4908405A49203908855B48FFF78BFFE4
:10137000FFF7BEFE594800780821884308305749D6
:10138000087057480078002821D055480078401E42
:101390005349087008460078002818D15148008841
:1013A00001214902084212D04E48008849000842F3
:1013B00003D03C204A49087009E04A4800880121CE
:1013C0008902084347490880002002F0A7FB4648ED
:1013D0000078002804D044480078401E4249087034
:1013E0003B482038008D8021084221D03D480088AC
:1013F0000221084204D13B480078C007C00F04D046
:10140000384800884021084212D03648008801211F
:101410000903084203D0012001F0FEFB02E0002096
:1014200001F0FAFB2F480088304908402D49088018
:101430002F480078002804D02D480078401E2C4901
:1014400008702C48007800280CD02A480078401EEC
:1014500028490870084600E004E00078002801D11F
:10146000FCF781FF10BD10B519482038008D02210E
:10147000084215D016482038008D1649491E0840EC
:101480001349203908850846008DFF2101310842A3
:1014900006D0194800898021084201D1FFF791F850
:1014A00010BD000000050301060402000000030354
:1014B000060104060205000305000000DF07000026
:1014C000E891020004240020582400206024002019
:1014D000282A0020FEFF0000502400206424002061
:1014E000D6240020BC240020DA240020BFEF000016
:1014F000DB2400202C240020F82A002010B5042032
:1015000000F05DFC0020FC49086010BD70B50220B1
:1015100000F04CFC002000F049FC012000218A0072
:1015200005231B0707252D025B1985005A5100BFB3
:101530000220F14988600020C8600120086180060F
:101540004862062401202043EB49403148610020D5
:10155000EA498860FFF7D2FF70BD0020E749886044
:10156000E549086001200860042001218140E44A27
:10157000D16000BF704710B500BF002005210907EA
:10158000072212028918C86000BF00BF03200004B0
:10159000052109078918486100BFDA48007840082A
:1015A0004000D84908700020D7490870FFF7A6FF0F
:1015B00010BD10B50020D3490870D4490870D44933
:1015C0000870D4490870D4490880D4490880D449A7
:1015D0000880D4490880FFF7CEFF10BD00BF00206F
:1015E00005210907072212028918486100BF00BFC0
:1015F00003200004052109078918C86000BFC148FD
:10160000007840084000401CBE4908700020BE49D8
:101610000870704710B5BC480078002804D0012835
:101620000DD0FE2827D11BE0A420B349C861B949D9
:101630000870B5480078401CB34908703DE0B348D5
:101640000078AD49C861B3480078B049097848408E
:10165000B0490870AC480078401CAB4908702CE0D9
:10166000042000F0ACFBAB480078A349C861FF2020
:10167000A549087021E0A4480078801EAA49085CAA
:101680009D49C861A0480078801EA749085CA1490F
:10169000097848409F4908709B4801789B4800782A
:1016A000401C814203DDFE209749087004E0964803
:1016B0000078401C9449087000BF00BF10BD10B5F1
:1016C00091480078FF2804D1002090490870FFF766
:1016D00052FF10BD10B58C480078FF2803D10420BC
:1016E00000F06DFB04E088480078401C86490870D3
:1016F00085480078012803D1A5207F49C86102E010
:10170000FF207D49C86110BD70B5034614461429F9
:1017100000DB14219B079B0F804800787E4D2D78BD
:10172000401B8006800E40252D1A481C854202DC95
:101730000020C04370BD8806800E9D0128430246EC
:101740007A4D764E3688AA5574480078401C80063B
:10175000800E724D288000220CE0A05C734D6F4E0D
:101760003688A8556D480078401C8006800E6B4D69
:101770002880521C8A42F0D368480078664D2D7844
:10178000401B8006800E4025281A142802DC002009
:10179000C043CFE70020CDE730B56548057828463F
:1017A0001038030007F028FC0705215B1529533E7C
:1017B0005B006048007804218843001D5D49087083
:1017C0005B4840785C490870594880785B490870EC
:1017D00046E0574840785A49087056480078082132
:1017E00088430830534908703AE05248007840086E
:1017F0004000401C4F49087032E0524800780328EE
:101800000FDB4B4A521C14210020FFF77DFF0446DA
:10181000002C06D03B48007802218843801C3949BF
:1018200008701DE04748007803280FDB404A521C2F
:1018300014210120FFF768FF0446002C06D0314830
:10184000007802218843801C2E49087008E039483E
:10185000007802218843801C3649087000E000BFF0
:1018600000BF30BD10B5044627480078012804D0D9
:10187000022806D0FF2815D10BE0A52025490870C5
:1018800025E0244800786040224908702048047010
:101890001DE020480078844201D1FFF77DFFFFF76B
:1018A0006AFE14E01B48007860401A490870164828
:1018B0000078C01E1E490C54134801781448007863
:1018C000801C814202DDFF200F49087000BF00BF6D
:1018D00010BD70B503460C4612480078104D2D78A7
:1018E000401B4006400E80252D1A981C85422BDC9B
:1018F0000020C04370BD0000004500400041004092
:10190000000500506B2400206C2400206E24002071
:101910006F2400206D2400207024002072240020F9
:101920007424002076240020D82B0020022C0020D4
:10193000ED2B00205C240020682400206924002076
:101940006A2400203C240020581CFC4DFC4E3688A4
:10195000A855FB480078401C4006400EF84D2880F2
:10196000F6482D884455F6480078401C4006400E45
:10197000F34D288000210CE0505CF04DF04E36888D
:10198000A855EF480078401C4006400EEC4D2880DA
:10199000491C9942F0D3002070BDEA490988E84A01
:1019A0001288914200D17047E449E64A1288895C66
:1019B000491EE54A1170E3490978491C4906490E58
:1019C000E04A1180E0490978142902DB1421DE4A3B
:1019D0001170002014E0D949DA4A1288895CDB4A88
:1019E0001154D8490978491C4906490ED54A118035
:1019F00011460988D24A1288914200D105E0401C64
:101A0000D1490978491C8842E5D300BF00BFCAE725
:101A100030B50446CE480088CE4D2D88A84201D16D
:101A2000002030BDCC48CA4D2D88415DC8480078A3
:101A3000401C8006800EC64D28808A06920E142A0D
:101A400003D914221046C0300140002313E0C248DD
:101A5000BF4D2D88405DE054BD480078401C800695
:101A6000800EBB4D288028460088BA4D2D88A8429C
:101A700000D102E05B1C9342E9D300BF0846D0E7E7
:101A800000B585B01421684606F00FFB00216846BA
:101A90000170012141700722B049801C06F052FA02
:101AA0006A4681211420FFF714FF1421684606F0CE
:101AB000FCFAFF2168460170012141706A468121CC
:101AC0001420FFF706FFA648008D0121C902084334
:101AD000A349088505B000BD03209B4908708020FC
:101AE0009A4908709F48007848709D48008D802171
:101AF00008420CD09C480078C007C00F03D00120DA
:101B00009249487006E002209049487002E00020A7
:101B10008E49487000208D498870934800880121C3
:101B2000C903084205D089488078012108438749C4
:101B300088708D48008801218903084205D08348B8
:101B400080780221084381498870874800880321F2
:101B50008903884384490880FF207C49C870704706
:101B600070B50920784908708220784908707F484C
:101B7000C07948707E484068002804D07B482038EF
:101B80004068002801D100250DE0784A203A5168CC
:101B9000774A526864235A43104606F088FA06468C
:101BA00007F006F905467349284607F0F1FA00D216
:101BB000704D284607F0B8F884B264498C70201242
:101BC000C8706B484069002804D068482038006815
:101BD000002801D100250DE0644A203A1168644ACA
:101BE000526964235A43104606F061FA064607F02C
:101BF000DFF805465F49284607F0CAFA00D25D4D76
:101C0000284607F091F884B250490C7120124871AF
:101C10005748406A002804D054482038806800287B
:101C200001D100250DE0514A203A9168504A526A8C
:101C300064235A43104606F03AFA064607F0B8F80D
:101C400005464C49284607F0A3FA00D2494D2846DC
:101C500007F06AF884B23D498C712012C87144487B
:101C6000806A002804D041482038C068002801D18B
:101C700000250DE03D4A203AD1683D4A926A64232E
:101C80005A43104606F013FA064607F091F8054647
:101C90003849284607F07CFA00D2364D284607F02E
:101CA00043F884B229490C722012487270BD042096
:101CB000254908708320254908702F48007848700E
:101CC0002D4800880004000E88702B480068000230
:101CD000000EC87028480068000E087100202649D0
:101CE0000860704710B504462078002814D10422FB
:101CF0002249204606F086F8002806D020480078C1
:101D0000042188431E49087006E01D48007804211C
:101D10008843001D1A490870194800784007C00F11
:101D200042D02078032831D114221649204606F0EB
:101D300069F8002828D0002010BD0000422C0020A7
:101D400076240020742400206E240020D82B00204C
:101D50007024002072240020022C00205024002037
:101D6000082A00203C240020BC2400205426002007
:101D7000702A002000009643602400200292020096
:101D80006B24002006920200012010BD2078FF285D
:101D90000AD114220C49204606F034F8002801D05C
:101DA0000020F2E70120F0E70120EEE70321052201
:101DB000120707231B02D2188300D150704701215C
:101DC0008140024A916070471A920200000500505B
:101DD00070B504460D4616462878112817D01428E9
:101DE00016D0152802D0212819D112E0BE4800884B
:101DF00004210843BC4908800420BC490870BC4841
:101E0000007840084000401CB949087007E000BF56
:101E100000BF04222146B74806F094F800BF00BF77
:101E2000002070BDF8B507461446069E00BF254643
:101E3000002D06D000BFB0A24E212846FCF707FFB8
:101E400000BF00BFF8BD10B50023FF228D32AE49A0
:101E5000AE4804F027FE0446002C04D1AC4880684C
:101E6000AC49884211D0FF22FF218D31A74806F0EE
:101E7000F5F8A849A6488160A748407840218843E2
:101E80004030A5494870012010BD0020FCE7F8B59E
:101E900000200090A148007869460870052529E0D7
:101EA0009A48445D082C24D269468C70684605F037
:101EB000C4FA064600BF3746002F06D000BF8EA2E8
:101EC0007A213846FCF7C3FE00BF00BF30216143D2
:101ED0008E4A08328818FF22302106F0BFF8FF2012
:101EE0008A4948558C4840784021884340308A4987
:101EF00048706D1C082DD3D3F8BDF0B587B00746E8
:101F000001267C4805F093F8044600BF2546002DC5
:101F100006D000BF78A292212846FCF798FE00BFA9
:101F200000BF04F08DFB044600BF2546002D06D0FF
:101F300000BF71A296212846FCF789FE00BF00BFB2
:101F400077484069401C08D001221207126991B2FB
:101F5000734A506906F0ABF802E0012000074069BF
:101F60000446012168464181FF218D3101816D4880
:101F70000190654901A804F0C3FB044600BF254653
:101F8000002D06D000BF5CA29F212846FCF75FFE13
:101F900000BF00BFFFF757FF0446002C02D001200E
:101FA000069001E00020069006A805F060F90446BE
:101FB000002C25D00120069006A805F058F904460B
:101FC00000BF2546002D06D000BF4BA2AD212846FC
:101FD000FCF73DFE00BF00BFFF2208214B4806F082
:101FE0003DF8FF22FF2181314848083006F036F8DD
:101FF000494840784021884340304749487000268E
:10200000062104A8023006F04EF81E2168464182DF
:1020100003A8007A40084000401C03A9087203A8E6
:10202000007A0221884303A9087203A8007A1C21C0
:1020300088430C3003A9087203A8007A2021884342
:1020400003A90872072103A8417210218172364842
:10205000039001216846017403A9304805F076F920
:10206000044600BF2546002D06D000BF22A2C42191
:102070002846FCF7ECFD00BF00BF002E01D0FFF7A3
:1020800006FF07B0F0BD70B5284A0121084604F0EC
:102090004AFE044600BF2546002D06D000BF16A20A
:1020A000D4212846FCF7D3FD00BF00BF70BD10B59A
:1020B0000E480078042800D010BD1D48007806287E
:1020C0000FD11C4800784007C00F0AD1194800788A
:1020D00004218843001D1749087000F077FD00F0C7
:1020E0007CFD00BFE8E70000BC2400203C24002069
:1020F0005C2400207B2400202E2E5C6D61696E5FC5
:10210000626C652E6300000080240020C42C002037
:10211000442E002016081420642400207A24002075
:1021200000100010251E0200D11D0200F36C0200F9
:1021300094240020882400200720FA490870704762
:1021400038B5022168468170F74901806A4601214D
:10215000F648008890DF0446002C02D0FFF7ECFF21
:1021600002E00320EF49087038BD38B50024F0487C
:10217000C088F049884211D1ED488088401C81B266
:1021800068460180EA488088401C81B268464180E8
:102190006946E648008893DF044615E0E648C088B3
:1021A000E449884210D1E4488088401C81B26846E6
:1021B0000180E1488088401C81B2684641806946C0
:1021C000DA48008893DF0446002C02D0FFF7B4FF02
:1021D00002E00520D349087038BD70B50546D748E0
:1021E0008478A888D1490880082C1FDA3020604301
:1021F000D34A81180822CE4805F0A4FE302060435F
:10220000CF4A8018014608310822CE4805F09AFED0
:1022100030206043CA4A8018014610310822C6485F
:1022200005F090FE0120BF49087001E0FFF788FF2C
:1022300070BD70B504462146BC48008892DF054653
:10224000002D02D0FFF778FF02E00420B5490870A6
:1022500070BD38B50446E088002802D1A089002866
:1022600002D1FFF769FF38BD608AB7490880A08AAC
:10227000B6490880B448018868460180B34801889F
:1022800068464180FFF7D5FF00BFECE7F8B505468B
:10229000E8880146FF390B3903D0E888C11FFA39B5
:1022A00011D1A3488088002807D0A648808800283C
:1022B00003D0A1488088002802D1FFF73DFF01E04C
:1022C000FFF753FFF8BDE888002802D0FFF734FF7E
:1022D000F8E70024002723E00A2039464143284636
:1022E0000E300C18002620889949884201D1904E62
:1022F0000AE020889749884201D1924E04E0208864
:102300009549884200D18C4E002E08D0208830801C
:10231000608870802089B0800020C043F0807F1CDE
:10232000A889B842D8D8002C0BD02089401C81B293
:10233000684601808548018868464180FFF779FF3B
:1023400009E0814801886846018080480188684624
:102350004180FFF76EFF00BFB4E7F8B504460026E2
:10236000E0880146FF390B3906D0E088C11FFA39F1
:1023700002D0E088002802D0FFF7DEFEF8BDA08979
:10238000002818DD25460E3568887449884212D128
:10239000674881882888401E814203D12888644983
:1023A000C88008E0644881882888401E814202D1A4
:1023B00028886149C8805E48C0885E49884203D049
:1023C0005D48C088884202D1FFF7CFFE21E0062099
:1023D0005449087003206249087062484078C00977
:1023E00017D1604840788021884380305D4948702B
:1023F000524804F0DCFF064600BF3746002F07D0E6
:1024000000BF59A2FF214B313846FCF720FC00BF2A
:1024100000BF00BFB2E710B588B00446414800785D
:10242000062802D0082008B010BD002168460171BE
:10243000A17A4171E17A8171217BC171617B017265
:1024400001214172202181720021C1723D488188A1
:10245000684641820821C1820021818201210174E4
:1024600001A8069004A802F0AEF9DCE770B50446B6
:10247000A6880025B6E142480068030006F0BCFDCE
:1024800009060E161E262E363E880D00A01D405D44
:102490003C49087001203A490860A1E1A01D405D57
:1024A0003849487002203649086099E1A01D415D15
:1024B0003448817003203249086091E1A01D415DDC
:1024C0003048C17004202E49086089E1A01D415D9B
:1024D0002C48017105202A49086081E1A01D405D5A
:1024E0002849487106202649086079E1A01D405D11
:1024F0002449C88007202249086071E12148C0882A
:10250000A11D495D090208431E49C88008201C49D5
:1025100008601C4808301C49086000201B490880DE
:102520005EE100009424002031F400008C2400209F
:102530009A240020FFFF0000AA2400207B24002012
:10254000CC2C0020A22400209624002098240020D7
:102550000D120000F3D80000E9C6000002290000B7
:10256000DA240020642400202E2E5C7365727669C4
:1025700063655C626C655F616E63732E630000006F
:1025800090240020902E0020B4240020B8240020A5
:10259000FE480168FE48814200D370BDFB480168D7
:1025A000FB482038814200D2F7E7A01D405DF74983
:1025B00009680870F5480068401CF4490860F5484F
:1025C0000088401CF3490880F1482838C0880988F1
:1025D00088427DD10020ED4909680870EB48006809
:1025E000401CEA4908600520EB490860EB4909787E
:1025F0004901EB4A8818E7490A88E549203905F07E
:10260000A1FCE6480078401CE449087008460078C0
:10261000012870D10822E249E2A005F043FC00281D
:1026200011D10520E2490870E248407880218843B2
:102630008030E0494870E048407802218843801C9F
:10264000DD494870BFE00622D549DCA005F02AFC30
:10265000002811D10620D6490870D648407880213C
:1026600088438030D3494870D3484078022188435A
:10267000801CD1494870A6E00822C949D1A005F0C4
:1026800011FC002811D10720C9490870C9484078B9
:10269000402188434030C7494870C74840780221EC
:1026A0008843801CC44948708DE00922BC49C8A0F9
:1026B00005F0F8FB002813D10B20BD490870BD4878
:1026C0004078402188434030BA494870BA4800E019
:1026D00085E0407802218843801CB749487072E049
:1026E0000722AF49BDA005F0DDFB002804D108207A
:1026F000AF49087067E06BE00522A949B9A005F071
:10270000D1FB002803D10920A94908705BE00A2207
:10271000A349B6A005F0C6FB002811D10D20A4499D
:102720000870A4484078202188432030A14948708F
:10273000A148407802218843801C9F49487042E0AC
:1027400005229749ACA005F0ADFB002811D10E2061
:102750009749087097484078202188432030954950
:1027600048709548407802218843801C92494870FF
:1027700029E002228A49A2A005F094FB002811D189
:102780000F208B4908708B48407880218843803027
:10279000884948708848407802218843801C8649CF
:1027A000487010E00A2082490870824800780821A9
:1027B000884308307F4908707F4840780221884369
:1027C000801C7D4948700020734908607349087077
:1027D00072480078012802DD00207049087000BFAF
:1027E00000BF6D1CB54200DA45E600BFD5E670B506
:1027F000054600262C460C34208882498988884268
:1028000065D1A088022862DBA07900286AD1207AED
:10281000030006F0F1FB073105134F2C21364F0062
:102820006448007840084000401C6249087003205A
:102830007549087001205E49087030E05D480078F5
:1028400002218843801C5B49087004206E4908708F
:1028500002205749087022E05648407810218843EA
:1028600010305449487003205149087017E0012680
:10287000607A664908701EE00C204D4908700126F8
:102880000DE004204A4908704A48407820218843D6
:1028900020304849487009205B49087000BF607AC1
:1028A0005A4908704448407802218843801C4249B4
:1028B000487000E000BF00BF012E13D12046FFF793
:1028C000AAFD002034490860344908700AE02088D5
:1028D0004F498988884205D1A088022802DB20461A
:1028E000FFF7C4FD70BDF8B505460220009000203A
:1028F00048490870002D45D06946474863DF0446C3
:1029000000BF2646002E06D000BF444A4449304648
:10291000FCF79DF900BF00BF00A90131414863DF0A
:10292000044600BF2646002E07D000BF3B4A3C4964
:10293000C91C3046FCF78BF900BF00BF00A902316B
:10294000394863DF044600BF2646002E07D000BF8B
:10295000324A3349891D3046FCF779F900BF00BF80
:1029600000A90331314863DF044600BF2646002E2C
:1029700007D000BF294A9B2189003046FCF767F940
:1029800000BF00BF08211F4852E00000B42400200F
:10299000B82E0020B824002090240020B32400206A
:1029A000502E002057686174734170700000000061
:1029B000B2240020602400205C2400205765436876
:1029C0006174000046616365626F6F6B0000000018
:1029D0004D657373656E67657200000054776974A6
:1029E00074657200536B7970650000005961686FFF
:1029F0006F204D61696C0000476D61696C000000DB
:102A0000515100009A2400203D2400203E24002043
:102A1000AA240020942400202E920200682502009F
:102A2000630200003E9202004E9202005E9202009B
:102A300005F039FB08216C4805F035FB08216B488F
:102A400005F031FB0020C0436749C8806849C88051
:102A50006649C88067480078042188436549087042
:102A6000F8BD0146C888644A904209D00888634A84
:102A7000904203D00888624A904201D101207047F9
:102A80000020FCE770B5064634885E488578112C36
:102A900032D1082D2CDA5648FFF7E3FF002827D063
:102AA0005248FFF7DEFF002822D030216943564A02
:102AB000881808224E4905F045FA30216943524AE8
:102AC0008918084608300822474905F03BFA3021AA
