:020000040001F9
:10D00000383E0020A5D10100BFD10100C1D10100EF
:10D010000000000000000000000000000000000010
:10D02000000000000000000000000000C3D101006B
:10D030000000000000000000C5D10100C7D10100C0
:10D04000C9D10100C9D10100C9D10100C9D1010074
:10D0500003E601000000000093E50100C9D10100D2
:10D06000C9D10100C9D10100C9D10100C9D1010054
:10D07000C9D10100C9D10100C9D10100C9D1010044
:10D08000C9D10100373F0200C9D10100C9D1010057
:10D09000513F0200714A020045570200C9D1010008
:10D0A000C9D10100C9D1010000000000000000004A
:10D0B0000000000000000000000000000000000070
:10D0C00000F002F800F032F80CA030C8083824183C
:10D0D0002D18A246671EAB4654465D46AC4201D1B0
:10D0E00000F024F87E460F3E0FCCB64601263342B0
:10D0F00000D0FB1AA246AB46334318471C9B0000E6
:10D100003C9B00000023002400250026103A01D398
:10D1100078C1FBD8520700D330C100D50B607047EF
:10D120001FB5C046C0461FBD10B510BD09F007FCB5
:10D130001146FFF7F5FF01F038FC09F01FFC03B4BE
:10D14000FFF7F2FF03BC09F023FC0000401E00BF04
:10D1500000BF00BF00BF00BF00BF00BF00BF00BFD7
:10D1600000BF00BF00BFF1D17047000070B5054699
:10D170000C46164602E00FCC0FC5103E102EFAD218
:10D18000082E02D303CC03C5083E042E07D301CCDE
:10D1900001C5361F03E021782970641C6D1C761EC2
:10D1A000F9D270BD03210C4802680A4302600B48A3
:10D1B00002680A4302600A4880470A480047FEE7BF
:10D1C000FEE7FEE7FEE7FEE7FEE700000648074948
:10D1D000054A074B704700002405004054050040F5
:10D1E0006DD20100C1D0010038340020383E00204B
:10D1F000383400202748018CC9B201290BD1818C19
:10D20000090708D1018D0906090F042903D1808D72
:10D210000006000F01D000207047012070471D4913
:10D22000088CC0B201281DD1888C00071AD1088D46
:10D230000006020F03D18A8D1206120F03D0000FD1
:10D24000012802D005E0012070478A8D1206120FD6
:10D2500002D0032802D005E001207047888D000627
:10D26000000F01D0002070470120704710B5FFF774
:10D27000D6FF002805D0094907484860C813084967
:10D280008861FFF7B7FF002802D0064901208860B7
:10D2900010BD0000C00F00F0DFFF07C00005004018
:10D2A000006C00400006004002465D49087D0028F1
:10D2B00008D000200B181B79934204D0401CC0B248
:10D2C0000828F7D3FF20704718B404466946204663
:10D2D000E7DF694608788007800F009002280BD3AB
:10D2E0002046C5DF69462046E7DF684600788107AB
:10D2F000890F00910229F3D218BC704770B5002045
:10D30000FFF7D2FF0546FF2D11D0454C208840087D
:10D310004000208000206074A074E0742846FFF76D
:10D32000D3FFFF2061190871207D401C207570BD5E
:10D3300082B002783B49515C082905D110216A4628
:10D34000117000780821C7DF02B0704701783548B6
:10D35000085C002800D1D1E7704770B483B0044660
:10D360002178E0784E2803D04F2801D0502849D1A9
:10D370002B4D68180079002844D1687C00260028CD
:10D3800019D0C8B26B4601AA02A9D4DF6846008949
:10D39000002810D024494A8B824207D068804883F5
:10D3A0002248012201681203114301606E7428882B
:10D3B000012108432880287B617A884211D1687B4B
:10D3C000A17A88420DD1A87BE17A884209D1287CD4
:10D3D00000280ED0401EC0B22874002809D1EE7378
:10D3E00007E0207BE873F02801D9F020E8731020D3
:10D3F0002874607A2873A07A6873E07AA8730A2088
:10D40000A874EE7403B070BC70474178012904D051
:10D41000032903D0802902D19FE797E788E7704767
:10D42000B8250020BC250020242600201824002038
:10D43000FE48002101600121FD4A8905916000211B
:10D44000C9438160C16001617047F84A0023D3611C
:10D45000F8488168012903D000BF81680129FBD108
:10D4600083609069C0B27047F04AD061F14881682A
:10D47000012903D000BF81680129FBD1002181600F
:10D4800090697047E948192181601821C16017210E
:10D490000161012109074162E74A06215161012129
:10D4A000E34B8A05DA600160704700B5FFF7EAFFD9
:10D4B0000520FFF7D9FFFFF7C8FF0346FFF7B8FFC6
:10D4C000184600BD00B5FFF7F0FFC007C00F00BD54
:10D4D00070B504460E461546FFF7F4FF002804D049
:10D4E00000BFFFF7EFFF0028FAD1FFF7CBFF0320C3
:10D4F000FFF7BAFF2002000EFFF7B6FF2004000E70
:10D50000FFF7B2FFE0B2FFF7AFFF0024002D05D90F
:10D51000FFF79BFF3055641CAC42F9D3FFF788FF3F
:10D5200070BD08B504226946C448FFF7D1FF0098D2
:10D5300008BDC34880224169114300224271C27173
:10D54000032282710122120311434161704700B529
:10D55000FFF798FF0620FFF787FFFFF769FFFFF748
:10D56000A4FF8007F4D500BD70B50024FF25F53574
:10D57000FFF7A8FF002805D0012000F0B9FD641CCA
:10D58000AC42F5D370BD10B50403FFF7EDFFFFF714
:10D59000DEFFFFF777FF2020FFF766FF2002000E77
:10D5A000FFF762FF2004000EFFF75EFFE0B2FFF717
:10D5B0005BFFFFF73DFF10BD70B506460D461446F4
:10D5C000FFF7D2FFFFF7C3FFFFF75CFF0220FFF773
:10D5D0004BFF3002000EFFF747FF3004000EFFF74D
:10D5E00043FFF0B2FFF740FF0023002C05D9E85CB1
:10D5F000FFF73AFF5B1CA342F9D3FFF719FF70BD99
:10D6000010B590490C200860012189488905816086
:10D61000C900816049108160C910C1608A48018DCC
:10D62000042211430185864903208870052000F0FB
:10D630005FFD10BD10B584B08348008D4007002801
:10D6400003DA7F490320887001E0FFF7D9FF00F07B
:10D6500056FB0020FFF797FF082202A90020FFF7E2
:10D6600037FF002002AC215CFF2902D0002004B06B
:10D6700010BD401CC0B20828F5D300202054401C27
:10D68000C0B20828FAD3082202A90020FFF794FFAD
:10D69000082269460020FFF71BFF00206946225C34
:10D6A0000B5C9A4202D0002004B010BD401CC0B2F6
:10D6B0000828F4D3012004B010BD644800210160A3
:10D6C00041608160C160016141618161C16101624C
:10D6D00041628162C162704710B558215C4808F010
:10D6E000B2F95C485A4902880A8082788A70C07808
:10D6F000C8705548018D78229143018510BD50496D
:10D700000872FF2248690132104300224A71032245
:10D710008A71CA79521ECA710122120310434861EC
:10D720007047474AD079411CC9B2072802D25072CB
:10D73000D1717047507A062804D0401C5072D171C4
:10D74000507ADCE700205072F9E730B440490A888B
:10D7500002808A788270CA78C2703F4B5A684260F1
:10D760001A6882609A68C260DA6802614A68426137
:10D770008A688261CA68C2610A6902624A69426251
:10D780008A698262CA69C2624A6A4263CA6A8263F9
:10D790000A6BC2634A6B02648A6B4264CA6B82641E
:10D7A000096CC1642D4A0146148940310C825489A8
:10D7B0004C8294888C82D488CC82147B0C76527BE9
:10D7C0004A7600228A76204A148D2407002C01DA3A
:10D7D00001248C76148DE40603D58C7E02252C431F
:10D7E0008C76148DA40603D58C7E04252C438C7670
:10D7F000128D520603D58A7E202422438A769A7F90
:10D80000CA76DA7F0A77164A13784B7753788B7784
:10D810009378CB77D178603001701179417051796C
:10D8200081709179C17030BC7047000000350040B4
:10D83000000500500031004040350040FCF03F0042
:10D84000042400205C070050F8290020B82A00209A
:10D85000602A00204E24002024260020A02A002038
:10D860004426002030B4FE490A463CCA3CC00A4661
:10D8700010323CCA103810303CC04A6A2038096A5D
:10D880004262016230BC7047F0B5A7B0F54EF64D6C
:10D8900070690327002806D0288D400701D5B7708E
:10D8A00001E0FFF7ADFE706900240106002918DAD7
:10D8B000FFF708FE002812D17179EC480818FFF72D
:10D8C00062FE7079401CC0B27071B771072806D132
:10D8D000706980218843B47109010843706127B0E1
:10D8E000F0BDE34EC10516D5FFF7ECFD0028F6D1DB
:10D8F000DC4DDE48297A0818FFF745FE6879401CA0
:10D90000C0B26871AF710128E9D16869B04368613C
:10D91000AC7127B0F0BDD34F410534D5FFF7D2FD30
:10D920000028F6D1D3480579002D00D118256D1EA9
:10D93000787AD149000340194618012201A93046DE
:10D94000FFF7C6FD68460079FF2813D10194012234
:10D9500001A93046FFF730FEA801797A09030818BB
:10D96000C649441802A8FFF77DFF282202A92046D5
:10D97000FFF722FE01207969800281437961FFF778
:10D980009CFE27B0F0BD81051BD5FFF79BFD00284D
:10D99000F7D164210CA808F056F80CA8FFF7D5FEC3
:10D9A000787AB7490003401864220CA9FFF704FEF7
:10D9B000012178694902884389000843786127B0CA
:10D9C000F0BD01050CD5FFF7ACFEFFF785FEFFF7B4
:10D9D00074FE01207969C0028143796127B0F0BDEE
:10D9E0003A46C107202700297ED0D1781546002964
:10D9F0000DD0FFF767FD00280ED028790028EDD163
:10DA00006869400840006861EC7027B0F0BD4008CC
:10DA10004000686127B0F0BDE87801281CD00228DA
:10DA200021D0C10642D50407240F20029549259034
:10DA30004018FF2201329449FFF74AFD002189482E
:10DA4000924E4289904D6B1858786F5C0002C01955
:10DA500090420ED1304611E08D48FFF794FD102022
:10DA6000E87027B0F0BD8B48FFF78DFDEF7027B051
:10DA7000F0BD904202D9B04200D0401E6854000A66
:10DA80005870891CFF29DED9834A25988018FF2207
:10DA900069180132FFF790FD7248C178491CC170C6
:10DAA000082CE4D10221C17027B0F0BD810624D535
:10DAB00005072D0F78482F02381832467249FFF7B4
:10DAC00007FD7048381832466F49FFF775FD654805
:10DAD0006449C078401CC870082DE5D108464169EA
:10DAE00049084900C47000E00EE002221143416180
:10DAF000418A491E418227B0F0BD68694008400054
:10DB00006861EC7027B0F0BD1446C1060CD5FFF774
:10DB1000D9FC0028F6D16069102188436061A069B2
:10DB2000FFF731FD27B0F0BD810613D5FFF7CAFC22
:10DB30000028F7D1A0696178000349014018FF303F
:10DB400001306169B943616114225449FFF734FD22
:10DB500027B0F0BD410624D5FFF7B4FC0028F7D16B
:10DB6000A069000361694022914361614D4A4C49BB
:10DB7000134678CB483178C11346103378CB5839E7
:10DB8000583178C1956A546A136A6839D26A0D6748
:10DB9000CC668B664A6730224831FFF70DFD27B00F
:10DBA000F0BD410710D5FFF78DFC0028F7D1606963
:10DBB000042188436061E069FFF7E5FC60690821A2
:10DBC0000843606127B0F0BD010717D5FFF77AFC65
:10DBD0000028F7D1E0690103E0891038C217120F5D
:10DBE000101800110002401832462F49FFF7E4FCDC
:10DBF000616908208143616127B0F0BDC10412D57D
:10DC0000FFF760FC0028F7D1012160690903884310
:10DC100060612648FFF7B7FC0121606949030843AA
:10DC2000606127B0F0BD81044ED5FFF74BFC0028A2
:10DC3000F7D10121606949038843606134221C499E
:10DC40001148FFF793FA1B481B4901601B481C4908
:10DC5000016032460C491B48FFF7AEFC27B0F0BD0F
:10DC6000B82A002004240020F8290020F603000030
:10DC7000000100004E240020E0603F0000613F00F2
:10DC800000603F0000E03F0098260020FFFF0000FA
:10DC9000FD030000FE03000000D03F00D827002055
:10DCA00050260020D025002098270020FF030000E8
:10DCB0002426002090270020785634129427002034
:10DCC0002003152000F03F004004C7D5FFF7B2FC49
:10DCD00001280ED0288DF14908402885012160696E
:10DCE000890388436061EE4801783943017027B0A9
:10DCF000F0BD288D0121890208432885EEE770B523
:10DD0000E84D287DC0070DD000247D26F600FFF7E2
:10DD1000BBFD287DC00705D00A2000F0E9F9641C8E
:10DD2000B442F4D3FFF720FC70BD10B5DE48008D7F
:10DD3000DC4C4007002802DA0320A07001E0FFF766
:10DD40005FFCFFF7DCFFD948FFF71DFC0020608275
:10DD5000D748A0810121606909030843606110BDB3
:10DD6000F0B5D04D6869810700292DDAC0072BD1A5
:10DD7000FFF7A8FB002827D1686902218843686162
:10DD80000020A881FFF77EFB0320FFF76DFB3F20FB
:10DD9000FFF76AFBE020FFF767FB0020FFF764FB5B
:10DDA0000024C34EFFF751FB0746FFF74EFB00026E
:10DDB000C019C049884202D1A889401CA881641CAE
:10DDC000B442EFD3FFF734FBF0BD70B50646B6485A
:10DDD000008D03254007B34C002801DAA57001E04F
:10DDE000FFF70EFC0121E170668160690843606104
:10DDF000257170BDF8B504460E46FFF780FFAE49A9
:10DE000060004518FFF73EFB0320FFF72DFB2802BB
:10DE1000000EFFF729FB2804000EFFF725FBE8B2F0
:10DE2000FFF722FBA24FBC420BD2FFF70EFB0546C9
:10DE3000FFF70BFB00024019B04202D0641CBC4249
:10DE4000F3D3FFF7F5FABC4201D39A48F8BD204658
:10DE5000F8BDF8B500269448008D4007002803DA85
:10DE600090490320887001E0FFF7CAFBFFF747FFE6
:10DE7000FFF708FB0320FFF7F7FA3F20FFF7F4FA5C
:10DE8000E020FFF7F1FA0020FFF7EEFA0024894FB7
:10DE9000FFF7DBFA0546FFF7D8FA00024519BD4245
:10DEA00003D06D1CB54200D92E46641C80488442C4
:10DEB000EED3FFF7BDFA3046F8BDF8B5FFF7C9FF5E
:10DEC000784D80B26882002815D00024002812D92D
:10DED000784EA1B20020FFF78DFFB04207D00003BB
:10DEE00004226946FFF7F4FA0098401C04D0641C31
:10DEF000688A8442EDD3F8BDA0B2FFF766FF686977
:10DF0000002806D0FFF7C0FCFFF72AFF6869002849
:10DF1000F8D1688A8442DCD3F8BDF8B56248008D38
:10DF2000604F4007002802DA0320B87001E0FFF7D5
:10DF300067FB0020F871FF20787200245F4E2003F9
:10DF4000801904226946FFF7C3FA0098401C03D0E9
:10DF5000F879401CF87103E0787AFF2800D17C72D0
:10DF6000641C072CEBD3787AFF2805D0F979891C3B
:10DF7000F971FFF7C4FB1EE00025ED4300242003E8
:10DF8000801904226946FFF7A3FA00980104020AE7
:10DF9000FF231B021A400A43000E1043A84201D27D
:10DFA00005467C72641C072CE9D3F879401CF87193
:10DFB000787AFFF7A4FBFFF78FFBFFF77EFBF8BD36
:10DFC00001213F48490581603E4A0321116001213A
:10DFD0008905C160C900C1608910C1604900C16084
:10DFE0003148018D04229143018570473649032051
:10DFF0000860091D086035490860091F0860DFE7EF
:10E0000010B5FFF7F3FFFFF7FBFAFFF78AFA304985
:10E0100088420ED134222F492F48FFF759FAFFF7D3
:10E020007CFFFFF74AFF1F4802224169114341610B
:10E0300010BD28492948086029484860294A8A6053
:10E04000294ACA600861492088827A20C8826920EA
:10E05000088300224A8323208877AF20C87723488B
:10E060004D2303704270BA2383703C23C370822314
:10E0700003714B234371FF238371C2710823037221
:10E080001E2343728272FE2088838005C862086363
:10E09000FFF74BFEFFF74DFA10BD0000FFFB00003D
:10E0A0007024002004240020F8290020FE03000032
:10E0B000F6030000FFFF000000E03F0000603F00AB
:10E0C000000500505C0700505407005064070050E2
:10E0D000200315202426002000F03F0040420F00BE
:10E0E000581B000080841E00302A000044260020B7
:10E0F0001921C9014843002802D0401E0028FCD144
:10E100007047F8B5F7490C2008600422081D02602A
:10E11000F54904200860091D0860F44804210160E5
:10E12000F34904200860091D0860F2490860091DD0
:10E130000860091D0860F04804210160EF490420CF
:10E140000860EF490860091D0860EE48042101607D
:10E15000ED4803250560ED4C8020E0602069C00596
:10E16000C30FEB4EEB490020002B07D0338DEA4F55
:10E170003B4033850D604021E16007E0338D01278E
:10E180003F033B43338508607B010B60D54BE3497C
:10E190001D6001231E02E6600D60A3600B1D186068
:10E1A0001B1D1D60A2601A1D1060DD4B10221D603A
:10E1B000A2601A1D1060DB4A10604861C86002F05E
:10E1C000CAF8D9480560001F05603002A060401001
:10E1D000A06000F0C3FCF8BD10B4D04B0322840053
:10E1E000E41822608C00E3181A6001231A4682406A
:10E1F000C64882608B408360C260C36010BC7047B9
:10E2000010B4C64C032283001B191A6001231A465E
:10E210008240BE48C2608B408360826010BC704701
:10E2200010B4BE4C032283001B191A60012213464E
:10E230008340B64883608A408260C26010BC7047E9
:10E2400010B4B64C032283001B191A600122134636
:10E250008340AE48C3608A408260C26010BC704791
:10E2600070B40446AD4B0C20A200D2181060002000
:10E27000002201252B46A54E8B404006000EB360C0
:10E280003169E140C907C90F002900D02843F36074
:10E29000521CD2B2082AF0D370BC7047F0B49C462E
:10E2A0009E4C032385002F193B6000250124264640
:10E2B0008640964B8C40DE60110600D59E60194664
:10E2C0009C60CC6051060A0E6D1CEDB2082DF2D395
:10E2D000614600290DD10C2139609C601969C1404B
:10E2E000C807C00F002803D0DC60F0BC01207047D5
:10E2F000DC60F0BC00207047FFB50B9F099E0A9DB3
:10E300001C4601990098FFF767FF0023029A0199C4
:10E310000098FFF7C3FF01281DD000232246019972
:10E320000098FFF7BBFF01281CD00024002D0BD95B
:10E33000325D3B4601990098FFF7B0FF012818D0E5
:10E34000641CE4B2AC42F3D301990098FFF758FF84
:10E35000012004B0F0BD01990098FFF751FF0020A3
:10E3600004B0F0BD01990098FFF74AFF002004B007
:10E37000F0BD01990098FFF743FF002004B0F0BD05
:10E38000FFB50A9E099D14461F4601990098FFF7A4
:10E3900023FF0023224601990098FFF77FFF012801
:10E3A00025D00023324601990098FFF777FF012816
:10E3B00024D001990098FFF70FFF01200443224663
:10E3C000002301990098FFF769FF01281DD0002460
:10E3D000002D29D96E1E01990098FFF741FF38558D
:10E3E000B44219D001990098FFF72AFF18E001996B
:10E3F0000098FFF705FF002004B0F0BD01990098D8
:10E40000FFF7FEFE002004B0F0BD01990098FFF771
:10E41000F7FE002004B0F0BD01990098FFF700FF5F
:10E42000641CE4B2AC42D6D301990098FFF7E8FE31
:10E43000012004B0F0BD08B5002003223B4B11467B
:10E44000009005F086FD002804D0FF2138A202319B
:10E4500000F03FF908BD70B5394E01210022890353
:10E46000306805F028FE002804D0FF2130A21A31C0
:10E4700000F02FF9264C208DC00411D401256D0326
:10E4800000222946706805F016FE002804D0FF21FE
:10E4900027A2203100F01DF9208D2843208570BD72
:10E4A000208D28490840208570BD10B5264A0121DD
:10E4B000234805F0A9FD002804D0FF211CA20A3141
:10E4C00000F007F9214A0121214805F09DFD0028AF
:10E4D00004D0FF2116A2103100F0FBF8FFF7BBFFBC
:10E4E00010BD0000200700502807005030070050E2
:10E4F0003407005044070050500700506807005090
:10E5000070070050780700501C07005000050050AD
:10E51000F829002018070050FFEF00000007005006
:10E52000100700506C07005040070050F8270020EB
:10E530002E2E5C68617264776172652E6300000044
:10E5400030240020FFDF0000BF010200AF02020004
:10E550003424002070B5334C206805F0D5FD002828
:10E5600004D0FF21304A373100F0B3F82F4D288D09
:10E5700080040DD5606805F0C7FD002804D0FF2198
:10E58000294A3D3100F0A5F8288D29490840288501
:10E5900070BD70B52748C16B00292CD00021C16324
:10E5A000254C6069254D8003800F11D1E068800300
:10E5B000800F0DD02869C006C00F002808D1204860
:10E5C0000078C00702D001F00CFF01E001F046FF27
:10E5D000A0698003800F0ED028694006C00F002874
:10E5E0000AD0A069032109040843A06115488022CC
:10E5F00001891143018170BDA06913490840A061E0
:10E6000070BD10B511488069C0B2114A00219160F7
:10E610000B490978C90702D001F018FF10BD01F0BD
:10E62000B2FF10BD3024002030E50100F8290020A1
:10E63000FFDF00004061004000070050000500506F
:10E640005B240020E82A0020FFFF02000045004074
:10E650000041004010B52C20FE4900240C70491CDC
:10E66000401E80B20028F9D11620FB490C70491CCD
:10E67000401E80B20028F9D13420F8490C70491CA2
:10E68000401E80B20028F9D1F34908220A75FF2202
:10E690000B181A71401C80B20B7D8342F8D887207A
:10E6A000EF49400108800020EE49C0430880EE4851
:10E6B00001F001FDFFF7A4FCEC480480EC480321C5
:10E6C0000177EC493C20087010BD10B505F00CFF37
:10E6D00010BD10B4FF20E84AE849E94B5468E4074C
:10E6E00000D019600028F9D110BC704708B500238C
:10E6F0005022E449082006F0EFFF002803D0E2A2F0
:10E700005A21FFF7E6FF002000900090684660DF86
:10E71000002803D0DCA26121FFF7DBFFDD4806F013
:10E72000F9FF002803D0D8A26521FFF7D2FFDA480D
:10E7300006F0F8FF002803D0D3A26921FFF7C9FF34
:10E74000D64806F0F7FF002803D0CFA26D21FFF7CF
:10E75000C0FF08BD10B5BF48018D8905002919DA31
:10E76000018DCF4A11400185CE480021C1600321AF
:10E770000904416101F0E8FD0020CB49C0438860F5
:10E78000CA4910200860FFF7E5FE0A20FFF7B0FC39
:10E7900034DF10BD40DF0028FBD0BBA28521FFF78E
:10E7A00098FF10BD0A460146C14892E700B583B004
:10E7B000C0480A21007807F048F930306A461070E6
:10E7C0003031517002200290BB486B46008802AA8B
:10E7D0000021A4DF002803D0ABA2C221FFF779FFFC
:10E7E00003B000BDF8B5B5490869C006C00FFD26E5
:10E7F000B34D00285BD0B3480078002857D1287863
:10E80000C20711D0B0480078002850D128784008BD
:10E810004000287001F0A4FF2878C007F6D101F06D
:10E82000D3FD01F0AEFD42E0820708D530402870EC
:10E8300001F0C1FF01F0C8FD01F0A3FD37E0A348DE
:10E840000068002806D002F01CF801F0BDFD01F0C0
:10E8500098FD2CE09E489F4A00881288904206D07E
:10E8600001F0E2FE01F0B0FD01F08BFD1FE0086950
:10E870008006C00F00281AD19749087882070BD567
:10E88000964A974B12781B78D21A9206920E202A3B
:10E890000DD8304008700AE04008400008700021A0
:10E8A0008048416103210904C16001F06AFD2878B4
:10E8B000010704D5F72108402870FFF777FF287873
:10E8C00041076CD5FB21084028708648614C0078D0
:10E8D00000280AD08021844F01280ED002282FD092
:10E8E000032850D0042851D059E0208D000501D4D0
:10E8F00001F0ECFE03F0A0FB51E0208D000609D4EE
:10E90000208D08432085012002F0F2FD38887749E8
:10E9100008403880208DC0050DD575480089410616
:10E9200004D500F031FA01F078F938E0000736D468
:10E9300001F073F933E000F011F901F06EF92EE007
:10E94000208D000609D4208D08432085012002F087
:10E95000CFFD3888654908403880208DC0050DD529
:10E9600063480089410604D500F00EFA01F0DBF897
:10E9700015E0000713D501F0D6F810E000F0EEF82E
:10E9800001F0D1F80BE000F0F9F908E003F054FBD6
:10E9900000F041FA208D0121490208432085687862
:10E9A000810701D530406870F8BD5349514848602F
:10E9B000524980178860C2074A603B49886004203A
:10E9C0004860FFF793FEFFF736FD02F0AAF8FFF765
:10E9D00041FEFFF796FBFFF768FD01F0A4F803F096
:10E9E00089F806202ADF04202ADF012106202BDFF8
:10E9F000002804D0FF2124A27731FFF76AFE01210D
:10EA000004202BDF002804D0FF211FA27931FFF75B
:10EA100060FE062026DF002804D0FF211AA27B31E9
:10EA2000FFF757FE042026DF002804D0FF2116A29E
:10EA30007D31FFF74EFE62B601F0BBFC304C274D36
:10EA4000274E1F4F02F07AF8206800287DD12888D1
:10EA5000318857E0F8290020B8250020242600201E
:10EA60004C240020762400204E2400204224002044
:10EA7000A82B002040240020000401403546526E9F
:10EA800000060140A82900202E2E5C6D61696E2EC3
:10EA900063000000ED1F02000BD40100CBE6010073
:10EAA000FFFD0000000700500043004080E100E04F
:10EAB000EFBEADDE5A240020F024002000050050F7
:10EAC000682400205C240020B62400206C24002050
:10EAD00064240020662400205B240020622400209F
:10EAE0006024002058240020B8240020BFEF00003C
:10EAF000E82A0020DFFF07C0000500400063004057
:10EB000018240020884220D1386800281DD11048E0
:10EB1000018810480088814217D10F48006980069B
:10EB2000C00F002811D0FFF715FEFFF75BFE01F0C4
:10EB3000BDF801F052FB01F0C0FB03F074FBFEF7DF
:10EB4000A3FEFFF70DF97DE7FFE700BFEDE700004B
:10EB500064240020662400200005005070B584B0B5
:10EB60000F211020FFF74CFB0F20012501460190DB
:10EB700003AB322200951020FFF702FC47216846C4
:10EB80000173002403AE202332220F2110200096AF
:10EB900001950294FFF7B0FB6846047321233222EB
:10EBA0000F211020009601950294FFF7A5FB6846FF
:10EBB0000473222332220F21102000960195029423
:10EBC000FFF79AFB68460473232332220F2110209B
:10EBD000009601950294FFF78FFB68460473242387
:10EBE00032220F211020009601950294FFF784FB3A
:10EBF00068460473252332220F21102000960195C8
:10EC00000294FFF779FB684604732E2332220F210A
:10EC10001020009601950294FFF76EFB684604737E
:10EC2000302332220F211020009601950294FFF725
:10EC300063FB6846047332231A460F2110200096A6
:10EC400001950294FFF758FB684604733323322280
:10EC50000F211020009601950294FFF74DFB6846A6
:10EC60000473382332220F2110200096019502945C
:10EC7000FFF742FB5821684601733A2332220F21E5
:10EC80001020009601950294FFF736FB022168469A
:10EC900001733B2332220F2110200096019502942C
:10ECA000FFF72AFB0721684601733C2332220F211C
:10ECB0001020009601950294FFF71EFB1421684670
:10ECC00001733D2332220F211020009601950294FA
:10ECD000FFF712FBFD48018D2A021143018504B0A4
:10ECE00070BDF0B585B0002468460474012504AEFB
:10ECF000242332220F211020009601950294FFF761
:10ED0000FBFA684604742E2332220F21102000964D
:10ED100001950294FFF7F0FAEC4F388DC0040AD544
:10ED200068460474252332220F2110200096019595
:10ED30000294FFF7E1FA1720694608742023322273
:10ED40000F211020009601950294FFF7D5FAE048B4
:10ED5000C477E0480482388D80040DD5DE48006811
:10ED600005F0D2F9002803D0DCA26F21FFF7B1FC37
:10ED7000388DDE490840388505B0F0BDD5484022C1
:10ED8000018911430181ACE7F0B585B0D14D412136
:10ED90002889884328814720694608740024012671
:10EDA00004AF202332220F211020009701960294F5
:10EDB000FFF7A2FAC648C4772C82CD484476C34DEB
:10EDC000288D4004400C2885288DC0040DD5402096
:10EDD00069460874252332220F21102000970196DE
:10EDE0000294FFF789FA05B0F0BD288D8004FAD4AB
:10EDF0000124B948640300222146006805F05BF94C
:10EE0000002803D0B5A29421FFF763FC288D20438E
:10EE1000288505B0F0BDF0B585B0AC4C208DB54966
:10EE200008402085208D0025C004012704AE00285D
:10EE30000ADA68460574252332220F211020019733
:10EE400000960295FFF758FA68460574202332228F
:10EE50000F211020019700960295FFF74DFA208DA3
:10EE600080040DD59C48006805F04EF9002803D0B9
:10EE70009AA2B521FFF72DFC208D9C4908402085E2
:10EE800005B0F0BD9C48417B827B891AC9B2C27B28
:10EE9000037CD21AD2B2437C807C181AC0B2914251
:10EEA00003D3814201D3012070478A4203D38242B7
:10EEB00001D302207047032070478548018A491C0E
:10EEC0000182C189C18270478948407D01070029BC
:10EED00001DA01207047C00601D5022070470320E7
:10EEE0007047884202D3401A00B27047081A00B235
:10EEF0007047F0B585B07648C189491CC181754E0F
:10EF00007B4D318A002917D0491E89B231820029F0
:10EF100012D16E490A8D5204520C0A85002169767D
:10EF2000764A147853787218C03214709371137340
:10EF3000491CC9B20529F6D36F4CE17F652901D27E
:10EF4000491CE177634A518980318BB291898031C4
:10EF500089B2D289803292B2C67F0496042E7DD3C4
:10EF6000A6786670B646E778A77003972679E670AC
:10EF7000B446DBB22371039F7646F6196344F61854
:10EF8000B3085E4E3370A6796671B646E779A7710D
:10EF90000297267AE671B446C9B22172029F76467C
:10EFA000F61961447618B108544E7170A67A6672EB
:10EFB000B646E67AA6720196267BE672D2B2227334
:10EFC0009446019F7246D219664492194B4E92089C
:10EFD000B270049E042E42D0607B484E984200D20C
:10EFE0006373E07B884200D2E173607C904200D280
:10EFF0006274A07B984200D9A373207C884200D918
:10F000002174A07C3746904200D9A2740022687D0A
:10F01000C1077DD0A97C994272D240084000687532
:10F02000A17EA87CFFF75DFFA17D884277DBA07EF3
:10F030006076A87CA0760020264B1918C0314E7847
:10F040000E70401CC0B20528F7D31818A97CC03038
:10F050000170FFF739FF012858D060E0E1E2052692
:10F06000C677002020706073FF26A673E0732674B5
:10F070006074A674E074207560750826A675E67540
:10F0800026766376A376E17621776277A277AB74F2
:10F09000E97429756E75AE7D002E32D02E76EE7530
:10F0A0000A4E378D7F047F0C378568760020094F24
:10F0B0003D18C0352B70A9712A73401CC0B20628B8
:10F0C000F6D36520E07705B0F0BD21E0F8290020F7
:10F0D000682B0020E82A0020342400202E2E5C73A8
:10F0E000656E736F7233672E63000000FFDF0000F0
:10F0F000A82B0020FFFE0000882B00203C240020CD
:10F100000DE00326AE75EE752E76C9E7012206E006
:10F11000A97C994203D901210843687580E7687D7D
:10F12000810725D5EB7C79788B4229D2FD210840D7
:10F130006875217FE87CFFF7D4FEE17D88421FDB04
:10F14000207FE076E87C20770020FE4B1918C03144
:10F15000CE798E71401CC0B20528F7D31818E97C0F
:10F16000C0308171FFF7B0FE022809D1022207E00A
:10F17000EB7C79788B4203D9022108436875D8E784
:10F18000687D410725D52B7DB9788B4229D2FB219B
:10F1900008406875A17F287DFFF7A3FE217E884285
:10F1A0001FDBA07F6077287DA0770020E54B191832
:10F1B000C0314E7B0E73401CC0B20528F7D318181F
:10F1C000297DC0300173FFF77FFE032809D1032298
:10F1D00007E02B7DB9788B4203D904210843687579
:10F1E000D8E7D9480178A9744178E97480782875FE
:10F1F000012A04D0022A7AD0032A79D0D0E1A07E55
:10F20000617E884275D2E37C834272D98B4270D290
:10F21000E07F0C3858286DD8CA4896210182CB4827
:10F22000008DCB4E00047DD500206877C948016869
:10F23000491C0160C8494868401C4860C14B197AA4
:10F24000C90707D0C449CA68521CCA60718A491CE0
:10F25000718206E0C0498A68521C8A60318A491C62
:10F260003182BE49496800290ED0B84A178D3F0740
:10F270000AD4884208D3108D082108431085B84865
:10F280004022017811430170AF493C200871FFF71B
:10F2900014FE1F89B8070DD5B0485968808A09182F
:10F2A000596007F049FBAD49C96A07F095FB07F0C3
:10F2B000FFFA2AE078070DD5A8485968C08A0918CE
:10F2C000596007F039FBA549096B07F085FB07F08A
:10F2D000EFFA1AE0F8070ED0A048C08A07F02CFB1E
:10F2E0009E49096B07F078FB07F0E2FA0DE043E175
:10F2F0004DE155E1A5E09948808A07F01DFB97494B
:10F30000C96A07F069FB07F0D3FA924A51680918F5
:10F3100051603C32516909185161FB0708D0D3692B
:10F320001B1800E01DE0D36172681218726005E0DE
:10F3300093691B189361326812183260824AD3882D
:10F340001818D0808548006800287AD07F4A138D2D
:10F35000DB0676D4814274D3118D102001431185D0
:10F3600007E1687E00284AD1012A04D0022A19D078
:10F37000032A2ED043E00020E37C72490918C031F3
:10F380004A7809788A4208D2934206D98B4204D23D
:10F39000697E491C697600216977401CC0B2042847
:10F3A000EBD32CE00020237D66490918C031CA79CF
:10F3B00089798A4208D2934206D98B4204D2697E67
:10F3C000491C697600216977401CC0B20528EBD33F
:10F3D00015E00020637D5B490918C0314A7B097B39
:10F3E0008A4208D2934206D98B4204D2697E491CD4
:10F3F000697600216977401CC0B20528EBD3687E8E
:10F40000401CC0B26876002169770C2819D14F489A
:10F41000018D0122D203114301854E4801680C3150
:10F4200001604D4948680C30486088310F89F90700
:10F4300008D04949CA680C32CA60718A0C3171829D
:10F4400007E096E044498A680C328A60318A0C31C0
:10F4500031824249496800290ED03C4A138D1B076E
:10F460000AD4884208D3108D0821084310853C48EF
:10F47000402201781143017033493C200871314921
:10F48000B8070FD535480C22808A50434A681218B5
:10F490004A6007F051FA3149C96A07F09DFA07F04E
:10F4A00007FA2CE078070FD52C480C22C08A50436D
:10F4B0004A6812184A6007F03FFA2849096B07F0BA
:10F4C0008BFA07F0F5F91AE0F8070CD023480C2165
:10F4D000C08A484307F030FA2049096B07F07CFAEC
:10F4E00007F0E6F90BE01D480C21808A484307F03D
:10F4F00023FA1A49C96A07F06FFA07F0D9F91549D2
:10F500004A6812184A60144A516909185161FB0788
:10F5100006D0D3691B18D36172681218726005E0B7
:10F5200093691B189361326812183260064AD388B7
:10F530001818D0800948006800281AD0034A138D93
:10F54000DB060FE0E82A00203C240020F8290020F8
:10F55000B82A0020242A0020602A00202426002027
:10F560006C24002005D4814203D3108D1021084360
:10F5700010850020E07713E0217FE37E99420FD2CF
:10F58000207D88420CD9984200D241E608E0A17F54
:10F59000637F994204D2607D884201D99842F4D3B6
:10F5A0002078401CC0B22070322800D08BE50026A5
:10F5B0002670607BA17B40184008E074E07B217CD2
:10F5C000401840082075607CA17C40184008607598
:10F5D0000827A775E7752776E87D2876A87DE87562
:10F5E000FFF750FCA875E97D81420AD1697DC722E9
:10F5F0001140697501280DD002280ED0202001434A
:10F6000069756673FF20A073E67320746674A07436
:10F6100005B0F0BD39436975F3E710200143697502
:10F62000EFE7F74D049C6355C47FF64BE154C37F6D
:10F63000F5495A54C17F491CC17705B0F0BDF0B4FB
:10F640000021F248F24B0A22067E9A5E242402230D
:10F65000E4430025002E04D0012E0ED0022E16D039
:10F660001EE0252A02DD0376012119E01A26F64361
:10F67000B24215DB0121017612E0A24202DA0576E0
:10F6800001210DE0252A0BDD0376012108E0A242CD
:10F6900002DA0576012103E01B2A01DA0121017655
:10F6A000DB4F427E0C26BE5F002A04D0012A0ED01A
:10F6B000022A16D01EE0252E02DD4376012119E034
:10F6C0001A22D243964215DB0121417612E0A6426E
:10F6D00002DA457601210DE0252E0BDD437601216E
:10F6E00008E0A64202DA4576012103E01B2E01DA8A
:10F6F00001214176C64F827E0E26BE5F002A04D0CD
:10F70000012A0ED0022A16D01EE0252E02DD8376B5
:10F71000012119E01A22D243964215DB012181769C
:10F7200012E0A64202DA857601210DE0252E0BDDDE
:10F730008376012108E0A64202DA8576012103E002
:10F740001B2E01DA01218176B2481023C27E002AE5
:10F7500005D0012900D1C376C27E521EC27601298E
:10F7600007D1C17E002904D1A9498A8A521C8A8204
:10F77000C376F0BC70470902014308B200110105CD
:10F78000002903DA0F210903084300B2C117090F4A
:10F79000081800117047F0B5B7B02F20012601906E
:10F7A00004AB32220F2100961020FEF7E9FD6946D6
:10F7B000087CC006C00E049006225043A821019187
:10F7C000009006AB32220F211020FEF7D9FD002455
:10F7D00000256946087C002821D98D4F06A802190A
:10F7E0005178005DFFF7C7FF7881D1789078FFF7F7
:10F7F000C2FFB88151791079FFF7BDFFF881387ADF
:10F80000000702D5FFF71BFF01E0FFF772FBA41D05
:10F81000E4B26D1CEDB26846007C8542DED37E48C2
:10F82000008DC00442D57B4C607F401CC0B2607725
:10F830000C283BD100256846057505AF24233222EC
:10F840000F211020009701960295FEF755FD68469E
:10F8500005752E2332220F21102000970196029564
:10F86000FEF74AFD402168460175252332220F210B
:10F870001020009701960295FEF73EFD664E308DF2
:10F8800080040DD56548006804F03EFC002803D0D4
:10F89000634AEF21FEF71DFF308D62490840308535
:10F8A00065775B48802201899143018137B0F0BDC3
:10F8B000F0B583B0564B55491F890A8A7B08888A60
:10F8C0005B00544E0293337F82423AD001252D04CF
:10F8D000824203D9101A80B2019003E0281A8018DE
:10F8E00080B20190CC8A488A844202D9201A80B220
:10F8F00002E0281A001980B2032B00D196204C8216
:10F900008A8206F0CEFD04460D46019806F0C9FD38
:10F910000022454B06F0C8FD22462B4606F070FB40
:10F9200006F08AF93A490860404A904203DB012018
:10F9300007430F8101E0029808810020307703B06F
:10F94000F0BD032BFBD05B1CD8B230770328F6D177
:10F950002F49029808810020086003B0F0BDF8B577
:10F96000334CE078401CC0B2E0700A2846D1002534
:10F97000E570E088002842D0FF21693148432D49D5
:10F9800006F063F806F0D8FF06F0BAFE2A4A2B4BC1
:10F9900006F08AFD06F050F90127BF07284EB8424D
:10F9A00068DD2249274F884264DDB84201DC264FDA
:10F9B0007EE02649884201DC254F79E08122D2058C
:10F9C0002449904201DC0F4672E0234A904201DC58
:10F9D000224F6DE041273F06884269DD204A2149D8
:10F9E000904201DC0F4663E01F4AB04201DC17463B
:10F9F0005EE01E4B98423EDC1D4F59E092E090E0E5
:10FA0000892B00208D2B0020912B0020682B0020BB
:10FA1000E82A0020A82B0020F82900203424002008
:10FA2000DCF00100FFDF0000000049400000204042
:10FA30003C240020A08601006E6E4C4F58E2E33F4C
:10FA40000000C0400000404033335340000060409D
:10FA5000333373400000A040000090409A99C940A1
:10FA60006666A64000001041000020416666D64050
:10FA7000000030411CE0FE4B984201DCFD4F17E0D6
:10FA8000FD4B984201DCFD4F12E0B84201DCFC4F17
:10FA90000EE0FC4B984201DAFB4F09E0884201DCA2
:10FAA000FA4F05E0904202DC8327FF0500E0F84FA3
:10FAB000F848007806F040FF394606F08DFF06F062
:10FAC0001FFEF54AF54B06F0EFFC06F0B5F831469F
:10FAD00006F03EFE06F014FEF14AF24B06F063FA21
:10FAE00006F0AAF8F04906F077FF06F0E1FEEF49CC
:10FAF0008A6882188A60EE4A516A41185162ED4A5A
:10FB0000D368C018D060EC488068002809D0EB4A60
:10FB1000138D9B0605D4814203D3108D2021084309
:10FB20001085E580F8BDF0B585B0E448008D01256D
:10FB3000C0044027002404AE002844DA6846047458
:10FB4000242332220F211020009601950294FEF703
:10FB5000D3FB684604742E2332220F211020009616
:10FB600001950294FEF7C8FB6846077425233222EC
:10FB70000F211020009601950294FEF7BDFB7F2116
:10FB800068460174302332220F211020009601951F
:10FB90000294FEF7B1FB68460474242332220F213D
:10FBA0001020009601950294FEF7A6FB21216846DD
:10FBB000017432231A460F211020009601950294F9
:10FBC000FEF79AFB16E068460774242332220F21C1
:10FBD0001020009601950294FEF78EFB4C2168469A
:10FBE00001742E2332220F211020009601950294D9
:10FBF000FEF782FBB24938220889904308814C8283
:10FC00008C82B0488476002042005218D482401C76
:10FC1000C0B23C28F8D305B0F0BD70B4A8490820A4
:10FC20000A89024330208243A648032303775208FF
:10FC300052000A8100220A603C234B8282768A822B
:10FC4000002043005B18DA82401CC0B23C28F8D385
:10FC50009D480280428082800A23CB5E2426F643A0
:10FC600002249A480125B34201DA027604E0252BEA
:10FC700001DD047600E005760C23CB5EB34201DAA9
:10FC8000427604E0252B01DD447600E045760E2324
:10FC9000CB5EB34202DA827670BC7047252B02DD60
:10FCA000847670BC7047857670BC7047F0B585B0BF
:10FCB000834F387A0006002841DA002469460C7424
:10FCC000012504AE252332220F2110200096019534
:10FCD0000294FEF711FB4020694608742423322267
:10FCE0000F211020009601950294FEF705FB4C2091
:10FCF000694608742E2332220F21102000960195A8
:10FD00000294FEF7F9FA6D4D288D800411D4012676
:10FD10006F48760300223146006804F0CCF90028D1
:10FD200004D08F216B4AC900FEF7D3FC288D3043E5
:10FD3000288564484477388980218843388105B014
:10FD4000F0BDF8B55E4D594E287A594F00075D4C0D
:10FD500000287DDAB86B401CB863F069401CF06184
:10FD6000688A002855D0401E80B26882002850D191
:10FD7000554FB888401CB8803046818D491C81851C
:10FD800055490889401C0881544A9078401C90705D
:10FD90003C2068823B20431E5E0076194000F68AB4
:10FDA0004019C682D8B20028F5D1AB8A0026EB8272
:10FDB000AE82A37E5B1CDBB2A3763C2B01D93C2335
:10FDC000A3763F4B1B89DD0650D53D4D9E062BD5B6
:10FDD0007E88761C7E80354F7E8D761C7E85CE8813
:10FDE000761CCE805179491C51710021A27E002AD7
:10FDF00008D946007619B67D7118C9B2401CC0B248
:10FE00008242F6D8282905D9302083432B8100204F
:10FE1000A076F8BD052901D2282AFAD320208343F1
:10FE20002B810020A076F8BD3E88761C3E801F4FB7
:10FE30003E8D761C3E858E88761C8E801179491CFD
:10FE40001171A27E322A4ED300214600761900E0BD
:10FE500081E0B67D7118C9B2401CC0B28242F4D8AC
:10FE600005294CD8202003432B8139E050E00000C5
:10FE70000000E040000038410000F0400000484130
:10FE8000000058419A99094100006041000070410A
:10FE90000000904144260020EC51B81E85EB913FB4
:10FEA000FCA9F1D24D62403F00007A44242A002090
:10FEB000602A0020B82A002024260020F8290020EB
:10FEC000E82A0020A82B002044240020682B0020D2
:10FED00034240020DCF00100A02A0020D82A0020D1
:10FEE0000020A0760BE00021002A08D943005B190E
:10FEF0009B7D5918C9B2401CC0B28242F6D828294D
:10FF000091D928891021884328810020A076F8BD46
:10FF1000FD886D1CFD802C4EF58D6D1CF5854D8981
:10FF20006D1C4D81D178491CD170A17E0A29EED378
:10FF30000021264A4500AD18AD7D6918C9B2401CA4
:10FF4000C0B20A28F6D30A29E1D210200343138154
:10FF50000020A076F8BDFFF7ABFC207F03282BD054
:10FF6000F068401CF060B86A401CB8621849C96863
:10FF7000002909D0174A138D5B0605D4884203D3A4
:10FF8000108D402108431085287A1349C00709D0F5
:10FF9000F86A401CF8623069401C3061088B401CD4
:10FFA0000883F8BD386B401C38637069401C706171
:10FFB000C88A401CC882F8BDB86B401CB863F069A1
:10FFC000401CF061F8BDBCE6242A0020E82A00208D
:10FFD00024260020F8290020B82A002010B5044665
:10FFE000FF219131204605F030FD002909D0642120
:10FFF000204605F02AFD002901D0A00701D00020ED
:020000040002F8
:1000000010BD012010BD10B586B0B6A14A680968C0
:1000100005920491B5A18C684B680A68C96802947E
:1000200001930092039100220388591E89B2FF2494
:100030001934A14204D3FF39193989B2A142FAD245
:100040001C2903D31C3989B21C29FBD2042905D3EE
:10005000091F89B2521C92B20429F9D204ACA25CE5
:10006000511889B2072901D3C91F89B282786C4619
:10007000A45C611889B2072901D3C91F89B2C0786D
:10008000401884B2072C03D3E41FA4B2072CFBD280
:10009000032A07D31846FFF7A1FF002802D0E0B2D9
:1000A00006B010BD002C04D0641EA0B2C0B206B0D1
:1000B00010BD0620FAE710B504460020A07160715B
:1000C00020710120E070A0708C4820802046FFF74E
:1000D0009AFFE07110BD70B588B0024688480346AB
:1000E00078CB04960395029401934469036980696F
:1000F000069405930790500001AB1C5A022A06D1C2
:100100000846FFF76BFF002801D0641CA4B2E0B2E0
:1001100008B070BD10B504462188A078FFF7DBFF5A
:100120000146E078814202D0401CE0700BE00121E2
:10013000E170A078401CC0B2A0700D2803D1A1705E
:100140002088401C20802046FFF75DFFE07110BD35
:1001500010B58179491CC9B281713C292CD1002389
:1001600083714179491CC9B241713C2913D1654C55
:100170000122216892021143216043710279521CCD
:10018000D2B20271182A06D1037101225202114320
:100190002160FFF7BFFF5C49088800280CD0401E93
:1001A00080B20880002807D1872040010880574985
:1001B0001022087810430870FFF7D1FB10BD544996
:1001C000887A401C8872C00701D000BF704751492F
:1001D000088D012210430885704770B54D4D288D5C
:1001E000C00763D0288D4008400028854A48FFF7A3
:1001F000AFFFFFF7E8FE494808220178114301707C
:100200004749484C087800280AD0401EC0B2087000
:10021000002805D12088800502D5002001F03DFF8F
:1002200041490878002801D0401E08702078400716
:1002300012D53E48007806280ED13D4E3078002871
:100240000AD0401EC0B23070002805D13948C0889D
:1002500001F008F90A203070288D000615D5208895
:100260000221C2070140D20F114301D041060CD533
:10027000C00403D5012001F03BF902E0002001F0A9
:1002800037F920882C49084020802C49087800281C
:1002900001D0401E08702A490878002806D0401E68
:1002A000C0B20870002801D1FDF78AFE70BD194860
:1002B000018D022211430185704710B51548018D4B
:1002C000890700290CDA018D022291430185008DF6
:1002D000C00505D51B48007A400601D4FFF75BFA3C
:1002E00010BD000000050301060402000000030326
:1002F000060104060205000305000000DF070000F8
:10030000886A0200182400204C2400206C2400205D
:10031000182A0020F82900204E24002070240020F4
:10032000B2240020B8240020B5240020842400201A
:100330008524002098240020BFEF0000B624002070
:1003400006240020E82A0020F64910208860F6499B
:10035000002008607047F6490320F44A0860002135
:100360001060101D0160F04802228260C16001220D
:10037000026192064262EF4A07205061EE488160B6
:10038000E2E7ED4900208860E74908600120086045
:10039000E4491020C8607047E4480021C16003228E
:1003A00012044261E548C27852085200C2700171DD
:1003B000CAE7E2480021C1708171C17141710181B8
:1003C00041818181C181E7E7D84800214161032251
:1003D0001204C260D9480123C2781A43C270017165
:1003E000704730B4D54C01212079CF4D002814D06E
:1003F000224651799279012815D0FE281AD0D04B87
:100400001B18203B9B7FEB614B406371521C904259
:1004100018D9FE20207130BC7047A420E8616071BB
:10042000217130BC7047EA61514061710220207136
:1004300030BC7047BB4A10209060E961FF202071FA
:1004400030BC7047401C207130BC7047BB480179FC
:10045000FF2902D1002181719EE77047B7490879D1
:10046000FF2808D0401C08710979AF48012906D03F
:10047000FF21C1617047AB4A10209060F4E7A521CD
:10048000C1617047F0B4142900D314218407A40F6C
:10049000AA4E70893789C31B9D06AD0E40235B1B96
:1004A0004D1CAB4203D8F0BC0020C04370478B0604
:1004B0009B0EA4012343A34C2354401C8006800EB2
:1004C00070810020002909D97389155CE5545B1CF3
:1004D0009B069B0E7381401C8842F5D3B07AC01BEB
:1004E0008106890E4020401A142803D8F0BC002051
:1004F000C0437047F0BC00207047F0B5924A1778AF
:10050000924E934B1146103F8C4C307849781D78B1
:10051000072F0ED23B007B441B79DB189F44030F4F
:10052000090A132F2100042318433070217090789A
:100530006070F0BDA170082108433070F0BD01214A
:1005400008433070F0BD032DFCD3521C1421002051
:10055000FFF798FF0028F5D0E07802210843E0700B
:10056000F0BD032DFCD3521C14210120FFF78AFF9C
:100570000028F5D0E17802200143E170F0BD0221AE
:1005800008433070F0BD00B56C4B1979012912D0C9
:100590001A465279022911D0FF2913D042405A71CC
:1005A000694A5218203A5077D879801C814201D983
:1005B000FF20187100BDA520587100BD42405A713E
:1005C000D87100BD904201D1FFF797FFFFF7E4FE1D
:1005D00000BD70B4594C8026E389257B5D1B6D06F8
:1005E0006D0E761B851CAE4203D870BC0020C04344
:1005F0007047584D461CEE545B1C5B065B0EE9547D
:100600005B1C5906490EE1810021002809D9E389C4
:10061000565CEE545B1C5B065B0EE381491C814219
:10062000F5D370BC00207047F0B4444CA089E68933
:10063000B0421FD0474F395C491EC9B2A171401C5E
:100640004006400EA081142901D31420A07100207F
:10065000A579691C00290DD9394A6D1CA1897B5CDB
:100660001354491C4906490EA181B14202D0401CD5
:10067000A842F3D3F0BC7047F0B404462F4B19895D
:100680005889814202D10020F0BC70472D4E705C29
:10069000491C8906890E19818206920E142A02D9F4
:1006A0001422D42108400021002AEDD91D89755D4E
:1006B00065541D7A6D1CAD06AD0E1D815F89BD426E
:1006C000E2D0491C9142F1D3F0BC704730B585B0FF
:1006D00000240094019402940394049469460C70DD
:1006E00001254D7000A807221B49023005F0F8F8DB
:1006F0006A4681211420FFF76CFF00940194029454
:1007000003940494FF20694608704D706A46812165
:100710001420FFF75EFF1148018DEA0211430185A5
:1007200005B030BD000500500045004000070050F6
:100730000807005040450040004100405824002078
:10074000C82B0020F22B0020DD2B00206824002085
:1007500038240020322C00204E240020F8290020CC
:1007600070B46B49032088716A49802008706A4818
:10077000007848706948008D694B06060122022402
:1007800000251888002E05DAC60701D04A7002E05D
:100790004C7000E04D708D70050400D58A704204E5
:1007A00002D58A7822438A708004800C1880FF204A
:1007B000C87070BC7047F8B5554909208871554E0E
:1007C000822030705748C0797070574F574C786806
:1007D00000284ED0616800294BD06422504305F0B8
:1007E00034F906F0A9F8524DA84200DD284606F07B
:1007F0005FF8B070000AF070786900283BD021687B
:10080000002938D06422504305F01FF906F094F80F
:10081000A84200DD284606F04BF83071000A7071DE
:10082000786A002829D0A168002926D06422504384
:1008300005F00BF906F080F8A84200DD284606F026
:1008400037F8B071000AF071B86A002817D0E16873
:10085000002914D06422504305F0F7F806F06CF834
:10086000A84200DD284606F023F83072000A7072B4
:10087000F8BD0020B7E70020CAE70020DCE7002031
:10088000EEE7234A042090712249832008705069C2
:100890004870030A8B70030CCB70000E08710020A7
:1008A0005061704770B504462078194D00280FD16B
:1008B00004222049204604F073FF002804D0E87881
:1008C000FB210840E87003E0E87804210843E87061
:1008D000E878400704D52178032903D0FF290CD0FC
:1008E000012070BD14221449204604F059FF00284D
:1008F00001D0002070BD012070BD14220F49204698
:1009000004F04EFF002801D0002070BD012070BD12
:1009100058240020C82B002038240020F82900206B
:10092000B824002044260020602A0020242600202D
:1009300000009643A26A0200A66A0200BA6A020098
:100940000978112913D0142911D0152902D0212991
:1009500016D10CE09348042102880A430280924891
:1009600001709248012201781143017008E090491A
:1009700002780A7142784A7182788A71C078C871A7
:100980000020704710B51046002803D089A24E21E0
:10099000FDF79FFE10BD70B5FF258D3500232A465B
:1009A0008849894803F0B8FF884C894E002802D155
:1009B000A068B0420CD0FF222946834805F01CF8FD
:1009C000A66084494022487810434870012070BDD9
:1009D000002070BDF8B50020009075486946007889
:1009E00008700524784E7B4F355D082D17D2684678
:1009F000857004F02FFB002803D06EA27A21FDF74A
:100A000068FE30204543A8190830FF22302104F049
:100A1000F3FFFF2030557878402108437870641C3C
:100A2000082CE1D3F8BD70B586B001246A4804F003
:100A300044F9002803D05FA29221FDF74AFE03F09B
:100A4000CBFD002803D05BA29621FDF742FE634850
:100A500042696349521C02D00969406900E0486953
:100A600001266946CE80FF208D3088805D48009049
:100A70005449684603F0EFFD002803D04DA29F21A2
:100A8000FDF727FEFFF787FF0025002801D0059618
:100A900000E0059505A804F0DBF900281AD00596BA
:100AA00005A804F0D5F9002803D042A2AD21FDF736
:100AB00010FEFF220821444804F09EFFFF21FF2280
:100AC0008131494804F098FF42484022417811435F
:100AD0004170002469460D824D821E20C881087C29
:100AE0003043FD210840E32108400C30DF2108405D
:100AF0006946087407204874102088743B480290A7
:100B00000E7302A92A4804F04AFA002803D029A249
:100B1000C421FDF7DEFD002C01D0FFF75BFF06B01E
:100B200070BD10B50121324A084603F0ABFF002822
:100B300003D020A2D421FDF7CCFD10BD70B51A481A
:100B4000007804282DD12B4D2B4E2878184C0628E0
:100B50000CD13078062809D36078410706D40421E7
:100B60000843607000F076FC00F078FC30780628CE
:100B700017D12878062814D36078010711D40821EA
:100B80000843607002F065FB02F067FB1B4C022219
:100B9000A088002102F065FBA0880222012102F05A
:100BA00060FB70BDB8240020382400206824002099
:100BB000742400202E2E5C6D61696E5F626C652E60
:100BC000630000007C240020B42C0020342E002080
:100BD0001608142070240020782400200010001033
:100BE0000000001085090200BC2C00204109020011
:100BF000654A0200842400201025002028250020BA
:100C0000FC4907200870704738B502206946887093
:100C1000F9480880F74C6A460121A08890DF002837
:100C200002D0FFF7EDFF38BD0320207038BD38B586
:100C30000020F249F24ACB88EE4C934207D18888D3
:100C40006946401C08804880A08893DF0AE0ED498F
:100C5000CB88934206D188886946401C088048802A
:100C6000A08893DF002802D0FFF7CAFF38BD052017
:100C7000207038BDE4498A78DE4980888880082A57
:100C80001FD230204243E148101802898A824289EB
:100C9000CA8282890A83C2894A830A46038A938365
:100CA000438AD383838A1384C38A5384038B9384B4
:100CB000438BD384838B1385C08B508501200870B0
:100CC0007047A1E730B4CB4C0146A08892DF0028E2
:100CD00001D030BC94E70420207030BC704708B5C8
:100CE000C18800290ED1818900290BD0C14A418ACF
:100CF000D180808A10816A46118050806846FFF753
:100D0000E1FF08BDFFF77CFF08BDF8B5C1880A46C2
:100D1000FF3A0B3A01D0093211D1B8488088002837
:100D20000AD0BB488088002806D0B64880880028B2
:100D300002D0FFF77CFFF8BDFFF762FFF8BD002986
:100D400002D0FFF75DFFF8BD002200238189002952
:100D500021D9B04DB04EB14F0A2159430A180E3275
:100D600000211488AC4201D1A44906E0B44201D16B
:100D7000A74902E0BC4200D1A249002907D00C805B
:100D800054884C8014898C800024E443CC805B1C04
:100D900081899942E0D89748002A09D011896A468A
:100DA000491C1180008950806846FFF78BFFF8BD11
:100DB000C1886A461180008950806846FFF782FF2B
:100DC000F8BD10B5C1880A46FF3A0B3A03D0093284
:100DD00001D0002902D0FFF713FF10BD8189874B96
:100DE000884A00290FD00E3041888D4CA1420AD18B
:100DF00000889C88411E8C4201D1D88003E09488F1
:100E00008C4200D1D080D9887D48814202D0D188DF
:100E1000814202D1FFF70BFF10BD76480621017019
:100E2000804A032111700A2141707F494878C20924
:100E3000F2D1802210434870734804F0DFF8002894
:100E4000EAD0FF2179A24B31FDF743FC10BD00B57C
:100E500089B068490978062902D0082009B000BD88
:100E600000216A461171837A5371C37A9371037BAF
:100E7000D371407B10720120507220239372D17283
:100E8000634A93886A4653820823D38291821074FE
:100E900001A8069004A801F0C9FD09B000BDF0B595
:100EA00083B00546A88800900024009800287BDDC8
:100EB000644E304628300290203801904D4FF8683B
:100EC00009283FD203007B441B79DB189F44040AA6
:100ED00010161C22282E3B00281980793070012022
:100EE000F86000E12819807970700220F860FAE05B
:100EF00028198079B0700320F860F4E0281980790F
:100F0000F0700420F860EEE0281980793071052037
:100F1000F860E8E02819807970710620F860E2E056
:100F200028198079F0800720F860DCE02919897998
:100F3000F08809020843F0800820F86001983861C1
:100F400000207881CFE03869029988422CD201993B
:100F5000884229D3291989790170401C386179891F
:100F6000491C89B27981F2888A4242D100210170FC
:100F7000401C38610520F860F8787A8941013248D0
:100F80000818019904F0ACFCF878401CC0B2F87065
:100F9000012879D108222C492CA004F051FC00280A
:100FA00073D00622284900E0A2E02BA004F048FC00
:100FB00000286BD00822244929A004F041FC002815
:100FC0007ED00922204929A004F03AFC002878D0DC
:100FD00007221D4928A004F033FC002872D0052206
:100FE000194927A004F02CFC00286CD00A221649CD
:100FF0004DE078E08424002031F4000098240020A3
:10100000FFFF0000A824002078240020B42C00203A
:10101000A02400200D120000F3D80000E9C6000053
:1010200002290000B5240020702400202E2E5C73BD
:101030006572766963655C626C655F616E63732E71
:1010400063000000802E0020402E0020576861744D
:1010500073417070000000005765436861740000C0
:1010600046616365626F6F6B000000004D657373CE
:10107000656E67657200000054776974746572006C
:10108000536B79706500000028E033E03FE0F8A082
:1010900004F0D6FB002867D00522F849F8A004F038
:1010A000CFFB00286DD00222F449F7A004F0C8FB62
:1010B000002874D00A20B870F4480822017803E0B0
:1010C00032E03EE04AE04CE011430170F048022279
:1010D0004178114341700020F860F870F8780128D9
:1010E00001D90020F870641C0098844200DAE5E61B
:1010F00003B0F0BD0520B870E44880224178114368
:101100004170E3480222417811434170E3E7062031
:10111000B870DE488022417811434170DC480222D9
:10112000417811434170D6E70720B870D748402274
:10113000417811434170D6480222417811434170F1
:10114000C9E70B20B870D148402241781143417063
:10115000CF480222417811434170BCE70820B870A3
:10116000B9E70920B870B6E70D20B870C74820224B
:10117000417811434170C6480222417811434170C1
:10118000A9E70E20B870C148202241781143417070
:10119000BF4802224178114341709CE7FFE70F20CE
:1011A000B870BA488022417811434170B848022291
:1011B0004178114341708EE7F8B500210C30B54BF2
:1011C00002889B889A424CD18388022B49D382792A
:1011D000002A45D1AD4E077A32787578AE4C072F8C
:1011E00037D23B007B441B79DB189F441E030B3234
:1011F0001913220001231A433270A84A03251570DF
:10120000A3701EE002231A433270A44D04222A70F8
:10121000A37016E01022154375700322A27010E02F
:1012200001219F4A437A137013E00C21A170012120
:1012300007E00422A270202215437570974A092303
:101240001370974A437A1370914A022553782B43BF
:101250005370012904D1FFF7FAFD0020E060E0702F
:10126000F8BD904989888A42FAD181880229F7D34A
:10127000FFF715FEF8BDF8B502210091864D002458
:101280002C70002825D06946874863DF002803D0EA
:10129000864A8749FDF71DFA6E46711C854863DF53
:1012A000002803D0814A8449FDF713FAB11C834812
:1012B00063DF002803D07D4A8149FDF70AFAF11C5B
:1012C000804863DF002804D09B21784A8900FDF71D
:1012D00000FAAC82EC822C836F488483C48304843C
:1012E0008484C484048579497748C8800839C880D3
:1012F0001031C8807649FB22087810400870F8BD8C
:10130000C188714A914208D000887249884202D04F
:101310007149884201D1012070470020704770B5A3
:1013200001886E4A93785C4C11290CD022786C4D60
:10133000072A3AD213007B441B79DB189F44363BC3
:101340003553585D6200082B2CD25248FFF7D8FF66
:10135000002827D05348FFF7D3FF002822D03020A1
:1013600043436048A18A18180181E18A4181218B99
:101370008181618BC18148498A8B0282CA8B4282FA
:101380000A8C8282498CC18243498A8C0283CA8C2E
:1013900042830A8D8283498DC1835348402241781C
:1013A000114341700020FFF766FF70BD1029FCD18A
:1013B000FFF760FC70BD172901D01429FAD1354818
:1013C000FFF79EFF00280BD03648FFF799FF002853
:1013D00006D006202070032028700A20607070BD9F
:1013E000FFF712FC70BD3029FCD1FFF778FC70BD0F
:1013F0003229FCD1FFF789FC70BD3329FCD1FFF7FE
:10140000E0FC70BD3829FCD129780029F9D1FFF71B
:10141000D3FE70BD00B587B01F4A1278062A02D0ED
:10142000082007B000BD01230022002902D0694630
:101430000B7101E069460A7169464A7148810220D0
:10144000C8818A810B7201A8049002A801F0EEFA0B
:1014500007B000BD0F480121C088DBE7114801211A
:10146000C088D7E7014621480022008895DF7047F1
:101470005961686F6F204D61696C0000402E00203B
:10148000476D61696C000000515100006C24002020
:10149000682400209824002084240020392400207F
:1014A0003A240020A8240020CE6A02002C1002005A
:1014B00063020000DE6A020066020000EE6A0200BB
:1014C00069020000FE6A0200FFFF0000A024002065
:1014D000752400200D120000E9C6000078240020C9
:1014E000B5240020B42C0020702400207624002095
:1014F00030B585B0002400940194029403940494C0
:10150000FE4901250D7069460C700C72002802D04E
:101510002820088202E0FA48694608821E206946AF
:101520004882684673DF002803D0F6A2FB49FDF726
:10153000D0F8FB4A108928431081FA4801782943E2
:101540000170147005B030BD10B5EEA2F649FDF77C
:10155000C0F810BD10B50068002803D0012800D1E4
:1015600000BF10BDF1483B21008876DF002804D081
:10157000FF21E4A2FB31FDF7ACF8E948EC4A018910
:101580001140412211430181EA4A00211170E54ACC
:1015900001241378234313700170817010BD00B5CE
:1015A00089B000200090019020216A4611804021DE
:1015B000518090804B21C900D180059006906946EA
:1015C0000291DD490391049103211175DB49498999
:1015D000D1821076DA480790DA48089002A802F023
:1015E00020F9002804D0FF21C6A2E831FDF771F8E8
:1015F00009B000BD00B5A1B006200290D248016834
:101600000191406800903C2112A804F01CFA3C2192
:1016100003A804F018FA02201290002010A94873C1
:101620000120088202A9159110A9888501A91C91A1
:101630006946088568460B9003A912A802F07DF858
:10164000002803D0AFA29821FDF743F821B000BDD8
:1016500010B48FB0002108910A910B910C910D915B
:101660000E9108AB1A7804231A4308AB1A70B7A27C
:10167000099209226B461A855A8506229A72B64A41
:101680001A8101919A79F9231A40921C6B461B79B1
:1016900000231C07240F6B461C715B7901231C0778
:1016A000240F10346B465C71520852009A710591F8
:1016B0000691079102AA039201AA049214229A8227
:1016C000D9821A83848803461E3303AA08A92046B8
:1016D000A2DF0FB010BC704730B490B00022089267
:1016E00008AD2B7801231B071B0F10332B706B7871
:1016F00001231B071B0F10336B70AB78F9242340B9
:101700009B1CAB7009920B920C920D920F922B794D
:1017100004252B4310252B4308AD2B718FA30A936F
:101720000D236D46AB85EB8508AB0E930623AB729C
:101730008E4B2B810192AB7923409B1C2C7900248A
:101740002407240F2C716C7901242407240F1034F2
:101750006C715B085B00AB710592069202AA039262
:1017600001AA04921422AA822A8312310791848842
:101770000346163303AA09A92046A2DF10B030BCE5
:10178000704710B48FB0002108910A910B910C9111
:101790000D910E9108AB1A7804231A4308AB1A7006
:1017A00073A2099207226B461A855A8506229A72FD
:1017B000714A1A8101919A79F9231A40921C6B4659
:1017C0001B7900231C07240F6B461C715B790123D6
:1017D0001C07240F10346B465C71520852009A713A
:1017E00005910691079102AA039201AA049214227C
:1017F0009A82D9821A83848803460E3303AA08A9E1
:101800002046A2DF0FB010BC704770B48FB000222A
:1018100007926E46337F01231B071B0F103333776C
:10182000737F01231B071B0F10337377B37FF925D9
:101830002B409B1CB37708920A920B920C920E924B
:1018400008AE33781024234333704CA30993072345
:101850006E463385738507AB0D930623B371494BF1
:10186000B3800092B4782C40A41C337800231B076B
:101870001B0F3370737800231B071B0F73706308F3
:101880005B00B3700492059201AA02926A46039229
:1018900014223282B282123106918488831D02AAF8
:1018A00008A92046A2DF0FB070BC704730B585B0E4
:1018B00004460D46286820600020C043E084294685
:1018C000204614221231283004F00AF80620694616
:1018D00088742D4808821C4B08330FCB0393029267
:1018E0000191009004A90231684663DF002866D1A7
:1018F000221D04A90120A0DF002847E03824002091
:10190000320300002E2E5C736572766963655C623B
:101910006C655F696D617A652E630000A604000046
:10192000B0240020682400200E020000762400204D
:10193000711A00008524002000710200A82E0020EA
:101940005515020049150200106B02004E65772004
:10195000416C657274000000243000004E65766FA3
:10196000204669726D7761726500000023300000C7
:101970004E65766F20527800223000004E65766FFB
:1019800020547800213000002030000017D1294673
:101990002046FFF73AFF002811D129462046FFF7DD
:1019A000F0FE00280BD129462046FFF795FE0028BF
:1019B00005D129462046FFF74BFE0028FFD105B090
:1019C00030BD00B58BB000200090019002900390D4
:1019D0000490059006900790089009900120000758
:1019E000000F10306946087201200007000F103008
:1019F000487201200007000F103008730020000714
:101A0000000FC87201200007000F1030487301203A
:101A10000007000F1030887301200007000F1030FE
:101A2000487400200007000F0874F848FFF73EFFD5
:101A3000002803D0F64AE921FCF74BFE0BB000BDAD
:101A400000B591B04021684603F0FDFFF1A1684662
:101A500001F0A6FEF1A104A801F0A2FEF1A108A8E0
:101A600001F09EFEF0A10AA801F09AFE01200007F5
:101A7000000F103008A9087700200007000F4877F2
:101A8000684601F0AAF8002803D0E14AD021FCF70B
:101A900020FE11B000BD00B585B001200007000F89
:101AA000103001900422E1A101A87CDF002803D0BE
:101AB000D74A5521FCF70DFEC12078DF002803D05E
:101AC000D34A5921FCF705FE002002900390202103
:101AD0006A4611814021518190814B20C000D08104
:101AE00002A87ADF002803D0C94A6421FCF7F1FD7F
:101AF00005B000BD10B50020FEF795FF00F014FF03
:101B00000120FFF7B8FB01F0A3FAFFF7C4FFFFF7CE
:101B100097FFFFF756FF0620FFF76CFDFFF73FFD2D
:101B2000C448018D8022114301850120FFF7E0FCAC
:101B300010BD70B504460020BF4D295CA14208D1FC
:101B4000072809D207210A1A2818411C03F02CFF84
:101B500002E0401C0828F0D30722B749681C03F0B4
:101B600023FF2C70B548402241781143417070BD6D
:101B7000F8B50024B34AB24D1778018801222B89A9
:101B8000174315296CD00ADCAC4E012932786AD093
:101B900010290DD0112929D0122961D161E017290E
:101BA00065D0192970D035296AD0372958D164E019
:101BB0008188A5480180A5480178032901D2032125
:101BC000017058084000A249084328819D480770C9
:101BD0000020A8711E20A87070784006400E70701A
:101BE000FB200240DF200240327061E08079E87122
:101BF000082801D10420A87196488078FF2801D0D8
:101C0000FFF797FF934803F058F804462046002852
:101C100004D055217E4AC900FCF75BFD00F084FE2C
:101C200000218948C943018028898B490840412106
:101C300008432881894800210170824801230278E5
:101C40001A4302703078FB221040DF2210402970C6
:101C5000A970FD210840307070784006400E707009
:101C600026E000BF24E0FD200240327020E08079B1
:101C700000281DD1032068711AE000F07DFE17E0F6
:101C800000F07AFE14E0FFE78079002802D00128F6
:101C90000DD00DE070480340412003432B816F4974
:101CA0000020087067490F702870A87000E000BF1E
:101CB0002046002803D0564A6949FCF70AFDF8BDC2
:101CC00070B55F4C1E20A070088B142817D10846F1
:101CD0001A300546FEF7E6FD002810D02A4684217A
:101CE0001420FEF776FC002809D020890121890301
:101CF000084320815348012201781143017070BDCF
:101D0000F0B408461A30098B142926D1417860298D
:101D100023D10178002920D1C17800291DD0494D57
:101D20008178514C687802274E4E627838430129F9
:101D300015D023461B78032919D004291FD0052963
:101D400024D007292AD00A2930D00B2905D12E21E9
:101D5000317080210A4362706870F0BC704728219E
:101D6000317020210A4362706870F0BC70472921ED
:101D7000317001210B4323706870F0BC70472A2139
:101D800031703B4323706870F0BC70472B21317079
:101D900008210B4323706870F0BC70472C21317010
:101DA00010210A4362706870F0BC70472D213170B9
:101DB00040210A4362706870F0BC704770B50446F9
:101DC0001F4D20262A891046D1063043002901DA0A
:101DD000288170E02178002903D093060BD50020DC
:101DE00070BD00202871B2432A81142221461F4869
:101DF00003F076FD4FE0FF293AD0EA78FE2A3BD087
:101E0000521C91423DD02881012070BDA82E002097
:101E100004190200446179746F6E00003233343566
:101E20003600000032350000303000004E65766F1D
:101E300000000000F8290020B42C002070240020AD
:101E4000B0240020682400207624002038240020BC
:101E50000212000078240020711A0000852400205E
:101E6000F9020000862400206C240020E42E0020CB
:101E7000102002432A8104E0012902D02881012098
:101E800070BD287912214843FE4912224018801C57
:101E9000A11C03F025FD2078E8702879401CC0B211
:101EA0002871042807D12078FF2804D028893043DE
:101EB0002881012070BD002070BDF8B508461A3099
:101EC0000090F14C1E22A270098B14290AD141788E
:101ED000F22908D0F32906D00A46203A202A05D252
:101EE000FFF76CFFF8BDFFF769FFF8BD0126491E3B
:101EF000B603E64D01271F290CD2FFF75FFF01282B
:101F000005D1208930432081287838432870207AF1
:101F10008006EAD481211420009AFEF75AFB00289B
:101F2000E3D0208930432081287838432870F8BDD9
:101F3000088B02280AD1D44A8B7E1089012B02D14A
:101F4000C97E002903D0D249084010817047012181
:101F5000490308431081CF48FD22017811400170E8
:101F6000704710B4088B02280AD1C74A8C7E082318
:101F70001089012C02D1C97E002903D09843108119
:101F800010BC704718431081C248FD2201781140EF
:101F9000017010BC7047BC4A891D11610A884389D1
:101FA0009A4200D1DDE7438B9A4200D1C0E7C38952
:101FB0009A4200D181E7C38B9A4200D1A0E6C38A3E
:101FC0009A4200D17CE670470021C943C184704722
:101FD0008988C18470470A88102A04D0112A03D046
:101FE000502A02D1D7E7F3E7EEE7704710B5044671
:101FF000204603F0D5F82146A748FFF7ECFF20461E
:1020000001F0B8FC2046FFF78AF9204601F04DF8B0
:102010002046FFF7ADFD10BD10B5A0481321008884
:1020200076DF04462046002804D045219C4A090159
:10203000FCF74FFBE0B210BD70B5934C2089C1078F
:1020400001D074DF03E0800701D5FFF7E5FF954875
:10205000002505709448018D80229143018500F090
:1020600063FC8E49681E08802089904908402081C1
:10207000864801220178114301708648FB220178CD
:102080001140DF2211402570A570FD221140017022
:1020900041784906490E417070BD00B585B07F4951
:1020A000834A0988914222D00022029203926B4611
:1020B0001981754B0028198908D068464281012092
:1020C0004002014319811E20987005E00C206A46E9
:1020D000508178480140198101A8039002A920206D
:1020E00068DF002803D06E4A7349FCF7F2FA05B0A6
:1020F00000BDF0B58BB0644D28894105002912DB85
:102100006449097889070ED46C490A786C490B78C0
:10211000D21A920607D0AA78002A06D0800504D4E5
:102120000120FFF7BAFF0BB0F0BD01266FE00021E0
:102130000091019169468E7004A9029105A903914D
:10214000810911D069460C7D2989890447D51E2152
:10215000A970514A6B46D18A19808006800E04907E
:10216000D08C6946A6DF3BE06846047D287A0007EC
:1021700009D51E20A87048496A46C8881080C88CB6
:102180006946A6DF00E0002000280BD04D498842B8
:102190001AD14B4807803F48022201781143017051
:1021A0000BB0F0BDFF2C32D128890122C10BC9032D
:1021B0009203024011432AD08004800C28813348C6
:1021C00001783143017022E028890121C9030843C5
:1021D00028812E480178314301700BB0F0BD0020FA
:1021E000002803D037498842EED1D2E7FF2C0ED128
:1021F00028890122C10BC90392030240114306D072
:102200008004800C288121480178314301702C48DA
:102210000078C7B205A8FEF72FFA80B204908106B5
:1022200085D10BB0F0BDF0B59DB01748007AC0065F
:10223000002871DA134D04266A78284680781C90AD
:10224000F22A55D02048F32A00685FD02846C1788A
:102250001B918179037A012A5FD01B48B402006880
:1022600020431A901948022A878B7DD00A480646D7
:10227000C48F05483E3600787588411CC9B28C462B
:10228000410025E0E42E0020B02400206824002036
:10229000FFDF000070240020A82E002076240020FC
:1022A0000419020038240020F8290020301A000008
:1022B000FFFF0000FFFD0000730400006224002007
:1022C0006024002004300000182400202426002070
:1022D0004118202A7ED0212A7DD0222A7CD0232A90
:1022E0007BD0262A7AD0242A79D0252A78D0F9E002
:1022F000F7481C990078002903D0F549304308704D
:10230000F0E0F349FB2210400870EBE00122F149B4
:10231000920310430860E5E0E9E01B98EE4C0002F0
:102320001C9A801820802879A0706879E07021714B
:10233000E8796071A3712046FDF765FEE748018DDD
:102340000122D20211430185E548228801888A4290
:1023500007D1A1788278914203D1E178C078814297
:1023600044D0E048017800E00AE0491C0170DE48F2
:102370000078FBF7C4F9FBF7AFF9FBF79EF9B1E082
:10238000DB4ADA48174087831C9A002A01D037437A
:102390008783002903D0818B082211438183A97A86
:1023A000002903D0818B102211438183A97B00294E
:1023B00003D0818B202211438183A97C002903D083
:1023C000818B402211438183A97D00290BD0818B11
:1023D000802206E00BE019E037E050E05EE066E0C6
:1023E0006EE011438183BB491A9808607AE0BF4AC6
:1023F000D4831584B74A1A9B1360BE4A1E2871D233
:10240000BD4B20205854604610706BE0B74A948250
:10241000D582B4881483BC08A4009483DD0702D05D
:1024200001252C4394839B0703D5938B02242343DC
:102430009383A84A1A9B1360AE4A1E2852D2AE4814
:1024400021234354604610704CE0AC4BA74A1C4615
:102450004034F0CCF0C2103A1B6D1361A84A1C9BAB
:1024600093711B9BD3719B4A1A9B1360A14A1E2830
:1024700038D2A148222343546046107032E09B4A70
:1024800054849584934A1A9B13609A4A1E2829D231
:102490009948232343546046107023E0954A1E2830
:1024A00020D2954B26205854604610701AE0914A6D
:1024B0001E2817D2904B242058546046107011E00B
:1024C0008C4A1E280ED287481C9B0078834209D272
:1024D0008948252343540023081843701C998170B0
:1024E000604610708348102102898A430281814C22
:1024F000F2222789F323F805002870DA8148007852
:1025000080076DD480480021C16001614161816113
:10251000C1616078262842D006DC03227B4B242848
:1025200057D0252804D10AE1F2280DD0F32827D06E
:10253000774AE16811705070012919D0E068401C99
:10254000E060FF287ED072E17149E06808704A704F
:1025500000280DD16F4A508988700012C870908988
:10256000087100124871D08988710012C871E5E7BE
:102570006748FF2101702089674908402081DDE715
:10258000634AE068107053700028F1D15348008D01
:10259000400502D501209070D0E79170CEE75C49EC
:1025A000E068087026224A700028E1D14C48406853
:1025B0008870020ACA70020C0A71000E48714B48FA
:1025C00040688871020ACA71020C0A72000E4872D1
:1025D000B4E74248008D400703D51A7003E033E1A9
:1025E0006CE1FBF70DF84A49E068087024224A7054
:1025F000002835D03B48007805282CD33A48057888
:102600000020002D63D06D1EADB2401C80B20428A6
:10261000F7D342492803401802224149FAF758FFEC
:1026200030480078401F87B20026002F13D9002DB4
:102630007CD06D1EADB23648B1000918091D2A03C1
:10264000384800E0F1E010180422FAF741FF761C48
:10265000B6B2BE42EBD3234801782D48017387E719
:10266000214805781F4802781B4B29491888887033
:10267000000AC87098780871D8784871521E96B2CE
:102680000027002E15D0002D51D06D1EADB2204870
:10269000B900091823482A031018891D0422FAF7E3
:1026A00017FF761EB6B27F1CBFB2032F01D0002EDB
:1026B000E9D1002E8CD0002D3BD06D1EA8B20103B5
:1026C0001848022208181849FAF702FF36E732E0E4
:1026D00070240020182400204E240020F829002017
:1026E000602A00200B2400200D2400202426002036
:1026F00003FE0000B0240020482F0020A82E002058
:10270000442600205B240020282F002006240020DF
:10271000342F0020E82A0020FFFE000002603F0066
:10272000362F002000603F00462F002005E00625E0
:10273000ADE70620C3E7062567E706257BE76D4E74
:10274000E0683070252171706B4909780D46678902
:10275000002F07D0002D15D06D1EADB27F1EBFB269
:10276000002FF7D1052822D88D420DD101A8FAF704
:10277000ECFF01A8E168122251430918B01C03F0D4
:10278000AFF8DBE60625E9E75C48008D400701D598
:102790001A7001E0FAF734FFE0681222290350436F
:1027A000091857480818B11CFAF792FEC6E65348B4
:1027B000008D400701D51A7001E0FAF721FFE068AB
:1027C0000321801F03F041F980B24B4A12789542F1
:1027D0001BD14C4A1279824217D10D464A48122128
:1027E00069430F18FF221221B01C03F005F9022DD6
:1027F00005D012223946B01C03F072F810E04348AD
:10280000397881737978C1730AE0414B2A03D21871
:1028100080018018122251430818B11CFAF758FEA3
:10282000E0684D2800D1A3E688E60120E060314A47
:1028300014210020FDF726FE00283FD03548022253
:1028400001781143017039E033490878450706D50E
:10285000050704D56270F7221040087026E0820652
:1028600004D56370DF22104008701FE02078844692
:10287000002823D0294A107860705078917800029F
:10288000401860810020431C59005D184100565DCE
:1028900041185654A818457889184D70807888706A
:1028A00098B21D28EFD36046401E20700020E060E3
:1028B000FF20013007438020874327811648007896
:1028C000800714D4164D174C28782178401A8006BA
:1028D00001D0FFF70EFC28782178401A8006800E80
:1028E000202804D80B48FD220178114001701DB04A
:1028F000F0BD0000342F00200D240020F829002016
:1029000000603F004E240020B82A0020282F00201D
:1029100000613F005B24002070240020482F00202D
:10292000622400206024002010B5FF2101315048AE
:1029300003F087F84F4800210170417010BD30B49A
:102940004C4C62782378D21AD2B28A4203D2002049
:1029500030BCC0437047002200290AD9444D237877
:10296000EB5C0370401C23785B1C2370521C8A4272
:10297000F5D330BC0020704770B58CB03D4D687801
:102980002C78001BC0B2002824D0012104A8FFF736
:10299000D6FF6846007C384E002806D010216846D5
:1029A000FFF7CDFF002813D10BE002210AA8FFF7A3
:1029B000C6FF00280CD16846018D0022308895DFC3
:1029C00011E06846017C05A8FFF7B9FF002803D095
:1029D000FFF7AAFF0CB070BD6946087CC88005A847
:1029E0000290308897DF0028F4D02C700CB070BDB6
:1029F00070B4204E72783378D21AD2B2FF239A1A6A
:102A00008A4203D270BC0020C043704700220029D4
:102A100009D9174C05787378401CE5545B1C73701A
:102A2000521C8A42F6D370BC00207047F8B50446A9
:102A3000104E7578A079009001216846FFF7D8FF05
:102A400000280CD110212046FFF7D2FF002806D124
:102A500069460978A068FFF7CBFF002803D075709E
:102A60000020C043F8BDFFF787FF0020F8BD00003D
:102A7000A22F0020C42400207624002070B5044634
:102A80000D46002D01D0012000E00020002803D1D8
:102A900096A23321FBF71DFE002C01D0012000E09F
:102AA0000020002803D191A23421FBF712FE2878E0
:102AB00020702888FF2109020840000A60702868F9
:102AC00009020840000CA0702868000EE070287908
