:020000040001F9
:10D00000D83C0020A5D10100BFD10100C1D1010051
:10D010000000000000000000000000000000000010
:10D02000000000000000000000000000C3D101006B
:10D030000000000000000000C5D10100C7D10100C0
:10D04000C9D10100C9D10100C9D10100C9D1010074
:10D05000E3E5010000000000A3E50100C9D10100E3
:10D06000C9D10100C9D10100C9D10100C9D1010054
:10D07000C9D10100C9D10100C9D10100C9D1010044
:10D08000C9D10100412D0200C9D10100C9D101005F
:10D090005D2D0200D54802005F270200C9D10100C2
:10D0A000C9D10100C9D1010000000000000000004A
:10D0B0000000000000000000000000000000000070
:10D0C00000F002F800F032F80CA030C8083824183C
:10D0D0002D18A246671EAB4654465D46AC4201D1B0
:10D0E00000F024F87E460F3E0FCCB64601263342B0
:10D0F00000D0FB1AA246AB4633431847208B0000F2
:10D10000408B00000023002400250026103A01D3A4
:10D1100078C1FBD8520700D330C100D50B607047EF
:10D120001FB5C046C0461FBD10B510BD08F0ABFB13
:10D130001146FFF7F5FF01F04FFC08F0C3FB03B405
:10D14000FFF7F2FF03BC08F0C7FB0000401E00BF62
:10D1500000BF00BF00BF00BF00BF00BF00BF00BFD7
:10D1600000BF00BF00BFF1D17047000070B5054699
:10D170000C46164602E00FCC0FC5103E102EFAD218
:10D18000082E02D303CC03C5083E042E07D301CCDE
:10D1900001C5361F03E021782970641C6D1C761EC2
:10D1A000F9D270BD03210C4802680A4302600B48A3
:10D1B00002680A4302600A4880470A480047FEE7BF
:10D1C000FEE7FEE7FEE7FEE7FEE700000648074948
:10D1D000054A074B704700002405004054050040F5
:10D1E00075D20100C1D00100D8320020D83C002007
:10D1F000D83200202A492948086070472948018C04
:10D20000C9B201290BD1818C090708D1018D09060A
:10D21000090F042903D1808D0006000F01D00020E2
:10D220007047012070471F49088CC0B201281DD1EA
:10D23000888C00071AD1088D0006020F03D18A8D51
:10D240001206120F03D0000F012802D005E00120C2
:10D2500070478A8D1206120F02D0032802D005E013
:10D2600001207047888D0006000F01D00020704714
:10D270000120704710B5FFF7D6FF002805D00B49F5
:10D2800009484860C8130A498861FFF7B7FF0028BA
:10D2900002D008490120886010BD00000024F4007D
:10D2A00000240020C00F00F0DFFF07C00005004091
:10D2B000006C0040000600400246E049087D00285E
:10D2C00008D000200B181B79934204D0401CC0B238
:10D2D0000828F7D3FF2070470020D8490A18127990
:10D2E000FF2A04D0401CC0B20828F7D3FF207047A3
:10D2F00038B5044669462046E7DF69460878800766
:10D30000800F009002280AD238BD2046C5DF69464A
:10D310002046E7DF684601788907890F0091684653
:10D3200001780229F1D238BD10B50820FFF7C4FFFB
:10D330000446FF2C09D02046FFF7DAFFBF48FF2143
:10D3400002191171017D491C017510BD70B50020D5
:10D35000FFF7B2FF0546FF2D11D0B84C20884008DA
:10D360004000208000206074A074E0742846FFF71D
:10D37000BFFFFF2061190871207D401C207570BD22
:10D3800010B5FFF7E3FFFFF7CFFF10BD7CB50446F4
:10D390000D46ABA003C80191009069460020CCDF88
:10D3A0002846C3DF00231A4619462846C2DF002359
:10D3B000A1B278222846D3DF39212846CDDFA24901
:10D3C0002846D1DF02212846D6DF0C212846DADFA5
:10D3D000002204212846CFDF2846C4DF7CBD10B5DB
:10D3E000FFF7B4FFFFF778FF0146FF290FD0934AFC
:10D3F000002053181871137D5B1E137510231374CE
:10D40000282353749074D0745080FFF7BFFF10BD71
:10D4100010B5FFF79BFFFFF75FFF0146FF2911D013
:10D42000864A002350180371107D401E10758748EE
:10D43000808A508010241474282454749374D374F4
:10D44000FFF7A4FF10BD70B57C4C607C002806D0AF
:10D45000401EC0B26074002801D1FFF777FFA07CA6
:10D46000002807D0401EC0B2A074002802D1E0738B
:10D470001420E074E07C002806D0401EC0B2E074A6
:10D48000002801D1FFF762FF2078C0071ED0E47B9F
:10D49000002C1BD06E4D286A00192862E969491CCE
:10D4A000E96107F03EFB2876687E844200D96C76FD
:10D4B000684D286A00192862E969491CE96107F08A
:10D4C00030FB2876687E844200D96C7670BD7CB5CE
:10D4D00004460D460020009001906946CCDF2846A6
:10D4E000C3DF00231A4610212846C2DF0023A1B261
:10D4F000FF222846D3DF42212846CDDF5649284661
:10D50000D1DF00212846D6DF002204212846CFDFC4
:10D510002846C4DF7CBD10B5FFF732FFFFF7DCFE05
:10D520000146FF2909D04548082243181A71027D97
:10D53000521E02750120FFF7CAFF10BD1CB501780D
:10D540003E48001D085C3D4909180979082905D1A4
:10D5500010216A461170C0B20821C7DF1CBD0178D6
:10D560003648001D085C354908180079002800D1AC
:10D57000ECE67047FEB5044630482178001D095C92
:10D58000E0784E2803D04F2801D0502849D12B4DA8
:10D5900068180079002844D1687C0026002819D03A
:10D5A000C8B26B4601AA02A9D4DF684600890028E8
:10D5B00010D026498A8A824207D06880888227490B
:10D5C000FF2208680132104308606E742888012128
:10D5D00008432880287B617A884211D1687BA17A30
:10D5E00088420DD1A87BE17A884209D1287C0028A5
:10D5F0000ED0401EC0B22874002809D1EE7307E097
:10D60000207BE873F02801D9F020E87310202874FB
:10D61000607A2873A07A6873E07AA8730A20A874E5
:10D62000EE74FEBD4178012904D0032903D080297E
:10D6300002D19FE793E781E770470000982500201B
:10D64000B9A521FBBD72C345861F0000042600203A
:10D65000202A0020FC290020CD0C000014240020EA
:10D6600010B5FA4C00202060162000F062FD00206A
:10D67000C043A060E060206110BDF44B0022DA617D
:10D68000F34800E000BF81680129FBD182609869FE
:10D69000C0B27047ED4AD061ED4800E000BF81683C
:10D6A0000129FBD1002181609069704710B5E74CDA
:10D6B0001920A0601820E0601720206101200007D9
:10D6C0006062E249062040314861162000F036FDD4
:10D6D0000120206010BD10B5FFF7E8FF0520FFF71F
:10D6E000D9FFFFF7CAFF0446FFF7BAFF204610BD77
:10D6F00010B5FFF7F0FFC007C00F10BD70B50446AE
:10D700000D46164600E000BFFFF7F2FF0028FAD1F1
:10D71000FFF7CCFF0320FFF7BDFF2002000EFFF74D
:10D72000B9FF2004000EFFF7B5FFE0B2FFF7B2FF2C
:10D73000002403E0FFF7A1FF2855641CB442F9D38D
:10D74000FFF78EFF70BD08B504226946C148FFF798
:10D75000D5FF009808BD08B5BE4804226946001DE3
:10D76000FFF7CCFF009808BD10B5BB490C2008603E
:10D77000162000F0DEFC192000F0DBFC182000F081
:10D78000D8FC152000F0DAFCB448018D04221143C6
:10D790000185B34960208870052000F0E9FC10BDC8
:10D7A00010B5152000F0C5FC172000F0BCFC1620B9
:10D7B00000F0C4FC192000F0C1FC172000F0BEFCF2
:10D7C000182000F0BBFCA548018D0422914301857F
:10D7D00010BD10B5152000F0A6FC162000F0A3FC2B
:10D7E000192000F0A0FC182000F09DFCFFF7D8FFE6
:10D7F00010BD10B5FFF7EDFFFFF7B6FF9A48994946
:10D8000001607D21C9004160984981609849C160EB
:10D810005021018278214182002282822221817559
:10D82000AA21C175462101764276BA2181763C2132
:10D83000C176822101774B214177FF218177C27721
:10D840000823014620310B701E234B708A707F2104
:10D85000C9054162816210BD10B5FFF727FF0620A0
:10D86000FFF718FFFFF7FCFEFFF735FF8007F4D541
:10D8700010BD70B50024FF25F535FFF739FF0028EE
:10D8800005D0012000F074FC641CAC42F5D370BDDF
:10D8900070B506460C461546FFF7EBFFFFF7DCFFB9
:10D8A000FFF704FF0220FFF7F5FE3002000EFFF73E
:10D8B000F1FE3004000EFFF7EDFEF0B2FFF7EAFED6
:10D8C000002303E0E05CFFF7E5FE5B1CAB42F9D30D
:10D8D000FFF7C6FE70BD10B50403FFF7CAFFFFF7E0
:10D8E000BBFFFFF7E3FE2020FFF7D4FE2002000E6F
:10D8F000FFF7D0FE2004000EFFF7CCFEE0B2FFF7EA
:10D90000C9FEFFF7ADFE10BDF8B5554E30690028D1
:10D9100008D05248008D400702D56020B07001E069
:10D92000FFF722FF30691027C1073D0100297DD094
:10D93000F178002400290CD0FFF7DAFE00280CD083
:10D940003079002804D13069400840003061F4701B
:10D95000F8BD400840003061F8BDF07801281ED0C5
:10D96000022821D0C10642D50407240F20024149D4
:10D97000009040183C49FF2201326C31FFF7BEFE97
:10D9800000213748384DC2883B4E6C356B185878AB
:10D990006F5C0002C01990420DD1304610E037484C
:10D9A000FFF799FFF770F8BD3448401CFFF793FF6D
:10D9B0002020F070F8BD904202D9B04200D0401E45
:10D9C0006854000A5870891CFF29DFD92C4A009836
:10D9D0008018FF2269180132FFF75AFF2048C178EA
:10D9E000491CC170082CE5D10221C170F8BD810627
:10D9F00025D50607360F2248370238181A492A4615
:10DA00006C31FFF77BFE1B48381817492A466C31EA
:10DA1000FFF73EFF12481249C078401CC870082E1C
:10DA2000E4D1084601694908490000E02AE0C470D1
:10DA3000022211430161C189491EC181F8BD3069CB
:10DA4000400840003061F470F8BD0000003500402F
:10DA500000310040F8F03F005C070050D029002062
:10DA60000424002040420F0004260020A08601006C
:10DA7000302A000000E03F00FFFF0000FD0300002F
:10DA800000D03F00C1060AD5FFF732FE0028DBD1E7
:10DA90003069B84330617069FFF71DFFF8BD81063A
:10DAA00013D5FFF725FE0028F8D1706971780003BF
:10DAB00049014018FF300130326920218A43326128
:10DAC0001422F749FFF7E4FEF8BD410616D5FFF72B
:10DAD0000FFE0028F8D170690403306940218843A3
:10DAE0003061F04930220846C030FFF73FFBED4976
:10DAF0003022C0312046FFF7CBFEF8BD4107082495
:10DB000000290EDAFFF7F4FD0028F6D13069042170
:10DB100088433061B069FFF7DEFE30692043306131
:10DB2000F8BD010716D5FFF7E3FD0028F8D1B0696D
:10DB3000010370891038C217120F1018001100026B
:10DB40004018D7492A464039FFF7A2FE3069A04362
:10DB50003061F8BDD44CC1050DD5FFF7C9FD0028D3
:10DB6000F7D13069A8433061D048FFF7B4FE30697F
:10DB700020433061F8BD8005FCD5FFF7B9FD0028D2
:10DB8000F8D13069A0433061C6492C22543108468F
:10DB90006C30FFF7EBFAC2484838C5490160001DF8
:10DBA000C449016001462A46FC39C348FFF770FEAC
:10DBB000F8BD70B5C14D287CC0070DD000247D266E
:10DBC000F600FFF7A1FE287CC00705D00A2000F070
:10DBD000CFFA641CB442F4D3FFF74BFE70BDF8B526
:10DBE00004460E46FFF7E5FFB54960004518FFF70C
:10DBF0005DFD0320FFF74EFD2802000EFFF74AFDF2
:10DC00002804000EFFF746FDE8B2FFF743FDA74DDD
:10DC1000AD1E09E0FFF731FD0746FFF72EFD0002BC
:10DC2000C019B04202D0641CAC42F3D3FFF718FD18
:10DC3000AC4201D3A348F8BD2046F8BDF8B50D4667
:10DC4000A04E3146FFF7CBFF0446B4420AD06946E6
:10DC50000D70280A48709A496000401802226946EF
:10DC6000FFF716FE2046F8BD97490020086148617D
:10DC7000964AD27B8A619149C861086248620870FD
:10DC80008881704790480021C16101628F49C97B3A
:10DC90004162704770B505468B48008D874C400740
:10DCA000002802DA6020A07001E0FFF75DFD01218D
:10DCB000E170E5802069084320614020207170BD3B
:10DCC00070B50546804E308D7C4C4007002802DA46
:10DCD0006020A07001E0FFF747FD2089002801D1F6
:10DCE000FFF7D8FF6F490023002D16D001200883CD
:10DCF0000B6077488279CA7742798A7702794A77C6
:10DD0000C2780A778278CA7600787D221201801A5A
:10DD10008876087EC00702D007E00B83E8E7FFF7AC
:10DD2000B1FFFFF7A1FF33607360E089401CE08121
:10DD3000401E81B20020FFF781FF6061A061208951
:10DD4000401E208120691021084320615548FF2290
:10DD50000901803006F0BCFE70BD10B55149142297
:10DD600030314F48FFF702FA544801784170491C9E
:10DD70000170016920221143016110BD70B5524D3F
:10DD80002C686868201AA8606C60E86900281AD0BE
:10DD9000296A06F0C6FEE8604248297B30300174EB
:10DDA000A98C41744460454CE1690160216A81603D
:10DDB000616AC160FFF7D1FF3A4821782030817154
:10DDC000FFF760FF70BD0020E860E5E7F8B5354F6C
:10DDD0000025387E3C46C0072034002821D0A5719C
:10DDE0003C4881883982C18879820188B98240881B
:10DDF000F882374881796171417921710179E17047
:10DE0000C178A1708178617000787D210901401A84
:10DE100020702A494022086910439200104308618B
:10DE2000F8BDFFF7ABFF284EF06900280BD0316A30
:10DE300006F077FEF0603069002806D0716906F0C0
:10DE400070FEE07202E0F560F5E7E572307E207367
:10DE50001A4DE8697860286AB860686AF860A8892D
:10DE60000107C6D0102837D2308D400702D5602078
:10DE7000A87001E0FFF778FCE889401E81B2A8692C
:10DE8000FFF7DCFEA8610F498842C9D02889401EEF
:10DE900028812869042108432861102068811DE039
:10DEA000B0270020B025002000020000FF03000082
:10DEB000785634121212142000F03F00042400207F
:10DEC00000E03F00FFFF0000D0290020982500203F
:10DED0004A2400204024002010306881286908214D
:10DEE000084328614A0198499848FFF73FF980E7BD
:10DEF000F8B5974C974EA069B0422AD09248E16994
:10DF00003C380160216A4160616A81609249C97B45
:10DF100001732178491C417344380168491C016030
:10DF2000A089401C80B2A081FF2501350827A842A6
:10DF300010D160810020A0812A4683498348FFF7E1
:10DF400015F9FF222946804806F0C2FD20693843B2
:10DF50002061F8BD0107FCD16081102818D17F48ED
:10DF6000008D400702D56020A07001E0FFF7FCFBA8
:10DF7000E089401E81B2A069FFF760FEA061B04257
:10DF8000E7D02089401E20812069042108432061B8
:10DF90002A466D496D48FFF7E9F8FF2229466A488D
:10DFA00006F096FD206938432061F8BDF8B5684D4C
:10DFB0002869810700292DDAC0072BD1FFF798FBCC
:10DFC000002827D128690221884328610020288160
:10DFD000FFF76CFB0320FFF75DFB3F20FFF75AFBC9
:10DFE000E020FFF757FB0020FFF754FB00245C4EB6
:10DFF000FFF743FB0746FFF740FB0002C0195549F6
:10E00000884202D12889401C2881641CB442EFD385
:10E01000FFF726FBF8BDF8B500265048008D4007F5
:10E02000002803DA4A496020887001E0FFF79CFB72
:10E03000FFF7BFFDFFF73AFB0320FFF72BFB3F2065
:10E04000FFF728FBE020FFF725FB0020FFF722FB6E
:10E050000024404FFFF711FB0546FFF70EFB0002BF
:10E060004519BD4203D06D1CB54200D92E46641C33
:10E070003B488442EED3FFF7F3FA3046F8BDF8B5DB
:10E08000FFF7C9FF324D80B2E881002814D0002488
:10E090000FE0304EA1B20020FFF7A1FDB04207D043
:10E0A000000304226946FFF729FB0098401C04D0B6
:10E0B000641CE8898442ECD3F8BDA0B2FFF7EAFD06
:10E0C00003E0FFF721FCFFF771FF28690028F8D172
:10E0D000E8898442DED3F8BD10B52048008D1C4C81
:10E0E0004007002802DA6020A07001E0FFF73CFB47
:10E0F000FFF75FFD1A48401CFFF7EDFB0020E081B1
:10E1000017482081FF21206901310843206110BD9B
:10E1100010B52421134806F002FD1048018D782225
:10E120009143018510BD104A0321800080180160D1
:10E130007047012181400D48816070470121814075
:10E140000A48C16070470000302600207027002078
:10E1500004240020FFFF000098250020D029002083
:10E16000FD030000202A0020000700500005005099
:10E170001921C901484300E0401E0028FCD1704726
:10E1800010B50121082000F043FA0121092000F018
:10E190003FFA01210A2000F03BFA01210B2000F098
:10E1A00037FA01210C2000F033FA01210D2000F094
:10E1B0002FFA01210E2000F02BFA0121112000F08E
:10E1C00027FA0121122000F023FA0121132000F088
:10E1D0001FFA0121142000F01BFA01211A2000F07F
:10E1E00017FA01211C2000F013FA01211D2000F074
:10E1F0000FFA01211E2000F00BFA062000F002FAAF
:10E20000062000F010FA072000F0FCF9072000F0CB
:10E210000AFA002000F0F6F9002000F0FFF90021D2
:10E22000012000F0F5F9022000F0ECF9022000F0E6
:10E23000F5F90021032000F0EBF9042000F0E2F9E9
:10E24000042000F0EBF90021052000F0E1F90021A5
:10E250001B2000F0DDF9F64800214161C16001F0AA
:10E26000F8FD102000F0CEF90F2000F0CBF91020BF
:10E2700000F0D4F90F2000F0D1F900F08DFC10BDB2
:10E2800070B505460C46284600F0BCF9204600F063
:10E29000B9F9284600F0C2F9204600F0BFF9284637
:10E2A00000F0C1F9204600F0BEF970BD70B505461A
:10E2B0000C46284600F0A6F9284600F0B4F920469E
:10E2C00000F0ACF9284600F0A9F970BD70B505461C
:10E2D0000C46284600F096F9284600F09FF92046A3
:10E2E00000F09CF9204600F09EF970BD70B505461F
:10E2F0000C46284600F086F9284600F094F920469E
:10E3000000F08CF9204600F08EF970BDF3B581B0B5
:10E3100006460321304600F07BF900240025C54F56
:10E320006006040E029800F079F93869F040C007E1
:10E33000C00F002801D001200443029800F073F9B7
:10E340006D1CEDB2082DEBD32046FEBDFFB581B0AC
:10E35000064614461F46304600F054F90025304664
:10E3600000F061F9200602D5304600F057F9029816
:10E3700000F054F9029800F056F96006040E6D1C86
:10E38000EDB2082DEBD3002F16D10321304600F05B
:10E390003FF9029800F042F9A6480069F040C00732
:10E3A000C00F002805D0029800F03DF9012005B00B
:10E3B000F0BD029800F037F90020F8E7FFB581B012
:10E3C0000B9E0A9D17461C4602990198FFF758FFBD
:10E3D00000233A4602990198FFF7B8FF012809D0B7
:10E3E0000023224602990198FFF7B0FF012807D0C9
:10E3F000002415E002990198FFF758FF0020D6E7A6
:10E4000002990198FFF752FF0020D0E72A5D0C9B8C
:10E4100002990198FFF79AFF012809D0641CE4B221
:10E42000B442F3D302990198FFF740FF0120BEE701
:10E4300002990198FFF73AFF0020B8E7FFB581B0D5
:10E440000B9F0A9D14461E4602990198FFF718FF7C
:10E450000023224602990198FFF778FF012817D080
:10E4600000233A4602990198FFF770FF012815D062
:10E4700002990198FFF704FF01202246024300237E
:10E4800002990198FFF762FF01280DD0002424E0D3
:10E4900002990198FFF70AFF002088E70299019886
:10E4A000FFF704FF002082E702990198FFF7FEFEC4
:10E4B00000207CE702990198FFF728FF3055681E7D
:10E4C000844204D002990198FFF710FF03E00299FB
:10E4D0000198FFF7FBFE641CE4B2AC42EAD3029958
:10E4E0000198FFF7E3FE012061E708B50020032251
:10E4F000514B1146009004F032FC002803D04FA28B
:10E50000EF2100F0F2F808BD10B5514C00224F4940
:10E51000206804F0C9FC002804D0FF2147A2043180
:10E5200000F0E3F800224B49606804F0BDFC0028CD
:10E5300004D0FF2141A2063100F0D7F810BD10B57C
:10E54000454A0121424804F05EFC002803D03BA26A
:10E55000F72100F0CAF83E48404A0121001D04F0AE
:10E5600052FC002803D035A2F92100F0BEF8FFF7D5
:10E57000CBFF10BD10B5364C206804F0BEFC00285F
:10E5800004D0FF212DA20F3100F0AFF8606804F035
:10E59000B4FC002804D0FF2128A2113100F0A5F816
:10E5A00010BD10B52E48C16B002916D00021C163E3
:10E5B0001F4841698903890F0FD1C0688003800F0C
:10E5C0000BD01C480069C006C00F002805D12548A3
:10E5D0000078C00702D001F084FC10BD01F0B9FC46
:10E5E00010BD10B520488069C0B2204A002191605A
:10E5F0001C490978C90702D001F0A3FC10BD01F045
:10E6000039FD10BD0A4A032180008018016070475F
:10E61000074A89008000801801607047012181400D
:10E62000044881607047012181400248C160704701
:10E630000007005000050050D02700202E2E5C68F7
:10E64000617264776172652E630000008941000089
:10E650002C240020190400002BFD010049FD0100BD
:10E660004061004057240020004500400041004028
:10E6700010B52C20FE49002403E00C70491C401EFC
:10E6800080B20028F9D11620FA4903E00C70491C29
:10E69000401E80B20028F9D12C20F74903E00C700D
:10E6A000491C401E80B20028F9D1F24908220A759F
:10E6B000FF2203E00B181A71401C80B20B7D8342CD
:10E6C000F8D88720ED49400108800020EC49C0437C
:10E6D0000880FFF78EF8EB4801F087FAEA480480DB
:10E6E00010BD10B504F0F3FD10BD10B5FF20E74AD2
:10E6F000E749E84B5468E40700D019600028F9D1D5
:10E7000010BD08B5DA49002350225039082003F023
:10E71000EAFF002803D0E0A25821FFF7E6FF00201F
:10E7200000900090684660DF002803D0DAA25F21E5
:10E73000FFF7DBFFDB4803F0FAFF002803D0D6A287
:10E740006321FFF7D2FFD84803F0F9FF002803D078
:10E75000D1A26721FFF7C9FFD44803F0F8FF0028D2
:10E7600003D0CDA26B21FFF7C0FF08BD40DF00281A
:10E7700002D0C9A27421B8E770470A460146CC48C6
:10E78000B3E70EB5CB480A21007806F0CAF930305D
:10E790006A4610703031517002200290C6486B46B4
:10E7A000008802AA0021A4DF002803D0BAA2A62173
:10E7B000FFF79BFF0EBD70B5C0490869C006C00FCA
:10E7C000FD24BF4D00284DD0BE480078002849D117
:10E7D0002878C20703D040084000287042E0820732
:10E7E00008D52040287001F002FD01F06DFB01F01A
:10E7F00048FB37E0B4480068002806D001F073FDFC
:10E8000001F062FB01F03DFB2CE0B048B04A00880B
:10E810001288904206D001F07DFC01F055FB01F01A
:10E8200030FB1FE008698006C00F00281AD1A949F3
:10E83000087882070BD5A84AA84B12781B78D21A01
:10E840009206920E202A0DD8204008700AE0400857
:10E85000400008700021A248416103210904C16001
:10E8600001F00FFB2878010704D5F7210840287034
:10E87000FFF787FF2878410702D5FB210840287061
:10E880006878810701D52040687070BDF0B58BB005
:10E89000944800788007002840DB8F4801788F4833
:10E8A0000278891A890639D001248F4E844F5AE0A4
:10E8B00000210091019169468C7004A9029105A97B
:10E8C000039181090FD069460D7D318889043AD5BD
:10E8D000864A6B46D18A19808006800E0490D08BC0
:10E8E0006946A6DF30E06846057D3078000707D529
:10E8F0007E496A46C8881080C88B6946A6DF00E05A
:10E90000002000280CD07A49884213D173490A9814
:10E910000880744902220878104308700BB0F0BDDB
:10E92000280620D530888004800C30803878204339
:10E93000387018E030880121C903084330803878E6
:10E9400020433870EAE70020002803D06849884255
:10E95000F0D1DBE7280606D530888004800C3080B3
:10E960003878204338705D4800780A9005A801F097
:10E97000F7FB80B2049000289AD1CFE78AB0142028
:10E98000049080206A461075F220507559494889D4
:10E9900090750012D0758889107600125076C8895B
:10E9A00090760012D07600200090019001209070A7
:10E9B00004A8029005A803904C48C1881180C08B20
:10E9C0006946A6DF4A49884204D1464802220178B6
:10E9D000114301700AB070474849474848604849A8
:10E9E00080178860C2074A604649886004204860F2
:10E9F000FFF77BFDFFF785FE01F082FDFFF738FE94
:10EA0000FFF7BEFBFFF79BFD02F082FC06202ADF2A
:10EA100004202ADF012106202BDF002804D0FF215B
:10EA20001DA29C31FFF761FE012104202BDF00288D
:10EA300004D0FF2118A29E31FFF757FE062026DFE3
:10EA4000002804D0FF2114A2A031FFF74EFE0420BD
:10EA500026DF002804D0FF210FA2A231FFF745FED8
:10EA600062B601F026FAFF261F4D0136264F4DE013
:10EA7000D0290020982500200426002048240020CA
:10EA8000722400204A2400203E240020000401407B
:10EA90003546526E000601402E2E5C6D61696E2E69
:10EAA00063000000D915020025D60100E3E601004D
:10EAB000EFBEADDE56240020AA2400200005005041
:10EAC00064240020582400206824002060240020B2
:10EAD00062240020572400205E2400205C240020B3
:10EAE000000700506C240020F2240020B02D0020EC
:10EAF00004300000442A0020DFFF07C0000500406A
:10EB00000063004000430040142400201B4C01F02F
:10EB100033FD28883968304008431949096808439B
:10EB200020D1184818490088098888421AD1174806
:10EB300000698006C00F002814D0FFF717FEFFF70A
:10EB40003AFE01F008F901F041F920788107DED49E
:10EB5000410709D5010707D5F72108402070FFF7C5
:10EB60000DFFD4E700BFEAE709480A4900780978B1
:10EB7000401A8006CBD0FFF789FEC8E76C2400203E
:10EB8000642400206024002062240020000500503E
:10EB90005E2400205C240020F0B585B00F211020F9
:10EBA000FFF784FB0F2001250146019003AB3222C1
:10EBB00000951020FFF742FC4721684601730024AE
:10EBC00003AE202332220F211020009601950294DB
:10EBD000FFF7F4FB68460473212332220F21102033
:10EBE000009601950294FFF7E9FB6846047322231F
:10EBF00032220F211020009601950294FFF7DEFBD0
:10EC000068460473232332220F21102000960195B9
:10EC10000294FFF7D3FB08216846017324233222B4
:10EC20000F211020009601950294FFF7C7FB0227E1
:10EC300068460773252332220F2110200096019584
:10EC40000294FFF7BBFB684604732E2332220F2188
:10EC50001020009601950294FFF7B0FB68460473FC
:10EC6000302332220F211020009601950294FFF7E5
:10EC7000A5FB6846047332231A460F211020009624
:10EC800001950294FFF79AFB6846047333233222FE
:10EC90000F211020009601950294FFF78FFB684624
:10ECA0000473382332220F2110200096019502941C
:10ECB000FFF784FB5821684601733A2332220F2163
:10ECC0001020009601950294FFF778FB68460773C1
:10ECD0003B2332220F211020009601950294FFF76A
:10ECE0006DFB0721684601733C2332220F2110205F
:10ECF000009601950294FFF761FB142168460173A9
:10ED00003D2332220F211020009601950294FFF737
:10ED100055FB05B0F0BDFE48417B827B891AC9B224
:10ED2000C27B037CD21AD2B2437C807C181AC0B258
:10ED3000914203D3814201D3012070478A4203D319
:10ED4000824201D30220704703207047FEB5F0498C
:10ED500020390E46803E37890A8A7B08888A5B0004
:10ED600002933346C03301931B7F824238D0012582
:10ED70002D04824203D9101A80B2009003E0281AB1
:10ED8000801880B20090CC8A488A844202D9201A26
:10ED900080B202E0281A001980B2032B00D1602053
:10EDA0004C828A8206F0A3FB04460D46009806F0CA
:10EDB0009EFB052206F0CAFC22462B4606F046F9C9
:10EDC00005F060FF3060D349884203DB0120074330
:10EDD000378101E0029830810199002008770BE02B
:10EDE000032B09D05B1C0199D8B20877032803D103
:10EDF000029830810020306030684000000E1CD046
:10EE0000C348E838C168491CC16001462431C8685C
:10EE1000401CC860C049C96800290ED0BF4A138D84
:10EE20005B060AD4884208D3108D40210843108520
:10EE3000BB490222487810434870FEBDB4482038D0
:10EE4000018A491C0182C189C1827047B0482030C3
:10EE5000407D0107002901DA01207047C00601D575
:10EE60000220704703207047884202D3401A00B244
:10EE70007047081A00B27047FEB5A5482038C1890E
:10EE8000491CC1810646803E318A0546403500292D
:10EE900017D0491E89B23182002912D19F490A8DAB
:10EEA0005204520C0A85002169769E4A14785378E0
:10EEB0007218C032147093711373491CC9B20529BA
:10EEC000F6D3934CE17F412901D2491CE177904A66
:10EED000A03A518980318BB29189803189B2D2892F
:10EEE000803292B2C67F0296042E7DD3A6786670D9
:10EEF000B646E778A77001972679E670B446DBB28C
:10EF00002371019F7646F6196344F318854E9B08DA
:10EF10003370A6796671B646E679A6713746267AC9
:10EF2000E671B446C9B221727646F6196144711889
:10EF30007C4E89087170A67A6672B646E77AA77227
:10EF40000097267BE672B446D2B22273009F7646C3
:10EF5000F6196244B2189608724A9670029A01270E
:10EF6000042A42D0607B6F4A984200D26373E07BF0
:10EF7000884200D2E173607CB04200D26674A07B0C
:10EF8000984200D9A373207C884200D92174A07CC8
:10EF9000B04200D9A6740026687DC1075BD0A97C69
:10EFA00099425ED2400840006875A17EA87CFFF7B8
:10EFB0005BFFA17D884254DBA07E6076A87CA076B2
:10EFC0000020534FA03F3918C0314B780B70401CC4
:10EFD000C0B20528F7D33818AB7CC0300370FFF7F8
:10EFE00035FF012835D03CE069E20522C2770020D8
:10EFF00020706073FF22A273E07322746074A274A5
:10F00000E074207560750C22A275E2752276637635
:10F01000A376E17621776677A677AB74E9742975D4
:10F0200008226A75AF75EF752F763C4A168D760407
:10F03000760C16856876364DA03D2A18C0321370BE
:10F0400091711173401CC0B20628F6D34120E077BD
:10F05000FEBD012605E0A97C994202D938436875B6
:10F06000A3E7687D810726D5E97C537899422AD2A7
:10F07000FD2108406875217FE87CFFF7F5FEE17D02
:10F08000884220DB207FE076E87C20770020204F3C
:10F09000A03F3918C031CB798B71401CC0B2052814
:10F0A000F7D33818EB7CC0308371FFF7CFFE02280E
:10F0B00009D1022607E0E97C5378994203D902215D
:10F0C00008436875D7E7687D410733D5297D937874
:10F0D000994237D2FB2108406875A17F287DFFF750
:10F0E000C3FE217E88422DDBA07F6077287DA0773C
:10F0F0000020074FA03F3918C0314B7B0B73401CD9
:10F10000C0B20528F7D338182B7DC03003730BE04D
:10F11000E42A00200000204004260020D0290020FE
:10F120006824002038240020FFF790FE032809D12E
:10F13000032607E0297D9378994203D904210843E7
:10F140006875CAE7F7480178A9744178E97480784E
:10F150002875012E04D0022E7ED0032E7DD068E1CA
:10F16000A07E617E8842FAD2E27C8242F7D98A424E
:10F17000F5D2E07F0A38362870D8EB4A402010825A
:10F18000EA48008D000475D5104648380168491CCE
:10F190000160014624310868401C0860E44E716833
:10F1A00000290ED0E14B1F8D3F070AD4884208D3B7
:10F1B000188D082108431885DE484023017819433B
:10F1C0000170D84F3C203871FFF738FE1089810755
:10F1D0000BD5308A51680918516006F051FB716AED
:10F1E00006F0BAFB06F008FB20E041070BD5708A59
:10F1F00051680918516006F043FBB16A06F0ACFB98
:10F2000006F0FAFA12E0C00708D0708A06F038FB60
:10F21000B16A06F0A1FB06F0EFFA07E0308A06F0CB
:10F220002FFB716A06F098FB06F0E6FABE4A483AF0
:10F230005168091851602432516809185160FA88E0
:10F240001018F8803068002808D0B84A138DDB0603
:10F2500004D4814202D303E0D7E0E1E0D2E009E048
:10F26000108D102108431085B24880220178114387
:10F270000170C7E0687E002841D1012E04D0022E23
:10F2800016D0032E28D03AE00020E67C1318C033B5
:10F2900059781B78994206D28E4204D99E4202D2F6
:10F2A000697E491C6976401CC0B20428EED326E072
:10F2B0000020267D1318C033D9799B79994206D254
:10F2C0008E4204D99E4202D2697E491C6976401C56
:10F2D000C0B20528EED312E00020667D1318C033BB
:10F2E000597B1B7B994206D28E4204D99E4202D2A0
:10F2F000697E491C6976401CC0B20528EED3687E41
:10F30000401CC0B268760C287CD18848018D01234E
:10F31000DB03194301858448483801680C310160DA
:10F320000146243108680C300860814E716800295C
:10F330000ED07E4B1F8D3F070AD4884208D3188D0C
:10F340000821084318857B48402301781943017040
:10F35000744F3C203871108981070DD5308A0C21FB
:10F36000484351680918516006F08AFA716A06F03C
:10F37000F3FA06F041FA26E041070DD5708A0C2118
:10F38000484351680918516006F07AFAB16A06F0EC
:10F39000E3FA06F031FA16E0C0070AD0708A0C21B1
:10F3A000484306F06DFAB16A06F0D6FA06F024FA80
:10F3B00009E0308A0C21484306F062FA716A06F0CF
:10F3C000CBFA06F019FA584948394A6812184A60C7
:10F3D00024314A6810184860328AFB88D218FA80B3
:10F3E000316800290ED0514A138DDB060AD48842B9
:10F3F00008D3108D1021084310854E4880220178D3
:10F40000114301700020E07713E0207FE17E884205
:10F410000FD2227D82420CD98A4200D2A9E608E0AE
:10F42000A17F607F814204D2627D8A4201D98242FB
:10F43000F4D32078401CC0B22070202800D007E60A
:10F44000FFF784FC00262670607BA17B40184008F3
:10F45000E074E07B217C401840082075607CA17C32
:10F460004018400860750C20A075E0752076E87D96
:10F470002876A87DE875FFF74EFCA875E97D8142E6
:10F480000DD12A7E8A420AD1697DC7221140697551
:10F4900001280CD002280ED0202001436975667324
:10F4A000FF20A073E67320746674A074FEBD08206C
:10F4B00001436975F3E7102001436975EFE71A4DC1
:10F4C000029CA1356355C47F2B1DE154C37F29469F
:10F4D00008315A54C17F491CC177FEBDF0B50021E7
:10F4E0001148114A80300A25067E555F24230222E6
:10F4F000DB430024002E04D0012E0ED0022E20D09B
:10F5000028E0252D02DD0276012123E01A26F643AC
:10F51000B5421FDB012101761CE09D420CDA047626
:10F52000012117E038240020442A0020D02900209F
:10F530000426002068240020252D0BDD0276012101
:10F5400008E09D4202DA0476012103E01B2D01DA76
:10F5500001210176FE4F457E0C26BE5F002D04D0B2
:10F56000012D0ED0022D16D01EE0252E02DD427692
:10F57000012119E01A25ED43AE4215DB0121417648
:10F5800012E09E4202DA447601210DE0252E0BDDC9
:10F590004276012108E09E4202DA4476012103E02E
:10F5A0001B2E01DA01214176E94F857E0E26BE5FD2
:10F5B000002D04D0012D0ED0022D16D01EE0252ED8
:10F5C00002DD8276012119E01A22D243964215DB30
:10F5D0000121817612E09E4202DA847601210DE05B
:10F5E000252E0BDD8276012108E09E4202DA847628
:10F5F000012103E01B2E01DA01218176D44810237A
:10F60000C030C27E002A05D0012900D1C376C27E57
:10F61000521EC276012907D1C17E002904D1CC49EE
:10F620008A8A521C8A82C376F0BD0902014308B25D
:10F6300000110105002903DA0F210903084300B274
:10F64000C117090F0818001170471FB5C048803056
:10F65000417F0177272001210091019002AB3222E6
:10F660000F211020FEF7EAFE6846007AB84C00072A
:10F670001BD5A82006210091019002AB32220F2158
:10F680001020FEF7DBFE6846417A007AFFF7CDFFD7
:10F6900060816846C17A807AFFF7C7FFA08168461B
:10F6A000417B007BFFF7C1FFE081207A000702D594
:10F6B000FFF714FF1FBDFFF7DFFB1FBDF8B5A54C1B
:10F6C000E078401CC0B2E0700A287CD10026E670C9
:10F6D000E088002878D0FF21693148439E4905F031
:10F6E00020FA06F0CDF806F05FF89C4A9C4B05F036
:10F6F00001FF05F0C7FA0127BF07B84248DD994965
:10F70000994F884244DDB84201DC984F40E0984967
:10F71000884201DC974F3BE08121C905964F884222
:10F7200036DD9649884201DC954F31E041210906DA
:10F73000B84201DC0F462BE0924B934A984201DC21
:10F74000174625E0914B924F984221DD914B98420C
:10F7500001DC914F1CE0914B984201DC904F17E087
:10F76000904B984201DC904F12E0884201DC8F4FB1
:10F770000EE08F49884201DA8E4F09E0904201DCA9
:10F780008D4F05E0B84202DC8327FF0500E08B4F78
:10F790008B4D287E06F074F8394606F0DDF806F049
:10F7A00003F8884A884B05F0A5FE05F06BFA05F0D2
:10F7B000FBFF864A864B05F01CFC05F063FA854981
:10F7C00006F0CAF801E01EE01CE006F015F86049FA
:10F7D00048398A6882188A6024318A68801888606B
:10F7E000A96800290ED07C4A138D9B060AD4884252
:10F7F00008D3108D202108431085784801224178D4
:10F8000011434170E680F8BD514938220889904380
:10F81000088100224A828A820846C030827600200F
:10F8200043005B18DA82401CC0B23C28F8D3704712
:10F8300070B5474C08212089084330218843208136
:10F840000120FEF73DFA3C20608200222046C030B5
:10F850008276A282002041000919CA82401CC0B2EF
:10F860003C28F8D33B4808300280428082800A213D
:10F870003748615E2426F643022301258030B142D9
:10F8800001DA027604E0252901DD037600E0057641
:10F890000C21615EB14201DA427604E0252901DDE6
:10F8A000437600E045760E21615EB14201DA827650
:10F8B00070BD252901DD837670BD857670BDF0B5FC
:10F8C000234F387A0007002840DA788A00283DD094
:10F8D000401E80B27882002838D11E4908318888BD
:10F8E000401C888038464838828A521C82820446EE
:10F8F0002434A08A401CA0823C237B823B20421EF1
:10F900005500ED194000ED8AC019C582D0B200281B
:10F91000F5D1BA8A0026FA82BE820D4AC032957E9F
:10F920006D1CEDB295763C2D00D993763B89DD06B2
:10F9300073D59D0673D54D886D1C4D80044D483D93
:10F94000698A491C6982618A491C49E05BE00000C0
:10F95000442A002038240020A08601006E6E4C4FFF
:10F9600058E2E33F00002040000040403333534062
:10F9700000006040333373400000A040000090401E
:10F980009A99C9406666A640000010410000C04038
:10F99000000020416666D640000030410000E04093
:10F9A000000038410000F04000004841000058418C
:10F9B0009A990941000060410000704100009041A7
:10F9C00004260020EC51B81E85EB913FFCA9F1D232
:10F9D0004D62403F00007A44D02900206824002076
:10F9E00061820021947E06E04500ED19AD7D691825
:10F9F000C9B2401CC0B28442F6D8282904D93020AC
:10FA000083433B819676F0BD052901D2282CFAD399
:10FA1000202083433B819676F0BD32E0FFE70D88DE
:10FA20006D1C0D803C4D298A491C2982218A491C64
:10FA30002182947E322C11D3002106E04500ED197D
:10FA4000AD7D6918C9B2401CC0B28442F6D8052900
:10FA50000FD8202003433B8196760AE0002106E080
:10FA60004300DB199B7D5918C9B2401CC0B28442C7
:10FA7000F6D82829D0D9388910218843388196763C
:10FA8000CAE7CD886D1CCD80234DE98A491CE982E7
:10FA9000E18A491CE182917E0A29BDD300214400FC
:10FAA000E419A47D6118C9B2401CC0B20A28F6D37B
:10FAB0000A29B1D2102003433B819676ACE710B5FA
:10FAC00086B00F211020FEF7F1FB0F200124014624
:10FAD000019003AB322200941020FEF7AFFC00BF70
:10FAE000472069460873002003A900910290202353
:10FAF000322201940F211020FEF760FC00BF20206D
:10FB0000019003AB32220F2100941020FEF796FCE7
:10FB100000BF06B010BD0000FC29002010B504464F
:10FB2000FF219131204604F0FCFF002909D0642117
:10FB3000204604F0F6FF002901D0A00701D00020E4
:10FB400010BD012010BD10B586B0ADA106C905924B
:10FB50000491ADA10C688B684A68C968009402934F
:10FB60000192039100220388591E89B2FF2419349F
:10FB700002E0FF39193989B2A142FAD201E01C39F9
:10FB800089B21C29FBD203E0091F89B2521C92B230
:10FB90000429F9D204ACA25C511889B2072901D317
:10FBA000C91F89B282786C46A45C611889B20729A2
:10FBB00001D3C91F89B2C078401884B201E0E41FA4
:10FBC000A4B2072CFBD2032A07D31846FFF7A6FFDF
:10FBD000002802D0E0B206B010BD002C03D0641E95
:10FBE000A0B2C0B2F7E70620FBE710B5044600203C
:10FBF000A071607120710120E0700920A07086481A
:10FC000020802046FFF79FFFE07110BD70B588B0DF
:10FC100005460E461C22814901A8FDF7A7FA680097
:10FC200001A90C5A022D06D13046FFF777FF0028B4
:10FC300001D0641CA4B2E0B208B070BD10B5044697
:10FC40002188A078FFF7E2FF0146E078814202D0E8
:10FC5000401CE0700BE00121E170A078401CC0B2B4
:10FC6000A0700D2803D1A1702088401C2080204660
:10FC7000FFF769FFE07110BD10B58179491CC9B269
:10FC800081713C2931D1002282714179491CC9B26C
:10FC900041713C290BD142710179491CC9B20171F2
:10FCA000182904D10271FFF7C9FFFEF731FA5C4A47
:10FCB0005C491078002808D0401EC0B2107000289F
:10FCC00003D10878202210430870574A1088002872
:10FCD0000BD0401E80B21080002806D18720400142
:10FCE00010800878102210430870FFF7E7FC10BD61
:10FCF00010B50446E078401EC0B2E07000280FD175
:10FD0000A078401EC0B2A070002804D10C20A070C2
:10FD10002088401E20802188A078FFF777FFE070C0
:10FD20002046FFF710FFE07110BD4049887A401C63
:10FD30008872C00701D000BF70473C492039088D48
:10FD4000012210430885704738482038018D02226F
:10FD500011430185704710B534482038018DC9071B
:10FD600033D0018D4908490001852F48801CFFF7D9
:10FD700083FFFFF7A4FD2E4808220178114301708C
:10FD80002C492D4C087800280BD0401EC0B20870BA
:10FD9000002806D12088D10108432080002001F0EE
:10FDA000B8FC20880221C2070140D20F11430CD1B8
:10FDB000C00403D5012001F017F802E0002001F093
:10FDC00013F820881D490840208010BD10B5174841
:10FDD0002038018D8907002910DA018D0222914314
:10FDE0000185FFF732FC16490878002806D0401E2E
:10FDF000C0B20870002801D1FDF7D2FC10BD000090
:10FE000000050301060402000000030306010406C6
:10FE10000205000305000000DE070000085A02008A
:10FE20003C2400206824002048240020F0290020E1
:10FE30006C240020F0240020F2240020FFEF0000BA
:10FE400006240020FE4910208860FE49002008603A
:10FE50007047FD490320FC4A08310860002110600A
:10FE6000101D0160F74802228260C1600122026118
:10FE700092064262F34A072040325061F3488160A3
:10FE8000E0E7F24900208860EE4908600120086040
:10FE9000EB491020C8607047EB480021C160032285
:10FEA00012044261EA48C27852085200C2700171DD
:10FEB000C8E7E7480021C1708171C17141710181BA
:10FEC00041818181C181E7E7DF480021416103224F
:10FED0001204C260DE480123C2781A43C270017165
:10FEE000704730B5DA4B01211879D64D002813D070
:10FEF0001A4651799279012813D0FE2817D0D54C93
:10FF00002418203CA47FEC614C405C71521C904250
:10FF100014D9FE20187130BDA420E8615871197100
:10FF200030BDEA61514059710220187130BDC44A98
:10FF300010209060E961FF20187130BD401C1871DD
:10FF400030BDC3480179FF2902D100218171A3E7A7
:10FF50007047BF490879FF2808D0401C087109790B
:10FF6000B848012906D0FF21C1617047B44A10206A
:10FF70009060F4E7A521C1617047F0B5142900D362
:10FF800014218407A40FB24E70893789C31B9D06C4
:10FF9000AD0E40235D1B4B1C9D4202D80020C04388
:10FFA000F0BD8B069B0EA4012343AA4C2A34235494
:10FFB000401C8006800E7081002007E07389155C6C
:10FFC000E5545B1C9B069B0E7381401C8842F5D355
:10FFD000B07AC01B8106890E4020401A142802D82E
:10FFE0000020C043F0BD0020F0BDF0B5994A1532A5
:10FFF00017789749984B103F103115461E78944C4E
:020000040002F8
:1000000008786D783B0005F099FC0705110B0C157D
:1000100031230B000423184308702570907860701A
:10002000F0BDA570082210430870F0BD01221043F6
:100030000870F0BD032EFCD3521C14210020FFF7E2
:100040009CFF0028F5D0E07802210843E070F0BD65
:10005000032EFCD3521C14210120FFF78EFF002831
:10006000F5D0E17802200143E170F0BD0222104397
:100070000870F0BD00B5764B1979012913D01A46E6
:100080005279022912D0FF2914D042405A71714A84
:1000900015325218203A5077D879801C814201D904
:1000A000FF20187100BDA520587100BD42405A7153
:1000B000D87100BD904201D1FFF797FFFFF7ECFE2A
:1000C00000BD70B5624C8026E389257B5D1B6D0603
:1000D0006D0E761B851CAE4202D80020C04370BD59
:1000E0005C4D461C6A35EE545B1C5B065B0EE954A6
:1000F0005B1C5906490EE181002107E0E389565C4B
:10010000EE545B1C5B065B0EE381491C8142F5D318
:10011000002070BDF0B54E4CA089E689B0421ED0DB
:100120004C4F6A37395C491EC9B2A171401C400668
:10013000400EA081142901D31420A0710020A579BC
:10014000444A6D1C09E0A1897B5C1354491C490693
:10015000490EA181B14202D0401CA842F3D3F0BDA8
:10016000F0B504463A4A11895089814201D10020F4
:10017000F0BD384E2A36705C491C8906890E118103
:1001800083069B0E142B02D91423D421084000218E
:100190000BE01589755D6554157A6D1CAD06AD0EC5
:1001A00015815789BD42E3D0491C9942F1D3F0BD76
:1001B00010B52749032088712649802008702648F9
:1001C0000078487000208870244A10880304002BAF
:1001D00001DA01238B70430403D58B780224234377
:1001E0008B708004800C1080FF20C87010BDF8B5A3
:1001F000174909208871174E82203070184CE07F13
:100200007070184F3868002865D06168002962D086
:100210006422504304F085FC05F032FB124DA842E5
:1002200000DD284605F0E8FAB070000AF070786842
:10023000002852D0216800294FD06422504315E095
:1002400000050050004500400007005000410040FC
:1002500054240020242B002034240020F2240020E9
:1002600004260020202A00200000964304F059FCB8
:1002700005F006FBA84200DD284605F0BDFA307106
:10028000000A7071B868002829D0A168002926D01A
:100290006422504304F045FC05F0F2FAA84200DD68
:1002A000284605F0A9FAB071000AF071F868002834
:1002B00017D0E168002914D06422504304F031FCC7
:1002C00005F0DEFAA84200DD284605F095FA307206
:1002D000000A7072F8BD0020A0E70020CAE70020E5
:1002E000DCE70020EEE7084A0420907107498320EC
:1002F000087050694870030A8B70030CCB70000EB5
:10030000087100205061704754240020242B0020E5
:1003100010B5097811290FD014290DD0152902D054
:1003200021290ED108E0A94904200870A84801221B
:1003300001781143017004E001460422A54804F04D
:100340003BFB002010BD10B5A3A24421FEF7CDF960
:1003500010BD10B51046002803D09FA24C21FEF717
:10036000C4F910BD70B5FF259A498D3500232A4682
:10037000091D9D4803F0AAF99C4C9D4E002802D10E
:10038000A068B0420CD0FF222946974804F0A0FB99
:10039000A66098494022487810434870012070BDFB
:1003A000002070BDF8B5002000908A486946001F03
:1003B0000078087005248C4E355D082D18D26846EB
:1003C000857003F037FD002803D083A27821FEF763
:1003D0008CF930204543A8190830FF22302104F061
:1003E00077FBFF203055834840224178114341700C
:1003F000641C082CE0D3F8BD30B587B001247548E3
:1004000003F010FB002803D073A28E21FEF76DF9D4
:1004100002F0D5FF002803D06FA29221FEF765F904
:10042000754842697549521C02D00969406900E06B
:100430004869012569464D81FF208D30088170484B
:100440000190644901A8091D02F0F8FF002803D0BB
:1004500061A29B21FEF749F9FFF784FF002801D034
:10046000069501E00020069006A803F0A0FB0028F6
:100470001BD0069506A803F09AFB002803D056A2CD
:10048000A921FEF732F9FF220821574804F020FB8A
:100490005548FF21FF228131083004F019FB5549EE
:1004A0004022487810434870002404A806210230F6
:1004B00004F033FB1E2069464882087D2843FD2155
:1004C0000840E32108400C30DF21084069460875E8
:1004D00007204875102088754A4803900D743D48E0
:1004E00003A9001F03F0DBFB002803D03AA2BE21C2
:1004F000FEF7FBF8002C01D0FFF754FF07B030BD2A
:1005000010B50121404A084604F0EEF9002803D056
:1005100031A2CE21FEF7E9F810BD10B52D48132108
:10052000001F408876DF04462046002803D02AA218
:10053000D921FEF7DAF8E0B210BD1CB525492D4AE5
:10054000091F4B88314C1178A34203D14B0601D5CA
:1005500011201CBD4023194311700021009101910D
:100560006A461080400050809180FF209130D080FA
:10057000684602F02CF81CBD10B514480078042819
:100580000FD12348007806280BD11249091F48785B
:10059000420706D404221043487000F00CFC00F01F
:1005A0000EFC10BD0A090A2A02D33732027001E09C
:1005B000303202700907090F0A2902D3373141701E
:1005C00001E03031417000218170704734240020F7
:1005D00064240020742400202E2E5C6D61696E5FFF
:1005E000626C652E63000000102C0020902D00200E
:1005F000160814206C2400200010001000000010C9
:100600005303020011030200B9480200FFFF00007B
:10061000CA24002070B504460D46002D01D00120EB
:1006200000E00020002803D1A14A3321FEF75DF845
:10063000002C01D0012000E00020002803D19C4ABA
:100640003421FEF752F8287820702888FF2109020B
:100650000840000A6070286809020840000CA07079
:100660002868000EE07028792071287A6071288946
:10067000000AA071A868000CE07170BD70B5044656
:100680000D46002D01D0012000E00020002803D1FC
:10069000874A4B21FEF729F8002C01D0012000E009
:1006A0000020002803D1824A4C21FEF71EF828784A
:1006B0002070698820464170090A8170A988C1703C
:1006C000090A0171E8886071000AA07170BDFFB568
:1006D0008FB00E4615461F46002E01D0012000E0C7
:1006E0000020002803D1724A6D21FDF7FEFF002D86
:1006F00001D0012000E00020002803D16C4A6E21C7
:10070000FDF7F3FF1C2107A804F009FA6946087FEA
:100710000221084369460877002408940A940B9440
:100720000C940D94012008A9887669460F980887D3
:10073000019438780871787848718879F9210840EF
:10074000801CF7210840EF2108404008400069461E
:100750008871142102A804F0E2F90EA8029001A801
:10076000039069460D824C828D820696514802AAFA
:1007700007A90088189BA2DF13B0F0BD7FB504461F
:100780000120694688734C4888814A4A03A90120A0
:10079000A0DF00287ED1228825463C35002A09D0DA
:1007A00044482B46801C009044486168FFF78FFF47
:1007B00000287BD12289002A0AD03E482B460A30E5
:1007C00000903E48E168401FFFF781FF00286DD18F
:1007D000228A002A0AD037482B4612300090374828
:1007E0006169001FFFF773FF00285FD1228B002A89
:1007F0000AD030482B461A3000903048E169801EFC
:10080000FFF765FF002851D1228C002A0AD0294821
:100810002B46223000902948616AC01EFFF757FF1F
:10082000002843D1228D002A0AD022482B462A30A4
:1008300000902248E16A401EFFF749FF002835D1A9
:10084000216B00290ED001A8FFF7E4FE19482B46C2
:10085000323000901948082201A9801FFFF737FFA6
:10086000002823D1606B00280BD012492B463A3167
:100870000091027901681148401CFFF728FF002809
:1008800014D1A16B002910D001A8FFF7F7FE094889
:10089000423000E00AE0009008482B46072201A9F8
:1008A0002730FFF714FF002800D1002004B070BDEE
:1008B000245A0200802400200A180000292A00007F
:1008C000FD4907200870704738B5022069468870D6
:1008D000FA480880F84C6A460121608890DF0028B9
:1008E00002D0FFF7EDFF38BD0320207038BD38B5CA
:1008F0000020F149F24A0831CB88EF4C934207D1EE
:1009000088886946401C08804880608893DF0BE037
:10091000E9491831CB88934206D188886946401C42
:1009200008804880608893DF002802D0FFF7C8FF66
:1009300038BD0520207038BD70B5E2498978DE4D9C
:100940008088688008291AD230204143DE48082276
:100950000C1821460831A81804F02EF82146284624
:1009600010310822103004F027F8214628461831AB
:100970000822183004F020F80120287070BDFFF71D
:10098000A3FF70BD30B4CC4C0146608892DF0028D4
:1009900001D030BC94E70420207030BC704708B50B
:1009A000C18800290ED1818900290BD0C24A418A11
:1009B0009180808AD0806A46118050806846FFF717
:1009C000E1FF08BDFFF77CFF08BD38B5C1880A46C6
:1009D000FF3A0B3A01D0093214D1B7480830808869
:1009E00000280CD0B44810308088002807D0B248C6
:1009F00018308088002802D0FFF779FF38BDFFF754
:100A00005FFF38BD002902D0FFF75AFF38BD002232
:100A1000002321E00A2159430A180E3200211488CC
:100A2000AA4DAC4202D1A44908310AE0A84DAC421B
:100A300002D1A149103104E0A64DAC4201D19E493A
:100A40001831002907D00C8054884C8014898C8080
:100A50000024E443CC805B1C81899942DAD8964813
:100A6000002A09D011896A46491C1180C08850802B
:100A70006846FFF787FF38BD81886A461180C088C5
:100A800050806846FFF77EFF38BD10B5C1880A4622
:100A9000FF3A0B3A03D0093201D0002902D0FFF708
:100AA0000FFF10BD844B818908331A46103200298C
:100AB0000FD00E304188884CA1420AD100889C8812
:100AC000411E8C4201D1D88003E094888C4200D131
:100AD000D080D9887A48814202D0D188814202D11F
:100AE000FFF705FF10BD7449062008707B49487860
:100AF000C209F7D1802210434870724803F0F4F81D
:100B00000028EFD0FF2176A23E31FDF7EEFD10BDAB
:100B100070B50C30684A01880832928891422BD116
:100B20008188022928D38179002925D1067A724A41
:100B3000724C11780225330004F000FF0711050BF9
:100B40001E101E121E000123194311700321217073
:100B50000BE0294311700421217006E000BF00BFA3
:100B6000082319431170092121706549407A0870E2
:100B7000644841782943417070BD38B50221009125
:100B80004D4A0021117000282AD069465E4863DF73
:100B9000002804D0FF2152A2FF31FDF7A6FD6C46CC
:100BA0005948611C103063DF002803D04CA257491C
:100BB000FDF79BFD5448A11C203063DF002804D0C2
:100BC000812147A28900FDF790FD4F48E11C30309C
:100BD00063DF002804D04D4941A2891DFDF785FD42
:100BE00035480821083003F098FF334808211030B9
:100BF00003F093FF30480821183003F08EFF2E4990
:100C00002F481031C8800839C8801031C880404949
:100C1000FB2208781040087038BDC188284A9142EC
:100C200008D000882949884202D02A49884201D147
:100C3000012070470020704710B50188214A937841
:100C4000112909D01C4C2278130004F077FE0763A9
:100C5000687D80858A8F3400082B29D21648083099
:100C6000FFF7DBFF002823D013481830FFF7D5FF2C
:100C700000281DD03020434313480F491C1820463C
:100C800008300822083103F097FE0B492046103047
:100C90000822103103F090FE074920461830082240
:100CA000183103F089FE0D4840224178114341700C
:100CB0000020FFF762FF10BDCA24002031F40000BD
:100CC000FFFF000074240020102C00200D120000F3
:100CD000F3D80000E9C60000022900006C240020BF
:100CE0002E2E5C736572766963655C626C655F610C
:100CF0006E63732E630000006824002035240020FA
:100D000036240020642400206C5A020001020000F6
:100D1000712400201029CED1FFF70EFECBE7172952
:100D200001D01429C7D12F48FFF777FF002808D03A
:100D30002C481030FFF771FF002802D006202070E9
:100D4000B9E7FFF7C1FDB6E7FFF7BEFDB3E730290E
:100D5000B1D1FFF724FEAEE73229ACD1FFF735FE63
:100D6000A9E73329A7D1FFF790FEA4E73829A2D13C
:100D7000FFF7CEFE9FE700B585B01A4A083A127811
:100D8000062A02D0082005B000BD01230022002958
:100D900002D069460B7001E069460A7069464A70E4
:100DA000C880022048810A810B716846039001A81F
:100DB00001F06AF8E7E70B480121C088DBE7094842
:100DC0001030C0880121D6E71FB56B465880DA8005
:100DD00000209880012018700291684601F054F8B4
:100DE00004B068E7D224002070B506461421FE48FE
:100DF00003F095FEFD4801250570FB4900240C70A9
:100E00004C600C72002E02D02820088201E0F848C5
:100E100008821E204882F44873DF002804D0F44979
:100E2000F4A23431FDF761FCF848C1882943C18040
:100E3000047070BDF5481E211C30018081780122AC
:100E40001143FD221140E32211400C31DF221140F9
:100E500081700721C17010210171704710B5FF2109
:100E6000E4A2D131FDF741FC10BD10B500680028A7
:100E700003D0012800D100BF10BDE5483B21008808
:100E800076DF002804D0FF21DAA2C031FDF72DFC67
:100E9000DE48E04AC1881140C18000210170017123
:100EA00010BD00B587B01C21684603F038FE002055
:100EB00000900521C90301910F210904029103212A
:100EC0006A461173C84914314989D1811074D248D6
:100ED0000590D2480690684601F0BCFA002804D07C
:100EE000FF21C4A2AD31FDF700FC07B000BD00B585
:100EF000A1B006200290CA480168019140680090A4
:100F00003C2112A803F00BFE3C2103A803F007FECE
:100F100002201290002010A948730120088202A923
:100F2000159110A9888501A91C9169460885684614
:100F30000B9003A912A801F00DFA002803D0ADA26E
:100F40008D21FDF7D2FB21B000BDF0B58FB0044676
:100F50000F460025079501200007000F1030694655
:100F6000087701200007000F10304877887FF926A6
:100F70003040801C88771C2108A803F0D0FD08A908
:100F80000878042108431021084308A90870A5A087
:100F900009900D2069460885488507A80D90062010
:100FA0008871A4488880009588783040801C002192
:100FB0000A07120F69460A7001210A07120F103240
:100FC00069464A70400840008870142102A803F066
:100FD000A6FD01A802906846039014206946088285
:100FE0008882103706972346A088163302AA08A9DC
:100FF000A2DF0FB0F0BD30B58FB005461C2108A8A8
:1010000003F08DFD08A908780421084308A9087099
:1010100089A00990072069460885488506208872BE
:101020008448801E0881002401948879F9210840B1
:10103000801C6946097900210A07120F69460A7166
:10104000497901210A07120F103269464A71400896
:1010500040008871142103A803F061FD02A80390E9
:1010600001A80490142069468882CC8208830794E2
:101070002B46A8880E3303AA08A9A2DF0FB030BD03
:10108000F0B58FB004460E460027079701200007F1
:10109000000F10306946087701200007000F10305C
:1010A0004877887FF9252840801C88771C2108A86C
:1010B00003F035FD08A908781021084308A9087035
:1010C0005FA00990072069460885488507A80D900C
:1010D000062088715748401E8880009788782840ED
:1010E000801C00210A07120F69460A7000210A07B6
:1010F000120F69464A70400840008870142102A807
:1011000003F00DFD01A80290684603901420694683
:101110000882888210360696A088A31D02AA08A914
:10112000A2DF66E730B585B004460D46286820602A
:101130000020C043E083294620461422103120308D
:10114000FCF714F80620694688743A48C01E0882E5
:10115000334B08330FCB03936B4607C304A902310B
:10116000684663DF002817D1221D04A90120A0DFF3
:10117000002811D129462046FFF782FF00280BD115
:1011800029462046FFF737FF002805D1294620468B
:10119000FFF7DBFE0028FFD105B030BD00B589B0F8
:1011A0002421684603F0BBFC0020009001200007CA
:1011B000000F10306946087201200007000F103040
:1011C000487201200007000F10300873002000074C
:1011D000000FC87201200007000F10304873012073
:1011E0000007000F10302FE09C2D00203424002039
:1011F000320300002E2E5C736572766963655C6253
:101200006C655F696D617A652E630000EC240020D7
:1012100072240020141A00006B0E02005D0E020002
:10122000AC5A02004E65766F204669726D77617226
:1012300065000000233000004E65766F2052780074
:101240004E65766F205478008873FC48FFF76AFF7C
:10125000002803D0FA4ADB21FDF747FA09B000BDA8
:1012600000B591B0402101A803F059FCF5A101A8F7
:1012700001F0AFF8F5A105A801F0ABF8F5A109A8B8
:1012800001F0A7F8F4A10BA801F0A3F801200007D2
:10129000000F103010A9087000200007000F4870E0
:1012A00001A8FFF76BFA002803D0E54AC521FDF736
:1012B0001CFA11B000BD0EB501200007000F103060
:1012C00000900422E5A168467CDF002803D0DC4AB8
:1012D0004D21FDF70AFAC12078DF002803D0D84A53
:1012E0005121FDF702FA00200190029020216A4668
:1012F00091804021D1801081FF209130508101A840
:101300007ADF002803D0CE4A5C21FDF7EEF90EBD4E
:1013100010B50020FFF770F800F020FD0120FFF766
:101320002CFCFFF7C8FFFFF79BFFFFF737FF0620F6
:10133000FFF7DDFDFFF7B5FDFFF77CFD0120FFF7AF
:1013400053FD10BD70B504460020C64D295CA14276
:1013500008D1072809D207210A1A2818411C03F0CE
:101360008FFB02E0401C0828F0D30722BD49681C0F
:1013700003F086FB2C70BC4940224878104348702B
:1013800070BDF8B502460025B84C10880027E188EA
:1013900015287ED00ADCB44E012833785FD010289F
:1013A0000BD0112821D0122873D148E0192863D01E
:1013B00035285ED037286CD158E0AD48928802803D
:1013C000AC480278032A01D2032202704808400088
:1013D000A9490843E0807820207170784006400ECB
:1013E0007070FB200340337053E0A4488078FF28DE
:1013F00001D0FFF7A7FFA14802F014FB05462846DD
:10140000002803D08E4A9E49FDF76FF9994807706E
:1014100000F0A4FC00219648C9430180E188994866
:101420000140E1803078FB21084027702771FD21C1
:101430000840307070784006400E707029E0D08807
:10144000C82808D0012040020143E180E0888E498D
:101450000840E0801DE08D480140E180F6E7602013
:101460008143E180FD200340337012E000F09BFCDB
:101470000FE000F098FC0CE09079002802D00128E1
:1014800006D006E07F480140E1802770277100E028
:1014900000BF2846002804D09F21694A8900FDF733
:1014A00024F9F8BD10B5714C78202071088B1428F0
:1014B00010D10A461A328421FEF703FE002809D013
:1014C000E088012189030843E08071480122017806
:1014D0001143017010BD10B50A461A32088B14284A
:1014E00016D11078802802D15078F22811D08121AD
:1014F0001420FEF7E6FD00280AD05C480122C188CE
:1015000092031143C18062480122017811430170A6
:1015100010BD554992780878002A03D00422104360
:10152000087010BDFB221040087010BD088B022807
:101530000AD14E4A8B7ED088012B02D1C97E002968
:1015400003D054490840D080704701214903084323
:10155000D0804548FD22017811400170704710B5D8
:10156000088B02280AD1414A8C7E0823D088012C9E
:1015700002D1C97E002902D09843D08010BD184303
:10158000D0803948FD2201781140017010BD891DBD
:101590000A8843899A4200D1E1E7438B9A4200D1FD
:1015A000C4E7C3899A4200D195E7C38A9A4200D121
:1015B00078E770470021C943C18370478988C18398
:1015C00070470A88102A04D0112A03D0502A02D169
:1015D000DDE7F3E7EEE7704710B50446204602F07A
:1015E00067FE21461548FFF7ECFF204600F0E1FFBB
:1015F0002046FFF721FB2046FFF7C3FE10BD10B5C4
:1016000086B00022D243C38B140CA34213D0142201
:10161000059200220192029203920492C3886C46C2
:10162000A3800123A371228105AA03920491C08B98
:1016300001A9A6DF0246104606B010BDB02D00205D
:10164000F4110200446179746F6E00003233343556
:101650003600000030320000303000004E65766FFA
:1016600000000000102C00206C240020EC2400203E
:10167000722400203424002002180000742400206A
:101680003B020000141A0000FFFB0000FFFD0000F9
:1016900064240020FFDF000010B586B00022D24392
:1016A000C38B140CA34213D0142205920022019282
:1016B000029203920492C38A6C46A3800123A37111
:1016C000228105AA03920491C08B01A9A6DF0246DC
:1016D0001046B1E710B5FF481321008876DF0446B5
:1016E0002046002803D0FC4AFC49FCF7FEFFE0B28C
:1016F000A3E71CB50021009101916A4610804000CB
:1017000050809180FF209130D080684600F05FFFCC
:101710001CBD7047F0B587B0F14CA079C006002819
:1017200074DAF0490A46D7784878927801289446C6
:101730001BD002282AD0214609784A1C4B00CB181E
:10174000D2B203282ED025462D786E00AD19E54E75
:101750003C36AD1904282DD0052836D006283FD0B8
:10176000072840D0082846D04CE0DF483A026244BF
:1017700002800A7982704A79C2708A790271CA79C4
:101780004271097A8171FEF7DEF93BE02022891C63
:10179000D64803F011F9D6480122016852021143DC
:1017A00001602FE01E292DD2CE4983203C31C85440
:1017B000227027E01E2925D2CA4884213C30C1541A
:1017C00060466870AF7022701CE01E291AD2C548AE
:1017D00085213C30C15460466870AF70227011E0C2
:1017E000FCF77AFC0EE01E290CD2BE4987203C3162
:1017F000C854227006E01E2904D2BA4988203C3120
:10180000C8542270E08810218843E080B448002644
:10181000C088C10500297DDAB14DEC8820077AD552
:10182000600579D4A00677D4AE481421283003F09F
:1018300076F928464178AB4D8339AE48FF272835E5
:101840000B0004F07BF806047DF0691C4969A44A8A
:10185000D168002902D0012908D00FE22E7083211F
:1018600069700088A870000AE87007E22F70832072
:101870006870A148044040200443D480FEE19849A8
:10188000C868002802D001281DD0F7E12E708720FB
:1018900068709A490868A870020AEA70020C2A71F6
:1018A000000E68714868A871020AEA71020C2A7277
:1018B000000E68728868A872010AE972010C297327
:1018C000000E6873DAE12F70872068708A48044040
:1018D00040200443CC80D1E1814AD168002902D064
:1018E000012925D02CE02E7088216970844A116866
:1018F000A9700B0AEB700B0C2B71090E6971516802
:10190000A9710B0AEB710B0C2B72090E69729168AD
:10191000A97202E0C9E1C3E1C0E10B0AEB720B0C52
:101920002B73090E6973117EA973517EE97307E069
:101930002F708821697070490C4040210C43D4807D
:10194000674C00882189814250D26E48008D400743
:1019500003D56D496020087001E0FBF705FFE068E2
:10196000002802D001282DD088E130462E70842135
:1019700069702189A9700A0AEA702061FCF72FF9C1
:10198000206100031A300D2201A9FBF7B7FE68465B
:1019900000797D26360180192871000A687101AC32
:1019A0000522611CA81D03F007F86846807A80199B
:1019B000E872000A28734B480622E11D353002F018
:1019C000FBFF5BE12F70842068702089A870000AFB
:1019D000E870206904220003291DFBF78FFEE088D0
:1019E0004549084040210843E08047E1E06800287D
:1019F00002D0012809D041E12E7084206870A970BE
:101A0000080AE8702F716F7138E12F7084206870B8
:101A1000A970080AE870E088374908404021084367
:101A2000E0802BE1FFE72E490088098981426DD2D1
:101A30003448008D400703D533496020087001E029
:101A4000FBF792FE264AD0682870852169701189BB
:101A5000A9700B0AEB709279120617D5204E307ED2
:101A6000C4B2002C03D13069FCF7B9F83061306999
:101A70002101000340181022291DFBF73FFEB06929
:101A8000401CB061716988425DD0F7E0144C0028B9
:101A90000FD0012842D0022848D0C01E80B20521B4
:101AA00003F03FF80B0003F049FF055761839EB92F
:101AB000E90026613046FCF792F82061000310220D
:101AC000291DFBF71BFE2879697909020818A979F5
:101AD00009041CE072240020F41102003503000008
:101AE000EC240020E42D00204A24002004260020BD
:101AF0001424002012240020FFFE0000FC290020F6
:101B0000202A0020D02900200624002098E0081870
:101B1000E979090608186061A661AFE02069102222
:101B200000031030291DFBF7E9FDA7E02069102212
:101B300000032030291DFBF7E1FDA87AA070E670B4
:101B40006169084307D12F708049814AC8881040D5
:101B500040221043C88091E02069E17800034901E8
:101B600040181022291DFBF7C9FD87E02069E178A4
:101B700000034901401810300422291DFBF7BEFD67
:101B8000E078401CC0B2E070A178884207D160695B
:101B90000028D8D0E08880210843E0806EE02169E9
:101BA0004001090308180C226A49FBF7A7FD65E00C
:101BB0002069E1780003490140180C300822291DF2
:101BC000FBF79CFDE078401CC0B2E070A178884231
:101BD000DDD021694001090308185E490822091D6A
:101BE000FBF78CFD4AE02069E178000349014018C9
:101BF00008300C22291DFBF781FDE078401CC0B2A3
:101C0000E070A1788842C2D0216940010903081818
:101C1000504904220831FBF771FD2FE02069E1787B
:101C2000000349014018001D1022291DFBF766FD25
:101C3000E078401CC0B2E070A1788842A7D01DE0D7
:101C4000424AD068002802D001280BD016E02E703E
:101C500085206870A970080AE8702F716F71AF71E4
:101C6000EF710BE02F7085206870A970080AE8708A
:101C700037488030044040200443D4803549083937
:101C800008465C38FFF7BBFC002807D12F49C8681D
:101C9000401CC860FF2801D10120C86007B0F0BD1A
:101CA0002E702D480440EC80F8E7284A11788C46C5
:101CB00000293FD04106F1D4264B0C3319785170DE
:101CC000069159789C78090209191181D660002182
:101CD0004C1C6200A5184A005F5D8A189F54E918E1
:101CE0004D78D218557089789170A1B21D29EFD323
:101CF00016496246521E0A70FF22013210438022AA
:101D00009043C880069A852A0AD0820500D483E5CC
:101D1000012292021043C8800020FFF7FAFC7BE505
:101D20008205F4D4012292021043C8800120FFF7FB
:101D3000F0FC71E54105B1D48105AFD501218902DF
:101D40000843D0800020FFF7E4FCA7E7EC24002044
:101D50007FFE0000142E00201FFA000010B5FF21A6
:101D600001315A4802F0D9FE5948002101704170F2
:101D700010BD30B5564B5A781C78121BD2B28A422D
:101D800002D20020C04330BD0022504D07E01C7835
:101D90002C5D0470401C1C78641C1C70521C8A4210
:101DA000F5D3002030BD70B58CB0494D68782C78E3
:101DB000001BC0B2002824D0012105A8FFF7D9FFDD
:101DC0006846007D434E002806D0102101A8FFF789
:101DD000D0FF002813D10BE002210BA8FFF7C9FFA9
:101DE00000280CD16846818D0022308895DF12E0F2
:101DF0006846017D06A8FFF7BCFF002803D0FFF767
:101E0000ADFF0CB070BD6946087D488106A80390FF
:101E100001A9308897DF0028F3D02C70F1E770B566
:101E20002B4E72783378D21AD2B2FF239A1A8A4292
:101E300002D20020C04370BD0022244C06E0057889
:101E40007378401CE5545B1C7370521C8A42F6D3B5
:101E5000002070BD31B582B01D4D2C78002001905E
:101E6000012101A8FFF7DBFF002805D1022102A80C
:101E7000FFF7D5FF002803D02C700020C0433EBDE3
:101E8000FFF791FF00203EBDF8B50446104E75786F
:101E9000A079009001216846FFF7C1FF00280CD10E
:101EA00010212046FFF7BBFF002806D169460978BC
:101EB000A068FFF7B4FF002803D075700020C0436E
:101EC000F8BDFFF770FF0020F8BD00007A2E00205B
:101ED0000E25002072240020F8B505460E46174650
:101EE0003C78A01C1F2803D82879801C1F2801D902
:101EF0000C20F8BD1D20001B80B2864600903019D2
:101F0000801C69467DDF0028F3D12868022805D1AE
:101F100068460088704501D8092107E00821287922
:101F2000002801D0704501D968460088431C621C16
:101F3000D2B23355B1543978801C0818387000205B
:101F4000F8BD38B505460C462078001D1F2801D97C
:101F50000C2038BD684679DF0028FAD120780322AA
:101F6000411C21702A5420781922411C21702A54C6
:101F7000207841196846008800F01CFA2178401842
:101F80002070002038BD70B505461C4668680028E2
:101F900007D020782B88C618B61C1F2E03D90C201A
:101FA00070BD072070BD5B1C461C26701354207842
:101FB000431C23701154237828889B180246184626
:101FC000696802F0F9FC2078297840182070002018
:101FD00070BD30B51378DC1C1F2C01D90C2030BD2E
:101FE00002255C1C1470CD5413780A255C1C1470F7
:101FF000CD5413785C1C1470C854002030BDFFB55C
:1020000083B00C9C86461F4600262078029000254F
:1020100036E070464068A900401801886A46118081
:1020200040885080002201A9684665DF00280FD152
:10203000684602790598824221D1002E01D0002104
:1020400000E002212078511841181F2902D90C20E4
:1020500007B0F0BD002E06D1401CC0B2421C04994E
:10206000227039540126207801A9C219684665DF1B
:102070000028EDD1694620780979401820706D1C40
:1020800070460088A842C4DC002E05D02178029852
:10209000081A0299401E78540020D9E7F8B5069C2A
:1020A000064615461F463B46022230460094FFF77F
:1020B000A6FF002808D13B4610222946304600944E
:1020C000FFF79DFF0028FFD1F8BD0188062906D340
:1020D0001923DB01BA4A994203D9914201D0072062
:1020E00070474088062803D3984203D9904201D014
:1020F00007207047914205D0904203D0814201D918
:10210000072070470020704770B506460D461446FC
:102110002078801D1F2801D90C2070BD3046FFF7A4
:10212000D4FF0028F9D120780522411C21702A54BF
:1021300020781222411C21702A54207841193088BD
:1021400000F038F921784018C0B220704119708829
:1021500000F030F9217840182070002070BD70B573
:1021600005460E4614462879801CC0B22178821C90
:102170008A181F2A01D90C2070BD401C4A1C2270ED
:1021800070542078FF22411C21703254207881192C
:10219000288800F00FF921784018C0B22070AA8872
:1021A000002A09D0A968002908D0801902F004FC8F
:1021B0002078297940182070002070BD072070BD5C
:1021C000F7B582B00F4614460298406B002804D041
:1021D00000260298203001902AE0072005B0F0BDCB
:1021E0000298416B0C2070430D1829792078C91C86
:1021F000421C2270395420781621421C2270395416
:102200002078C119288800F0D5F821784018C0B28C
:102210002070AA88002A09D0A96800290ED0C01908
:1022200002F0CAFB2078297940182070761CF6B29B
:102230000198007EB042D3D80020CFE70720CDE739
:10224000F8B504460E461546002000212970216885
:10225000002906D02A4631462046FFF73DFE0028D9
:1022600063D16179002905D029463046FFF769FE20
:1022700000285AD12189002908D020462B46324611
:1022800001210830FFF77FFE00284ED12169002987
:1022900007D0002008562A463146FFF79AFE00284C
:1022A00043D1A18A002909D02046334606220221C3
:1022B00014300095FFF7F2FE002836D1A18B0029DB
:1022C00009D020463346072203211C300095FFF732
:1022D000E5FE002829D1A18C002909D020463346EB
:1022E0001522142124300095FFF7D8FE00281CD1B8
:1022F000E36A002B06D02A4631461846FFF704FF52
:10230000002812D1236B002B06D02A4631461846EE
:10231000FFF725FF002808D13821095D002904D0E6
:102320002A4631462046FFF74BFFF8BD01890029B8
:1023300005D0C068002802D00078400701D40720EB
:102340007047002070470089002801D0072070479F
:102350000020704730B593B005460C46002012901F
:102360001190002D0DD02846FFF7E0FF00281FD167
:1023700012AA09A92846FFF763FF002818D109AD62
:1023800000E00025002C0DD02046FFF7DCFF0028E0
:102390000ED111AA01A92046FFF752FF002807D14C
:1023A00001AA00E0002210A80379017A284672DF12
:1023B00013B030BD0870000A48700220704700005A
:1023C000FFFF00000A7802704A7802214270084636
:1023D000704770B504460D46284602F0CBFA2080BF
:1023E000656070BD8C4940880A88904204D3498852
:1023F000884201D8012070470020704738B5864ACE
:102400008649083A508888420FD05178491CC9B291
:102410005170834C237B8B4208D37F4975DF0028A2
:1024200003D0A169002900D0884738BD0025557028
:10243000217C002907D03B2176DF002803D0A16949
:10244000002900D0884761690029EED000956846D0
:10245000884738BD70B506461C2231467048FAF7E9
:1024600085FE6D4C0025083C25703168002908D098
:102470000822A01802F0A0FA67487ADF00280ED1DF
:1024800003E065487BDF002809D10020C04360805D
:1024900065706148634A0021001F00F0B4FC70BD04
:1024A00010B55D480838406800F027FD10BDF8B54C
:1024B00059480830FFF796FF574D0026083D584C05
:1024C000002808D06169002903D0012000906846E7
:1024D00088472E70F8BD2878002806D06169002949
:1024E000F7D0009668468847F3E7687800280BD055
:1024F000A1680022686800F0D7FC0028E9D0A16933
:102500000029E6D08847E4E76168F2E710B5424C5D
:102510008188083C61800146204608220E31103037
:1025200002F04AFA002060703D48C089002801D1BD
:10253000FFF7BDFF10BD10B500213748C94308386B
:10254000418000214170406800F0D7FC002804D091
:1025500033498969002900D0884710BD10B5801D16
:102560002F4C0188E28991420CD1018B022909D1BB
:10257000817EC07E00020143C807C00F002802D040
:10258000FFF795FF10BD24480838406800F0B5FCFF
:102590000028F7D0A1690029F4D0884710BD10B5F4
:1025A000811D1D480822083002F006FAFFF77FFF60
:1025B00010BD0188102906D0112905D0122904D098
:1025C000502903D1CAE7A1E7B5E7E8E77047F8B5B6
:1025D00001460822104802F0EFF90F487ADF05465D
:1025E000002D0DD10C480830FFF7FCFE0126002815
:1025F00008D00B484169002902D0009668468847F8
:102600002846F8BD044C083C26700349608875DFF5
:1026100005466670F4E7000018250020FFFF000063
:102620007C2F0020FD23020010B508461146FCF760
:10263000A4F810BDF8B5524F3878002852D0786908
:1026400000280BD00025F868002809D0002438693C
:10265000002807D00026002D06D015E00125F2E75E
:102660000124F4E70126F6E7684651DF052806D085
:10267000002806D0434A6921FCF737F804E0012519
:1026800002E0796900988847002C12D17888009080
:102690006946B86861DF052806D0002806D0394AA7
:1026A0008021FCF722F804E0012402E0F968B86810
:1026B0008847002E11D1B868821C411CC1DF052853
:1026C00006D0002806D02F4A9821FCF70EF804E027
:1026D000012602E03969B8688847002DBBD0204642
:1026E0003042B8D0F8BD10B5002911D08C0711D0F8
:1026F0000024002C10D0224CA1606280636022492B
:1027000010DF002803D101202070162026DF10BD25
:10271000072010BD0124ECE7072010BD11DF0028C1
:1027200001D0012100E00021154A117070470028F6
:1027300003D01349C860002070470E20704700285E
:1027400003D00F490861002070470E207047002811
:1027500003D00B494861002070470E20704710B528
:1027600007484068002808D08047002804D0FF218F
:10277000044A3331FBF7B9FF10BDFFF75BFF10BD13
:1027800028250020C45A0200292602008307FF22C0
:10279000DB0E9A408907090E994000280BDA0007E2
:1027A000000F08388308F8489B001818C369934342
:1027B0000B43C36170478308F4489B0018180368F3
:1027C00093430B4303607047F14988600321112054
:1027D000DCE710B50120EF4900044860ED494039BD
:1027E00048600124EC4940000860EC490860EC486E
:1027F00004602F20FAF7AAFCEA48047110BD70B5F6
:102800000125E649680480310860E249401088608B
:10281000E04940398860E24C65602F20FAF796FC69
:10282000A560E04C002565612F20FAF78FFC25712B
:1028300070BDF0B5DB4F2821BB684143CD18396925
:102840004A1C0BD028244C43E618AA68B468A2425C
:1028500006D8A21AB26069623861F0BD3861F0BD75
:102860000E4602E0121B0E46796A4C1C05D0282445
:102870004C43E718BC689442F4D34C1C05D0282480
:102880004C43E418A768BF1AA760AA6069622821B0
:102890004E43F1184862F0BD70B5C24E35692A4604
:1028A00014463146896806E0844206D0254628232E
:1028B0005C4363185C6A631CF6D1601C1CD0A542A3
:1028C00008D1282042435018406A3061401C01D191
:1028D000FFF795FF28204443B06821188A68282311
:1028E0005D43496A2B1859624B1C05D02823594374
:1028F000081881688918816070BD0120A6494004CC
:102900008039086070470120A349000580390860BC
:10291000704710B5A349C2698B69006A002B0AD0C1
:10292000014610469847002804D0FF219EA264313A
:10293000FBF7DBFE10BD904710BDF8B5994F3C6921
:10294000601C27D00026924840687969401A050229
:102950002D0A0BE028204443B86820188168A9425A
:1029600006D86D1A8E19446AFFF7D3FF601CF1D1A7
:10297000B978F878814206D1401CC0B2F8700228BC
:1029800001D10020F870F878864980001C310E5083
:10299000FFF7B9FFF8BD10B5824A00239178D478CB
:1029A000A14212D0491CC9B29170022900D1937082
:1029B00091787C4B89001C33595801605069081884
:1029C0000002000A5061012010BD0360002010BD0C
:1029D000F8B5744801690091467833E07148F10018
:1029E000C0680D182C782AE0182069686043081820
:1029F000641CE4B2A978A14200D100240168022934
:102A000002D003291BD10DE0664A40682821926854
:102A100041438F18397E002911D0FFF73DFF002078
:102A200038760CE05F4F0021BB6805E02822504358
:102A3000C0180176406A38613869421CF6D168785E
:102A4000A042D1D13046761EF6B20028C6D15548F4
:102A500001690098814201D00120F8BD0020F8BD35
:102A6000F0B500241CE02823BE686B439B199E68C8
:102A7000864203D99968081A9860F0BD801B341902
:102A800000269E601E765E6A3E615E69002E07D05B
:102A90000F193F023F0ADF601E6116685E62156013
:102AA000404F3D696B1CDED1F0BDF8B505463D4891
:102AB00001690091467858E03A48F100C2688C18E4
:102AC0004DE0681C07D02846364A282192684143C9
