:020000040001F9
:10D00000183E0020A5D10100BFD10100C1D101000F
:10D010000000000000000000000000000000000010
:10D02000000000000000000000000000C3D101006B
:10D030000000000000000000C5D10100C7D10100C0
:10D04000C9D10100C9D10100C9D10100C9D1010074
:10D0500063E5010000000000CBE40100C9D101003C
:10D06000C9D10100C9D10100C9D10100C9D1010054
:10D07000C9D10100C9D10100C9D10100C9D1010044
:10D08000C9D1010033340200C9D10100C9D1010066
:10D090004D3402006D3F0200114C0200C9D1010065
:10D0A000C9D10100C9D1010000000000000000004A
:10D0B0000000000000000000000000000000000070
:10D0C00000F002F800F032F80CA030C8083824183C
:10D0D0002D18A246671EAB4654465D46AC4201D1B0
:10D0E00000F024F87E460F3E0FCCB64601263342B0
:10D0F00000D0FB1AA246AB4633431847A48E00006B
:10D10000C48E00000023002400250026103A01D31D
:10D1100078C1FBD8520700D330C100D50B607047EF
:10D120001FB5C046C0461FBD10B510BD08F0EBFDD1
:10D130001146FFF7F5FF01F0CEFB08F003FE03B444
:10D14000FFF7F2FF03BC08F007FE0000401E00BF1F
:10D1500000BF00BF00BF00BF00BF00BF00BF00BFD7
:10D1600000BF00BF00BFF1D17047000070B5054699
:10D170000C46164602E00FCC0FC5103E102EFAD218
:10D18000082E02D303CC03C5083E042E07D301CCDE
:10D1900001C5361F03E021782970641C6D1C761EC2
:10D1A000F9D270BD03210C4802680A4302600B48A3
:10D1B00002680A4302600A4880470A480047FEE7BF
:10D1C000FEE7FEE7FEE7FEE7FEE700000648074948
:10D1D000054A074B704700002405004054050040F5
:10D1E0006DD20100C1D0010018340020183E00208B
:10D1F000183400202748018CC9B201290BD1818C39
:10D20000090708D1018D0906090F042903D1808D72
:10D210000006000F01D000207047012070471D4913
:10D22000088CC0B201281DD1888C00071AD1088D46
:10D230000006020F03D18A8D1206120F03D0000FD1
:10D24000012802D005E0012070478A8D1206120FD6
:10D2500002D0032802D005E001207047888D000627
:10D26000000F01D0002070470120704710B5FFF774
:10D27000D6FF002805D0094907484860C813084967
:10D280008861FFF7B7FF002802D0064901208860B7
:10D2900010BD0000C00F00F0DFFF07C00005004018
:10D2A000006C00400006004002466149087D0028ED
:10D2B00008D000200B181B79934204D0401CC0B248
:10D2C0000828F7D3FF20704718B404466946204663
:10D2D000E7DF694608788007800F009002280BD3AB
:10D2E0002046C5DF69462046E7DF684600788107AB
:10D2F000890F00910229F3D218BC704770B5002045
:10D30000FFF7D2FF0546FF2D11D0494C2088400879
:10D310004000208000206074A074E0742846FFF76D
:10D32000D3FFFF2061190871207D401C207570BD5E
:10D3300082B001783F48085C3D49091809790829FD
:10D3400005D110216A461170C0B20821C7DF02B0B2
:10D35000704701783748085C35490818007900287B
:10D3600000D1CBE7704770B483B0044621783148D0
:10D37000095CE0784E2803D04F2801D0502849D1CD
:10D380002B4D68180079002844D1687C00260028BD
:10D3900019D0C8B26B4601AA02A9D4DF6846008939
:10D3A000002810D024494A8B824207D068804883E5
:10D3B0002249012208681203104308606E7428880D
:10D3C000012108432880287B617A884211D1687B3B
:10D3D000A17A88420DD1A87BE17A884209D1287CC4
:10D3E00000280ED0401EC0B22874002809D1EE7368
:10D3F00007E0207BE873F02801D9F020E8731020C3
:10D400002874607A2873A07A6873E07AA8730A2077
:10D41000A874EE7403B070BC70474178012904D041
:10D42000032903D0802902D19DE792E780E7704766
:10D43000A0250020A42500200C2600201824002070
:10D44000FE48002101600121FD4A8905916000210B
:10D45000C9438160C16001617047F84A0023D3610C
:10D46000F8488168012903D000BF81680129FBD1F8
:10D4700083609069C0B27047F04AD061F14881681A
:10D48000012903D000BF81680129FBD100218160FF
:10D4900090697047E948192181601821C1601721FE
:10D4A0000161012109074162E74A06215161012119
:10D4B000E34B8A05DA600160704700B5FFF7EAFFC9
:10D4C0000520FFF7D9FFFFF7C8FF0346FFF7B8FFB6
:10D4D000184600BD00B5FFF7F0FFC007C00F00BD44
:10D4E00070B504460E461546FFF7F4FF002804D039
:10D4F00000BFFFF7EFFF0028FAD1FFF7CBFF0320B3
:10D50000FFF7BAFF2002000EFFF7B6FF2004000E5F
:10D51000FFF7B2FFE0B2FFF7AFFF0024002D05D9FF
:10D52000FFF79BFF3055641CAC42F9D3FFF788FF2F
:10D5300070BD08B504226946C448FFF7D1FF0098C2
:10D5400008BDC34880224169114300224271C27163
:10D55000032282710122120311434161704700B519
:10D56000FFF798FF0620FFF787FFFFF769FFFFF738
:10D57000A4FF8007F4D500BD70B50024FF25F53564
:10D58000FFF7A8FF002805D0012000F0BBFD641CB8
:10D59000AC42F5D370BD10B50403FFF7EDFFFFF704
:10D5A000DEFFFFF777FF2020FFF766FF2002000E67
:10D5B000FFF762FF2004000EFFF75EFFE0B2FFF707
:10D5C0005BFFFFF73DFF10BD70B506460D461446E4
:10D5D000FFF7D2FFFFF7C3FFFFF75CFF0220FFF763
:10D5E0004BFF3002000EFFF747FF3004000EFFF73D
:10D5F00043FFF0B2FFF740FF0023002C05D9E85CA1
:10D60000FFF73AFF5B1CA342F9D3FFF719FF70BD88
:10D6100010B590490C200860012189488905816076
:10D62000C900816049108160C910C1608A48018DBC
:10D63000042211430185864903208870052000F0EB
:10D6400061FD10BD10B584B08348008D40070028EF
:10D6500003DA7F490320887001E0FFF7D9FF00F06B
:10D6600056FB0020FFF797FF082202A90020FFF7D2
:10D6700037FF002002AC215CFF2902D0002004B05B
:10D6800010BD401CC0B20828F5D300202054401C17
:10D69000C0B20828FAD3082202A90020FFF794FF9D
:10D6A000082269460020FFF71BFF00206946225C24
:10D6B0000B5C9A4202D0002004B010BD401CC0B2E6
:10D6C0000828F4D3012004B010BD64480021016093
:10D6D00041608160C160016141618161C16101623C
:10D6E00041628162C162704710B558215C4807F001
:10D6F00010FC5C485A4902880A8082788A70C07897
:10D70000C8705548018D78229143018510BD50495C
:10D710000872FF2248690132104300224A71032235
:10D720008A71CA79521ECA710122120310434861DC
:10D730007047474AD079411CC9B2072802D25072BB
:10D74000D1717047507A062804D0401C5072D171B4
:10D75000507ADCE700205072F9E730B440490A887B
:10D7600002808A788270CA78C2703F4B5A684260E1
:10D770001A6882609A68C260DA6802614A68426127
:10D780008A688261CA68C2610A6902624A69426241
:10D790008A698262CA6982624A6A4263CA6A826329
:10D7A0000A6BC2634A6B02648A6B4264CA6B82640E
:10D7B000096CC1642D4A0146148940310C82548998
:10D7C0004C8294888C82D488CC82147B0C76527BD9
:10D7D0004A7600228A76204A148D2407002C01DA2A
:10D7E00001248C76148DE40603D58C7E02252C430F
:10D7F0008C76148DA40603D58C7E04252C438C7660
:10D80000128D520603D58A7E202422438A769A7F7F
:10D81000CA76DA7F0A77164A13784B7753788B7774
:10D820009378CB77D178603001701179417051795C
:10D8300081709179C17030BC7047000000350040A4
:10D84000000500500031004040350040FCF03F0032
:10D85000042400205C070050E0290020A02A0020BA
:10D86000482A00204E2400200C260020882A002070
:10D870002C26002030B4FE490A463CCA3CC00A4669
:10D8800010323CCA103810303CC04A6A2038096A4D
:10D890004262016230BC7047F0B5A7B0F54EF64D5C
:10D8A00070690327002806D0288D400701D5B7707E
:10D8B00001E0FFF7ADFE706900240106002918DAC7
:10D8C000FFF708FE002812D17179EC480818FFF71D
:10D8D00062FE7079401CC0B27071B771072806D122
:10D8E000706980218843B47109010843706127B0D1
:10D8F000F0BDE34EC10516D5FFF7ECFD0028F6D1CB
:10D90000DC4DDE48297A0818FFF745FE6879401C8F
:10D91000C0B26871AF710128E9D16869B04368612C
:10D92000AC7127B0F0BDD34F410534D5FFF7D2FD20
:10D930000028F6D1D3480579002D00D118256D1E99
:10D94000787AD149000340194618012201A93046CE
:10D95000FFF7C6FD68460079FF2813D10194012224
:10D9600001A93046FFF730FEA801797A09030818AB
:10D97000C649441802A8FFF77DFF282202A92046C5
:10D98000FFF722FE01207969800281437961FFF768
:10D990009CFE27B0F0BD81051BD5FFF79BFD00283D
:10D9A000F7D164210CA807F0B4FA0CA8FFF7D5FE54
:10D9B000787AB7490003401864220CA9FFF704FEE7
:10D9C000012178694902884389000843786127B0BA
:10D9D000F0BD01050CD5FFF7ACFEFFF785FEFFF7A4
:10D9E00074FE01207969C0028143796127B0F0BDDE
:10D9F0003A46C107202700297ED0D1781546002954
:10DA00000DD0FFF767FD00280ED028790028EDD152
:10DA10006869400840006861EC7027B0F0BD4008BC
:10DA20004000686127B0F0BDE87801281CD00228CA
:10DA300021D0C10642D50407240F20029549259024
:10DA40004018FF2201329449FFF74AFD002189481E
:10DA5000924E4289904D6B1858786F5C0002C01945
:10DA600090420ED1304611E08D48FFF794FD102012
:10DA7000E87027B0F0BD8B48FFF78DFDEF7027B041
:10DA8000F0BD904202D9B04200D0401E6854000A56
:10DA90005870891CFF29DED9834A25988018FF22F7
:10DAA00069180132FFF790FD7248C178491CC170B6
:10DAB000082CE4D10221C17027B0F0BD810624D525
:10DAC00005072D0F78482F02381832467249FFF7A4
:10DAD00007FD7048381832466F49FFF775FD6548F5
:10DAE0006449C078401CC870082DE5D108464169DA
:10DAF00049084900C47000E00EE002221143416170
:10DB0000418A491E418227B0F0BD68694008400043
:10DB10006861EC7027B0F0BD1446C1060CD5FFF764
:10DB2000D9FC0028F6D16069102188436061A069A2
:10DB3000FFF731FD27B0F0BD810613D5FFF7CAFC12
:10DB40000028F7D1A0696178000349014018FF302F
:10DB500001306169B943616114225449FFF734FD12
:10DB600027B0F0BD410624D5FFF7B4FC0028F7D15B
:10DB7000A069000361694022914361614D4A4C49AB
:10DB8000134678CB483178C11346103378CB5839D7
:10DB9000583178C1956A546A136A6839D26A0D6738
:10DBA000CC668B664A6730224831FFF70DFD27B0FF
:10DBB000F0BD410710D5FFF78DFC0028F7D1606953
:10DBC000042188436061E069FFF7E5FC6069082192
:10DBD0000843606127B0F0BD010717D5FFF77AFC55
:10DBE0000028F7D1E0690103E0891038C217120F4D
:10DBF000101800110002401832462F49FFF7E4FCCC
:10DC0000616908208143616127B0F0BDC10412D56C
:10DC1000FFF760FC0028F7D1012160690903884300
:10DC200060612648FFF7B7FC01216069490308439A
:10DC3000606127B0F0BD81044ED5FFF74BFC002892
:10DC4000F7D10121606949038843606134221C498E
:10DC50001148FFF78BFA1B481B4901601B481C4900
:10DC6000016032460C491B48FFF7AEFC27B0F0BDFF
:10DC7000A02A002004240020E0290020F603000050
:10DC8000000100004E240020E0603F0000613F00E2
:10DC900000603F0000E03F0080260020FFFF000002
:10DCA000FD030000FE03000000D03F00C02700205D
:10DCB00038260020B825002080270020FF03000020
:10DCC0000C26002078270020785634127C2700206C
:10DCD0002702152000F03F004004C7D5FFF7B2FC33
:10DCE00001280ED0288DF14908402885012160695E
:10DCF000890388436061EE4801783943017027B099
:10DD0000F0BD288D0121890208432885EEE770B512
:10DD1000E84D287DC0070DD000247D26F600FFF7D2
:10DD2000BBFD287DC00705D00A2000F0EBF9641C7C
:10DD3000B442F4D3FFF720FC70BD10B5DE48008D6F
:10DD4000DC4C4007002802DA0320A07001E0FFF756
:10DD50005FFCFFF7DCFFD948FFF71DFC0020608265
:10DD6000D748A0810121606909030843606110BDA3
:10DD7000F0B5D04D6869810700292DDAC0072BD195
:10DD8000FFF7A8FB002827D1686902218843686152
:10DD90000020A881FFF77EFB0320FFF76DFB3F20EB
:10DDA000FFF76AFBE020FFF767FB0020FFF764FB4B
:10DDB0000024C34EFFF751FB0746FFF74EFB00025E
:10DDC000C019C049884202D1A889401CA881641C9E
:10DDD000B442EFD3FFF734FBF0BD70B50646B6484A
:10DDE000008D03254007B34C002801DAA57001E03F
:10DDF000FFF70EFC0121E1706681606908436061F4
:10DE0000257170BDF8B504460E46FFF780FFAE4998
:10DE100060004518FFF73EFB0320FFF72DFB2802AB
:10DE2000000EFFF729FB2804000EFFF725FBE8B2E0
:10DE3000FFF722FBA24FBC420BD2FFF70EFB0546B9
:10DE4000FFF70BFB00024019B04202D0641CBC4239
:10DE5000F3D3FFF7F5FABC4201D39A48F8BD204648
:10DE6000F8BDF8B500269448008D4007002803DA75
:10DE700090490320887001E0FFF7CAFBFFF747FFD6
:10DE8000FFF708FB0320FFF7F7FA3F20FFF7F4FA4C
:10DE9000E020FFF7F1FA0020FFF7EEFA0024894FA7
:10DEA000FFF7DBFA0546FFF7D8FA00024519BD4235
:10DEB00003D06D1CB54200D92E46641C80488442B4
:10DEC000EED3FFF7BDFA3046F8BDF8B5FFF7C9FF4E
:10DED000784D80B26882002815D00024002812D91D
:10DEE000784EA1B20020FFF78DFFB04207D00003AB
:10DEF00004226946FFF7F4FA0098401C04D0641C21
:10DF0000688A8442EDD3F8BDA0B2FFF766FF686966
:10DF1000002806D0FFF7C0FCFFF72AFF6869002839
:10DF2000F8D1688A8442DCD3F8BDF8B56248008D28
:10DF3000604F4007002802DA0320B87001E0FFF7C5
:10DF400067FB0020F871FF20787200245F4E2003E9
:10DF5000801904226946FFF7C3FA0098401C03D0D9
:10DF6000F879401CF87103E0787AFF2800D17C72C0
:10DF7000641C072CEBD3787AFF2805D0F979891C2B
:10DF8000F971FFF7C4FB1EE00025ED4300242003D8
:10DF9000801904226946FFF7A3FA00980104020AD7
:10DFA000FF231B021A400A43000E1043A84201D26D
:10DFB00005467C72641C072CE9D3F879401CF87183
:10DFC000787AFFF7A4FBFFF78FFBFFF77EFBF8BD26
:10DFD00001213F48490581603E4A0321116001212A
:10DFE0008905C160C900C1608910C1604900C16074
:10DFF0003148018D04229143018570473649032041
:10E000000860091D086035490860091F0860DFE7DE
:10E0100010B5FFF7F3FFFFF7FBFAFFF78AFA304975
:10E0200088420ED134222F492F48FFF759FAFFF7C3
:10E030007CFFFFF74AFF1F480222416911434161FB
:10E0400010BD284929480860294848602948886047
:10E050002948C86029480861492088827A20C882F6
:10E060006920088300224A8323208877AF20C8775D
:10E0700023484D2303704270BA2383703C23C3703E
:10E08000822303714B234371FF238371C2710823E1
:10E0900003721E2343728272FE2088838005C86249
:10E0A0000863FFF74AFEFFF74CFA10BDFFFB0000C4
:10E0B0007024002004240020E0290020FE0300003A
:10E0C000F6030000FFFF000000E03F0000603F009B
:10E0D000000500505C0700505407005064070050D2
:10E0E000270215200C26002000F03F0040420F00C0
:10E0F000B80B0000A0860100302A0000581B000069
:10E100002C2600201921C9014843002802D0401EB6
:10E110000028FCD1704770B5FB490420F94A08601B
:10E12000091D0860091D0860091D0860091D0860B7
:10E13000091D0860091D0860F4490860091D086090
:10E14000091D0860091D0860F1490860F14908606F
:10E15000091D0860091D0860EF4903240C600123B4
:10E16000EE4D4021E960EE490C608021E96000211C
:10E170001460AB60131D19601B1D1C60A860181D86
:10E180000160E84B10201C60A860181D0160E64883
:10E1900001605161D16001F0E8FEE4480460001FB5
:10E1A000046001200004A8604010A86000F062FC38
:10E1B00070BD10B4D34B03228400E41822608C009D
:10E1C000E3181A6001231A468240D44882608B40CB
:10E1D0008360C260C36010BC704710B4C94C032296
:10E1E00083001B191A6001231A468240CB48C26083
:10E1F0008B408360826010BC704710B4C14C032216
:10E2000083001B191A60012213468340C3488360B0
:10E210008A408260C26010BC704710B4B94C0322BF
:10E2200083001B191A60012213468340BB48C36058
:10E230008A408260C26010BC704770B40446B14B23
:10E240000C20A200D21810600020002201252B46CD
:10E25000B24E8B404006000EB3603169E140C90701
:10E26000C90F002900D02843F360521CD2B2082AFB
:10E27000F0D370BC7047F0B49C46A24C03238500D9
:10E280002F193B600025012426468640A34B8C4075
:10E29000DE60110600D59E6019469C60CC60510678
:10E2A0000A0E6D1CEDB2082DF2D3614600290DD186
:10E2B0000C2139609C601969C140C807C00F002853
:10E2C00003D0DC60F0BC01207047DC60F0BC0020B3
:10E2D0007047FFB50B9F099E0A9D1C460199009847
:10E2E000FFF767FF0023029A01990098FFF7C3FF29
:10E2F00001281DD00023224601990098FFF7BBFF9B
:10E3000001281CD00024002D0BD9325D3B46019919
:10E310000098FFF7B0FF012818D0641CE4B2AC42AB
:10E32000F3D301990098FFF758FF012004B0F0BD26
:10E3300001990098FFF751FF002004B0F0BD01994A
:10E340000098FFF74AFF002004B0F0BD0199009843
:10E35000FFF743FF002004B0F0BDFFB50A9E099D02
:10E3600014461F4601990098FFF723FF0023224619
:10E3700001990098FFF77FFF012825D0002332463E
:10E3800001990098FFF777FF012824D001990098A0
:10E39000FFF70FFF01200443224600230199009854
:10E3A000FFF769FF01281DD00024002D29D96E1E1A
:10E3B00001990098FFF741FF3855B44219D00199EF
:10E3C0000098FFF72AFF18E001990098FFF705FF72
:10E3D000002004B0F0BD01990098FFF7FEFE002078
:10E3E00004B0F0BD01990098FFF7F7FE002004B0DB
:10E3F000F0BD01990098FFF700FF641CE4B2AC4245
:10E40000D6D301990098FFF7E8FE012004B0F0BDD3
:10E4100008B500200322464B1146009005F017F87E
:10E42000002803D043A2F02100F0F1F808BD10B598
:10E43000444C012100228903206805F0BAF8002825
:10E4400004D0FF213BA2053100F0E1F801210022B8
:10E450008902606805F0ADF8002804D0FF2135A2DC
:10E46000073100F0D4F810BD10B5374A0121354806
:10E4700005F048F8002803D02EA2F82100F0C7F8D4
:10E48000324A0121324805F03DF8002803D029A284
:10E49000FA2100F0BCF8FFF7CAFF10BD10B5294CF7
:10E4A000206805F0AFF8002804D0FF2121A2103128
:10E4B00000F0ADF8606805F0A5F8002804D0FF2151
:10E4C0001CA2123100F0A3F810BD10B52148C16B99
:10E4D000002916D00021C1630A4841698903890FC8
:10E4E0000FD1C0688003800F0BD00C480069C006B4
:10E4F000C00F002805D118480078C0072ED001F0C1
:10E500007AFD10BD0007005020070050440700505E
:10E5100068070050700700501807005000050050B1
:10E520001C070050100700506C07005040070050B7
:10E53000E02700202E2E5C68617264776172652E80
:10E5400063000000302400200BFE010027FE0100C4
:10E5500034240020406100405B24002001F088FD4D
:10E5600010BD10B507488069C0B2074A002191600C
:10E5700006490978C90702D001F072FD10BD01F00B
:10E580000CFE10BD00450040004100405B2400200F
:10E5900010B52C20FE4900240C70491C401E80B28E
:10E5A0000028F9D11620FB490C70491C401E80B28E
:10E5B0000028F9D13420F8490C70491C401E80B263
:10E5C0000028F9D1F34908220A75FF220B181A71A5
:10E5D000401C80B20B7D8342F8D88720EF49400170
:10E5E00008800020EE49C0430880EE4801F089FB16
:10E5F000FFF70EFDEC480480EC4803210177EC495D
:10E600003C20087010BD10B505F0ECF910BD10B439
:10E61000FF20E84AE849E94B5468E40700D0196054
:10E620000028F9D110BC704708B500235022E449F6
:10E63000082006F0B7FA002803D0E2A25A21FFF71B
:10E64000E6FF002000900090684660DF002803D0BD
:10E65000DCA26121FFF7DBFFDD4806F0C1FA0028EC
:10E6600003D0D8A26521FFF7D2FFDA4806F0C0FA3E
:10E67000002803D0D3A26921FFF7C9FFD64806F0CE
:10E68000BFFA002803D0CFA26D21FFF7C0FF08BD5D
:10E6900010B5BF48018D8905002919DA018DCF4ACF
:10E6A00011400185CE480021C16003210904416168
:10E6B00001F054FC0020CB49C0438860CA491020B7
:10E6C0000860FFF7EBFE0A20FFF71CFD34DF10BDEA
:10E6D00040DF0028FBD0BBA28521FFF798FF10BDCB
:10E6E0000A460146C14892E700B583B0C0480A21F6
:10E6F000007806F010FC30306A46107030315170EE
:10E7000002200290BB486B46008802AA0021A4DFC9
:10E71000002803D0ABA2C221FFF779FF03B000BDF0
:10E72000F8B5B5490869C006C00FFD26B34D0028ED
:10E7300053D0B348007800284FD12878C20709D0B9
:10E7400040084000287001F015FE01F047FC01F080
:10E7500022FC42E0820708D53040287001F035FEE7
:10E7600001F03CFC01F017FC37E0A64800680028E7
:10E7700006D001F090FE01F031FC01F00CFC2CE021
:10E78000A148A24A00881288904206D001F056FDA6
:10E7900001F024FC01F0FFFB1FE008698006C00FB8
:10E7A00000281AD19A49087882070BD5994A9A4BC2
:10E7B00012781B78D21A9206920E202A0DD8304079
:10E7C00008700AE040084000087000218448416158
:10E7D00003210904C16001F0DEFB2878010704D59C
:10E7E000F72108402870FFF77FFF287841076CD594
:10E7F000FB21084028708948654C007800280AD021
:10E800008021874F01280ED002282FD0032850D016
:10E81000042851D059E0208D000501D401F060FD9D
:10E8200003F014F951E0208D000609D4208D08432F
:10E830002085012002F022FC38887A49084038807F
:10E84000208DC0050DD578480089010604D500F05B
:10E85000FCF901F07AF838E0000736D401F075F8D9
:10E8600033E000F007F901F070F82EE0208D00068B
:10E8700009D4208D08432085012002F0FFFB388851
:10E88000684908403880208DC0050DD5664800894C
:10E89000010604D500F0D9F901F044F815E00007AD
:10E8A00013D501F03FF810E000F0E4F801F03AF879
:10E8B0000BE000F0C4F908E003F0C8F800F0F4F948
:10E8C000208D01214902084320856878810701D500
:10E8D00030406870F8BD5649544848605549801723
:10E8E0008860C2074A603F49886004204860FFF79B
:10E8F0009BFEFFF78DFD01F01EFFFFF749FEFFF7BE
:10E900000AFCFFF7B1FD02F063FE06202ADF0420B7
:10E910002ADF012106202BDF002804D0FF2129A2B5
:10E920007031FFF774FE012104202BDF002804D092
:10E93000FF2124A27231FFF76AFE062026DF00289D
:10E9400004D0FF211FA27431FFF761FE042026DFEF
:10E95000002804D0FF211BA27631FFF758FE62B6D3
:10E9600001F031FB344C2B4D2B4E244F01F0F0FEC7
:10E970002068002879D128883188884275D1386884
:10E98000002872D12048018820480088814255E043
:10E99000E0290020A02500200C2600204C24002087
:10E9A000762400204E24002042240020902B0020BA
:10E9B00040240020000401403546526E000601400C
:10E9C000902900202E2E5C6D61696E2E6300000080
:10E9D000091A02001BD4010007E60100FFFD000038
:10E9E000000700500043004080E100E0EFBEADDED4
:10E9F0005A240020F624002000050050682400203E
:10EA00005C2400206C240020642400206624002064
:10EA10005B24002062240020602400205824002071
:10EA2000B8240020BFEF0000D02A0020DFFF07C07D
:10EA300000050040006300401824002015D10C4858
:10EA400000698006C00F00280FD0FFF721FEFFF7F6
:10EA500067FE01F0EEF901F043FA03F0E6F8FEF785
:10EA60001BFFFFF785F981E7FFE700BFEFE7000035
:10EA700000050050F0B585B00F211020FFF7ADFB69
:10EA80000F2001250146019004AB32220095102091
:10EA9000FFF763FC472168460174002404AE20237D
:10EAA00032220F211020009601950294FFF711FCED
:10EAB00068460474212332220F211020009601950C
:10EAC0000294FFF706FC68460474222332220F21C9
:10EAD0001020009601950294FFF7FBFB6846047432
:10EAE000232332220F211020009601950294FFF774
:10EAF000F0FB082168460174242332220F211020E4
:10EB0000009601950294FFF7E4FB0227684607741C
:10EB1000252332220F211020009601950294FFF741
:10EB2000D8FB684604742E2332220F211020009651
:10EB300001950294FFF7CDFB68460474302332221E
:10EB40000F211020009601950294FFF7C2FB684642
:10EB5000047432231A460F21102000960195029466
:10EB6000FFF7B7FB68460474332332220F211020CD
:10EB7000009601950294FFF7ACFB684604743823B5
:10EB800032220F211020009601950294FFF7A1FB7D
:10EB90005821684601743A2332220F211020009632
:10EBA00001950294FFF795FB684607743B233222D8
:10EBB0000F211020009601950294FFF78AFB072190
:10EBC000684601743C2332220F21102000960195E3
:10EBD0000294FFF77EFB1421684601743D23322224
:10EBE0000F211020009601950294FFF772FBFA485E
:10EBF000018D2A021143018505B0F0BD10B584B026
:10EC0000172069460873012003A900240091019090
:10EC10002023322202940F211020FFF75AFBEF48E5
:10EC2000C477EF480482EF48006804F0EBFC00284A
:10EC300003D0EDA26021FFF7EAFC04B010BDE84864
:10EC40008022018911430181D8E730B585B0E44DB8
:10EC5000812128898843288147206946087401203A
:10EC600004A90024009101902023322202940F2154
:10EC70001020FFF72EFBD948C4772C82DE4844765B
:10EC8000D548018D4904490C0185D648012100224F
:10EC90008902006804F08DFC002803D0D2A27521FF
:10ECA000FFF7B5FC05B030BD00B585B0CA48018D91
:10ECB000D24A11400185002069460874012104AA46
:10ECC000009201910290202332220F211020FFF7A1
:10ECD00000FB05B000BDCA48417B827B891AC9B2DE
:10ECE000C27B037CD21AD2B2437C807C181AC0B299
:10ECF000914203D3814201D3012070478A4203D35A
:10ED0000824201D30220704703207047F0B583B0E0
:10ED1000B34BB2491F890A8A7B08888A5B00B64ECA
:10ED20000293337F824239D001252D04824203D9D8
:10ED3000101A80B2019003E0281A801880B2019066
:10ED4000CC8A488A844202D9201A80B202E0281A6A
:10ED5000001980B2032B00D160204C828A8206F019
:10ED600006FE04460D46019806F001FE052206F057
:10ED70002DFF22462B4606F0A9FB06F0C3F9984961
:10ED80000860A04A904203DB012007430F8101E0A5
:10ED9000029808810020307703B0F0BD032BFBD030
:10EDA0005B1CD8B230770328F6D18D4902980881D0
:10EDB0000020086003B0F0BD8848018A491C018228
:10EDC000C189C18270478C48407D0107002901DA62
:10EDD00001207047C00601D502207047032070470C
:10EDE000884202D3401A00B27047081A00B2704736
:10EDF000F0B589B0794AD089401CD081784E7E4DDB
:10EE0000308A002817D0401E80B23082002812D1EC
:10EE10007148018D4904490C0185002068767A49C2
:10EE20000C784B783118C0310C708B710B73401C0F
:10EE3000C0B20528F6D3724CE07F412801D2401CB5
:10EE4000E077674B5889803081B29889803080B2F2
:10EE5000DB8980339BB2D67FB446042E7ED3A6785E
:10EE600066700896E778A77007972779E770069786
:10EE7000CFB22771BE46079F089E7146F719069EBE
:10EE800071187E18B108604E3170A67966710596CA
:10EE9000E779A7710497267AE6710396C6B22672BF
:10EEA000B646049F059E7046F719039E30183E181B
:10EEB000B008554E7070A67A66720296E77AA7720D
:10EEC0000197267BE6720096DEB22673B646019F56
:10EED000029E7346F719009EF318FE184A4BB608B7
:10EEE0009E7063460127042B42D0627B464B8A42C8
:10EEF00000D26173E27B824200D2E073627CB24254
:10EF000000D26674A27B8A4200D9A173227C82421D
:10EF100000D92074A07CB04200D9A6740022687D7C
:10EF2000C60777D0AE7C8E427AD240084000687522
:10EF3000A17EA87CFFF754FFA17D884270DBA07EF4
:10EF40006076A87CA0760020254F3918C0314E7815
:10EF50000E70401CC0B20528F7D300E0E8E2381874
:10EF6000A97CC0300170FFF72EFF012850D057E078
:10EF70000523D377002222706273FF23A373E27309
:10EF800023746274A374E274227562750C23A375F2
:10EF9000E37523766176A176E07620776677A677AB
:10EFA000A974E874287508236B75AF75EF752F7613
:10EFB000094B1E8D7604760C1E856A76084DAB18BB
:10EFC000C033197098711873521CD2B2062AF6D346
:10EFD0004120E07709B0F0BDE0290020502B00204F
:10EFE000D02A0020342400202E2E5C73656E736FAF
:10EFF0007233672E63000000902B0020FFFE00009C
:10F00000702B0020000020403C24002002E007E09C
:10F01000012205E0AE7C8E4202D93843687587E74D
:10F02000687D810725D5E97C5E78B14229D2FD2132
:10F0300008406875217FE87CFFF7D2FEE17D8842B9
:10F040001FDB207FE076E87C20770020FE4F391818
:10F05000C031CE798E71401CC0B20528F7D3381864
:10F06000EE7CC0308671FFF7AEFE022809D1022285
:10F0700007E0E97C5E78B14203D902210843687554
:10F08000D8E7687D410725D5297D9E78B14229D2F0
:10F09000FB2108406875A17F287DFFF7A1FE217E36
:10F0A00088421FDBA07F6077287DA0770020E64F95
:10F0B0003918C0314E7B0E73401CC0B20528F7D3FF
:10F0C00038182E7DC0300673FFF77DFE032809D166
:10F0D000032207E0297D9E78B14203D90421084329
:10F0E0006875D8E7D9480178A9744178E9748078BF
:10F0F0002875012A04D0022A78D0032A77D0D0E1DB
:10F10000A07E617E884273D2E37C834270D98B42B9
:10F110006ED2E07F0A3836286BD8CB49402008826F
:10F12000CB48008DCB4E00047ED5CB490868401CEF
:10F130000860CA494868401C4860C34B197AC9072F
:10F1400007D0C64AD168491CD160718A491C7182B6
:10F1500006E0C2498A68521C8A60318A491C3182A1
:10F16000BF49496800290ED0B94A178D3F070AD414
:10F17000884208D3108D082108431085B9484022E1
:10F18000017811430170B1493C200871FFF714FE6A
:10F190001F89B8070DD5B2485968808A0918596087
:10F1A00006F0AEFDAE49C96A06F0FAFD06F064FD50
:10F1B0002AE078070DD5AA485968C08A091859600D
:10F1C00006F09EFDA649096B06F0EAFD06F054FD27
:10F1D0001AE0F8070ED0A248C08A06F091FDA049B7
:10F1E000096B06F0DDFD06F047FD0DE045E14FE15E
:10F1F00057E1A2E09A48808A06F082FD9849C96AE0
:10F2000006F0CEFD06F038FD934A516809185160AA
:10F210003C32516909185161FB0708D0D3691B18AA
:10F22000D3617268121800E01FE0726005E0936914
:10F230001B189361326812183260844AD3881818F8
:10F24000D08087480068002877D0814A138DDB067C
:10F2500073D4814271D3108D1021084310858148E9
:10F26000802201781143017004E1687E002844D1B6
:10F27000012A04D0022A17D0032A2AD03DE0002018
:10F28000E37C71490918C0314A7809788A4206D26C
:10F29000934204D98B4202D2697E491C6976401C94
:10F2A000C0B20428EDD328E00020237D6649091868
:10F2B000C031CA7989798A4206D2934204D98B42F5
:10F2C00002D2697E491C6976401CC0B20528EDD384
:10F2D00013E00020637D5C490918C0314A7B097B3B
:10F2E0008A4206D2934204D98B4202D2697E491CDB
:10F2F0006976401CC0B20528EDD3687E401CC0B2C0
:10F3000068760C2819D15248018D0122D20311438D
:10F310000185514801680C310160504948680C3042
:10F32000486088310F89F90708D04C49CA680C3207
:10F33000CA60718A0C31718207E09BE047498A6894
:10F340000C328A60318A0C31318245494968002982
:10F350000ED03F4A138D1B070AD4884208D3108D64
:10F360000821084310853F4940220878104308705F
:10F3700036493C2008713449B8070FD538480C226B
:10F38000808A50434A6812184A6006F0B9FC344932
:10F39000C96A06F005FD06F06FFC2CE078070FD572
:10F3A0002F480C22C08A50434A6812184A6006F05F
:10F3B000A7FC2B49096B06F0F3FC06F05DFC1AE094
:10F3C000F8070CD026480C21C08A484306F098FC68
:10F3D0002349096B06F0E4FC06F04EFC0BE02048E4
:10F3E0000C21808A484306F08BFC1D49C96A06F04F
:10F3F000D7FC06F041FC184A5168091851603C32AC
:10F40000516909185161FB0706D0D3691B18D361F4
:10F4100072681218726005E093691B189361326874
:10F4200012183260094AD3881818D0800C48006836
:10F4300000281FD0064A138DDB061BD4814219D346
:10F44000108D102108430FE0D02A00203C2400201A
:10F45000E0290020A02A00200C2A0020482A0020B1
:10F460000C2600206C2400201085FE4880220178A4
:10F47000114301700020E07713E0217FE07E81429C
:10F480000FD2237D8B420CD9834200D241E608E0A3
:10F49000A07F617F884204D2637D834201D98B4281
:10F4A000F4D32078401CC0B22070202800D091E511
:10F4B000FFF72CFC00262670607BA17B40184008DB
:10F4C000E074E07B217C401840082075607CA17CC2
:10F4D0004018400860750C20A075E0752076E87D26
:10F4E0002876A87DE875FFF7F6FBA875E97D8142CF
:10F4F0000DD12A7E8A420AD1697DC72211406975E1
:10F5000001280DD002280FD02020014369756673B1
:10F51000FF20A073E67320746674A07409B0F0BD78
:10F52000082001436975F2E7102001436975EEE791
:10F53000CD4D64466155D47FCC496054D17FCC48D1
:10F540000B54D07F401CD07709B0F0BDF0B400213F
:10F55000C848C94B0A22067E9A5E24240223E4434B
:10F560000025002E04D0012E0ED0022E16D01EE053
:10F57000252A02DD0376012119E01A26F643B2425C
:10F5800015DB0121017612E0A24202DA05760121A3
:10F590000DE0252A0BDD0376012108E0A24202DA04
:10F5A0000576012103E01B2A01DA01210176B24F21
:10F5B000427E0C26BE5F002A04D0012A0ED0022A09
:10F5C00016D01EE0252E02DD4376012119E01A2215
:10F5D000D243964215DB0121417612E0A64202DABF
:10F5E000457601210DE0252E0BDD4376012108E053
:10F5F000A64202DA4576012103E01B2E01DA012141
:10F6000041769D4F827E0E26BE5F002A04D0012ADD
:10F610000ED0022A16D01EE0252E02DD83760121AF
:10F6200019E01A22D243964215DB0121817612E0BD
:10F63000A64202DA857601210DE0252E0BDD8376C8
:10F64000012108E0A64202DA8576012103E01B2EA3
:10F6500001DA0121817689481023C27E002A05D073
:10F66000012900D1C376C27E521EC276012907D17C
:10F67000C17E002904D180498A8A521C8A82C376BD
:10F68000F0BC70470902014308B2001101050029CE
:10F6900003DA0F210903084300B2C117090F081844
:10F6A0000011704710B584B07248417F0177272060
:10F6B00001210091019002AB32220F211020FEF7B0
:10F6C0004CFE6846007A6C4C00071BD5A82006212A
:10F6D0000091019002AB32220F211020FEF73DFE77
:10F6E0006846417A007AFFF7CDFF60816846C17AAB
:10F6F000807AFFF7C7FFA0816846417B007BFFF758
:10F70000C1FFE081207A000703D5FFF71FFF04B097
:10F7100010BDFFF76DFB04B010BD70B5584CE0781C
:10F72000401CC0B2E0700A287ED10025E570E08858
:10F7300000287AD0FF2169314843524905F0EBFB9C
:10F7400006F0DEFA06F070FA4F4A504B06F012F956
:10F7500005F0D8FC0126B607B04248DD4C494D4EB5
:10F76000884244DDB04201DC4B4E40E04B498842C8
:10F7700001DC4B4E3BE08121C9054A4E884236DD13
:10F780004949884201DC494E31E041221206B0422B
:10F7900001DC16462BE04649464E884227DD464BA3
:10F7A0004649984201DC0E4621E0454B984201DC77
:10F7B000444E1CE0444B984201DC444E17E0444B5D
:10F7C000984201DC434E12E0904201DC424E0EE0D2
:10F7D000424A904201DA424E09E0B04201DC414E19
:10F7E00005E0884202DC8326F60500E03E4E3F48F5
:10F7F000007806F085FA314606F0D2FA06F014FADF
:10F800003B4A3C4B06F0B6F805F07CFC06F00CFADF
:10F81000394A3A4B05F02DFE05F074FC384906F0E4
:10F82000BFFA06F029FA01E07BE079E035498A6801
:10F8300082188A60344A516A41185162334AD36847
:10F84000C018D06032488068002869D0314A138DD2
:10F850009B0665D4814263D3108D20210843108517
:10F86000004859E06C240020712B0020752B0020EB
:10F87000792B0020502B0020D02A0020902B002034
:10F880003C240020A08601006E6E4C4F58E2E33FFE
:10F8900000002040000040403333534000006040EF
:10F8A000333373400000A040000090409A99C94053
:10F8B0006666A640000010410000C04000002041E4
:10F8C0006666D640000030410000E040000038414C
:10F8D0000000F04000004841000058419A99094159
:10F8E0000000604100007041000090412C26002083
:10F8F000EC51B81E85EB913FFCA9F1D24D62403F1F
:10F9000000007A440C2A0020482A0020A02A002067
:10F910000C260020E029002041780122114341708B
:10F92000E58070BDB44938220889904308810022DF
:10F930004A828A82B1488276002043005B18DA82CC
:10F94000401CC0B23C28F8D3704770B4AA490820C4
:10F950000A89024330208243A848032303775208D0
:10F9600052000A8100220A603C234B8282768A82FE
:10F97000002043005B18DA82401CC0B23C28F8D358
:10F980009F480280428082800A23CB5E2426F64371
:10F9900002249C480125B34201DA027604E0252BBB
:10F9A00001DD047600E005760C23CB5EB34201DA7C
:10F9B000427604E0252B01DD447600E045760E23F7
:10F9C000CB5EB34202DA827670BC7047252B02DD33
:10F9D000847670BC7047857670BC7047F0B4864EF4
:10F9E000894C8A4B3589A06BDA692F07401C521C61
:10F9F0008249002F7EDAA063DA61708A002855D030
:10FA0000401E80B27082002850D17D4FB888401CC3
:10FA1000B8801846828D521C82857D4A1089401C10
:10FA200010817C4B9878401C98703C2070823B2061
:10FA3000441E6500AD194000ED8A8019C582E0B210
:10FA40000028F5D1B48A0025F482B5828C7E641C2E
:10FA5000E4B28C763C2C01D93C248C76664C24890B
:10FA6000E5066AD5644DA6062DD57E88761C7E8077
:10FA7000664F7E8D761C7E85D688761CD6805A7918
:10FA8000521C5A7100228B7E002B08D94600761931
:10FA9000B67DB218D2B2401CC0B28342F6D8282A32
:10FAA00006D9302084432C8100208876F0BC704732
:10FAB000052A01D2282BF9D3202084432C81002051
:10FAC0008876F0BC70473E88761C3E804F4F3E8D56
:10FAD000761C3E859688761C96801A79521C1A717F
:10FAE0008B7E322B13D3002246007619B67DB218D6
:10FAF000D2B200E045E0401CC0B28342F4D8052AEF
:10FB000011D8202004432C81002088760BE00022AD
:10FB1000002B08D944006419A47DA218D2B2401C5D
:10FB2000C0B28342F6D8282ACBD92A891020824332
:10FB30002A8100208876F0BC7047FD886D1CFD800E
:10FB4000324DEE8D761CEE8555896D1C5581DA7827
:10FB5000521CDA708A7E0A2AEDD30022264B450019
:10FB6000ED18AD7DAA18D2B2401CC0B20A28F6D357
:10FB70000A2AE0D2102004431C8100208876F0BCC1
:10FB80007047097F032931D0D868401CD860A06A2B
:10FB9000401CA0622049C96800290ED01F4A168D5A
:10FBA00076060AD4884208D3108D40210843108578
:10FBB0001B4802224178114341701A49E8070AD0D4
:10FBC000E06A401CE0621869401C1861088B401C08
:10FBD0000883F0BC7047206B401C20635869401CB0
:10FBE0005861C88A401CC882F0BC7047A063DA61C3
:10FBF000F0BC7047F2E60000D02A0020902B0020D5
:10FC000044240020502B0020482A00200C2A0020E9
:10FC1000882A0020C02A00200C260020E02900208D
:10FC20006C240020A02A002010B50446FF21913149
:10FC3000204605F070F9002909D06421204605F01E
:10FC40006AF9002901D0A00701D0002010BD0120D1
:10FC500010BD10B586B0ACA14A6809680592049140
:10FC6000ABA18C684B680A68C96802940193009242
:10FC7000039100220388591E89B2FF241934A1423E
:10FC800004D3FF39193989B2A142FAD21C2903D30E
:10FC90001C3989B21C29FBD2042905D3091F89B25A
:10FCA000521C92B20429F9D204ACA25C511889B258
:10FCB000072901D3C91F89B282786C46A45C6118F8
:10FCC00089B2072901D3C91F89B2C078401884B20C
:10FCD000072C03D3E41FA4B2072CFBD2032A07D3BB
:10FCE0001846FFF7A1FF002802D0E0B206B010BD11
:10FCF000002C04D0641EA0B2C0B206B010BD062015
:10FD0000FAE710B504460020A0716071207101204F
:10FD1000E070A070824820802046FFF79AFFE071D3
:10FD200010BD70B588B002467E48034678CB049675
:10FD300003950294019344690369806906940593CD
:10FD40000790500001AB1C5A022A06D10846FFF763
:10FD50006BFF002801D0641CA4B2E0B208B070BDF3
:10FD600010B504462188A078FFF7DBFF0146E07854
:10FD7000814202D0401CE0700BE00121E170A078CC
:10FD8000401CC0B2A0700D2803D1A1702088401C77
:10FD900020802046FFF75DFFE07110BD10B581792E
:10FDA000491CC9B281713C292CD10023837141794E
:10FDB000491CC9B241713C2913D15B4C0122216815
:10FDC00092021143216043710279521CD2B2027136
:10FDD000182A06D103710122520211432160FFF754
:10FDE000BFFF5249088800280CD0401E80B208800E
:10FDF000002807D18720400108804D49102208784B
:10FE000010430870FFF789FC10BD4A49887A401CEE
:10FE10008872C00701D000BF70474749088D012292
:10FE20001043088570474448018D02221143018523
:10FE3000704770B5404D288DC00750D0288D4008C0
:10FE4000400028853D48FFF7A9FFFFF7D3FE3C4857
:10FE500008220178114301703A493B4C0878002888
:10FE600013D0401EC0B2087000280ED12088820531
:10FE70000BD5420502D53C20087006E0012189021D
:10FE800008432080002001F024FE30490878002833
:10FE900001D0401E0870288D000615D5208802214B
:10FEA000C2070140D20F114301D041060CD5C00456
:10FEB00003D5012001F0E2F802E0002001F0DEF8B5
:10FEC000208823490840208022490878002806D04D
:10FED000401EC0B20870002801D1FEF779F870BD4D
:10FEE00010B51548018D890700290CDA018D022211
:10FEF00091430185008DC00505D51748007A00069D
:10FF000001D4FFF7CFFB10BD00050301060402007A
:10FF100000000303060104060205000305000000BB
:10FF2000DF070000505E0200182400204C2400204F
:10FF30006C240020002A0020E02900204E2400200C
:10FF400070240020B2240020B8240020B524002012
:10FF5000BFEF000006240020D02A0020F649102020
:10FF60008860F649002008607047F6490320F44A8B
:10FF7000086000211060101D0160F04802228260BC
:10FF8000C1600122026192064262EF4A072050617D
:10FF9000EE488160E2E7ED4900208860E7490860AB
:10FFA00001200860E4491020C8607047E44800213F
:10FFB000C160032212044261E548C278520852002F
:10FFC000C2700171CAE7E2480021C1708171C1713C
:10FFD0004171018141818181C181E7E7D8480021D8
:10FFE000416103221204C260D9480123C2781A4336
:10FFF000C2700171704730B4D54C01212079CF4DCA
:020000040002F8
:10000000002814D0224651799279012815D0FE2873
:100010001AD0D04B1B18203B9B7FEB614B40637188
:10002000521C904218D9FE20207130BC7047A42089
:10003000E8616071217130BC7047EA6151406171C3
:100040000220207130BC7047BB4A10209060E961EB
:10005000FF20207130BC7047401C207130BC7047BD
:10006000BB480179FF2902D1002181719EE77047C9
:10007000B7490879FF2808D0401C08710979AF48B2
:10008000012906D0FF21C1617047AB4A1020906062
:10009000F4E7A521C1617047F0B4142900D31421FD
:1000A0008407A40FAA4E70893789C31B9D06AD0E25
:1000B00040235B1B4D1CAB4203D8F0BC0020C04367
:1000C00070478B069B0EA4012343A34C2354401C72
:1000D0008006800E70810020002909D97389155C83
:1000E000E5545B1C9B069B0E7381401C8842F5D334
:1000F000B07AC01B8106890E4020401A142803D80C
:10010000F0BC0020C0437047F0BC00207047F0B541
:10011000924A1778924E934B1146103F8C4C307890
:1001200049781D78072F0ED23B007B441B79DB18E2
:100130009F44030F090A132F210004231843307032
:10014000217090786070F0BDA17008210843307074
:10015000F0BD012108433070F0BD032DFCD3521CCB
:1001600014210020FFF798FF0028F5D0E078022145
:100170000843E070F0BD032DFCD3521C1421012074
:10018000FFF78AFF0028F5D0E17802200143E170F3
:10019000F0BD022108433070F0BD00B56C4B1979F9
:1001A000012912D01A465279022911D0FF2913D001
:1001B00042405A71694A5218203A5077D879801CC7
:1001C000814201D9FF20187100BDA520587100BDE2
:1001D00042405A71D87100BD904201D1FFF797FF9C
:1001E000FFF7E4FE00BD70B4594C8026E389257BFF
:1001F0005D1B6D066D0E761B851CAE4203D870BC70
:100200000020C0437047584D461CEE545B1C5B06F3
:100210005B0EE9545B1C5906490EE1810021002860
:1002200009D9E389565CEE545B1C5B065B0EE381E7
:10023000491C8142F5D370BC00207047F0B4444C97
:10024000A089E689B0421FD0474F395C491EC9B228
:10025000A171401C4006400EA081142901D3142036
:10026000A0710020A579691C00290DD9394A6D1C9F
:10027000A1897B5C1354491C4906490EA181B142F6
:1002800002D0401CA842F3D3F0BC7047F0B404463F
:100290002F4B19895889814202D10020F0BC704748
:1002A0002D4E705C491C8906890E19818206920EBA
:1002B000142A02D91422D42108400021002AEDD9A1
:1002C0001D89755D65541D7A6D1CAD06AD0E1D81D1
:1002D0005F89BD42E2D0491C9142F1D3F0BC704726
:1002E00030B585B0002400940194029403940494E2
:1002F00069460C7001254D7000A807221B49023089
:1003000004F054FD6A4681211420FFF76CFF00942D
:100310000194029403940494FF20694608704D7080
:100320006A4681211420FFF75EFF1148018DEA0221
:100330001143018505B030BD000500500045004067
:1003400000070050080700504045004000410040B1
:1003500058240020B02B0020DA2B0020C52B0020D1
:1003600068240020382400201A2C00204E2400206D
:10037000E029002070B46B49032088716A4980200D
:1003800008706A48007848706948008D694B060615
:100390000122022400251888002E05DAC60701D0A4
:1003A0004A7002E04C7000E04D708D70050400D57D
:1003B0008A70420402D58A7822438A708004800CB5
:1003C0001880FF20C87070BC7047F8B555490920E7
:1003D0008871554E822030705748C0797070574FE1
:1003E000574C786800284ED0616800294BD06422B1
:1003F000504304F090FD05F083FC524DA84200DD0F
:10040000284605F039FCB070000AF07078690028C1
:100410003BD02168002938D06422504304F07BFD92
:1004200005F06EFCA84200DD284605F025FC307181
:10043000000A7071786A002829D0A168002926D0A6
:100440006422504304F067FD05F05AFCA84200DD29
:10045000284605F011FCB071000AF071B86A002856
:1004600017D0E168002914D06422504304F053FDF2
:1004700005F046FCA84200DD284605F0FDFB307281
:10048000000A7072F8BD0020B7E70020CAE700201C
:10049000DCE70020EEE7234A042090712249832004
:1004A000087050694870030A8B70030CCB70000E03
:1004B000087100205061704770B504462078194DCE
:1004C00000280FD104222049204604F0CFFB002849
:1004D00004D0E878FB210840E87003E0E8780421C4
:1004E0000843E870E878400704D52178032903D051
:1004F000FF290CD0012070BD14221449204604F0BD
:10050000B5FB002801D0002070BD012070BD142271
:100510000F49204604F0AAFB002801D0002070BD3E
:10052000012070BD58240020B02B0020382400206A
:10053000E0290020B82400202C260020482A002092
:100540000C260020000096436A5E02006E5E0200E8
:10055000825E02000978112913D0142911D01529BF
:1005600002D0212916D10CE08448042102880A43D4
:100570000280834801708348012201781143017091
:1005800008E0814902780A7142784A7182788A715A
:10059000C078C8710020704710B51046002803D0FD
:1005A0007AA24E21FEF733F810BD70B5FF258D35C8
:1005B00000232A4679497A4803F02CFC794C7A4E7C
:1005C000002802D1A068B0420CD0FF22294674480E
:1005D00004F078FCA66075494022487810434870C2
:1005E000012070BD002070BDF8B500200090664865
:1005F0006946007808700524694E6C4F355D082DFA
:1006000017D26846857003F093FF002803D05FA2DD
:100610007A21FDF7FCFF30204543A8190830FF225E
:10062000302104F04FFCFF203055787840210843FA
:100630007870641C082CE1D3F8BD70B586B0012435
:100640005B4803F0B2FD002803D050A29221FDF7D1
:10065000DEFF03F03FFA002803D04CA29621FDF7FD
:10066000D6FF544842695449521C02D00969406976
:1006700000E0486901266946CE80FF208D308880E1
:100680004E4800904549684603F063FA002803D0BD
:100690003EA29F21FDF7BBFFFFF787FF0025002843
:1006A00001D0059600E0059505A803F043FE00285B
:1006B0001AD0059605A803F03DFE002803D033A20A
:1006C000AD21FDF7A4FFFF220821354804F0FAFB15
:1006D000FF21FF2281313A4804F0F4FB33484022E5
:1006E000417811434170002469460D824D821E20DD
:1006F000C881087C3043FD210840E32108400C30CC
:10070000DF21084069460874072048741020887467
:100710002C4802900E7302A91B4803F0AEFE00287D
:1007200003D01AA2C421FDF772FF002C01D0FFF7FD
:100730005BFF06B070BD10B50121234A084603F0E7
:100740001FFC002803D011A2D421FDF760FF10BDCB
:1007500010B50B48007804280ED11C4800780628F4
:100760000AD109494878420706D404221043487048
:1007700000F046FC00F048FC10BD0000B82400204A
:100780003824002068240020742400202E2E5C6D64
:1007900061696E5F626C652E630000007C2400203E
:1007A0009C2C00201C2E00201608142070240020F1
:1007B00078240020001000100000001099050200AD
:1007C000A42C002055050200613F02008424002073
:1007D000FE4907200870704738B5022069468870C6
:1007E000FB480880F94C6A460121A08890DF002868
:1007F00002D0FFF7EDFF38BD0320207038BD38B5BB
:100800000020F449F44ACB88F04C934207D1888801
:100810006946401C08804880A08893DF0AE0EF49C1
:10082000CB88934206D188886946401C088048805E
:10083000A08893DF002802D0FFF7CAFF38BD05204B
:10084000207038BDE6498A78E04980888880082A87
:100850001FD230204243E348101802898A8242891D
:10086000CA8282890A83C2894A830A46038A938399
:10087000438AD383838A1384C38A5384038B9384E8
:10088000438BD384838B1385C08B508501200870E4
:100890007047A1E730B4CD4C0146A08892DF002814
:1008A00001D030BC94E70420207030BC704708B5FC
:1008B000C18800290ED1818900290BD0C34A418A01
:1008C000D180808A10816A46118050806846FFF787
:1008D000E1FF08BDFFF77CFF08BDF8B5C1880A46F7
:1008E000FF3A0B3A01D0093211D1BA48808800286A
:1008F0000AD0BD488088002806D0B84880880028E3
:1009000002D0FFF77CFFF8BDFFF762FFF8BD0029BA
:1009100002D0FFF75DFFF8BD002200238189002986
:1009200021D9B24DB24EB34F0A2159430A180E32A3
:1009300000211488AC4201D1A64906E0B44201D19D
:10094000A94902E0BC4200D1A449002907D00C808B
:1009500054884C8014898C800024E443CC805B1C38
:1009600081899942E0D89948002A09D011896A46BC
:10097000491C1180008950806846FFF78BFFF8BD45
:10098000C1886A461180008950806846FFF782FF5F
:10099000F8BD10B5C1880A46FF3A0B3A03D00932B8
:1009A00001D0002902D0FFF713FF10BD8189894BC8
:1009B0008A4A00290FD00E3041888F4CA1420AD1BB
:1009C00000889C88411E8C4201D1D88003E0948825
:1009D0008C4200D1D080D9887F48814202D0D18812
:1009E000814202D1FFF70BFF10BD78490620087045
:1009F00082490520087082494878C209F4D18022D2
:100A000010434870764803F067FD0028ECD0FF21C2
:100A10007CA24A31FDF7FBFD10BD00B589B06B49E2
:100A20000978062902D0082009B000BD00216A46D5
:100A30001171837A5371C37A9371037BD371407BB5
:100A400010720120507220239372D172664A9388EB
:100A50006A4653820823D3829182107401A80690BB
:100A600004A801F0DFFC09B000BDF0B583B0054675
:100A7000A88800900024009800287CDD674E30464E
:100A80002830029020380190504FF86809283FD252
:100A900003007B441B79DB189F44040A10161C22B8
:100AA000282E3B002819807930700120F86000E181
:100AB0002819807970700220F860FAE0281980798E
:100AC000B0700320F860F4E028198079F0700420F9
:100AD000F860EEE02819807930710520F860E8E0D0
:100AE0002819807970710620F860E2E02819807971
:100AF000F0800720F860DCE029198979F088090284
:100B00000843F0800820F86001983861002078815F
:100B1000CFE03869029988422DD2019988422AD3C0
:100B2000291989790170401C38617989491C89B279
:100B30007981F2888A4247D100210170401C3861D6
:100B40000520F860B8787A8941013548081801997C
:100B500004F02CF9B878401CC0B2B870012834D128
:100B600008222F492FA004F0D1F800287ED00622B9
:100B70002B492FA000E0A1E004F0C8F8002876D0AF
:100B8000082227492CA004F0C1F8002870D00922BF
:100B900023492CA004F0BAF800286AD00722204983
:100BA0002BA004F0B3F800287ED005221C492AA00F
:100BB00004F0ACF8002878D00A22194928A004F0E3
:100BC000A5F8002872D055E073E069E08424002085
:100BD00031F4000098240020FFFF0000A82400202A
:100BE000782400209C2C0020A02400200D1200005E
:100BF000F3D80000E9C6000002290000B524002057
:100C0000702400202E2E5C736572766963655C62C9
:100C10006C655F616E63732E63000000682E0020B8
:100C2000282E002057686174734170700000000026
:100C3000576543686174000046616365626F6F6B5E
:100C4000000000004D657373656E676572000000FB
:100C50005477697474657200536B79706500000095
:100C60005961686F6F204D61696C000028E034E0C5
:100C700040E04CE00522E649E6A004F047F80028F1
:100C800065D00A207870E548082201781143017088
:100C9000E34802224178114341700020F860B870A7
:100CA000B878012805D902E03EE040E042E00020AB
:100CB000B870641C0098844200DAE5E603B0F0BD29
:100CC00005207870D5488022417811434170D4487E
:100CD0000222417811434170DFE706207870CF4847
:100CE0008022417811434170CD480222417811435E
:100CF0004170D2E707207870C848402241781143FC
:100D00004170C7480222417811434170C5E70B206A
:100D10007870C2484022417811434170C048022295
:100D2000417811434170B8E708207870B5E7092091
:100D30007870B2E70D207870B848202241781143CE
:100D40004170B7480222417811434170A5E70E2057
:100D50007870B2482022417811434170B048022295
:100D600041781143417098E7F8B500210C30AD4B44
:100D700002889B889A424CD18388022B49D382797E
:100D8000002A45D1A54E077A32787578A64C072FF0
:100D900037D23B007B441B79DB189F441E030B3288
:100DA0001913220001231A433270A04A032515703B
:100DB00063701EE002231A4332709C4D04222A7095
:100DC000637016E01022154375700322627010E004
:100DD0000121974A437A137013E00C2161700121BD
:100DE00007E0042262702022154375708F4A0923A0
:100DF00013708F4A437A1370894A022553782B4324
:100E00005370012904D1FFF708FE0020E060A070B4
:100E1000F8BD884989888A42FAD181880229F7D3A6
:100E2000FFF723FEF8BDF8B5022100917E4D0024A6
:100E30002C70002825D069467F4863DF002804D045
:100E400097217E4A8900FDF7E2FB6E46711C7C48C3
:100E500063DF002803D0794A7A49FDF7D8FBB11C3B
:100E6000794863DF002803D0744A7849FDF7CFFB47
:100E7000F11C774863DF002803D0704A7549FDF7FD
:100E8000C6FBAC82EC822C8367488483C4830484D1
:100E90008484C484048571496F48C8800839C88037
:100EA0001031C8806E49FB22087810400870F8BDE8
:100EB000C188694A914208D000886A49884202D0B4
:100EC0006949884201D1012070470020704770B500
:100ED0000188664A9378544C11290CD02278644DCD
:100EE000072A3AD213007B441B79DB189F44363B18
:100EF0003551565B6000082B2CD24A48FFF7D8FFCB
:100F0000002827D04B48FFF7D3FF002822D03020FD
:100F100043435848A18A18180181E18A4181218BF5
:100F20008181618BC18140498A8B0282CA8B428256
:100F30000A8C8282498CC1823B498A8C0283CA8C8A
:100F400042830A8D8283498DC1834B484022417878
:100F5000114341700020FFF766FF70BD1029FCD1DE
:100F6000FFF770FC70BD172901D01429FAD12D4864
:100F7000FFF79EFF002809D02E48FFF799FF0028B1
:100F800004D0062020700520287070BDFFF724FCD7
:100F900070BD3029FCD1FFF78AFC70BD3229FCD12D
:100FA000FFF79BFC70BD3329FCD1FFF7F2FC70BD4D
:100FB0003829FCD129780029F9D1FFF7D5FE70BD79
:100FC00000B587B0184A1278062A02D0082007B068
:100FD00000BD01230022002902D069460B7101E007
:100FE00069460A7169464A7148810220C8818A812E
:100FF0000B7201A8049002A801F014FA07B000BD1A
:1010000008480121C088DBE70A480121C088D7E7EA
:10101000282E0020476D61696C0000006C240020C0
:1010200068240020982400208424002039240020F3
:101030003A240020A8240020965E0200040C02003E
:10104000A65E02005F020000B65E020062020000BF
:10105000C65E020065020000FFFF0000A024002021
:10106000752400200D120000E9C60000782400203D
:10107000B52400209C2C00207024002070B5FE496F
:1010800000240C604C608C60CC600C61FB4A012534
:1010900015700C700C72002802D02820088201E024
:1010A000F74808821E204882F34873DF002803D0E7
:1010B000F4A2FA49FDF7ABFAF94801892943018105
:1010C000F8490A782A430A70047070BDF6481E2158
:1010D0000180817801221143FD221140E322114059
:1010E0000C31DF22114081700721C1701021017184
:1010F000704710B5FF21E3A2DC31FDF788FA10BD7F
:1011000010B50068002803D0012800D100BF10BD31
:10111000E6483B21008876DF002804D0FF21D9A2D1
:10112000C931FDF774FADE48E14A018911404122D4
:1011300011430181DB4901230A781A430A70002117
:101140000170817010BD00B587B000200090039041
:101150000490D8490191029103216A461173D6493E
:101160004989D1811074D5480590D54806906846C4
:1011700001F0AFFD002804D0FF21C2A2B631FDF777
:1011800046FA07B000BD00B5A1B006200290CD48D8
:1011900001680191406800903C2112A803F0B9FE5B
:1011A0003C2103A803F0B5FE02201290002010A9F4
:1011B00048730120088202A9159110A9888501A908
:1011C0001C916946088568460B9003A912A801F096
:1011D0000CFD002803D0ABA29621FDF718FA21B030
:1011E00000BD30B490B00022089208AD2B780123E6
:1011F0001B071B0F10332B706B7801231B071B0F72
:1012000010336B70AB78F92423409B1CAB700992B0
:101210000B920C920D920F922B7904252B431025E3
:101220002B4308AD2B71A8A30A930D236D46AB8504
:10123000EB8508AB0E930623AB72A74B2B81019273
:10124000AB7923409B1C2C7900242407240F2C719C
:101250006C7901242407240F10346C715B085B0047
:10126000AB710592069202AA039201AA049214227B
:10127000AA822A831031079184880346163303AA71
:1012800009A92046A2DF10B030BC704710B48FB05F
:10129000002108910A910B910C910D910E9108ABD0
:1012A0001A7804231A4308AB1A708CA209920722F9
:1012B0006B461A855A8506229A728A4A1A810191CA
:1012C0009A79F9231A40921C6B461B7900231C075C
:1012D000240F6B461C715B7901231C07240F10340B
:1012E0006B465C71520852009A7105910691079104
:1012F00002AA039201AA049214229A82D9821A8322
:10130000848803460E3303AA08A92046A2DF0FB043
:1013100010BC704770B48FB0002207926E46337FC6
:1013200001231B071B0F10333377737F01231B0728
:101330001B0F10337377B37FF9252B409B1CB377BA
:1013400008920A920B920C920E9208AE33781024F7
:101350002343337064A3099307236E463385738553
:1013600007AB0D930623B371614BB3800092B47841
:101370002C40A41C337800231B071B0F3370737899
:1013800000231B071B0F737063085B00B37004928C
:10139000059201AA02926A46039214223282B28214
:1013A000103106918488831D02AA08A92046A2DF75
:1013B0000FB070BC704730B585B004460D46286844
:1013C00020600020C043E083284610300FC820343E
:1013D0000FC4303C286A206306206946887445485B
:1013E0000882384B08330FCB03930292019100908F
:1013F00004A90231684663DF002817D1221D04A921
:101400000120A0DF002811D129462046FFF782FFE6
:1014100000280BD129462046FFF738FF002805D1C8
:1014200029462046FFF7DDFE0028FFD105B030BD7C
:1014300000B589B0002000900190029003900490C4
:10144000059006900790089001200007000F1030CB
:101450006946087201200007000F10304872012011
:101460000007000F1030087300200007000FC8723B
:1014700001200007000F3FE0902E002038240020BC
:10148000320300002E2E5C736572766963655C62C0
:101490006C655F696D617A652E630000E70300008B
:1014A000B024002068240020C424002076240020DA
:1014B000711A000000A60E00A42E002001110200E7
:1014C000F3100200D85E02004E65766F2046697206
:1014D0006D77617265000000233000004E65766F05
:1014E00020527800223000004E65766F205478003C
:1014F0002130000020300000103048730120000728
:10150000000F10308873FA48FFF755FF002803D00A
:10151000F84AE421FDF77BF809B000BD00B591B0B1
:101520004021684603F0F5FCF3A1684601F090FB0A
:10153000F3A104A801F08CFBF3A108A801F088FB3B
:10154000F2A10AA801F084FB01200007000F10306F
:1015500008A9087700200007000F4877684601F0C7
:1015600038F8002803D0E34ACE21FDF750F811B037
:1015700000BD00B585B001200007000F10300190BC
:101580000422E3A101A87CDF002803D0D94A53211B
:10159000FDF73DF8C12078DF002803D0D54A572158
:1015A000FDF735F800200290039020216A46118152
:1015B000402151819081FF209130D08102A87ADFB3
:1015C000002803D0CB4A6221FDF721F805B000BD09
:1015D00010B50020FFF731F800F0A2FE0120FFF760
:1015E00022FCFFF7C6FFFFF799FFFFF721FF062058
:1015F000FFF7C9FDFFF7A7FDFFF768FDC648018D9E
:101600008022114301850120FFF738FD10BD70B520
:1016100004460020C14D295CA14208D1072809D207
:1016200007210A1A2818411C03F024FC02E0401C80
:101630000828F0D30722B949681C03F01BFC2C7062
:10164000B748402241781143417070BDF8B500257C
:10165000B44AB54C1778012201881743228915290D
:1016600061D00ADCAE4E0129337871D010290BD03D
:10167000112925D0122956D156E0192975D03529BE
:1016800070D037294FD167E08188A8480180A848E9
:101690000178032901D20321017050084000A549B7
:1016A000084320819F4807703C20A0707078400656
:1016B000400E7070FB200340DF200340337066E073
:1016C0008079A0719C488078FF2801D0FFF79FFFA8
:1016D000994802F06AFD05462846002803D0854A4D
:1016E0009649FCF794FF00F01BFE00218F48C94388
:1016F000018020899249084041210843208189487E
:1017000001220178114301703078FB210840DF216C
:10171000084000212170A170FD21084030707078D0
:101720004006400E707032E0C088C82803D3854858
:101730000240228105E001204002024322813C2038
:10174000A070208980490840208120E000E00CE062
:10175000FD20034033701AE000F00AFE052060719E
:1017600015E0FFE700F004FE11E08079002802D0C8
:1017700001280BD00BE07248024041200243228135
:101780006848077000202070A07000E000BF284665
:10179000002803D0574A6D49FCF739FFF8BD70B5F2
:1017A000614C3C20A070088B142817D108461A30D1
:1017B0000546FEF781FE002810D02A468421142019
:1017C000FEF711FD002809D0208901218903084373
:1017D00020815448012201781143017070BD70B519
:1017E0000446514D20262A891046D106304300294F
:1017F00001DA28813EE02178002903D093060BD539
:10180000002070BD00202871B2432A811422214695
:101810004F4803F0CBFA1DE0FF2908D0EA78FE2AF2
:1018200009D0521C91420BD02881012070BD10209C
:1018300002432A8104E0012902D02881012070BDE1
:10184000287912214843424912224018801CA11CC9
:1018500003F0ACFA2078E8702879401CC0B22871F7
:10186000042807D12078FF2804D028893043288114
:10187000012070BD002070BDF8B508461A300090F8
:10188000294C3C22A270098B14290AD14178F229F3
:1018900008D0F32906D00A46203A202A05D2FFF7BD
:1018A0009EFFF8BDFFF79BFFF8BD0126491EB6035A
:1018B0001C4D01271F290CD2FFF791FF012805D1EC
:1018C000208930432081287838432870207A800688
:1018D000EAD481211420009AFEF785FC0028E3D089
:1018E000208930432081287838432870F8BD0000D3
:1018F000A42E002084140200446179746F6E0000ED
:10190000323334353600000031330000303000000F
:101910004E65766F00000000E02900209C2C00201E
:101920007024002068240020B024002076240020A9
:101930003824002002120000782400204F0200000A
:10194000711A0000FFFD0000FFFB0000990200007B
:10195000D82E0020088B02280AD1F44A8B7E1089E9
:10196000012B02D1C97E002903D0F1490840108122
:1019700070470121490308431081EE48FD22017898
:1019800011400170704710B4088B02280AD1E74A51
:101990008C7E08231089012C02D1C97E002903D036
:1019A0009843108110BC704718431081E148FD2214
:1019B00001781140017010BC7047DC4A891D11612B
:1019C0000A8843899A4200D1DDE7438B9A4200D1CD
:1019D000C0E7C3899A4200D14EE7C38A9A4200D138
:1019E000DDE670470021C943C18370478988C18300
:1019F00070470A88102A04D0112A03D0502A02D135
:101A0000DBE7F3E7EEE7704710B50446204602F047
:101A100035FE2146C848FFF7ECFF204601F002FAE8
:101A20002046FFF754FA2046FFF710FE10BD10B510
:101A3000C2481321008876DF04462046002803D0E0
:101A4000BF4AC049FCF7E3FDE0B210BD70B5B74C2A
:101A50002089C10701D074DF03E0800701D5FFF7BB
:101A6000E6FFB94800250570B848018D80229143F2
:101A70000185B748012201781143017000F050FC44
:101A8000AE49681E08802089B24908402081A948D3
:101A9000FB2201781140DF2211402570A570FD2244
:101AA0001140017041784906490E417070BD00B582
:101AB00083B00021009101916A461080400050805F
:101AC0009180FF209130D080684601F0B9F903B0D1
:101AD00000BD10B5002806D02020FFF7E8FF93498D
:101AE0003C20887010BDC820FFF7E1FF10BDF0B5A5
:101AF0008BB08E4D28894105002916DB8D49097868
:101B0000890712D494490A7894490B78D21A92061C
:101B10000BD0AA78002A0AD0820508D401218902B4
:101B2000084328810120FFF7D4FF0BB0F0BD012648
:101B30006FE000210091019169468E7004A9029125
:101B400005A90391810911D069460C7D2989890471
:101B500047D53C21A970784A6B46D18A1980800606
:101B6000800E0490D08B6946A6DF3BE06846047D7A
:101B7000287A000709D53C20A8706F496A46C888B2
:101B80001080C88B6946A6DF00E0002000280BD03B
:101B9000734988421AD17148078066490222087841
:101BA000104308700BB0F0BDFF2C32D12889012200
:101BB000C10BC9039203024011432AD08004800C58
:101BC0002881634908783043087022E02889012180
:101BD000C903084328815E490878304308700BB078
:101BE000F0BD0020002803D05D498842EED1D2E745
:101BF000FF2C0ED128890122C10BC9039203024098
:101C0000114306D08004800C28815148017831436B
:101C1000017052480078C7B205A8FEF737FB80B2C2
:101C20000490810685D10BB0F0BDF0B59DB03F4862
:101C3000007AC006002877DA4A4E042773783046C7
:101C400080781C90F22B2AD04748F32B006834D0C0
:101C50003046C1781B918179027A012B33D04248FA
:101C6000BC02006820431A904048022B858B5CD050
:101C70002E483F4C0078411CC9B28C4641004118A7
:101C8000202B7FD0212B7ED0222B7DD0232B7CD0EC
:101C9000262B7BD0242B7AD0252B79D029E12548FF
:101CA0001C990078002903D022493843087020E1AC
:101CB0002049FB22104008701BE101222A499203AF
:101CC0001043086015E11B982A4C00021C9BC018A9
:101CD00020803079A0707079E0702171F0796071A6
:101CE000A2712046FDF7B5FF1848018D0122D202EE
:101CF000114301852048228801888A4207D1A178B2
:101D00008278914203D1E178C07881426FD01B483C
:101D10000178491C01701A480078FBF7F8FCFBF7C2
:101D2000E3FCFBF7D2FCE4E0E8E032E0B024002082
:101D3000FFDF000070240020A42E00207624002065
:101D400084140200B303000038240020E02900209E
:101D500068240020301A0000622400206024002043
:101D600004300000D82E0020182400200C2600206B
:101D7000D22E00204E240020482A00200B240020D0
:101D80000D24002034E044E064E07DE08DE095E047
:101D90009DE0FF4AFD48154085831C9A002A01D02A
:101DA0003D438583002903D0818B08221143818321
:101DB000B17A002903D0818B102211438183B17B3A
:101DC000002903D0818B202211438183B17C00291B
:101DD00003D0818B402211438183B17D002903D040
:101DE000828B80210A438283EA491A98086080E046
:101DF000E64A2389D38363891384E64A1A9B1360D6
:101E0000E54A1E2875D2E54B2020585460461070D4
:101E10006FE0DE4B26899E826689DE82A4891C8360
:101E2000AC08A4009C83D50702D001252C439C83D9
:101E3000920703D59A8B022422439A83D54A1A9B90
:101E40001360D54A1E2854D2D448212343546046F7
:101E500010704EE0D24BCD4A1C464C34F0CCF0C250
:101E6000103ADB6D1361CF4A1C9B93711B9BD3719E
:101E7000C84A1A9B1360C84A1E283AD2C748222370
:101E800043546046107034E0C04A23895384638908
:101E90009384C04A1A9B1360BF4A1E2829D2BF48A8
:101EA000232343546046107023E0BB4A1E2820D2EF
:101EB000BA4B26205854604610701AE0B64A1E28C5
:101EC00017D2B64B242058546046107011E0B24A25
:101ED0001E280ED2B4481C9B0078834209D2AF481A
:101EE000252343540023081843701C9981706046D1
:101EF0001070A948102102898A430281A64CF2225F
:101F00002789F323F805002870DAA84800788007AD
:101F10006DD4A74800218161C16101624162816283
:101F20006078262842D006DC0322A24B242857D012
:101F3000252804D1DAE0F2280DD0F32827D09E4AD4
:101F4000E16811705070012919D0E068401CE06010
:101F5000FF287DD06FE19849E06808704A7000283A
:101F60000DD1964A508988700012C8709089087106
:101F700000124871D08988710012C871E5E78E4857
:101F8000FF21017020898E4908402081DDE78A4ABF
:101F9000E068107053700028F1D18A48008D400528
:101FA00002D501209070D0E79170CEE78249E068B9
:101FB000087026224A700028E1D183484068887062
:101FC000020ACA70020C0A71000E48716F4840681C
:101FD0008871020ACA71020C0A72000E4872B4E7D4
:101FE0007848008D400703D51A7003E030E169E1BD
:101FF000FBF70EFB7049E068087024224A70002845
:1020000035D06948007805282CD370480578002021
:10201000002D67D06D1EADB2401C80B20428F7D3EE
:102020006B492803401802226A49FBF759FA5E48B7
:102030000078401F87B20026002F13D9002D53D0FF
:102040006D1EADB25C48B1000918091D2A0300E0FD
:10205000EFE0614810180422FBF742FA761CB6B292
:10206000BE42EBD3504801785348017387E7574885
:1020700005784D480278594B4F4918888870000AF6
:10208000C87098780871D8784871521E96B20027A7
:10209000002E15D0002D21D06D1EADB24648B900DE
:1020A00009184D482A031018891D0422FBF718FA55
:1020B000761EB6B27F1CBFB2032F01D0002EE9D12D
:1020C000002E8CD0002D0BD06D1EA8B2010342480B
:1020D000022208184249FBF703FA36E70625DDE736
:1020E0000620F3E7062597E70625ABE7324EE068C2
:1020F000307025217170354909780D466789002FA8
:1021000007D0002D15D06D1EADB27F1EBFB2002FBF
:10211000F7D1052822D88D420DD101A8FBF71DFB70
:1021200001A8E168122251430918B01C02F03EFEDA
:102130000BE70625E9E72348008D400701D51A7013
:1021400001E0FBF765FAE068122229035043091801
:1021500021480818B11CFBF7C3F9F6E61948008DB1
:10216000400701D51A7001E0FBF752FAE06803213D
:10217000801F02F0D0FE80B2144A1278954248D1F6
:10218000164A1279824244D10D462BE00C260020DB
:1021900003FE000018240020B02400203C2F002063
:1021A000902E00202C2600200B2400205B240020F1
:1021B000102F002006240020282F0020D02A0020E5
:1021C000FFFE0000E0290020482A00200D24002006
:1021D00002603F002A2F002000603F004E240020B4
:1021E0003A2F00204548122169430F18FF2212217F
:1021F000B01C02F067FE022D05D012223946B01C39
:1022000002F0D4FD10E03E48397881767978C176C5
:102210000AE03C4B2A03D218800180181222514355
:102220000818B11CFBF75CF9E0684D2800D1A6E660
:102230008BE60120E060344A14210020FDF72CFFDA
:1022400000283FD03148022201781143017039E063
:102250002F490878450706D5050704D56270F7228F
:102260001040087026E0820604D56370DF2210401B
:1022700008701FE020788446002823D0254A107873
:102280006070507891780002401860810020431CF3
:1022900059005D184100565D41185654A8184578FC
:1022A00089184D708078887098B21D28EFD36046E9
:1022B000401E20700020E060FF2001300743802096
:1022C0008743278112480078800714D4124C134D9D
:1022D00020782978401A800601D0FFF708FC207882
:1022E0002978401A8006800E202804D80748FD224D
:1022F0000178114001701DB0F0BD0000A02A00203F
:10230000102F002000613F00282F00205B240020B8
:10231000702400203C2F0020622400206024002034
:1023200010B5FF210131504802F0F1FD4F48002166
:102330000170417010BD30B44C4C62782378D21AD1
:10234000D2B28A4203D2002030BCC0437047002280
:1023500000290AD9444D2378EB5C0370401C237894
:102360005B1C2370521C8A42F5D330BC002070479E
:1023700070B58CB03D4D68782C78001BC0B2002839
:1023800024D0012104A8FFF7D6FF6846007C384E10
:10239000002806D010216846FFF7CDFF002813D192
:1023A0000BE002210AA8FFF7C6FF00280CD16846FF
:1023B000018D0022308895DF11E06846017C05A878
:1023C000FFF7B9FF002803D0FFF7AAFF0CB070BDDC
:1023D0006946087CC88005A80290308897DF0028ED
:1023E000F4D02C700CB070BD70B4204E727833787D
:1023F000D21AD2B2FF239A1A8A4203D270BC0020AA
:10240000C04370470022002909D9174C057873781A
:10241000401CE5545B1C7370521C8A42F6D370BC9E
:1024200000207047F8B50446104E7578A0790090EA
:1024300001216846FFF7D8FF00280CD11021204663
:10244000FFF7D2FF002806D169460978A068FFF798
:10245000CBFF002803D075700020C043F8BDFFF704
:1024600087FF0020F8BD0000962F0020CA2400201E
:102470007624002070B504460D46002D01D00120C1
:1024800000E00020002803D196A23321FCF7BFF81A
:10249000002C01D0012000E00020002803D191A2EF
:1024A0003421FCF7B4F8287820702888FF2109022D
:1024B0000840000A6070286809020840000CA070FB
:1024C0002868000EE07028792071287A60712889C8
:1024D000000AA071A868000CE07170BD70B50446D8
:1024E0000D46002D01D0012000E00020002803D17E
:1024F0007CA24B21FCF78BF8002C01D0012000E0DE
:102500000020002803D177A24C21FCF780F828781E
:102510002070698820464170090A8170A988C170BD
:10252000090A0171E8886071000AA07170BDF0B5F8
:102530008FB007460D4614461E46002D01D00120DF
:1025400000E00020002803D166A26D21FCF75FF8AF
:10255000002C01D0012000E00020002803D161A25E
:102560006E21FCF754F800200790089009900A901B
:102570000B900C900D906A46117F022211436A461F
:102580001177012108AA91766A4617870190317860
:102590001171717851719179F9221140891CF722DA
:1025A0001140EF221140490849006A469171049098
:1025B00005900EA9029101A9039114825082948280
:1025C00006954E4802AA07A90088149BA2DF0FB007
:1025D000F0BD30B585B0044601206946887448488E
:1025E0000882464A04A90120A0DF002877D122886A
:1025F00025463C35002A08D0424800902B464248E8
:102600006168FFF794FF002869D12289002A08D069
:102610003E4800902B463E48E168FFF788FF0028BF
:102620005DD1228A002A08D03A4800902B463A48C9
:102630006169FFF77CFF002851D1228B002A08D066
:10264000364800902B463648E169FFF770FF0028B6
:1026500045D1228C002A08D0324800902B463248BF
:10266000616AFFF764FF002839D1228D002A08D063
:102670002E4800902B462E48E16AFFF758FF0028AD
:102680002DD1216B00290CD002A8FFF7F3FE2948B9
:1026900000902B46082202A92748FFF748FF002890
:1026A0001DD1606B002809D024490091027901688E
:1026B0002B462348FFF73BFF002810D1A16B0029D0
:1026C0000CD002A8FFF70AFF1E4800902B460722F5
:1026D00002A91D48FFF72BFF002800D1002005B0FC
:1026E00030BD00002E2E5C736572766963655C6296
:1026F0006C655F6469732E6300000000CC240020C9
:102700000A180000CE240020292A0000D624002028
:10271000242A0000DE240020252A0000E6240020D0
:10272000272A0000EE240020262A0000F62400209C
:10273000282A0000FE240020232A0000062500206D
:102740002A2A00000E250020502A0000F8B5054670
:102750000E4617463C78A01C1F2803D82879801CF9
:102760001F2801D90C20F8BD1D20001B80B2864611
:1027700000903019801C69467DDF0028F3D128685D
:10278000022805D168460088704501D8092107E074
:1027900008212879002801D0704501D968460088B1
:1027A000431C621CD2B23355B1543978801C0818CE
:1027B00038700020F8BD78B405460C462078001D1E
:1027C0001F2802D90C2078BC7047684679DF0028A2
:1027D000F9D120780322411C21702A542078192233
:1027E000411C21702A5468462178008849190870D4
:1027F000000A48702078801C207078BC0020704748
:1028000070B505461C466868002807D020782B88DC
:10281000C618B61C1F2E03D90C2070BD072070BD32
:102820005B1C461C267013542078431C23701154E3
:1028300020782B8880181A46696802F0B7FA207849
:10284000297840182070002070BD30B41378DC1C4B
:102850001F2C02D930BC0C20704702255C1C147060
:10286000CD5413780A255C1C1470CD5413785C1C6D
:102870001470C85430BC00207047FFB583B00C9C66
:1028800007469E46002620780290002538880028BA
:102890003ADD7868A900401801886A4611804088AE
:1028A0005080002201A9684665DF00280FD16846E4
:1028B00002790598824223D1002E01D0002100E048
:1028C00002212078511841181F2902D90C2007B085
:1028D000F0BD002E07D1401CC0B2421C04992270EA
:1028E000724611540126217870460A1801A96846DB
:1028F00065DF0028EBD169462078097940182070FF
:102900006D1C3888A842C4DC002E06D021780298BD
:10291000029A081A401E71468854002007B0F0BD84
:10292000F8B5069C064615461F463B460222304631
:102930000094FFF7A2FF002808D13B461022294649
:1029400030460094FFF799FF0028FFD1F8BD0188B9
:10295000062906D31923DB01BC4A994203D99142C7
:1029600001D0072070474088062803D3984203D936
:10297000904201D007207047914205D0904203D089
:10298000814201D9072070470020704770B5064684
:102990000D4614462078801D1F2801D90C2070BDDB
:1029A0003046FFF7D4FF0028F9D120780522411CDA
:1029B00021702A5420781222411C21702A54207838
:1029C000318840190170090A41702078801CC1B219
:1029D0002170708849190870000A48702078801C9E
:1029E0002070002070BD70B5054614462879801C03
:1029F000C0B22278831CD3181F2B01D90C2070BDC4
:102A0000401C531C237088542078FF23421C2270E2
:102A10000B542278288852181070000A50702078C1
:102A2000801CC3B22370AA88002A0BD0A868002893
:102A30000AD05B180146184602F0B8F920782979C7
:102A400040182070002070BD072070BDF7B582B01F
:102A50000F4614460298406B002836D00026029894
:102A600020300190007E00282CD90298416B0C2068
:102A700070430D1829792078C91C421C22703954E2
:102A800020781621421C2270395421782888C919CF
:102A90000870000A48702078801CC0B22070AA8894
:102AA000002A09D0A968002912D0C01902F07EF9C5
:102AB0002078297940182070761CF6B20198007EA3
:102AC000B042D2D8002005B0F0BD072005B0F0BD5F
