:020000040001F9
:10D00000303E0020A5D10100BFD10100C1D10100F7
:10D010000000000000000000000000000000000010
:10D02000000000000000000000000000C3D101006B
:10D030000000000000000000C5D10100C7D10100C0
:10D04000C9D10100C9D10100C9D10100C9D1010074
:10D0500013E6010000000000A3E50100C9D10100B2
:10D06000C9D10100C9D10100C9D10100C9D1010054
:10D07000C9D10100C9D10100C9D10100C9D1010044
:10D08000C9D10100573D0200C9D10100C9D1010039
:10D09000713D02009148020065550200C9D10100AE
:10D0A000C9D10100C9D1010000000000000000004A
:10D0B0000000000000000000000000000000000070
:10D0C00000F002F800F032F80CA030C8083824183C
:10D0D0002D18A246671EAB4654465D46AC4201D1B0
:10D0E00000F024F87E460F3E0FCCB64601263342B0
:10D0F00000D0FB1AA246AB4633431847989900006C
:10D10000B89900000023002400250026103A01D31E
:10D1100078C1FBD8520700D330C100D50B607047EF
:10D120001FB5C046C0461FBD10B510BD09F045FB78
:10D130001146FFF7F5FF01F03CFC09F05DFB03B47D
:10D14000FFF7F2FF03BC09F061FB0000401E00BFC7
:10D1500000BF00BF00BF00BF00BF00BF00BF00BFD7
:10D1600000BF00BF00BFF1D17047000070B5054699
:10D170000C46164602E00FCC0FC5103E102EFAD218
:10D18000082E02D303CC03C5083E042E07D301CCDE
:10D1900001C5361F03E021782970641C6D1C761EC2
:10D1A000F9D270BD03210C4802680A4302600B48A3
:10D1B00002680A4302600A4880470A480047FEE7BF
:10D1C000FEE7FEE7FEE7FEE7FEE700000648074948
:10D1D000054A074B704700002405004054050040F5
:10D1E0006DD20100C1D0010030340020303E00205B
:10D1F000303400202748018CC9B201290BD1818C21
:10D20000090708D1018D0906090F042903D1808D72
:10D210000006000F01D000207047012070471D4913
:10D22000088CC0B201281DD1888C00071AD1088D46
:10D230000006020F03D18A8D1206120F03D0000FD1
:10D24000012802D005E0012070478A8D1206120FD6
:10D2500002D0032802D005E001207047888D000627
:10D26000000F01D0002070470120704710B5FFF774
:10D27000D6FF002805D0094907484860C813084967
:10D280008861FFF7B7FF002802D0064901208860B7
:10D2900010BD0000C00F00F0DFFF07C00005004018
:10D2A000006C00400006004002466149087D0028ED
:10D2B00008D000200B181B79934204D0401CC0B248
:10D2C0000828F7D3FF20704718B404466946204663
:10D2D000E7DF694608788007800F009002280BD3AB
:10D2E0002046C5DF69462046E7DF684600788107AB
:10D2F000890F00910229F3D218BC704770B5002045
:10D30000FFF7D2FF0546FF2D11D0494C2088400879
:10D310004000208000206074A074E0742846FFF76D
:10D32000D3FFFF2061190871207D401C207570BD5E
:10D3300082B001783F48085C3D49091809790829FD
:10D3400005D110216A461170C0B20821C7DF02B0B2
:10D35000704701783748085C35490818007900287B
:10D3600000D1CBE7704770B483B0044621783148D0
:10D37000095CE0784E2803D04F2801D0502849D1CD
:10D380002B4D68180079002844D1687C00260028BD
:10D3900019D0C8B26B4601AA02A9D4DF6846008939
:10D3A000002810D024494A8B824207D068804883E5
:10D3B0002249012208681203104308606E7428880D
:10D3C000012108432880287B617A884211D1687B3B
:10D3D000A17A88420DD1A87BE17A884209D1287CC4
:10D3E00000280ED0401EC0B22874002809D1EE7368
:10D3F00007E0207BE873F02801D9F020E8731020C3
:10D400002874607A2873A07A6873E07AA8730A2077
:10D41000A874EE7403B070BC70474178012904D041
:10D42000032903D0802902D19DE792E780E7704766
:10D43000B8250020BC250020242600201824002028
:10D44000FE48002101600121FD4A8905916000210B
:10D45000C9438160C16001617047F84A0023D3610C
:10D46000F8488168012903D000BF81680129FBD1F8
:10D4700083609069C0B27047F04AD061F14881681A
:10D48000012903D000BF81680129FBD100218160FF
:10D4900090697047E948192181601821C1601721FE
:10D4A0000161012109074162E74A06215161012119
:10D4B000E34B8A05DA600160704700B5FFF7EAFFC9
:10D4C0000520FFF7D9FFFFF7C8FF0346FFF7B8FFB6
:10D4D000184600BD00B5FFF7F0FFC007C00F00BD44
:10D4E00070B504460E461546FFF7F4FF002804D039
:10D4F00000BFFFF7EFFF0028FAD1FFF7CBFF0320B3
:10D50000FFF7BAFF2002000EFFF7B6FF2004000E5F
:10D51000FFF7B2FFE0B2FFF7AFFF0024002D05D9FF
:10D52000FFF79BFF3055641CAC42F9D3FFF788FF2F
:10D5300070BD08B504226946C448FFF7D1FF0098C2
:10D5400008BDC34880224169114300224271C27163
:10D55000032282710122120311434161704700B519
:10D56000FFF798FF0620FFF787FFFFF769FFFFF738
:10D57000A4FF8007F4D500BD70B50024FF25F53564
:10D58000FFF7A8FF002805D0012000F0B9FD641CBA
:10D59000AC42F5D370BD10B50403FFF7EDFFFFF704
:10D5A000DEFFFFF777FF2020FFF766FF2002000E67
:10D5B000FFF762FF2004000EFFF75EFFE0B2FFF707
:10D5C0005BFFFFF73DFF10BD70B506460D461446E4
:10D5D000FFF7D2FFFFF7C3FFFFF75CFF0220FFF763
:10D5E0004BFF3002000EFFF747FF3004000EFFF73D
:10D5F00043FFF0B2FFF740FF0023002C05D9E85CA1
:10D60000FFF73AFF5B1CA342F9D3FFF719FF70BD88
:10D6100010B590490C200860012189488905816076
:10D62000C900816049108160C910C1608A48018DBC
:10D63000042211430185864903208870052000F0EB
:10D640005FFD10BD10B584B08348008D40070028F1
:10D6500003DA7F490320887001E0FFF7D9FF00F06B
:10D6600056FB0020FFF797FF082202A90020FFF7D2
:10D6700037FF002002AC215CFF2902D0002004B05B
:10D6800010BD401CC0B20828F5D300202054401C17
:10D69000C0B20828FAD3082202A90020FFF794FF9D
:10D6A000082269460020FFF71BFF00206946225C24
:10D6B0000B5C9A4202D0002004B010BD401CC0B2E6
:10D6C0000828F4D3012004B010BD64480021016093
:10D6D00041608160C160016141618161C16101623C
:10D6E00041628162C162704710B558215C4808F000
:10D6F000BAF85C485A4902880A8082788A70C078F1
:10D70000C8705548018D78229143018510BD50495C
:10D710000872FF2248690132104300224A71032235
:10D720008A71CA79521ECA710122120310434861DC
:10D730007047474AD079411CC9B2072802D25072BB
:10D74000D1717047507A062804D0401C5072D171B4
:10D75000507ADCE700205072F9E730B440490A887B
:10D7600002808A788270CA78C2703F4B5A684260E1
:10D770001A6882609A68C260DA6802614A68426127
:10D780008A688261CA68C2610A6902624A69426241
:10D790008A698262CA6982624A6A4263CA6A826329
:10D7A0000A6BC2634A6B02648A6B4264CA6B82640E
:10D7B000096CC1642D4A0146148940310C82548998
:10D7C0004C8294888C82D488CC82147B0C76527BD9
:10D7D0004A7600228A76204A148D2407002C01DA2A
:10D7E00001248C76148DE40603D58C7E02252C430F
:10D7F0008C76148DA40603D58C7E04252C438C7660
:10D80000128D520603D58A7E202422438A769A7F7F
:10D81000CA76DA7F0A77164A13784B7753788B7774
:10D820009378CB77D178603001701179417051795C
:10D8300081709179C17030BC7047000000350040A4
:10D84000000500500031004040350040FCF03F0032
:10D85000042400205C070050F8290020B82A00208A
:10D86000602A00204E24002024260020A02A002028
:10D870004426002030B4FE490A463CCA3CC00A4651
:10D8800010323CCA103810303CC04A6A2038096A4D
:10D890004262016230BC7047F0B5A7B0F54EF64D5C
:10D8A00070690327002806D0288D400701D5B7707E
:10D8B00001E0FFF7ADFE706900240106002918DAC7
:10D8C000FFF708FE002812D17179EC480818FFF71D
:10D8D00062FE7079401CC0B27071B771072806D122
:10D8E000706980218843B47109010843706127B0D1
:10D8F000F0BDE34EC10516D5FFF7ECFD0028F6D1CB
:10D90000DC4DDE48297A0818FFF745FE6879401C8F
:10D91000C0B26871AF710128E9D16869B04368612C
:10D92000AC7127B0F0BDD34F410534D5FFF7D2FD20
:10D930000028F6D1D3480579002D00D118256D1E99
:10D94000787AD149000340194618012201A93046CE
:10D95000FFF7C6FD68460079FF2813D10194012224
:10D9600001A93046FFF730FEA801797A09030818AB
:10D97000C649441802A8FFF77DFF282202A92046C5
:10D98000FFF722FE01207969800281437961FFF768
:10D990009CFE27B0F0BD81051BD5FFF79BFD00283D
:10D9A000F7D164210CA807F05EFF0CA8FFF7D5FEA5
:10D9B000787AB7490003401864220CA9FFF704FEE7
:10D9C000012178694902884389000843786127B0BA
:10D9D000F0BD01050CD5FFF7ACFEFFF785FEFFF7A4
:10D9E00074FE01207969C0028143796127B0F0BDDE
:10D9F0003A46C107202700297ED0D1781546002954
:10DA00000DD0FFF767FD00280ED028790028EDD152
:10DA10006869400840006861EC7027B0F0BD4008BC
:10DA20004000686127B0F0BDE87801281CD00228CA
:10DA300021D0C10642D50407240F20029549259024
:10DA40004018FF2201329449FFF74AFD002189481E
:10DA5000924E4289904D6B1858786F5C0002C01945
:10DA600090420ED1304611E08D48FFF794FD102012
:10DA7000E87027B0F0BD8B48FFF78DFDEF7027B041
:10DA8000F0BD904202D9B04200D0401E6854000A56
:10DA90005870891CFF29DED9834A25988018FF22F7
:10DAA00069180132FFF790FD7248C178491CC170B6
:10DAB000082CE4D10221C17027B0F0BD810624D525
:10DAC00005072D0F78482F02381832467249FFF7A4
:10DAD00007FD7048381832466F49FFF775FD6548F5
:10DAE0006449C078401CC870082DE5D108464169DA
:10DAF00049084900C47000E00EE002221143416170
:10DB0000418A491E418227B0F0BD68694008400043
:10DB10006861EC7027B0F0BD1446C1060CD5FFF764
:10DB2000D9FC0028F6D16069102188436061A069A2
:10DB3000FFF731FD27B0F0BD810613D5FFF7CAFC12
:10DB40000028F7D1A0696178000349014018FF302F
:10DB500001306169B943616114225449FFF734FD12
:10DB600027B0F0BD410624D5FFF7B4FC0028F7D15B
:10DB7000A069000361694022914361614D4A4C49AB
:10DB8000134678CB483178C11346103378CB5839D7
:10DB9000583178C1956A546A136A6839D26A0D6738
:10DBA000CC668B664A6730224831FFF70DFD27B0FF
:10DBB000F0BD410710D5FFF78DFC0028F7D1606953
:10DBC000042188436061E069FFF7E5FC6069082192
:10DBD0000843606127B0F0BD010717D5FFF77AFC55
:10DBE0000028F7D1E0690103E0891038C217120F4D
:10DBF000101800110002401832462F49FFF7E4FCCC
:10DC0000616908208143616127B0F0BDC10412D56C
:10DC1000FFF760FC0028F7D1012160690903884300
:10DC200060612648FFF7B7FC01216069490308439A
:10DC3000606127B0F0BD81044ED5FFF74BFC002892
:10DC4000F7D10121606949038843606134221C498E
:10DC50001148FFF78BFA1B481B4901601B481C4900
:10DC6000016032460C491B48FFF7AEFC27B0F0BDFF
:10DC7000B82A002004240020F8290020F603000020
:10DC8000000100004E240020E0603F0000613F00E2
:10DC900000603F0000E03F0098260020FFFF0000EA
:10DCA000FD030000FE03000000D03F00D827002045
:10DCB00050260020D025002098270020FF030000D8
:10DCC0002426002090270020785634129427002024
:10DCD0002003152000F03F004004C7D5FFF7B2FC39
:10DCE00001280ED0288DF14908402885012160695E
:10DCF000890388436061EE4801783943017027B099
:10DD0000F0BD288D0121890208432885EEE770B512
:10DD1000E84D287DC0070DD000247D26F600FFF7D2
:10DD2000BBFD287DC00705D00A2000F0E9F9641C7E
:10DD3000B442F4D3FFF720FC70BD10B5DE48008D6F
:10DD4000DC4C4007002802DA0320A07001E0FFF756
:10DD50005FFCFFF7DCFFD948FFF71DFC0020608265
:10DD6000D748A0810121606909030843606110BDA3
:10DD7000F0B5D04D6869810700292DDAC0072BD195
:10DD8000FFF7A8FB002827D1686902218843686152
:10DD90000020A881FFF77EFB0320FFF76DFB3F20EB
:10DDA000FFF76AFBE020FFF767FB0020FFF764FB4B
:10DDB0000024C34EFFF751FB0746FFF74EFB00025E
:10DDC000C019C049884202D1A889401CA881641C9E
:10DDD000B442EFD3FFF734FBF0BD70B50646B6484A
:10DDE000008D03254007B34C002801DAA57001E03F
:10DDF000FFF70EFC0121E1706681606908436061F4
:10DE0000257170BDF8B504460E46FFF780FFAE4998
:10DE100060004518FFF73EFB0320FFF72DFB2802AB
:10DE2000000EFFF729FB2804000EFFF725FBE8B2E0
:10DE3000FFF722FBA24FBC420BD2FFF70EFB0546B9
:10DE4000FFF70BFB00024019B04202D0641CBC4239
:10DE5000F3D3FFF7F5FABC4201D39A48F8BD204648
:10DE6000F8BDF8B500269448008D4007002803DA75
:10DE700090490320887001E0FFF7CAFBFFF747FFD6
:10DE8000FFF708FB0320FFF7F7FA3F20FFF7F4FA4C
:10DE9000E020FFF7F1FA0020FFF7EEFA0024894FA7
:10DEA000FFF7DBFA0546FFF7D8FA00024519BD4235
:10DEB00003D06D1CB54200D92E46641C80488442B4
:10DEC000EED3FFF7BDFA3046F8BDF8B5FFF7C9FF4E
:10DED000784D80B26882002815D00024002812D91D
:10DEE000784EA1B20020FFF78DFFB04207D00003AB
:10DEF00004226946FFF7F4FA0098401C04D0641C21
:10DF0000688A8442EDD3F8BDA0B2FFF766FF686966
:10DF1000002806D0FFF7C0FCFFF72AFF6869002839
:10DF2000F8D1688A8442DCD3F8BDF8B56248008D28
:10DF3000604F4007002802DA0320B87001E0FFF7C5
:10DF400067FB0020F871FF20787200245F4E2003E9
:10DF5000801904226946FFF7C3FA0098401C03D0D9
:10DF6000F879401CF87103E0787AFF2800D17C72C0
:10DF7000641C072CEBD3787AFF2805D0F979891C2B
:10DF8000F971FFF7C4FB1EE00025ED4300242003D8
:10DF9000801904226946FFF7A3FA00980104020AD7
:10DFA000FF231B021A400A43000E1043A84201D26D
:10DFB00005467C72641C072CE9D3F879401CF87183
:10DFC000787AFFF7A4FBFFF78FFBFFF77EFBF8BD26
:10DFD00001213F48490581603E4A0321116001212A
:10DFE0008905C160C900C1608910C1604900C16074
:10DFF0003148018D04229143018570473649032041
:10E000000860091D086035490860091F0860DFE7DE
:10E0100010B5FFF7F3FFFFF7FBFAFFF78AFA304975
:10E0200088420ED134222F492F48FFF759FAFFF7C3
:10E030007CFFFFF74AFF1F480222416911434161FB
:10E0400010BD28492948086029484860294A8A6043
:10E05000294ACA600861492088827A20C8826920DA
:10E06000088300224A8323208877AF20C87723487B
:10E070004D2303704270BA2383703C23C370822304
:10E0800003714B234371FF238371C2710823037211
:10E090001E2343728272FE2088838005C862086353
:10E0A000FFF74BFEFFF74DFA10BD0000FFFB00002D
:10E0B0007024002004240020F8290020FE03000022
:10E0C000F6030000FFFF000000E03F0000603F009B
:10E0D000000500505C0700505407005064070050D2
:10E0E000200315202426002000F03F0040420F00AE
:10E0F000581B000080841E00302A000044260020A7
:10E100001921C9014843002802D0401E0028FCD133
:10E110007047F8B5F7490C2008600422081D02601A
:10E12000F54904200860091D0860F44804210160D5
:10E13000F34904200860091D0860F2490860091DC0
:10E140000860091D0860F04804210160EF490420BF
:10E150000860EF490860091D0860EE48042101606D
:10E16000ED4803250560ED4C8020E0602069C00586
:10E17000C30FEB4EEB490020002B07D0338DEA4F45
:10E180003B4033850D604021E16007E0338D01277E
:10E190003F033B43338508607B010B60D54BE3496C
:10E1A0001D6001231E02E6600D60A3600B1D186058
:10E1B0001B1D1D60A2601A1D1060DD4B10221D602A
:10E1C000A2601A1D1060DB4A10604861C86002F04E
:10E1D000B4F8D9480560001F05603002A060401007
:10E1E000A06000F0BFFCF8BD10B4D04B0322840047
:10E1F000E41822608C00E3181A6001231A4682405A
:10E20000C64882608B408360C260C36010BC7047A8
:10E2100010B4C64C032283001B191A6001231A464E
:10E220008240BE48C2608B408360826010BC7047F1
:10E2300010B4BE4C032283001B191A60012213463E
:10E240008340B64883608A408260C26010BC7047D9
:10E2500010B4B64C032283001B191A600122134626
:10E260008340AE48C3608A408260C26010BC704781
:10E2700070B40446AD4B0C20A200D21810600020F0
:10E28000002201252B46A54E8B404006000EB360B0
:10E290003169E140C907C90F002900D02843F36064
:10E2A000521CD2B2082AF0D370BC7047F0B49C461E
:10E2B0009E4C032385002F193B6000250124264630
:10E2C0008640964B8C40DE60110600D59E60194654
:10E2D0009C60CC6051060A0E6D1CEDB2082DF2D385
:10E2E000614600290DD10C2139609C601969C1403B
:10E2F000C807C00F002803D0DC60F0BC01207047C5
:10E30000DC60F0BC00207047FFB50B9F099E0A9DA2
:10E310001C4601990098FFF767FF0023029A0199B4
:10E320000098FFF7C3FF01281DD000232246019962
:10E330000098FFF7BBFF01281CD00024002D0BD94B
:10E34000325D3B4601990098FFF7B0FF012818D0D5
:10E35000641CE4B2AC42F3D301990098FFF758FF74
:10E36000012004B0F0BD01990098FFF751FF002093
:10E3700004B0F0BD01990098FFF74AFF002004B0F7
:10E38000F0BD01990098FFF743FF002004B0F0BDF5
:10E39000FFB50A9E099D14461F4601990098FFF794
:10E3A00023FF0023224601990098FFF77FFF0128F1
:10E3B00025D00023324601990098FFF777FF012806
:10E3C00024D001990098FFF70FFF01200443224653
:10E3D000002301990098FFF769FF01281DD0002450
:10E3E000002D29D96E1E01990098FFF741FF38557D
:10E3F000B44219D001990098FFF72AFF18E001995B
:10E400000098FFF705FF002004B0F0BD01990098C7
:10E41000FFF7FEFE002004B0F0BD01990098FFF761
:10E42000F7FE002004B0F0BD01990098FFF700FF4F
:10E43000641CE4B2AC42D6D301990098FFF7E8FE21
:10E44000012004B0F0BD08B5002003223B4B11466B
:10E45000009005F08EFC002804D0FF2138A2023184
:10E4600000F03FF908BD70B5394E01210022890343
:10E47000306805F030FD002804D0FF2130A21A31A9
:10E4800000F02FF9264C208DC00411D401256D0316
:10E4900000222946706805F01EFD002804D0FF21E7
:10E4A00027A2203100F01DF9208D2843208570BD62
:10E4B000208D28490840208570BD10B5264A0121CD
:10E4C000234805F0B1FC002804D0FF211CA20A312A
:10E4D00000F007F9214A0121214805F0A5FC002898
:10E4E00004D0FF2116A2103100F0FBF8FFF7BBFFAC
:10E4F00010BD0000200700502807005030070050D2
:10E50000340700504407005050070050680700507F
:10E5100070070050780700501C070050000500509D
:10E52000F829002018070050FFEF000000070050F6
:10E53000100700506C07005040070050F8270020DB
:10E540002E2E5C68617264776172652E6300000034
:10E5500030240020FFDF0000DB0102009F020200E8
:10E560003424002070B5334C206805F0DDFC002811
:10E5700004D0FF21304A373100F0B3F82F4D288DF9
:10E5800080040DD5606805F0CFFC002804D0FF2181
:10E59000294A3D3100F0A5F8288D294908402885F1
:10E5A00070BD70B52748C16B00292CD00021C16314
:10E5B000254C6069254D8003800F11D1E0688003F0
:10E5C000800F0DD02869C006C00F002808D1204850
:10E5D0000078C00702D001F0F6FE01E001F030FF44
:10E5E000A0698003800F0ED028694006C00F002864
:10E5F0000AD0A069032109040843A06115488022BC
:10E6000001891143018170BDA06913490840A061CF
:10E6100070BD10B511488069C0B2114A00219160E7
:10E620000B490978C90702D001F002FF10BD01F0C3
:10E630009CFF10BD3024002040E50100F829002097
:10E64000FFDF00004061004000070050000500505F
:10E650005B240020E82A0020FFFF02000045004064
:10E660000041004010B52C20FE4900240C70491CCC
:10E67000401E80B20028F9D11620FB490C70491CBD
:10E68000401E80B20028F9D13420F8490C70491C92
:10E69000401E80B20028F9D1F34908220A75FF22F2
:10E6A0000B181A71401C80B20B7D8342F8D887206A
:10E6B000EF49400108800020EE49C0430880EE4841
:10E6C00001F007FDFFF7A4FCEC480480EC480321AF
:10E6D0000177EC493C20087010BD10B505F014FE20
:10E6E00010BD10B4FF20E84AE849E94B5468E4073C
:10E6F00000D019600028F9D110BC704708B500237C
:10E700005022E449082006F0F7FE002803D0E2A2D8
:10E710005A21FFF7E6FF002000900090684660DF76
:10E72000002803D0DCA26121FFF7DBFFDD4806F003
:10E7300001FF002803D0D8A26521FFF7D2FFDA48F5
:10E7400006F000FF002803D0D3A26921FFF7C9FF1C
:10E75000D64806F0FFFE002803D0CFA26D21FFF7B8
:10E76000C0FF08BD10B5BF48018D8905002919DA21
:10E77000018DCF4A11400185CE480021C16003219F
:10E780000904416101F0D2FD0020CB49C0438860FB
:10E79000CA4910200860FFF7E5FE0A20FFF7B0FC29
:10E7A00034DF10BD40DF0028FBD0BBA28521FFF77E
:10E7B00098FF10BD0A460146C14892E700B583B0F4
:10E7C000C0480A21007807F050F830306A461070CF
:10E7D0003031517002200290BB486B46008802AA7B
:10E7E0000021A4DF002803D0ABA2C221FFF779FFEC
:10E7F00003B000BDF8B5B5490869C006C00FFD26D5
:10E80000B34D002857D0B3480078002853D128785A
:10E81000C2070DD0B049097800294CD1400840000A
:10E82000287001F08FFF01F0C1FD01F09CFD42E076
:10E83000820708D53040287001F0AFFF01F0B6FD27
:10E8400001F091FD37E0A5480068002806D002F0ED
:10E850000AF801F0ABFD01F086FD2CE0A048A14ACA
:10E8600000881288904206D001F0D0FE01F09EFD93
:10E8700001F079FD1FE008698006C00F00281AD159
:10E880009949087882070BD5984A994B12781B78DA
:10E89000D21A9206920E202A0DD8304008700AE053
:10E8A00040084000087000218248416103210904AA
:10E8B000C16001F058FD2878010704D5F721084010
:10E8C0002870FFF77BFF287841076CD5FB210840B3
:10E8D00028708848634C007800280AD08021864F31
:10E8E00001280ED002282FD0032850D0042851D060
:10E8F00059E0208D000501D401F0DAFE03F0B4FAEE
:10E9000051E0208D000609D4208D08432085012088
:10E9100002F0D6FD3888794908403880208DC0053E
:10E920000DD577480089410604D500F031FA01F091
:10E930005FF938E0000736D401F05AF933E000F00F
:10E9400011F901F055F92EE0208D000609D4208D33
:10E9500008432085012002F0B3FD3888674908404C
:10E960003880208DC0050DD565480089410604D545
:10E9700000F00EFA01F0C2F815E0000713D501F01F
:10E98000BDF810E000F0EEF801F0B8F80BE000F090
:10E99000F9F908E003F068FA00F041FA208D01214E
:10E9A0004902084320856878810701D530406870A6
:10E9B000F8BD554953484860544980178860C207DC
:10E9C0004A603D49886004204860FFF797FEFFF7E2
:10E9D0003AFD02F098F8FFF745FEFFF79AFBFFF7C4
:10E9E0006CFD01F08BF803F00DF806202ADF0420FF
:10E9F0002ADF012106202BDF002804D0FF2126A2D8
:10EA00007431FFF76EFE012104202BDF002804D0B3
:10EA1000FF2121A27631FFF764FE062026DF0028C1
:10EA200004D0FF211CA27831FFF75BFE042026DF13
:10EA3000002804D0FF2118A27A31FFF752FE62B6F7
:10EA400001F0A9FC324C294D294E214F02F068F803
:10EA5000206800287DD128883188884279D138689B
:10EA6000002857E0F8290020B8250020242600209F
:10EA70004C240020762400204E2400204224002034
:10EA8000A82B002040240020000401403546526E8F
:10EA900000060140A82900202E2E5C6D61696E2EB3
:10EAA000630000001F1E02001BD40100DBE6010012
:10EAB000FFFD0000000700500043004080E100E03F
:10EAC000EFBEADDE5A240020F024002000050050E7
:10EAD000682400205C240020B62400206C24002040
:10EAE00064240020662400205B240020622400208F
:10EAF0006024002058240020B8240020BFEF00002C
:10EB0000E82A0020DFFF07C0000500400063004046
:10EB1000182400201DD11048018810480088814227
:10EB200017D10F4800698006C00F002811D0FFF7E9
:10EB300019FEFFF75FFE01F0A4F801F05CFB01F0A5
:10EB4000B4FB03F088FAFEF7A7FEFFF711F97DE7A3
:10EB5000FFE700BFEDE700006424002066240020EA
:10EB60000005005070B584B00F211020FFF750FB56
:10EB70000F2001250146019003AB322200951020A1
:10EB8000FFF706FC472168460173002403AE2023EB
:10EB900032220F211020009601950294FFF7B4FB5A
:10EBA00068460473212332220F211020009601951C
:10EBB0000294FFF7A9FB68460473222332220F2137
:10EBC0001020009601950294FFF79EFB684604739F
:10EBD000232332220F211020009601950294FFF783
:10EBE00093FB68460473242332220F2110200096E1
:10EBF00001950294FFF788FB6846047325233222AF
:10EC00000F211020009601950294FFF77DFB6846C6
:10EC100004732E2332220F211020009601950294B6
:10EC2000FFF772FB68460473302332220F21102055
:10EC3000009601950294FFF767FB68460473322340
:10EC40001A460F211020009601950294FFF75CFBF5
:10EC500068460473332332220F2110200096019559
:10EC60000294FFF751FB68460473382332220F21C8
:10EC70001020009601950294FFF746FB5821684644
:10EC800001733A2332220F2110200096019502943D
:10EC9000FFF73AFB0221684601733B2332220F2122
:10ECA0001020009601950294FFF72EFB072168467D
:10ECB00001733C2332220F2110200096019502940B
:10ECC000FFF722FB1421684601733D2332220F21F6
:10ECD0001020009601950294FFF716FBFB48018D6A
:10ECE0002A021143018504B070BDF0B585B000243F
:10ECF00068460474012504AE242332220F2110201B
:10ED0000009601950294FFF7FFFA684604742E23DB
:10ED100032220F211020009601950294FFF7F4FA99
:10ED2000EA4F388DC0040AD5684604742523322280
:10ED30000F211020009601950294FFF7E5FA1720A5
:10ED400069460874202332220F2110200096019575
:10ED50000294FFF7D9FADE48C477DE480482388D82
:10ED600080040DD5DC48006805F0DEF8002803D0EB
:10ED7000DAA26F21FFF7B5FC388DDC4908403885F1
:10ED800005B0F0BDD3484022018911430181ACE7B1
:10ED9000F0B585B0CF4D412128898843288147208F
:10EDA000694608740024012604AF202332220F2173
:10EDB0001020009701960294FFF7A6FAC448C47782
:10EDC0002C82CB484476C14D288D4004400C2885C8
:10EDD000288DC0040DD540206946087425233222B1
:10EDE0000F211020009701960294FFF78DFA05B0CD
:10EDF000F0BD288D8004FAD40124B74864030022B2
:10EE00002146006805F067F8002803D0B3A29421DA
:10EE1000FFF767FC288D2043288505B0F0BDF0B5CD
:10EE200085B0AA4C208DB34908402085208D00254F
:10EE3000C004012704AE00280ADA684605742523B9
:10EE400032220F211020019700960295FFF75CFAFD
:10EE500068460574202332220F2110200197009666
:10EE60000295FFF751FA208D80040DD59A4800686D
:10EE700005F05AF8002803D098A2B521FFF731FC1D
:10EE8000208D9A490840208505B0F0BD9A48417B05
:10EE9000827B891AC9B2C27B037CD21AD2B2437C6C
:10EEA000807C181AC0B2914203D3814201D3012061
:10EEB00070478A4203D3824201D302207047032065
:10EEC00070478348018A491C0182C189C182704709
:10EED0008748407D0107002901DA01207047C006FC
:10EEE00001D50220704703207047884202D3401AA0
:10EEF00000B27047081A00B27047F0B583B074488A
:10EF0000C189491CC181734E794D318A002917D0BE
:10EF1000491E89B23182002912D16C490A8D5204EE
:10EF2000520C0A8500216976744A14785378721855
:10EF3000C032147093711373491CC9B20529F6D3FA
:10EF40006D4CE17F652901D2491CE177614A518905
:10EF500080318EB29189803189B2D289803292B269
:10EF6000C37F0293042B7BD3A37863709E46E37820
:10EF7000A37001932379E370F6B22671B446019F22
:10EF80007646F6196344F3185C4E9B083370A679F5
:10EF90006671B646E679A6713746267AE671B446BA
:10EFA000C9B221727646F61961447618B108534EFB
:10EFB0007170A67A6672B646E67AA6720096267BCD
:10EFC000E672D2B222739446009F7246D21966440A
:10EFD00092194A4E9208B270029E0127042E40D028
:10EFE000607B984200D26373E07B884200D2E17379
:10EFF000607C904200D26274A07B984200D9A373D7
:10F00000207C884200D92174A07C904200D9A2744F
:10F010000022687DC10776D0A97C994279D2400848
:10F0200040006875A17EA87CFFF75FFFA17D884244
:10F030006FDBA07E6076A87CA0760020254B191897
:10F04000C0314E780E70401CC0B20528F7D3181896
:10F05000A97CC0300170FFF73BFF012851D058E078
:10F06000E1E20526C677002020706073FF26A673B4
:10F07000E07326746074A674E074207560750C26C5
:10F08000A675E67526766376A376E17621776277B4
:10F09000A277AB74E974297508226A75AF75EF75AC
:10F0A0002F760A4A168D7604760C16856876094DF9
:10F0B0002A18C032137091711173401CC0B2062817
:10F0C000F6D34120E07703B0F0BD1CE0F829002022
:10F0D000682B0020E82A0020342400202E2E5C73A8
:10F0E000656E736F7233672E63000000FFDF0000F0
:10F0F000A82B0020FFFE0000882B00203C240020CD
:10F1000007E0012205E0A97C994202D938436875DD
:10F1100088E7687D810726D5FE49EB7C49788B42DC
:10F120002AD2FD2108406875217FE87CFFF7DDFECB
:10F13000E17D884220DB207FE076E87C207700209C
:10F14000F54B1918C031CE798E71401CC0B205281C
:10F15000F7D31818E97CC0308171FFF7B9FE022897
:10F160000AD1022208E0EB49EB7C49788B4203D9B3
:10F17000022108436875D7E7687D410726D5E54930
:10F180002B7D89788B422AD2FB2108406875A17FAC
:10F19000287DFFF7AAFE217E884220DBA07F6077D2
:10F1A000287DA0770020DC4B1918C0314E7B0E73F0
:10F1B000401CC0B20528F7D31818297DC030017350
:10F1C000FFF786FE03280AD1032208E0D1492B7DF0
:10F1D00089788B4203D9042108436875D7E7CD4865
:10F1E0000178A9744178E97480782875012A04D0DF
:10F1F000022A7AD0032A79D0D0E1A17E637E994297
:10F2000075D2E07C884272D9984270D2E07F0F3884
:10F2100055286DD8C04864210182C048008DC04E79
:10F2200000047DD500206877BE480168491C016054
:10F23000BD494868401C4860B74B197AC90707D0D8
:10F24000B949CA68521CCA60718A491C718206E0B9
:10F25000B5498A68521C8A60318A491C3182B34997
:10F26000496800290ED0AD4A178D3F070AD488425D
:10F2700008D3108D082108431085AD48402201783D
:10F2800011430170A3483C210171FFF71AFE1F8949
:10F29000B8070DD5A5485968808A0918596007F044
:10F2A00089FAA249C96A07F0D5FA07F03FFA2AE0BD
:10F2B00078070DD59D485968C08A0918596007F02C
:10F2C00079FA9A49096B07F0C5FA07F02FFA1AE0A4
:10F2D000F8070ED09548C08A07F06CFA9349096B7D
:10F2E00007F0B8FA07F022FA0DE043E14DE155E1ED
:10F2F000A5E08E48808A07F05DFA8C49C96A07F05C
:10F30000A9FA07F013FA87494A6812184A60864A30
:10F31000516909185161FB0708D0D3691B1800E037
:10F320001DE0D36172681218726005E093691B18C2
:10F330009361326812183260764AD3881818D080E8
:10F340007A48006800287AD0744A138DDB0676D498
:10F35000814274D3118D10200143118507E1687E2D
:10F3600000284AD1012A04D0022A19D0032A2ED01B
:10F3700043E00020E37C68490918C0314A780978E5
:10F380008A4208D2934206D98B4204D2697E491C34
:10F39000697600216977401CC0B20428EBD32CE0C9
:10F3A0000020237D5C490918C031CA7989798A42D5
:10F3B00008D2934206D98B4204D2697E491C6976F1
:10F3C00000216977401CC0B20528EBD315E000206E
:10F3D000637D51490918C0314A7B097B8A4208D2B2
:10F3E000934206D98B4204D2697E491C697600217A
:10F3F0006977401CC0B20528EBD3687E401CC0B2C0
:10F400006876002169770C2819D14448018D0122C2
:10F41000D20311430185434801680C310160424920
:10F4200048680C30486088310F89F90708D03E4998
:10F43000CA680C32CA60718A0C31718207E096E0AA
:10F4400039498A680C328A60318A0C3131823749F5
:10F45000496800290ED0314A138D1B070AD488420F
:10F4600008D3108D082108431085314840220178C7
:10F470001143017027493C2008712749B8070FD56F
:10F480002A480C22808A50434A6812184A6007F0C2
:10F4900091F92649C96A07F0DDF907F047F92CE030
:10F4A00078070FD521480C22C08A50434A681218A9
:10F4B0004A6007F07FF91D49096B07F0CBF907F0A7
:10F4C00035F91AE0F8070CD018480C21C08A4843D7
:10F4D00007F070F91549096B07F0BCF907F026F938
:10F4E0000BE012480C21808A484307F063F90F496A
:10F4F000C96A07F0AFF907F019F90A4A5168091803
:10F5000051603C32516909185161FB0717D0D3692A
:10F510001B180FE03C240020E82A0020F8290020D6
:10F52000B82A0020242A0020602A00202426002057
:10F530006C240020D36172681218726005E0936930
:10F540001B189361326812183260FE4AD38818186B
:10F55000D080FD480068002809D0FC4A138DDB06E6
:10F5600005D4814203D3118D102001431185002061
:10F57000E07713E0207FE17E88420FD2237D834233
:10F580000CD98B4200D241E608E0A07F617F88421F
:10F5900004D2637D834201D98B42F4D32078401C8E
:10F5A000C0B22070322800D08DE500262670607B26
:10F5B000A17B40184008E074E07B217C40184008A3
:10F5C0002075607CA17C4018400860750C20A075F7
:10F5D000E0752076E87D2876A87DE875FFF756FC73
:10F5E000A875E97D81420DD12A7E8A420AD1697DC2
:10F5F000C7221140697501280DD002280FD02020A4
:10F60000014369756673FF20A073E6732074667406
:10F61000A07403B0F0BD082001436975F2E7102023
:10F6200001436975EEE7CA4C029B1E55C47FC94B66
:10F63000E154C37FC8495A54C17F491CC17703B004
:10F64000F0BDF0B40021C548C54B0A22067E9A5E83
:10F6500024240223E4430025002E04D0012E0ED0E2
:10F66000022E16D01EE0252A02DD0376012119E0C4
:10F670001A26F643B24215DB0121017612E0A242BE
:10F6800002DA057601210DE0252A0BDD0376012142
:10F6900008E0A24202DA0576012103E01B2A01DA22
:10F6A00001210176AE4F427E0C26BE5F002A04D0B7
:10F6B000012A0ED0022A16D01EE0252E02DD437646
:10F6C000012119E01A22D243964215DB012141762D
:10F6D00012E0A64202DA457601210DE0252E0BDD6F
:10F6E0004376012108E0A64202DA4576012103E0D3
:10F6F0001B2E01DA01214176994F827E0E26BE5FD4
:10F70000002A04D0012A0ED0022A16D01EE0252E8F
:10F7100002DD8376012119E01A22D243964215DBDD
:10F720000121817612E0A64202DA857601210DE000
:10F73000252E0BDD8376012108E0A64202DA8576CC
:10F74000012103E01B2E01DA012181768548102377
:10F75000C27E002A05D0012900D1C376C27E521E86
:10F76000C276012907D1C17E002904D17C498A8A49
:10F77000521C8A82C376F0BC70470902014308B26A
:10F7800000110105002903DA0F210903084300B223
:10F79000C117090F081800117047F0B5B7B001265E
:10F7A0007148802181602F20019004AB32220F210B
:10F7B00000961020FEF7ECFD6946087CC006C00EDE
:10F7C000049006225043A8210191009006AB3222FA
:10F7D0000F211020FEF7DCFD002400256946087C7F
:10F7E000002821D906AF3A195178385DFFF7C5FFD7
:10F7F0005B4B5881D1789078FFF7BFFF98815179A2
:10F800001079FFF7BAFFD881187A000702D5FFF701
:10F8100018FF01E0FFF771FBA41DE4B26D1CEDB20F
:10F820006846007C8542DED34848008DC00443D53D
:10F830004C4C607F401CC0B260770C283CD1002546
:10F840006846057505AF242332220F21102000974A
:10F8500001960295FEF758FD684605752E23322263
:10F860000F211020009701960295FEF74DFD4021D3
:10F8700068460175252332220F211020009701963A
:10F880000295FEF741FD314D288D80040DD5374896
:10F89000006804F049FB002803D0354AEF21FEF749
:10F8A00020FF288D334908402885002060772C49A7
:10F8B00080220889904308812B498020C86037B096
:10F8C000F0BDF0B583B0264B24491F890A8A7B0816
:10F8D000888A5B00234E0293337F824256D00125F3
:10F8E0002D04824203D9101A80B2019003E0281A35
:10F8F000801880B20190CC8A488A844202D9201AAA
:10F9000080B202E0281A001980B2032B00D16020D7
:10F910004C828A8206F0D5FC04460D46019806F01A
:10F92000D0FC052206F0FCFD22462B4606F078FAB4
:10F9300006F092F80A4908600F4A904220DB012045
:10F9400007431BE03C24002024260020F829002047
:10F95000892B00208D2B0020912B0020682B00206C
:10F96000E82A0020A82B00200005005034240020A5
:10F97000DCF00100FFDF0000000020400F8101E00B
:10F98000029808810020307703B0F0BD032BFBD034
:10F990005B1CD8B230770328F6D1FE490298088163
:10F9A0000020086003B0F0BDF8B5FB4CE078401CC7
:10F9B000C0B2E0700A287CD10025E570E0880028FC
:10F9C00078D0FF2169314843F44905F04EFF06F035
:10F9D000F1FE06F0D3FDF24AF24B06F075FC06F09C
:10F9E0003BF80127BF07F04EB84249DDEF49F04F21
:10F9F000884245DDB84201DCEE4F41E0EE498842E5
:10FA000001DCEE4F3CE08122D205ED49904201DC61
:10FA10000F4635E0EB4A904201DCEB4F30E04127E6
:10FA20003F0688422CDDE94AE949904201DC0F4655
:10FA300026E0E84AB04201DC174621E0E64B984256
:10FA400001DCE64F1CE0E64B984201DCE54F17E095
:10FA5000E54B984201DCE54F12E0B84201DCE44F8F
:10FA60000EE0E44B984201DAE34F09E0884201DC02
:10FA7000E24F05E0904202DC8327FF0500E0E04F03
:10FA8000E048007806F096FE394606F0E3FE06F000
:10FA900075FDDD4ADD4B06F017FC05F0DDFF314654
:10FAA00006F094FD06F06AFDD94ADA4B06F08BF9B0
:10FAB00001E022E020E005F0CFFFD74906F0CAFEC2
:10FAC00006F034FED5498A6882188A60D44A516AA1
:10FAD00041185162D34AD368C018D060D2488068B8
:10FAE000002809D0D14A138D9B0605D4814203D347
:10FAF000108D202108431085E580F8BDF0B585B054
:10FB0000CA48008D0125C0044027002404AE002807
:10FB100044DA68460474242332220F211020009610
:10FB200001950294FEF7F0FB684604742E233222FE
:10FB30000F211020009601950294FEF7E5FB684620
:10FB40000774252332220F2110200096019502947C
:10FB5000FEF7DAFB7F2168460174302332220F2141
:10FB60001020009601950294FEF7CEFB68460474BF
:10FB7000242332220F211020009601950294FEF7D3
:10FB8000C3FB21216846017432231A460F2110203D
:10FB9000009601950294FEF7B7FB16E068460774DD
:10FBA000242332220F211020009601950294FEF7A3
:10FBB000ABFB4C21684601742E2332220F2110200A
:10FBC000009601950294FEF79FFB7249382208893E
:10FBD000904308814C828C829548847600204200B4
:10FBE0005218D482401CC0B23C28F8D305B0F0BDF6
:10FBF00070B4684908200A890243302082438C4847
:10FC000003230377520852000A8100220A603C2332
:10FC10004B8282768A82002043005B18DA82401C85
:10FC2000C0B23C28F8D383480280428082800A23F5
:10FC3000CB5E2426F64302247F480125B34201DA35
:10FC4000027604E0252B01DD047600E005760C2326
:10FC5000CB5EB34201DA427604E0252B01DD447627
:10FC600000E045760E23CB5EB34202DA827670BCAA
:10FC70007047252B02DD847670BC7047857670BC9A
:10FC80007047F0B585B0434F387A0006002840DA57
:10FC9000002469460C74012504AE252332220F216D
:10FCA0001020009601950294FEF72EFB4020694635
:10FCB0000874242332220F2110200096019502940B
:10FCC000FEF722FB4C20694608742E2332220F21B6
:10FCD0001020009601950294FEF716FB534D288DD7
:10FCE000800410D40126554876030022314600686E
:10FCF00004F0F1F8002803D0514A5249FEF7F1FC14
:10FD0000288D304328854A484477388980218843A4
:10FD1000388105B0F0BDF8B51E4D404E287A404FF1
:10FD20000007434C002833DAB86B401CB863F06915
:10FD3000401CF061688A00282BD0401E80B2688287
:10FD4000002826D13B4FB888401CB8803046818DB2
:10FD5000491C81853C490889401C08813B4A9078B0
:10FD6000401C90703C2068823B20431E5E00761948
:10FD70004000F68A4019C682D8B20028F5D1AB8A75
:10FD80000026EB82AE82A37E5B1CDBB2A3765FE033
:10FD9000EFE089E0E82A00203C240020A086010052
:10FDA0006E6E4C4F58E2E33F0000C0400000204020
:10FDB0000000404033335340000060403333734011
:10FDC0000000A040000090409A99C9406666A64095
:10FDD00000001041000020416666D640000030411E
:10FDE0000000E040000038410000F04000004841C1
:10FDF000000058419A99094100006041000070419B
:10FE00000000904144260020EC51B81E85EB913F44
:10FE1000FCA9F1D24D62403F00007A44242A002020
:10FE2000602A0020B82A002024260020F82900207B
:10FE3000A82B002044240020682B0020342400201C
:10FE4000DCF0010064040000A02A0020D82A002071
:10FE50003C2B01D93C23A376624B1B89DD0665D57B
:10FE6000604D9E062BD57E88761C7E805E4F7E8DF3
:10FE7000761C7E85CE88761CCE805179491C5171C6
:10FE80000021A27E002A08D946007619B67D711895
:10FE9000C9B2401CC0B28242F6D8282905D9302008
:10FEA00083432B810020A076F8BD052901D2282AA2
:10FEB000FAD3202083432B810020A076F8BD3E8812
:10FEC000761C3E80484F3E8D761C3E858E88761C83
:10FED0008E801179491C1171A27E322A11D3002122
:10FEE00046007619B67D7118C9B2401CC0B2824274
:10FEF000F6D8052911D8202003432B810020A076B5
:10FF00000BE00021002A08D943005B199B7D59189A
:10FF1000C9B2401CC0B28242F6D82829CED928895D
:10FF20001021884328810020A076F8BDFD886D1C33
:10FF3000FD802D4EF58D6D1CF5854D896D1C4D8117
:10FF4000D178491CD170A17E0A29EED30021254A1F
:10FF50004500AD18AD7D6918C9B2401CC0B20A2871
:10FF6000F6D30A29E1D21020034313810020A076A2
:10FF7000F8BDFFF7A6FC207F03282BD0F068401CBB
:10FF8000F060B86A401CB8621849C968002909D0F5
:10FF9000174A138D5B0605D4884203D3108D402188
:10FFA00008431085287A1349C00709D0F86A401C15
:10FFB000F8623069401C3061088B401C0883F8BD32
:10FFC000386B401C38637069401C7061C88A401CE3
:10FFD000C882F8BDB86B401CB863F069401CF06182
:10FFE000F8BD98E6E82A0020242A002024260020D4
:10FFF000F8290020B82A002010B50446FF219131CD
:020000040002F8
:10000000204605F032FC002909D06421204605F085
:100010002CFC002901D0A00701D0002010BD012038
:1000200010BD10B586B0ABA14A680968059204916D
:10003000AAA18C684B680A68C9680294019300926F
:10004000039100220388591E89B2FF241934A1426A
:1000500004D3FF39193989B2A142FAD21C2903D33A
:100060001C3989B21C29FBD2042905D3091F89B286
:10007000521C92B20429F9D204ACA25C511889B284
:10008000072901D3C91F89B282786C46A45C611824
:1000900089B2072901D3C91F89B2C078401884B238
:1000A000072C03D3E41FA4B2072CFBD2032A07D3E7
:1000B0001846FFF7A1FF002802D0E0B206B010BD3D
:1000C000002C04D0641EA0B2C0B206B010BD062041
:1000D000FAE710B504460020A0716071207101207C
:1000E000E070A070814820802046FFF79AFFE07101
:1000F00010BD70B588B002467D48034678CB0496A3
:1001000003950294019344690369806906940593F9
:100110000790500001AB1C5A022A06D10846FFF78F
:100120006BFF002801D0641CA4B2E0B208B070BD1F
:1001300010B504462188A078FFF7DBFF0146E07880
:10014000814202D0401CE0700BE00121E170A078F8
:10015000401CC0B2A0700D2803D1A1702088401CA3
:1001600020802046FFF75DFFE07110BD10B581795A
:10017000491CC9B281713C292CD10023837141797A
:10018000491CC9B241713C2913D15A4C0122216842
:1001900092021143216043710279521CD2B2027162
:1001A000182A06D103710122520211432160FFF780
:1001B000BFFF5149088800280CD0401E80B208803B
:1001C000002807D18720400108804C491022087878
:1001D00010430870FFF7E8FB10BD4949887A401CBE
:1001E0008872C00701D000BF70474649088D0122C0
:1001F00010430885704770B5424D288DC0074DD01B
:10020000288D4008400028853F48FFF7AFFFFFF7E3
:10021000E8FE3E4908220878104308703C493D4CEE
:10022000087800280AD0401EC0B20870002805D106
:100230002088800502D5002001F047FE3649087865
:10024000002801D0401E0870288D000615D5208892
:100250000221C2070140D20F114301D041060CD543
:10026000C00403D5012001F02BF902E0002001F0C9
:1002700027F9208829490840208029490878002842
:1002800001D0401E087027490878002806D0401E7B
:10029000C0B20870002801D1FDF79AFE70BD194860
:1002A000018D022211430185704710B51548018D5B
:1002B000890700290CDA018D022291430185008D06
:1002C000C00505D51848007A400601D4FFF765FA45
:1002D00010BD000000050301060402000000030336
:1002E000060104060205000305000000DF07000008
:1002F00004690200182400204C2400206C240020F3
:10030000182A0020F82900204E2400207024002004
:10031000B2240020B8240020B5240020BFEF000044
:10032000B624002006240020E82A0020F6491020E8
:100330008860F649002008607047F6490320F44AB7
:10034000086000211060101D0160F04802228260E8
:10035000C1600122026192064262EF4A07205061A9
:10036000EE488160E2E7ED4900208860E7490860D7
:1003700001200860E4491020C8607047E44800216B
:10038000C160032212044261E548C278520852005B
:10039000C2700171CAE7E2480021C1708171C17168
:1003A0004171018141818181C181E7E7D848002104
:1003B000416103221204C260D9480123C2781A4362
:1003C000C2700171704730B4D54C01212079CF4DF6
:1003D000002814D0224651799279012815D0FE28A0
:1003E0001AD0D04B1B18203B9B7FEB614B406371B5
:1003F000521C904218D9FE20207130BC7047A420B6
:10040000E8616071217130BC7047EA6151406171EF
:100410000220207130BC7047BB4A10209060E96117
:10042000FF20207130BC7047401C207130BC7047E9
:10043000BB480179FF2902D1002181719EE77047F5
:10044000B7490879FF2808D0401C08710979AF48DE
:10045000012906D0FF21C1617047AB4A102090608E
:10046000F4E7A521C1617047F0B4142900D3142129
:100470008407A40FAA4E70893789C31B9D06AD0E51
:1004800040235B1B4D1CAB4203D8F0BC0020C04393
:1004900070478B069B0EA4012343A34C2354401C9E
:1004A0008006800E70810020002909D97389155CAF
:1004B000E5545B1C9B069B0E7381401C8842F5D360
:1004C000B07AC01B8106890E4020401A142803D838
:1004D000F0BC0020C0437047F0BC00207047F0B56E
:1004E000924A1778924E934B1146103F8C4C3078BD
:1004F00049781D78072F0ED23B007B441B79DB180F
:100500009F44030F090A132F21000423184330705E
:10051000217090786070F0BDA170082108433070A0
:10052000F0BD012108433070F0BD032DFCD3521CF7
:1005300014210020FFF798FF0028F5D0E078022171
:100540000843E070F0BD032DFCD3521C14210120A0
:10055000FFF78AFF0028F5D0E17802200143E1701F
:10056000F0BD022108433070F0BD00B56C4B197925
:10057000012912D01A465279022911D0FF2913D02D
:1005800042405A71694A5218203A5077D879801CF3
:10059000814201D9FF20187100BDA520587100BD0E
:1005A00042405A71D87100BD904201D1FFF797FFC8
:1005B000FFF7E4FE00BD70B4594C8026E389257B2B
:1005C0005D1B6D066D0E761B851CAE4203D870BC9C
:1005D0000020C0437047584D461CEE545B1C5B0620
:1005E0005B0EE9545B1C5906490EE181002100288D
:1005F00009D9E389565CEE545B1C5B065B0EE38114
:10060000491C8142F5D370BC00207047F0B4444CC3
:10061000A089E689B0421FD0474F395C491EC9B254
:10062000A171401C4006400EA081142901D3142062
:10063000A0710020A579691C00290DD9394A6D1CCB
:10064000A1897B5C1354491C4906490EA181B14222
:1006500002D0401CA842F3D3F0BC7047F0B404466B
:100660002F4B19895889814202D10020F0BC704774
:100670002D4E705C491C8906890E19818206920EE6
:10068000142A02D91422D42108400021002AEDD9CD
:100690001D89755D65541D7A6D1CAD06AD0E1D81FD
:1006A0005F89BD42E2D0491C9142F1D3F0BC704752
:1006B00030B585B00024009401940294039404940E
:1006C00069460C7001254D7000A807221B490230B5
:1006D00005F016F86A4681211420FFF76CFF00949C
:1006E0000194029403940494FF20694608704D70AD
:1006F0006A4681211420FFF75EFF1148018DEA024E
:100700001143018505B030BD000500500045004093
:1007100000070050080700504045004000410040DD
:1007200058240020C82B0020F22B0020DD2B0020B5
:100730006824002038240020322C00204E24002081
:10074000F829002070B46B49032088716A49802021
:1007500008706A48007848706948008D694B060641
:100760000122022400251888002E05DAC60701D0D0
:100770004A7002E04C7000E04D708D70050400D5A9
:100780008A70420402D58A7822438A708004800CE1
:100790001880FF20C87070BC7047F8B55549092013
:1007A0008871554E822030705748C0797070574F0D
:1007B000574C786800284ED0616800294BD06422DD
:1007C000504305F052F805F0F5FF524DA84200DD08
:1007D000284605F0ABFFB070000AF0707869002879
:1007E0003BD02168002938D06422504305F03DF801
:1007F00005F0E0FFA84200DD284605F097FF3071C4
:10080000000A7071786A002829D0A168002926D0D2
:100810006422504305F029F805F0CCFFA84200DD22
:10082000284605F083FFB071000AF071B86A00280D
:1008300017D0E168002914D06422504305F015F860
:1008400005F0B8FFA84200DD284605F06FFF3072C2
:10085000000A7072F8BD0020B7E70020CAE7002048
:10086000DCE70020EEE7234A042090712249832030
:10087000087050694870030A8B70030CCB70000E2F
:10088000087100205061704770B504462078194DFA
:1008900000280FD104222049204604F091FE0028B0
:1008A00004D0E878FB210840E87003E0E8780421F0
:1008B0000843E870E878400704D52178032903D07D
:1008C000FF290CD0012070BD14221449204604F0E9
:1008D00077FE002801D0002070BD012070BD1422D9
:1008E0000F49204604F06CFE002801D0002070BDA6
:1008F000012070BD58240020C82B0020382400207F
:10090000F8290020B824002044260020602A002076
:1009100024260020000096431E690200226902007E
:10092000366902000978112913D0142911D015292C
:1009300002D0212916D10CE09348042102880A43F1
:10094000028092480170924801220178114301709F
:1009500008E0904902780A7142784A7182788A7177
:10096000C078C8710020704710B51046002803D029
:1009700089A24E21FDF7B5FE10BD70B5FF258D355E
:1009800000232A468849894803F0D6FE884C894EC0
:10099000002802D1A068B0420CD0FF22294683482B
:1009A00004F03AFFA660844940224878104348701A
:1009B000012070BD002070BDF8B500200090754882
:1009C0006946007808700524784E7B4F355D082D08
:1009D00017D26846857004F04DFA002803D06EA245
:1009E0007A21FDF77EFE30204543A8190830FF220A
:1009F000302104F011FFFF20305578784021084362
:100A00007870641C082CE1D3F8BD70B586B0012461
:100A10006A4804F062F8002803D05FA29221FDF733
:100A200060FE03F0E9FC002803D05BA29621FDF7ED
:100A300058FE634842696349521C02D00969406903
:100A400000E0486901266946CE80FF208D3088800D
:100A50005D4800905449684603F00DFD002803D01E
:100A60004DA29F21FDF73DFEFFF787FF00250028DF
:100A700001D0059600E0059505A804F0F9F80028D6
:100A80001AD0059605A804F0F3F8002803D042A276
:100A9000AD21FDF726FEFF220821444804F0BCFEEC
:100AA000FF21FF228131494804F0B6FE424840222E
:100AB000417811434170002469460D824D821E2009
:100AC000C881087C3043FD210840E32108400C30F8
:100AD000DF21084069460874072048741020887494
:100AE0003B4802900E7302A92A4804F068F90028D6
:100AF00003D029A2C421FDF7F4FD002C01D0FFF79B
:100B00005BFF06B070BD10B50121324A084603F004
:100B1000C9FE002803D020A2D421FDF7E2FD10BDBC
:100B200070B51A48007804282DD12B4D2B4E28780B
:100B3000184C06280CD13078062809D36078410774
:100B400006D404210843607000F079FC00F07BFCBF
:100B50003078062817D12878062814D36078010742
:100B600011D408210843607002F083FA02F085FA7C
:100B70001B4C0222A088002102F083FAA0880222E6
:100B8000012102F07EFA70BDB82400203824002034
:100B900068240020742400202E2E5C6D61696E5F35
:100BA000626C652E630000007C240020B42C0020C1
:100BB000342E0020160814207024002078240020F1
:100BC000001000100000001069090200BC2C002079
:100BD00025090200854802008424002010250020F9
:100BE00028250020FE4907200870704738B50220EC
:100BF00069468870FB480880F94C6A460121A08844
:100C000090DF002802D0FFF7EDFF38BD03202070F1
:100C100038BD38B50020F449F44ACB88F04C9342F3
:100C200007D188886946401C08804880A08893DFE7
:100C30000AE0EF49CB88934206D188886946401C78
:100C400008804880A08893DF002802D0FFF7CAFF01
:100C500038BD0520207038BDE6498A78E049808893
:100C60008880082A1FD230204243E34810180289A6
:100C70008A824289CA8282890A83C2894A830A4651
:100C8000038A9383438AD383838A1384C38A5384D6
:100C9000038B9384438BD384838B1385C08B5085C4
:100CA000012008707047A1E730B4CD4C0146A08800
:100CB00092DF002801D030BC94E70420207030BCC3
:100CC000704708B5C18800290ED1818900290BD051
:100CD000C34A418AD180808A10816A46118050803F
:100CE0006846FFF7E1FF08BDFFF77CFF08BDF8B5D8
:100CF000C1880A46FF3A0B3A01D0093211D1BA48ED
:100D0000808800280AD0BD488088002806D0B848CE
:100D10008088002802D0FFF77CFFF8BDFFF762FF54
:100D2000F8BD002902D0FFF75DFFF8BD00220023C7
:100D30008189002921D9B24DB24EB34F0A215943BE
:100D40000A180E3200211488AC4201D1A64906E0EF
:100D5000B44201D1A94902E0BC4200D1A449002912
:100D600007D00C8054884C8014898C800024E44384
:100D7000CC805B1C81899942E0D89948002A09D02F
:100D800011896A46491C1180008950806846FFF726
:100D90008BFFF8BDC1886A46118000895080684683
:100DA000FFF782FFF8BD10B5C1880A46FF3A0B3A3B
:100DB00003D0093201D0002902D0FFF713FF10BD84
:100DC0008189894B8A4A00290FD00E3041888F4C87
:100DD000A1420AD100889C88411E8C4201D1D88052
:100DE00003E094888C4200D1D080D9887F4881422A
:100DF00002D0D188814202D1FFF70BFF10BD7849A4
:100E00000620087082490320087082494878C20988
:100E1000F4D1802210434870764803F0FFFF002889
:100E2000ECD0FF217CA24B31FDF75BFC10BD00B57F
:100E300089B06B490978062902D0082009B000BDA5
:100E400000216A461171837A5371C37A9371037BCF
:100E5000D371407B10720120507220239372D172A3
:100E6000664A93886A4653820823D382918210741B
:100E700001A8069004A801F0E9FC09B000BDF0B596
:100E800083B00546A88800900024009800287CDDE7
:100E9000674E30462830029020380190504FF86855
:100EA00009283FD203007B441B79DB189F44040AC6
:100EB00010161C22282E3B00281980793070012042
:100EC000F86007E12819807970700220F86001E16C
:100ED00028198079B0700320F860FBE02819807928
:100EE000F0700420F860F5E0281980793071052051
:100EF000F860EFE02819807970710620F860E9E069
:100F000028198079F0800720F860E3E029198979B1
:100F1000F08809020843F0800820F86001983861E1
:100F200000207881D6E03869029988422DD2019953
:100F300088422AD3291989790170401C386179893E
:100F4000491C89B27981F2888A4247D10021017017
:100F5000401C38610520F860B8787A89410135482D
:100F60000818019904F0CCFBB878401CC0B2B870E6
:100F7000012834D108222F492FA004F071FB00284A
:100F80007ED006222B492FA000E0A8E004F068FBE9
:100F9000002876D0082227492CA004F061FB002805
:100FA00070D0092223492CA004F05AFB00286AD0F3
:100FB000072220492BA004F053FB00287ED00522F5
:100FC0001C492AA004F04CFB002878D00A221949B9
:100FD00028A004F045FB002872D055E07AE074E0C8
:100FE0008424002031F4000098240020FFFF00003A
:100FF000A824002078240020B42C0020A024002065
:101000000D120000F3D80000E9C60000022900001C
:10101000B5240020702400202E2E5C736572766942
:1010200063655C626C655F616E63732E63000000D4
:10103000802E0020402E002057686174734170702C
:1010400000000000576543686174000046616365F5
:10105000626F6F6B000000004D657373656E6765AE
:10106000720000005477697474657200536B797074
:10107000650000005961686F6F204D61696C000068
:101080002FE03BE047E053E00522F149F1A004F0F6
:10109000E7FA00286CD00222ED49F0A004F0E0FA53
:1010A000002873D00A207870ED4808220178114397
:1010B0000170EC4802224178114302E045E047E02C
:1010C00049E041700020F860B870B878012801D973
:1010D0000020B870641C0098844200DADEE603B099
:1010E000F0BD05207870DE488022417811434170C0
:1010F000DC480222417811434170E3E70620787012
:10110000D7488022417811434170D6480222417865
:1011100011434170D6E707207870D14840224178CA
:1011200011434170CF480222417811434170C9E711
:101130000B207870CA484022417811434170C94859
:101140000222417811434170BCE708207870B9E76A
:1011500009207870B6E70D207870C14820224178C8
:1011600011434170BF480222417811434170A9E701
:101170000E207870BA482022417811434170B94856
:1011800002224178114341709CE7FFE70F207870FD
:10119000B3488022417811434170B248022241781D
:1011A000114341708EE7F8B500210C30AE4B028838
:1011B0009B889A424CD18388022B49D38279002A9A
:1011C00045D1A74E077A32787578A84C072F37D2C9
:1011D0003B007B441B79DB189F441E030B32191321
:1011E000220001231A433270A14A0325157063704F
:1011F0001EE002231A4332709D4D04222A70637050
:1012000016E01022154375700322627010E0012170
:10121000984A437A137013E00C216170012107E0B2
:1012200004226270202215437570914A09231370BD
:10123000904A437A13708B4A022553782B4353709C
:10124000012904D1FFF7F3FD0020E060A070F8BD94
:10125000894989888A42FAD181880229F7D3FFF720
:101260000EFEF8BDF8B502210091804D00242C70CF
:10127000002825D06946814863DF002803D0804AD2
:101280008049FDF72EFA6E46711C7F4863DF002807
:1012900003D07B4A7D49FDF724FAB11C7C4863DF0B
:1012A000002803D0764A7B49FDF71BFAF11C7A48E7
:1012B00063DF002804D09B21714A8900FDF711FAF1
:1012C000AC82EC822C8369488483C4830484848444
:1012D000C484048572497148C8800839C8801031B7
:1012E000C8807049FB22087810400870F8BDC1889A
:1012F0006A4A914208D000886B49884202D06B4903
:10130000884201D1012070470020704770B50188E4
:10131000674A9378554C11290CD02278654D072ADD
:101320003AD213007B441B79DB189F44363B35517E
:10133000565B6000082B2CD24B48FFF7D8FF0028E3
:1013400027D04D48FFF7D3FF002822D03020434359
:101350005948A18A18180181E18A4181218B818134
:10136000618BC18141498A8B0282CA8B42820A8C7D
:101370008282498CC1823D498A8C0283CA8C428315
:101380000A8D8283498DC1834C48402241781143A4
:1013900041700020FFF766FF70BD1029FCD1FFF7F8
:1013A0005BFC70BD172901D01429FAD12E48FFF734
:1013B0009EFF002809D03048FFF799FF002804D08D
:1013C000062020700320287070BDFFF70FFC70BD51
:1013D0003029FCD1FFF775FC70BD3229FCD1FFF735
:1013E00086FC70BD3329FCD1FFF7DDFC70BD3829C8
:1013F000FCD129780029F9D1FFF7D5FE70BD00B5E1
:1014000087B01A4A1278062A02D0082007B000BD19
:1014100001230022002902D069460B7101E06946D0
:101420000A7169464A7148810220C8818A810B721B
:1014300001A8049002A801F009FA07B000BD0A480B
:101440000121C088DBE70C480121C088D7E70000F4
:10145000402E0020476D61696C0000005151000072
:101460006C2400206824002098240020842400207C
:10147000392400203A240020A82400204A690200D0
:1014800018100200630200005A69020066020000A0
:101490006A690200690200007A690200FFFF000029
:1014A000A0240020752400200D120000E9C60000D1
:1014B00078240020B5240020B42C002070240020C3
:1014C00030B585B0002400940194029403940494F0
:1014D000FE4901250D7069460C700C72002802D07F
:1014E0002820088202E0FA48694608821E206946E0
:1014F0004882684673DF002803D0F6A2FB49FDF757
:10150000F0F8FB4A108928431081FA4801782943F2
:101510000170147005B030BD10B5FF21EDA2E431AB
:10152000FDF7DFF810BD10B50068002803D00128D2
:1015300000D100BF10BDF0483B21008876DF0028B5
:1015400004D0FF21E3A2D131FDF7CBF8E848EB4A04
:1015500001891140412211430181E64901230A78A2
:101560001A430A7000210170817010BD00B589B066
:1015700000200090019020216A4611804021518076
:101580009080FF219131D1800590069069460291AB
:10159000DB490391049103211175DA494989D1820C
:1015A0001076D9480790D948089002A802F049F867
:1015B000002804D0FF21C7A2BE31FDF792F809B080
:1015C00000BD00B5A1B006200290D148016801918C
:1015D000406800903C2112A804F045F93C2103A882
:1015E00004F041F902201290002010A94873012054
:1015F000088202A9159110A9888501A91C91694644
:10160000088568460B9003A912A801F0A6FF0028E0
:1016100003D0B0A29821FDF764F821B000BD30B42A
:1016200090B00022089208AD2B7801231B071B0FF6
:1016300010332B706B7801231B071B0F10336B705B
:10164000AB78F92423409B1CAB7009920B920C924F
:101650000D920F922B7904252B4310252B4308ADB7
:101660002B71ACA30A930D236D46AB85EB8508ABBC
:101670000E930623AB72AB4B2B810192AB792340C7
:101680009B1C2C7900242407240F2C716C790124D5
:101690002407240F10346C715B085B00AB7105925A
:1016A000069202AA039201AA04921422AA822A8311
:1016B0001031079184880346163303AA09A92046EE
:1016C000A2DF10B030BC704710B48FB00021089179
:1016D0000A910B910C910D910E9108AB1A7804238D
:1016E0001A4308AB1A7090A2099207226B461A851A
:1016F0005A8506229A728E4A1A8101919A79F923A3
:101700001A40921C6B461B7900231C07240F6B4662
:101710001C715B7901231C07240F10346B465C712C
:10172000520852009A7105910691079102AA0392FC
:1017300001AA049214229A82D9821A8384880346C9
:101740000E3303AA08A92046A2DF0FB010BC7047D1
:1017500070B48FB0002207926E46337F01231B07BF
:101760001B0F10333377737F01231B071B0F1033BD
:101770007377B37FF9252B409B1CB37708920A92AD
:101780000B920C920E9208AE3378102423433370E0
:1017900068A3099307236E463385738507AB0D93C2
:1017A0000623B371654BB3800092B4782C40A41C1F
:1017B000337800231B071B0F3370737800231B073C
:1017C0001B0F737063085B00B3700492059201AA4B
:1017D00002926A46039214223282B282103106913A
:1017E0008488831D02AA08A92046A2DF0FB070BC1E
:1017F000704730B585B004460D462868206000204B
:10180000C043E083284610300FC820340FC4303C5A
:10181000286A2063062069468874494808823C4B40
:1018200008330FCB039302920191009004A9023177
:10183000684663DF002817D1221D04A90120A0DF1C
:10184000002811D129462046FFF782FF00280BD13E
:1018500029462046FFF738FF002805D129462046B3
:10186000FFF7DDFE0028FFD105B030BD00B589B01F
:101870000020009001900290039004900590069043
:101880000790089001200007000F10306946087289
:1018900001200007000F1030487201200007000FE0
:1018A0001030087300200007000FC87201200007E5
:1018B000000F1030487301200007000F10308873AC
:1018C0001048FFF796FF002840D03BE03824002066
:1018D000320300002E2E5C736572766963655C626C
:1018E0006C655F696D617A652E6300000D04000010
:1018F000B02400206824002076240020711A000003
:1019000000E20400A82E002027150200191502008D
:101910008C6902004E65766F204669726D77617240
:1019200065000000233000004E65766F205278007D
:10193000223000004E65766F205478002130000080
:1019400020300000F94AE621FCF7CBFE09B000BDCB
:1019500000B591B04021684603F085FFF4A16846C8
:1019600001F02EFEF4A104A801F02AFEF4A108A8BB
:1019700001F026FEF3A10AA801F022FE01200007D3
:10198000000F103008A9087700200007000F4877E3
:10199000684601F032F8002803D0E44AD021FCF771
:1019A000A0FE11B000BD00B585B001200007000FFA
:1019B000103001900422E4A101A87CDF002803D0AC
:1019C000DA4A5521FCF78DFEC12078DF002803D0CC
:1019D000D64A5921FCF785FE002002900390202171
:1019E0006A461181402151819081FF209130D08140
:1019F00002A87ADF002803D0CC4A6421FCF771FEEC
:101A000005B000BD10B50020FEF7FFFF00F09CFE02
:101A10000120FFF727FC01F02BFAFFF7C4FFFFF7C7
:101A200097FFFFF723FF0620FFF7CBFDFFF79EFD93
:101A3000C748018D8022114301850120FFF740FD39
:101A400010BD70B504460020C24D295CA14208D1EA
:101A5000072809D207210A1A2818411C03F0B4FEEE
:101A600002E0401C0828F0D30722BA49681C03F0A2
:101A7000ABFE2C70B848402241781143417070BDD4
:101A8000F8B50024B64AB54D1778018801222B8994
:101A90001743152967D008DCAF4E0129327863D08F
:101AA00010290BD011295ED126E0172960D0192901
:101AB0006AD0352965D0372978D15FE08188A94877
:101AC0000180A9480178032901D203210170580837
:101AD0004000A64908432881A14807700020A8714A
:101AE0001E20A87070784006400E7070FB200240E7
:101AF000DF200240327059E08079E8712A2801D154
:101B00000420A8719A488078FF2801D0FFF799FF38
:101B1000974802F0E2FF04462046002803D0834A9B
:101B20009449FCF7DEFD00F00FFE00218D48C9430B
:101B3000018028899049084041210843288188482C
:101B400001220178114301703078FB210840DF2128
:101B5000084000212970A970FD210840307070787C
:101B60004006400E707021E0FD20024032701DE002
:101B7000807900281AD10320687117E000F00CFE6C
:101B800014E000F009FE11E08079002802D001285D
:101B90000BD00BE078480340412003432B81704871
:101BA000077000202870A87000E000BF20460028C1
:101BB00003D05E4A7149FCF794FDF8BD70B5674CDF
:101BC0001E20A070088B142817D108461A3005462D
:101BD000FEF75AFE002810D02A4684211420FEF772
:101BE000EAFC002809D020890121890308432081CB
:101BF0005B48012201781143017070BD70B5044645
:101C0000564D20262A891046D1063043002901DA94
:101C100028813EE02178002903D093060BD50020CF
:101C200070BD00202871B2432A81142221465448F5
:101C300003F066FD1DE0FF2908D0EA78FE2A09D0EE
:101C4000521C91420BD02881012070BD102002430C
:101C50002A8104E0012902D02881012070BD287961
:101C600012214843464912224018801CA11C03F04F
:101C700047FD2078E8702879401CC0B228710428FC
:101C800007D12078FF2804D02889304328810120FB
:101C900070BD002070BDF8B508461A3000902F4C7A
:101CA0001E22A270098B14290AD14178F22908D08A
:101CB000F32906D00A46203A202A05D2FFF79EFFD4
:101CC000F8BDFFF79BFFF8BD0126491EB603244D62
:101CD00001271F290CD2FFF791FF012805D1208988
:101CE00030432081287838432870207A8006EAD44F
:101CF00081211420009AFEF75EFC0028E3D02089A1
:101D000030432081287838432870F8BD088B02289A
:101D10000AD1124A8B7E1089012B02D1C97E00297B
:101D200032D018490840108170470000D4180200D2
:101D3000446179746F6E0000323334353600000030
:101D400031380000303000004E65766F0000000032
:101D5000F8290020B42C002070240020B02400209A
:101D6000682400207624002038240020021200007D
:101D7000782400204E020000711A00009D0200002D
:101D8000DC2E0020FFDF0000012149030843108101
:101D9000F348FD22017811400170704710B4088BA0
:101DA00002280AD1EF4A8C7E08231089012C02D127
:101DB000C97E002903D09843108110BC7047184396
:101DC0001081E748FD2201781140017010BC704776
:101DD000E44A891D11610A8843899A4200D1DDE7EE
:101DE000438B9A4200D191E7C3899A4200D152E7CE
:101DF000C38A9A4200D1E1E670470021C943C183FA
:101E000070478988C18370470A88102A04D0112A34
:101E100003D0502A02D1DBE7F3E7EEE7704710B5B5
:101E20000446204603F0CCF82146CF48FFF7ECFFEC
:101E3000204601F0AFFC2046FFF768FA204601F08B
:101E400044F82046FFF71CFE10BD10B5C74813210B
:101E5000008876DF04462046002803D0C44AC549DE
:101E6000FCF73FFCE0B210BD70B5BE4C2089C10745
:101E700001D074DF03E0800701D5FFF7E6FFBE481D
:101E800000250570BD48018D802291430185BC4825
:101E9000012201781143017000F056FCB349681E1D
:101EA00008802089B74908402081AD48FB2201788D
:101EB0001140DF2211402570A570FD2211400170F4
:101EC00041784906490E417070BD00B585B0A749FB
:101ED000AD4A0988914222D00022029203926B46B9
:101EE0001981A04B0028198908D068464281012039
:101EF0004002014319811E20987005E00C206A46BB
:101F00005081A2480140198101A8039002A9202014
:101F100068DF002803D0964A9D49FCF7E2FB05B034
:101F200000BDF0B58BB08F4D28894105002912DB2B
:101F30008B49097889070ED496490A7896490B7817
:101F4000D21A920607D0AA78002A06D0800504D4B7
:101F50000120FFF7BAFF0BB0F0BD01266FE00021B2
:101F60000091019169468E7004A9029105A903911F
:101F7000810911D069460C7D2989890447D51E2124
:101F8000A970794A6B46D18A19808006800E049028
:101F9000D08B6946A6DF3BE06846047D287A0007BF
:101FA00009D51E20A87070496A46C8881080C88B61
:101FB0006946A6DF00E0002000280BD07749884260
:101FC0001AD17548078066480222017811430170D2
:101FD0000BB0F0BDFF2C32D128890122C10BC903FF
:101FE0009203024011432AD08004800C2881644867
:101FF00001783143017022E028890121C903084397
:1020000028815F480178314301700BB0F0BD00209A
:10201000002803D061498842EED1D2E7FF2C0ED1CF
:1020200028890122C10BC90392030240114306D043
:102030008004800C28815248017831430170564851
:102040000078C7B205A8FEF709FB80B204908106AC
:1020500085D10BB0F0BDF0B59DB04248007AC00606
:10206000002879DA4E4D04266A78284680781C903C
:10207000F22A2CD04B48F32A006836D02846C17883
:102080001B918179037A012A35D04648B402006851
:1020900020431A904448022A878B5ED03248C48E6F
:1020A000058F30480078411CC9B28C464100411868
:1020B000202A53D0212A52D0222A7FD0232A7ED010
:1020C000262A7DD0242A7CD0252A7BD026E12448CC
:1020D0001C990078002903D02149304308701DE184
:1020E0001F49FB221040087018E101222D4992037C
:1020F0001043086012E11B982C4C00021C9A8018B7
:1021000020802879A0706879E0702171E879607189
:10211000A3712046FDF785FF1848018D0122D202E8
:10212000114301852248228801888A4207D1A1787B
:102130008278914203D1E178C078814271D01D4804
:102140000178491C01701C480078FBF7E0FAFBF7A6
:10215000CBFAFBF7BAFAE1E0E5E034E062E070E0E8
:1021600070240020B0240020A82E00207624002017
:10217000D4180200B703000038240020F8290020FA
:1021800068240020301A0000FFFF0000FFFD00005F
:10219000DA030000622400206024002004300000E4
:1021A000DC2E002018240020242600204E240020AD
:1021B000602A00200B2400200D24002061E07AE03A
:1021C00088E090E098E0FF4AFD48174087831C9A1A
:1021D000002A01D037438783002903D0818B08224E
:1021E00011438183A97A002903D0818B10221143E6
:1021F0008183A97B002903D0818B20221143818315
:10220000A97C002903D0818B402211438183A97DC1
:10221000002903D0828B80210A438283EA491A98DD
:1022200008607BE0E64AD4831584E74A1A9B136072
:10223000E64A1E2872D2E64B2020585460461070A1
:102240006CE0DF4AE34E9482D582748F1483BC081D
:10225000A4009483DD0702D001252C4394839B07BF
:1022600003D5938B022423439383D74A1A9B13608D
:10227000D64A1E2852D2D6482123435460461070B5
:102280004CE0D44BCE4A1C463834F0CCF0C2103A65
:102290009B6C1361D04A1C9B93711B9BD371CA4AE0
:1022A0001A9B1360C94A1E2838D2C94822234354B6
:1022B0006046107032E0C24A54849584C24A1A9B28
:1022C0001360C24A1E2829D2C148232343546046C2
:1022D000107023E0BD4A1E2820D2BD4B2620585442
:1022E000604610701AE0B94A1E2817D2B84B242055
:1022F00058546046107011E0B44A1E280ED2B748F8
:102300001C9B0078834209D2B14825234354002303
:10231000081843701C99817060461070AB481021FA
:1023200002898A430281A94CF2222789F323F80506
:10233000002870DAAA48007880076DD4A9480021E7
:1023400041608160C160016141616078262842D0AE
:1023500006DC0322A44B242857D0252804D1DAE038
:10236000F2280DD0F32827D0A04AE16811705070F0
:10237000012919D0E068401CE060FF287ED071E19F
:102380009A49E06808704A7000280DD1984A50892F
:1023900088700012C8709089087100124871D08945
:1023A00088710012C871E5E79048FF21017020890B
:1023B000904908402081DDE78C4AE0681070537036
:1023C0000028F1D18C48008D400502D50120907085
:1023D000D0E79170CEE78549E068087026224A7000
:1023E0000028E1D1854840688870020ACA70020C52
:1023F0000A71000E4871724840688871020ACA71F9
:10240000020C0A72000E4872B4E77B48008D400748
:1024100003D51A7003E032E16BE1FBF7F9F8734979
:10242000E068087024224A70002835D06B48007894
:1024300005282CD3724805780020002D67D06D1E2A
:10244000ADB2401C80B20428F7D36E49280340186F
:1024500002226D49FBF744F860480078401F87B2BC
:102460000026002F13D9002D53D06D1EADB25F484A
:10247000B1000918091D2A03644800E0F0E01018B3
:102480000422FBF72DF8761CB6B2BE42EBD35348BC
:1024900001785648017387E7594805784F48027814
:1024A0005B4B524918888870000AC8709878087188
:1024B000D8784871521E96B20027002E15D0002DF4
:1024C00021D06D1EADB24948B90009184F482A0302
:1024D0001018891D0422FBF703F8761EB6B27F1C84
:1024E000BFB2032F01D0002EE9D1002E8CD0002DD9
:1024F0000BD06D1EA8B201034448022208184549BA
:10250000FAF7EEFF36E70625DDE70620F3E70625B6
:1025100097E70625ABE7354EE068307025217170EE
:10252000374909780D466789002F07D0002D15D04F
:102530006D1EADB27F1EBFB2002FF7D1052822D885
:102540008D420DD101A8FBF708F901A8E16812221C
:1025500051430918B01C03F0D3F80BE70625E9E74F
:102560002548008D400701D51A7001E0FBF750F8AF
:10257000E068122229035043091824480818B11CA6
:10258000FAF7AEFFF6E61C48008D400701D51A7039
:1025900001E0FBF73DF8E0680321801F03F065F9D7
:1025A00080B2174A127895424AD1194A127982426A
:1025B00046D10D461848122169430F18FF222DE01D
:1025C0002426002003FE000018240020B024002050
:1025D000402F0020A82E0020442600200B2400209D
:1025E0005B240020282F0020062400202C2F002010
:1025F000E82A0020FFFE0000F8290020602A0020C1
:102600000D24002002603F002E2F002000603F00BC
:102610004E2400203E2F0020B82A00201221B01C9A
:1026200003F0FAF8022D05D012223946B01C03F04F
:1026300067F810E03C48397881717978C1710AE017
:102640003A4B2A03D21880018018122251430818ED
:10265000B11CFAF745FFE0684D2800D1A4E689E6F1
:102660000120E060324A14210020FDF7FDFE002821
:102670003FD03048022201781143017039E02E49E1
:102680000878450706D5050704D56270F722104083
:10269000087026E0820604D56370DF2210400870BF
:1026A0001FE020788446002823D0244A10786070E8
:1026B000507891780002401860810020431C590036
:1026C0005D184100565D41185654A8184578891880
:1026D0004D708078887098B21D28EFD36046401EF8
:1026E00020700020E060FF200130074380208743F6
:1026F000278111480078800714D4114C114D20789F
:102700002978401A800601D0FFF70BFC2078297841
:10271000401A8006800E202804D80648FD22017841
:10272000114001701DB0F0BD282F002000613F0056
:102730002C2F00205B24002070240020402F00203C
:10274000622400206024002010B5FF210131504890
:1027500003F087F84F4800210170417010BD30B47C
:102760004C4C62782378D21AD2B28A4203D200202B
:1027700030BCC0437047002200290AD9444D237859
:10278000EB5C0370401C23785B1C2370521C8A4254
:10279000F5D330BC0020704770B58CB03D4D6878E3
:1027A0002C78001BC0B2002824D0012104A8FFF718
:1027B000D6FF6846007C384E002806D010216846B7
:1027C000FFF7CDFF002813D10BE002210AA8FFF785
:1027D000C6FF00280CD16846018D0022308895DFA5
:1027E00011E06846017C05A8FFF7B9FF002803D077
:1027F000FFF7AAFF0CB070BD6946087CC88005A829
:102800000290308897DF0028F4D02C700CB070BD97
:1028100070B4204E72783378D21AD2B2FF239A1A4B
:102820008A4203D270BC0020C043704700220029B6
:1028300009D9174C05787378401CE5545B1C7370FC
:10284000521C8A42F6D370BC00207047F8B504468B
:10285000104E7578A079009001216846FFF7D8FFE7
:1028600000280CD110212046FFF7D2FF002806D106
:1028700069460978A068FFF7CBFF002803D0757080
:102880000020C043F8BDFFF787FF0020F8BD00001F
:102890009A2F0020C42400207624002070B504461E
:1028A0000D46002D01D0012000E00020002803D1BA
:1028B00096A23321FBF715FF002C01D0012000E088
:1028C0000020002803D191A23421FBF70AFF2878C9
:1028D00020702888FF2109020840000A60702868DB
:1028E00009020840000CA0702868000EE0702879EA
:1028F0002071287A60712889000AA071A868000CEC
:10290000E07170BD70B504460D46002D01D0012068
:1029100000E00020002803D17CA24B21FBF7E1FE60
:10292000002C01D0012000E00020002803D177A274
:102930004C21FBF7D6FE287820706988204641702C
:10294000090A8170A988C170090A0171E88860715B
:10295000000AA07170BDF0B58FB007460D46144651
:102960001E46002D01D0012000E00020002803D1E8
:1029700066A26D21FBF7B5FE002C01D0012000E01E
:102980000020002803D161A26E21FBF7AAFE0020DF
:102990000790089009900A900B900C900D906A4651
:1029A000117F022211436A461177012108AA91760C
:1029B0006A46178701903178117171785171917958
:1029C000F9221140891CF7221140EF2211404908D9
:1029D00049006A469171049005900EA9029101A9DF
:1029E000039114825082948206954E4802AA07A948
:1029F0000088149BA2DF0FB0F0BD30B585B004464F
:102A000001206946887448480882464A04A9012082
:102A1000A0DF002877D1228825463C35002A08D03F
:102A2000424800902B4642486168FFF794FF002817
:102A300069D12289002A08D03E4800902B463E48A2
:102A4000E168FFF788FF00285DD1228A002A08D0BC
:102A50003A4800902B463A486169FFF77CFF00280E
:102A600051D1228B002A08D0364800902B46364898
:102A7000E169FFF770FF002845D1228C002A08D0B9
:102A8000324800902B463248616AFFF764FF002805
:102A900039D1228D002A08D02E4800902B462E488E
:102AA000E16AFFF758FF00282DD1216B00290CD0D7
:102AB00002A8FFF7F3FE294800902B46082202A93E
:102AC0002748FFF748FF00281DD1606B002809D078
